:100000000C94EC010C94B40E0C94BE0E0C94C80E1F
:100010000C94D20E0C94DC0E0C94E60E0C94AF19DA
:100020000C94F00E0C940B020C940B020C944123D4
:100030000C94E2240C947E0E0C94940E0C944314B5
:100040000C946D0E0C94DB220C94A9100C940B02F2
:100050000C9425110C94AB120C940B020C940B0213
:100060000C94890E0C9478120C9457120C94621212
:100070000C946D120C948B120C943A120C940B028B
:100080000C944C120C940B020C940B02C414CB1461
:10009000BD14C414CB14BD14B614C414CB14BD14B5
:1000A000B614C414CB14BD14C414CB14BD14B614AC
:1000B000C414CB14BD14B614C414CB14BD1415153C
:1000C0001A15101515151A1510150B1515151A15E5
:1000D00010150B1515151A15101515151A151015DF
:1000E0000B1515151A1510150B1515151A151015D4
:1000F0007F1584157A157F1584157A1575157F156A
:1001000084157A1575157F1584157A157F15841554
:100110007A1575157F1584157A1575157F15841553
:100120007A15541E5F1E491E541E5F1E491E3E1E38
:10013000541E5F1E491E3E1E541E5F1E491E541E45
:100140005F1E491E3E1E541E5F1E491E3E1E541E4B
:100150005F1E491EB41EBF1EA91EB41EBF1EA91ECF
:100160009E1EB41EBF1EA91E9E1EB41EBF1EA91E2B
:10017000B41EBF1EA91E9E1EB41EBF1EA91E9E1E1B
:10018000B41EBF1EA91E67416B417741CC41D041CF
:10019000D641DA41DE41014218421C424F42A4429C
:1001A000B9429E43EF43F343F6432C44C4464D41CA
:1001B000A847B647964859495C49614968496B491F
:1001C0006E4971495E4A544184499C49284A5F41BD
:1001D000414A00002110422063308440A550C6608F
:1001E000E770088129914AA16BB18CC1ADD1CEE1F4
:1001F000EFF13112100273325222B5529442F7726B
:10020000D662399318837BB35AA3BDD39CC3FFF343
:10021000DEE36224433420040114E664C774A4447A
:1002200085546AA54BB528850995EEE5CFF5ACC593
:100230008DD55336722611163006D776F66695564A
:10024000B4465BB77AA719973887DFF7FEE79DD7E3
:10025000BCC7C448E5588668A778400861180228DA
:100260002338CCC9EDD98EE9AFF9488969990AA933
:100270002BB9F55AD44AB77A966A711A500A333AAA
:10028000122AFDDBDCCBBFFB9EEB799B588B3BBB83
:100290001AABA66C877CE44CC55C222C033C600C3A
:1002A000411CAEED8FFDECCDCDDD2AAD0BBD688DD3
:1002B000499D977EB66ED55EF44E133E322E511E8A
:1002C000700E9FFFBEEFDDDFFCCF1BBF3AAF599F23
:1002D000788F8891A981CAB1EBA10CD12DC14EF1C3
:1002E0006FE18010A100C230E32004502540467029
:1002F0006760B9839893FBA3DAB33DC31CD37FE354
:100300005EF3B1029012F322D23235421452776278
:100310005672EAB5CBA5A89589856EF54FE52CD523
:100320000DC5E234C324A0148104667447642454C8
:100330000544DBA7FAB79987B8975FE77EF71DC733
:100340003CD7D326F2369106B01657667676154618
:1003500034564CD96DC90EF92FE9C899E9898AB983
:10036000ABA94458654806782768C018E108823868
:10037000A3287DCB5CDB3FEB1EFBF98BD89BBBAB93
:100380009ABB754A545A376A167AF10AD01AB32AB8
:10039000923A2EFD0FED6CDD4DCDAABD8BADE89DE3
:1003A000C98D267C076C645C454CA23C832CE01C08
:1003B000C10C1FEF3EFF5DCF7CDF9BAFBABFD98F73
:1003C000F89F176E367E554E745E932EB23ED10E58
:1003D000F01E00081C18141011241FBECFEFD0E12E
:1003E000DEBFCDBF11E0A0E0B1E0E6E1F0EA00E061
:1003F0000BBF02C007900D92A034B107D9F71CE0E3
:10040000A0E4B1E001C01D92A53DB107E1F70E9453
:10041000944A0C940A500C9400008FB7F8949927D2
:1004200008958FBF0895282F9FB7F894E82FFF27CE
:10043000E65BFD4F80818F3F81F4E091850CE217F0
:1004400071F40BC02093000C04C0FF27E65BFD4F46
:1004500020832093850C20E007C025E005C0809113
:10046000000C8F3F91F7EECF892F99278FBF822FF6
:100470009927089586E00E9413029927089583E141
:100480000E9413029927089580E20E94130299277F
:10049000089581E20E941302992708951F931FB7C0
:1004A000F89480917E0C882341F48DE00E94130221
:1004B000882319F481E080937E0C812F99278FBFC8
:1004C0001F910895382FFA01422F233318F082E04C
:1004D00090E008956683872F992785833387218746
:1004E0008091520190915301892B19F085E090E0A1
:1004F00008952FB7F894332785E080935501109223
:100500005601F0935101E093500182E090E0909306
:100510005301809352011092580110925701445F89
:10052000409354012FBF8FB7F894282F3327809121
:1005300089078A3011F42FBF19C02FBF9FB7F894D5
:1005400080918704882311F020E006C081E0809329
:1005500087041092880421E0892F99278FBF2223D6
:1005600029F00E944E0280E090E00895109253011D
:100570001092520181E090E008951F93CF93DF9392
:10058000E82FFF27EE0FFF1FEF54F44F1182108268
:1005900080913E019927019662E070E00E946C4FC5
:1005A000682F80933E0110E0462F5527FA01EE0F89
:1005B000FF1FEF54F44FA081B181109799F0E62FFF
:1005C000E695E695E695FF27E859FB4F8081992748
:1005D0009A012770307002C0959587952A95E2F7A9
:1005E00080FF0DC0CA01019662E070E00E946C4F6E
:1005F000682F1F5F1230C1F610933E011AC060933E
:100600003E016230B0F4FD01359624813327ED01BF
:100610006D817727762F662781819927682B792B23
:10062000AD0186810E946202882319F085E20E9452
:100630001302DF91CF911F910895CF92DF92EF9235
:10064000FF920F931F93CF93DF936C018B017A017D
:10065000E901232B19F1FB0143E0F695E7954A9553
:10066000E1F7EE0DFF1D808199279B012770307007
:1006700002C0959587952A95E2F780FF06C0F6019E
:100680007183608380E090E00BC0CB010196BE01D6
:100690000E94584FBC0180179107E9F681E090E075
:1006A000DF91CF911F910F91FF90EF90DF90CF904E
:1006B0000895CF93DF93982F8FB7F894282F33277F
:1006C000422F80916F01882321F581E080936F0193
:1006D0009093DC072FBF8FB7F894C82FDD279C2F8E
:1006E00080913901843099F480916F01813021F437
:1006F0008DE10E94130209C0823049F48091DC0729
:100700008093390183E080936F01CFBF07C09FBF03
:1007100005C08091DC07891721F42FBF80E090E0AD
:1007200021C0E92FFF27E45FF34F80818F3F89F4D9
:10073000E0913801E91789F40CC09093370104C0A7
:10074000FF27E45FF34F90839093380180E090E0BF
:1007500002C085E090E04FBF05C0809137018F3F18
:1007600079F7EBCFDF91CF910895CF92DF92EF929F
:10077000FF920F931F93CF93DF93782FC62FDD2720
:100780008BE090E0C89FF001C99FF00DD89FF00D5D
:100790001124EC56FB4F8081882319F085E090E00E
:1007A00048C0643018F480E091E002C080E090E03E
:1007B000AA27BB27BA2FA92F982F8827821793071C
:1007C000A407B507A0F1821B930BA40BB50B8C15E6
:1007D0009D05AE05BF0558F18BE090E0C89FF00184
:1007E000C99FF00DD89FF00D1124EC56FB4F70837C
:1007F0002383348345835683C782D086E186F2867D
:1008000012830183613069F0613028F0623059F061
:10081000633059F003C080E00E94590380E090E00B
:1008200008C081E0F9CF82E0F7CF83E0F5CF86E022
:1008300090E0DF91CF911F910F91FF90EF90DF90AB
:10084000CF900895EF920F931F93AE2D99E0899F5B
:10085000F0011124E75FF94F408351836283738372
:100860000483158326833783A17080858E7F8A2B2E
:10087000826080878BE00E9413021F910F91EF909E
:1008800008957FB7F89462B7209120023091210239
:10089000409122025091230206B601FE0FC081B79B
:1008A00092B7280F311D411D511D2F5F3F4F4F4FF4
:1008B0005F4F290F311D411D511D04C0260F311DF1
:1008C000411D511D872F99278FBFCA01B901089576
:1008D000AF92BF92CF92DF92EF92FF920F931F934E
:1008E000F82E5A016B010E944104AB01BC01F1E0FA
:1008F000EF2E960185018F2D0E9422041F910F91EA
:10090000FF90EF90DF90CF90BF90AF9008952F921F
:100910003F924F925F926F927F928F929F92AF928F
:10092000BF92CF92DF92EF92FF920F931F93CF93DC
:10093000DF93CDB7DEB729970FB6F894DEBF0FBEB1
:10094000CDBF6FB76983F89420905D0430905E044A
:1009500040905F04509060046624772488241EE44D
:10096000A12EB3E8BB2ECC24DD24EE24FF2400E02E
:1009700010E0222D332D442D552D662D772D882DF9
:1009800090E00E94AC4D2A833B834C835D836E8351
:100990007F8388879987822E932EA42EB52E2401DB
:1009A000350100E20E94AA4EA22EB32EC42ED52EEF
:1009B000A301920156954795379527952A0D3B1D22
:1009C0004C1D5D1D57FF05C05F772F5F3F4F4F4F99
:1009D0005F4F20935D0430935E0440935F04509317
:1009E0006004E9818E2F99278FBFCA01B90129962A
:1009F0000FB6F894DEBF0FBECDBFDF91CF911F9130
:100A00000F91FF90EF90DF90CF90BF90AF909F90AD
:100A10008F907F906F905F904F903F902F900895B0
:100A2000FC0182819927582F442781819927482BDF
:100A3000592BCA01892F99278695869583709070C6
:100A40008230910559F08330910559F0892B19F4C2
:100A500020E030E008C02CE93FEF05C022E030E0A4
:100A600002C028E030E0CA0184E0989F812D9927D8
:100A700011248230910559F08330910559F0892B6A
:100A800019F480E090E008C08CE99FEF05C082E097
:100A900090E002C088E090E0280F391F2A5F3F4FA6
:100AA000CF01820F931F0895282F9FB7F8946623D4
:100AB00049F0E82FFF27EF54F84F8081882311F089
:100AC00021E006C0E22FFF27EF54F84F608320E0BB
:100AD000892F99278FBF822F99270895E82F8FB7E5
:100AE000F894282F332790E0FF27EF54F84F8081A8
:100AF000861709F491E02FBF892F99270895682F51
:100B000081E00E946E0599270895882311F06E9A5E
:100B100008956E980895882311F06F9A08956F983C
:100B2000089580E00E948505BA9ABB98B99AB89A50
:100B30006C9A80E00E948B056B986A9881E00E9415
:100B40008505709A8DB18C7F8DB908950F931F9391
:100B5000CF93DF93182F8FB7F894C82FDD270C2F72
:100B600061E080E00E945405882321F0CFBF85E03A
:100B700090E024C0809117018823A1F48091460160
:100B8000823081F409C082E08093460110921701FF
:100B90000E949105B89AC0981093140180E00FBF8D
:100BA00099270CC080914601882369F38FB7F89488
:100BB00099271092B1078FBF81E0F1CFDF91CF91DC
:100BC0001F910F9108951F93182F81E00E948505B2
:100BD0001FB9779BFECF8FB199271F9108958F92F0
:100BE0009F92AF92BF92CF92DF92EF92FF920F93BC
:100BF0001F93CF93DF938FB7F8949927C0907A0C07
:100C0000D0907B0C8090040790900507C09114054C
:100C1000D09115052091870130918801EAE0AE2E30
:100C2000B12CAC0EBD1E2A153B0508F459018FBF2F
:100C30007401EC0EFD1E86010C0F1D1F14C0C114A3
:100C4000D10419F0F801808101C080E00E94E30521
:100C50008114910411F0F701808321960894E11C1E
:100C6000F11C0F5F1F4FC5010197C817D90738F353
:100C700081E00E948B059FB7F894C114D10431F034
:100C8000CC0EDD1EF60180818FB901C01FB8D09354
:100C90001505C0931405892F99278FBF80E090E038
:100CA000DF91CF911F910F91FF90EF90DF90CF9048
:100CB000BF90AF909F908F9008952FB7F8943327EF
:100CC000509388014093870190937B0C80937A0C1A
:100CD0007093050760930407109215051092140590
:100CE0002FBF452B29F08FB10E94EF05992708955A
:100CF00087E00E94130280E090E008958FB7F89497
:100D000099271092B3078FBF0895E2EDF1E06927AC
:100D1000660FF11DE60FF11DC895982F802D3196B5
:100D2000C895902508951F93CF93DF93142FEB015F
:100D300004C069910E94850611501123D1F7DF91FB
:100D4000CF911F910895982F969596959695E8E0E6
:100D5000F6E0E90FF11D877021E030E002C0220FBC
:100D6000331F8A95E2F78081822399270895809125
:100D7000080C882319F02FE170E002C078E02EE122
:100D8000622FEFB7F894809129038E7F8093290317
:100D900087B1982F9F71829586958695837019F0FB
:100DA00080E090E012C0822F8850863118F081E0F8
:100DB00090E00BC040E050E03327892F9927281797
:100DC000390711F441E050E0CA01982F9170990F52
:100DD000809129038178262F2F71422F440F440FD1
:100DE000892B842B80932903332727B9783059F531
:100DF0008091010C9091020C21E08638920718F046
:100E000087E090E01FC0833C910518F086E090E0F9
:100E100019C08136910518F085E090E013C0803349
:100E2000910518F084E090E00DC08831910518F02C
:100E300083E090E007C00C9718F082E090E002C0D9
:100E400080E090E0782F7770887D872B886D9927D8
:100E500086B98E2F99278FBF0895FC016683672F6F
:100E6000772765830895CF93DF93582FDB01823076
:100E700018F081E090E038C0C82FDD27CC0FDD1FCF
:100E8000CF54D44F88819981892B19F085E090E067
:100E90002BC0798368839B012B5F3F4FF90144830B
:100EA00080913E01823018F480E090E01DC0F9018D
:100EB0008681FB0165817727762F6627F9012181DD
:100EC0003327622B732B50933E01242FAD010E94D8
:100ED00062029927282F882329F082E080933E011F
:100EE00019821882822F9927DF91CF910895CF928E
:100EF000DF92EF92FF920F931F937A018B01809301
:100F0000CC0430ECC32E34E0D32E6FEF7FEFC6015C
:100F10000E942D0783E58093CB044E2DB60180E01F
:100F20000E9433071F910F91FF90EF90DF90CF90B9
:100F30000895CF92EF92FF920F931F9380917901C2
:100F4000833079F42D5C344061F410927901089477
:100F5000E11CF11C011D111DB801A7018C2D0E947F
:100F600077071F910F91FF90EF90CF9008950F9307
:100F70001F938093EA020EED12E06FEF7FEFC8013E
:100F80000E942D0784E58093E90241E0B80181E0E9
:100F90000E9433071F910F9108954FB7F89455277A
:100FA000FC0153E0F695E7955A95E1F7EE5AF84FB4
:100FB0008770907021E030E002C0220F331F8A95C5
:100FC000E2F78081822B80834FBF0895E82F9A013A
:100FD000AB01BB27A52F942F832FBC01E13049F033
:100FE000E13078F0E23041F0E33049F060E078E061
:100FF00008C060507F4F05C060507E4F02C06050F7
:101000007D4F88279927982F872F762F6627307056
:1010100044275527620F731F841F951F08959FB79C
:10102000F894292F3327422F90913C01981741F4CF
:1010300080917001823021F42FBF81E090E008950B
:101040004FBF80E090E0089582E10E940F08992749
:101050000895CF93DF93982F8FB7F894C82FDD278B
:101060002C2F80917001882361F481E080937001BE
:10107000909378048EE10E941302CFBF80E090E04D
:1010800021C0E92FFF27E852FC4F80818F3F89F470
:10109000E0913B01E91789F40CC090933A0104C038
:1010A000FF27E852FC4F908390933B0180E090E053
:1010B00002C085E090E02FBF05C080913A018F3FCC
:1010C00079F7EBCFDF91CF91089581E10E940F086E
:1010D000882321F083E20E941302089581E10E9497
:1010E000290808958FB7F89460916E0570916F0587
:1010F0002CB53DB506B602FE04C06F5F7F4F2CB520
:101100003DB599278FBF88279927CB017727662779
:1011100044275527622B732B842B952B0895EF9230
:10112000FF920F931F930E9472087B018C01209104
:101130007404309175044091760450917704809145
:101140006A0490916B04A0916C04B0916D04820FBD
:10115000931FA41FB51FE216F3060407150730F00E
:1011600082179307A407B50758F005C082179307A5
:10117000A407B507E0F5E816F9060A071B07B8F556
:101180009C01AD012E193F09400B510B213060E845
:10119000360760E0460760E0560768F180E090E8B7
:1011A000A0E0B0E0E80EF91E0A1F1B1FE0927404D5
:1011B000F0927504009376041093770480E090E831
:1011C000AFEFBFEFE80EF91E0A1F1B1F205030487B
:1011D0004040504020936A0430936B0440936C0469
:1011E00050936D0420E030E840E050E014C020E06F
:1011F00030E040E050E08093740490937504A09335
:101200007604B093770410926A0410926B041092E3
:101210006C0410926D04A901B7012CB53DB5C9014C
:101220008E199F0903968417950720F0B9016D5F09
:101230007F4F02C0640F751F6115710511F461E0E5
:1012400070E0615070407BBD6ABD80E186BF87B7AA
:10125000806187BF1F910F91FF90EF9008950F93CA
:101260001F930FB7F894112760937404709375045B
:10127000809376049093770420936A0430936B04F0
:1012800040936C0450936D040E948F080FBF1F9110
:101290000F910895CF92EF92FF928091790184305F
:1012A00089F410927901CC2031F4E092CE048F2D94
:1012B00099278093CD0443E050E060E070E08C2DEE
:1012C0000E947707FF90EF90CF900895862F90911E
:1012D0007901913011F0963041F41092790141E09A
:1012E00050E060E070E00E9477070895813049F097
:1012F000813078F0823041F0833049F060E070E076
:1013000008C060507E4F05C060507D4F02C06050E5
:101310007F4FCB010895982F4FB7F894552722B3EC
:10132000277D22BB80E097FD939A959A82998068E9
:1013300022BB96FD939A959A8299806422BB95FD73
:10134000939A959A8299806222BB94FD939A959A7A
:101350008299806122BB93FD939A959A82998860C5
:1013600022BB92FD939A959A8299846022BB91FD4B
:10137000939A959A8299826022BB90FD939A959A4E
:10138000829981604FBF992708951F93182F8091EC
:1013900078018823E1F4623041F0633041F061303C
:1013A00011F081E007C080E103C08EE001C08FE052
:1013B0000E94290890E0882309F491E09093780135
:1013C000992329F01093800B80E090E002C081E027
:1013D00090E01F910895AC01E8E7F5E080E090E02F
:1013E0009C01858180FF05C08081918184179507CC
:1013F00041F0C90101963E968A30910589F72FEF99
:1014000030E0C90108950E94EB098F3F99F09927B8
:10141000880F991FFC0123E0EE0FFF1F2A95E1F7CB
:10142000E81BF90BE858FA4F858181FF03C08285DC
:10143000938508958FEF90E008950E94EB098F3F08
:1014400019F481E090E008959927880F991FFC0115
:1014500043E0EE0FFF1F4A95E1F7E81BF90BE85850
:10146000FA4F85818860858380E090E008959C0133
:101470006E5F633318F080E090E008950C9611F0F1
:10148000C9010E960895FC0180899927982F882715
:1014900021893327822B932B0895FC01CB014285B0
:1014A00053859A0173E0220F331F7A95E1F7240FD9
:1014B000351F2B5F3F4F820F931F6AE070E00E9441
:1014C000584F738762870895FC016485958566236C
:1014D00039F48AE0989FB00111246A5070400BC023
:1014E00077278AE0989FC00111240E946C4F6A50B0
:1014F000704014861586CF010E944D0A0895809190
:101500006001E82FFF27EE0FFF1FE85AF44F01900C
:10151000F081E02D20916201222351F08F5F8093B2
:1015200060018C3011F4109260012150209362010F
:10153000CF010895FC0180899927982F8827218958
:101540003327822B932B0895AF92BF92DF92EF92B5
:10155000FF920F931F93CF93DF935C01D0902502EE
:10156000F0909004EE2425C00F2D03701127C501C3
:101570000E949A0AF801EE0FFF1FEE0FFF1FE00F07
:10158000F11FEB58FD4F208131818217930779F4C9
:10159000D5011C96ED019E818281891741F49981C4
:1015A0008481891721F49F818381891721F0E39435
:1015B000F394ED14C9F68E2D9927DF91CF911F91E9
:1015C0000F91FF90EF90DF90BF90AF900895AC0126
:1015D00020918D042C3018F081E090E008958091E6
:1015E0006404682F620F712D711DFB016C30710551
:1015F00008F03C97EE0FFF1FEE56F84F51834083E3
:101600002F5F20938D0480E090E00895AC0120913D
:101610008C042C3018F081E090E008958091110C3A
:10162000682F620F712D711DFB016C30710508F080
:101630003C97EE0FFF1FE754F34F518340832F5F1A
:1016400020938C0480E090E008950F931F93CF9334
:10165000DF93EC01892BE9F02091760B3091770B29
:101660008FEF2F3F3807A9F080912602813019F4BF
:10167000198218820BC00091780B1091790BC90167
:101680000E94030A080F191F1983088380E090E065
:1016900002C081E090E0DF91CF911F910F910895FA
:1016A0009C01685F633318F080E090E008950C9629
:1016B00011F0C90144960895982F8FB7F894282FF8
:1016C000332780917001882349F482E08093700170
:1016D00090933C012FBF80E090E008952FBF81E000
:1016E00090E008958FB7F894282F3327922F809198
:1016F00089078A3041F08091F903843021F02FBFAF
:1017000089E090E008959FBF8EE00E94130280E080
:1017100090E00895809189078A3021F48091F9033F
:10172000843021F081E080934D0108958FE00E9484
:10173000130210924D0108952FB7F89433278CB9F6
:101740005E9A2FBF0895FC016115710519F481E0BF
:1017500090E0089580917F0490918004892B19F086
:1017600085E090E0089570937F0B60937E0BF0937B
:101770008004E0937F04109245041092440481E0B9
:10178000809346045E9A569A808121E030E030933F
:101790004504209344040E949C0B80E090E008954F
:1017A0008FB7F894992720915E012E7F20935E01D8
:1017B0002EE7209374028FBF61E070E084E792E02F
:1017C0000E94A30B99270895DF92EF92FF920F9347
:1017D0001F938FB7F894282F3327D22E91B782B753
:1017E00046B7981711F041FF02C02FBF6AC0809121
:1017F0000A058823E1F10E944104E090AD07F090D2
:10180000AE070091AF071091B00720913F023091D1
:10181000400240914102509142026E197F09800BB3
:10182000910B621773078407950720F010920A0541
:1018300071E01EC02E0D3F1D401F511F80912002E0
:1018400090912102A0912202B0912302281B390B12
:101850004A0B5B0B273E31054105510540F4822FB1
:10186000223010F070E005C070E082E002C070E04D
:1018700086EE682F615000B601FCFDCF82B7681775
:1018800009F46F5F209120023091210240912202E1
:1018900050912302DA01C9010196A11DB11D860FE5
:1018A000911DA11DB11D82179307A407B50710F460
:1018B000622F609561BFDFBE772319F08AE00E9436
:1018C00013021F910F91FF90EF90DF900895AFB733
:1018D000F894BB27E1E0E0930A056093AD077093AD
:1018E000AE078093AF079093B00720933F023093E9
:1018F00040024093410250934202AFBF0E94E40B6A
:10190000089508950F931F93CF93DF93282F3327C4
:10191000C901880F991FFC0113E0EE0FFF1F1A95F4
:10192000E1F7E81BF90BE858FA4F858182FF03C005
:1019300062838B7F85838281962F981B628383814C
:101940008F5F838386E08683992361F08481890F8A
:10195000815084839B3030F0148281E0838317822E
:1019600011861086C901880F991FFC01A3E0EE0FB4
:10197000FF1FAA95E1F7E81BF90BE858FA4F83819E
:10198000833008F471C000811181C8E7D5E08881F7
:1019900099818017910709F061C08D8180FF5EC039
:1019A0008E81882311F081508E838F81882311F0DE
:1019B00081508F838E81882351F48F81882339F45D
:1019C0008D8191E089278D831986188642C08D818B
:1019D00082608D839B816C81690F633008F463E0C2
:1019E00077278FEF989FC00111240E946C4F888544
:1019F00029E0829FC00111240596860F911D6AE09F
:101A000070E00E946C4F68871B821C8249856623A8
:101A100001F14423F1F0772781E09EEF0E94584FB7
:101A2000CB019B01F3E0220F331FFA95E1F7642FFE
:101A30007727880F991F820F931F0E94584F6A5073
:101A400070406F3F710519F010F06CE370E077277C
:101A500002C06CE370E0CE010E944D0A2E9686E033
:101A6000C430D80709F093CFDF91CF911F910F9128
:101A7000089580E090E0EDE7F5E09C01808180FF33
:101A800008C0C90101963E968A309105B1F72FEF43
:101A900030E0C90108959EE0899FF0011124E858C3
:101AA000FA4F7183608312821382148285E08583EA
:101AB00086E08683878310861186138612860895B2
:101AC000982FAFEF60E070E040E050E0EDE7F5E028
:101AD0008081282F332720FF0BC021FF09C023FD61
:101AE00007C0258136812617370710F0A42FB901CA
:101AF0004F5F5F4F3E964A30510551F7892F992726
:101B00006817790718F48FEF90E008958A2F9927C6
:101B10000895AC01309146028FEF4F3F580711F006
:101B200020E012C0832F99270895E22FFF2783E03A
:101B3000EE0FFF1F8A95E1F7EC57FC4F80819181F2
:101B40008417950719F02F5F231779F7822F9927AC
:101B500008951F93CF93DF93162FC0E0D0E060E38A
:101B60000E94370AFC0180818123811711F4C1E0B2
:101B7000D0E0CE01DF91CF911F910895FC018081CB
:101B8000448555274F7050709A01220F331F240F40
:101B9000351F821B8F509927089580E88093430258
:101BA0001092F8031092090C1092FF0B1092800310
:101BB0000895CF93DF93FC01FE961582DF01169600
:101BC000ED011B821A82198280E88683DF91CF9112
:101BD0000895CF92DF92EF92FF920F931F93CF93CE
:101BE000DF938C01F62E6A01E22E8FB7F894C82F8E
:101BF000DD2760E080E00E946E05882321F0CFBFE2
:101C000080E090E01EC0CFBF0F0D111D802F8068B7
:101C10000E94E305F82E16950795802F807C0E9480
:101C2000E3050E2D0AC0EE2DFF27E01BF109EC0D98
:101C3000FD1D80810E94E30501500023A1F78F2D37
:101C40009927DF91CF911F910F91FF90EF90DF9037
:101C5000CF90089597B79F7D97BF90E296BF882356
:101C600019F08EB5806402C08EB58F7B8EBD87B7AC
:101C7000806287BF80E090E00895AF92BF92CF92DC
:101C8000DF92EF92FF920F931F93CF93DF93CDB725
:101C9000DEB728970FB6F894DEBF0FBECDBF20E0A9
:101CA00070E0E0910E01F0910F0132E14DE65CE44D
:101CB0006FE480910F019E2F28960FB6F894DEBF37
:101CC0000FBECDBFDF91CF911F910F91FF90EF908D
:101CD000DF90CF90BF90AF9008951F920F920FB6F4
:101CE0000F9211248F9383B783BF00B600FCFDCF02
:101CF0008F910F900FBE0F901F90189578941F92A0
:101D00000F920FB60F9211240F900FBE0F901F90DD
:101D1000189578941F920F920FB60F9211240F907E
:101D20000FBE0F901F90189578941F920F920FB6C8
:101D30000F9211242F933F938F939F932FB7F89473
:101D4000332780916E0590916F05019690936F05F2
:101D500080936E052FBF9F918F913F912F910F9090
:101D60000FBE0F901F9018951F920F920FB60F92F3
:101D700011240F900FBE0F901F9018951F920F9275
:101D80000FB60F9211240F900FBE0F901F90189551
:101D90001F920F920FB60F9211240F900FBE0F904B
:101DA0001F9018951F920F920FB60F9211240F904B
:101DB0000FBE0F901F9018951F920F920FB60F92A3
:101DC00011240F900FBE0F901F9018951F920F9225
:101DD0000FB60F9211240F900FBE0F901F90189501
:101DE0001F920F920FB60F9211240F900FBE0F90FB
:101DF0001F901895982F80915901882389F5992370
:101E000079F531E03093590180911E0180935A0198
:101E100020914E01822F8170809345028091230191
:101E20009091240190935C0180935B0180914F011C
:101E300080935D0132273170267EE32FFF27EE0F5E
:101E4000FF1FE15EFE4F808191819093240180937A
:101E50002301232B20934E0182E10E941302089557
:101E600080914E0180FF02C08B7F01C08D7F8093E7
:101E70004E0108950F931F93082F162F8091F90399
:101E80008130D9F0813038F0823009F44AC0833093
:101E900009F028C159C0002309F458C11092720BEF
:101EA0001092710B1092910710928C0B10924804B3
:101EB000109273051092720539C1002309F046C1D2
:101EC00080917205909173050E9485069093730529
:101ED0008093720582E08093F90310938C0B143485
:101EE00009F000C125C18695869503C080914E01F9
:101EF0008695817009F0F6C080914E01992311F00A
:101F0000846001C0826080934E0180914E01877E83
:101F1000886080934E0110924F018FEF80931E01D5
:101F200015C1002309F0DEC060934804809172055A
:101F3000909173050E9485069093730580937205B6
:101F400083E08093F90302C1809191078F3F09F4E8
:101F5000C9C0002309F461C0823008F4C3C0E09115
:101F6000710BEE2309F4EBC04E2F4150E42FFF27F5
:101F7000EF58F44F82819927382F2227442311F4F8
:101F8000E2E002C0E42FE150FF27EF58F44F8281D6
:101F90009927282B392B809172059091730528176A
:101FA000390709F09FC080E00E94FA0E3091480482
:101FB00080910B0520910C05982F9F5F963008F0BB
:101FC00090E0921771F0E82FFF27E55FFA4F328318
:101FD0008F5F80930B05863010F010920B050E94E6
:101FE0004E021092720B1092710B94E09093F903D1
:101FF0001092910710928C0B109248041092730566
:102000001092720580915E018D7F80935E018091B8
:102010004D01882309F49AC084C0823008F44EC070
:10202000E091720BFF27EF58F44F8281482F55271C
:10203000342F20914E01822F869586958695837048
:1020400099278130910519F00297F9F40EC0277E87
:10205000206120934E01442311F485E001C080E00B
:1020600080934F0130931E0110C080914F018A343C
:1020700060F4E0912301F0912401E80FF11D408309
:1020800080914F018F5F80934F018091720BE82FF9
:10209000FF27EF58F44F62818F5F8093720B83307C
:1020A00010F01092720B7727809172059091730552
:1020B0000E94850690937305809372058091710B41
:1020C000E82FFF27EF58F44F12838F5F8093710B37
:1020D000833010F01092710B809191078F5F809385
:1020E000910734C01092720B1092710B14E0109390
:1020F000F9031092910710928C0B109248041092E1
:1021000073051092720580915E018D7F80935E0150
:1021100081E00E94FA0E80914D01882329F01093EE
:10212000F9030E948A0B12C0002381F081E009CFDD
:1021300080914E01982F917080FDD5CED7CE8091A1
:10214000750B9927382F222742E01CCF1F910F9142
:1021500008951F920F920FB60F9211242F933F9361
:102160004F935F936F937F938F939F93AF93BF939F
:10217000EF93FF935F9B3DC06CB1E0917405F091CC
:1021800075053097F9F080917C0C90917D0CE80FEB
:10219000F91F6083019690937D0C80937C0C2091B5
:1021A000D30C3091D40C8217930718F11092750557
:1021B00010927405809153078330D9F0579810928C
:1021C000530717C06E3719F460E081E010C08091AA
:1021D0005E016D3721F4826080935E010AC081FF49
:1021E00005C08D7F80935E0180E2682780E00E94B9
:1021F0003A0FFF91EF91BF91AF919F918F917F9196
:102200006F915F914F913F912F910F900FBE0F9063
:102210001F901895982F8D57823068F480915E0139
:10222000816080935E0180E28927809390078DE72B
:102230008093740202C09093740261E070E084E7BE
:1022400092E00E94A30B9927089578941F920F9211
:102250000FB60F921124FF920F931F932F933F936A
:102260004F935F936F937F938F939F93AF93BF939E
:10227000CF93DF93EF93FF93209144043091450473
:1022800080917E0B90917F0B2817390780F4E091A5
:102290007F04F0918004E20FF31F80812F5F3F4F96
:1022A00030934504209344040E949C0BCDC01092AF
:1022B000800410927F04109246045698FFB6F8945A
:1022C00080915E0180FF0EC08E7F80935E018091C1
:1022D00090078093740261E070E084E792E00E94CE
:1022E000A30BAFC080918907843009F48CC085307E
:1022F00040F4823021F18330B8F5813009F09CC080
:102300000DC0863009F48DC0863008F483C0873054
:1023100009F48EC0883009F08FC091C08091730499
:102320000E940A11082F83E080938907609173044B
:102330008091D10C9091D20C0E94850610C08091A2
:10234000070C0E940A11082F83E08093890760918F
:10235000070C8091D10C9091D20C0E94850690932D
:10236000D20C8093D10C66C0E0910406FF27EE0FDB
:10237000FF1FEA57FB4F80810E940A11082F10911E
:102380000406C12FDD27FE01EE0FFF1FEA57FB4FAA
:1023900060818091D10C9091D20C0E94850690931F
:1023A000D20C8093D10C209169042F5F2093690493
:1023B000113039F580915501E0915001F0915101B2
:1023C000E80FF11DE0818F5F8093550190915401DA
:1023D000981730F482E08093870440E050E002C018
:1023E0004E2F5527DE01AA0FBB1FFD01EB57FB4FF8
:1023F0008081823031F02F3F21F0AA57BB4F4C93A0
:1024000019C084E012C08091D10C0E940A11082FDB
:1024100085E00BC08091D20C0E940A11082F86E043
:1024200004C00E94D00B082F87E08093890702C068
:1024300088E003C0002329F089E0809389070E9487
:102440004E028F2D99278FBFFF91EF91DF91CF9192
:10245000BF91AF919F918F917F916F915F914F91BC
:102460003F912F911F910F91FF900F900FBE0F90F2
:102470001F9018951F920F920FB60F9211248F93F1
:1024800080919B0087FF02C080919C008F910F90EC
:102490000FBE0F901F90189578941F920F920FB651
:1024A0000F9211240F900FBE0F901F9018957894E3
:1024B0001F920F920FB60F9211240F900FBE0F9024
:1024C0001F90189578941F920F920FB60F921124B7
:1024D0000F900FBE0F901F90189578941F920F9237
:1024E0000FB60F9211240F900FBE0F901F901895EA
:1024F00078941F920F920FB60F9211248F939F938F
:1025000080918000909181009F918F910F900FBEDC
:102510000F901F90189578941F920F920FB60F92FC
:1025200011242F933F938F939F932FB7F8943327C2
:10253000809165049091660401969093660480935F
:1025400065042FBF9F918F913F912F910F900FBEE8
:102550000F901F9018951F920F920FB60F92112493
:102560002F933F934F935F936F937F938F939F939B
:10257000AF93BF93EF93FF9344B155B178948FB766
:10258000F894992720912903322F369531702170C4
:102590008FBF2223D9F4339880918904813021F0B0
:1025A000823009F039C00AC0332351F050938807B4
:1025B0004093870782E20E9413022EC0332319F44E
:1025C0000E94B70629C01092890426C08FB7F894DC
:1025D00099278FBF2FB7F894332786B1582F57709C
:1025E000482F4072987D942B952B8074977B982B65
:1025F00090619F77892F992786B9887D842B852BB9
:1026000087738061992786B9887D842B852B877B8A
:102610008069992786B92FBFFF91EF91BF91AF9144
:102620009F918F917F916F915F914F913F912F91EA
:102630000F900FBE0F901F901895EF92FF920F937F
:102640001F93CF93DF93EA017B010AC08C010F5FD8
:102650001F4F0E94F54FF70181937F012197C80119
:102660002097A1F780E090E0DF91CF911F910F912B
:10267000FF90EF900895CF93DF93CDB7DEB72C97FF
:102680000FB6F894DEBF0FBECDBF8FB7F894282FDA
:10269000AE014F5F5F4FDA01E4EDF7E088E00190B3
:1026A0000D928150E1F78091490490914A04898705
:1026B000892F99278A878091790490917A048B8752
:1026C000892F99278C872FBF2CE060E080E691E06E
:1026D0000E94E90D2C960FB6F894DEBF0FBECDBF59
:1026E000DF91CF910895EF92FF920F931F9379019D
:1026F0008A016A3018F04AE050E002C0462F5527A0
:10270000BC018FEB97E00E94E54FE0927101F092DF
:10271000720100937301109374011F910F91FF9048
:10272000EF900895AF92BF92CF92DF92FF920F93F6
:102730001F93CF93DF935C01442309F472C0EC0133
:10274000C880D98080912502843009F046C0C60136
:102750000E94A40A20912502622F0E944C4F492F0B
:102760009217D8F5992359F48091900499270196EE
:1027700064E070E00E946C4F8093900429C08091C7
:102780009004840F912D911D9C0123703070E901FC
:10279000CC0FDD1FCC0FDD1FC20FD31F019664E0ED
:1027A00070E00E946C4FFC01EE0FFF1FEE0FFF1F49
:1027B000E80FF91FCB58DD4FEB58FD4F85E0019036
:1027C00009928150E1F74F5F809125024817B8F2D6
:1027D00080912502815080932502F09025028091FE
:1027E00090048F0D912D911D837090708C01000FBE
:1027F000111F000F111F080F191F0B581D4FC60185
:102800000E949A0AF80191838083F6013C968681A2
:10281000E8018A8381818C8387818B83F394F09292
:102820002502F501808191810E94E70AC5010E947D
:10283000060BDF91CF911F910F91FF90DF90CF900A
:10284000BF90AF900895EF92FF920F931F93CF9395
:10285000DF93EA017B010AC0F70161917F018C01DE
:102860000F5F1F4F0E94FD4F2197C8012097A1F7CE
:10287000E199FECF80E090E0DF91CF911F910F9121
:10288000FF90EF9008951F920F920FB60F921124B0
:102890002F933F934F935F936F937F938F939F9368
:1028A000AF93BF93EF93FF9383B783BF00B600FC52
:1028B000FDCF81B799270196AA27BB272091200237
:1028C000309121024091220250912302280F391F9A
:1028D0004A1F5B1F20932002309321024093220263
:1028E0005093230278940E94E40BFF91EF91BF91E3
:1028F000AF919F918F917F916F915F914F913F9198
:102900002F910F900FBE0F901F901895BF92CF92EE
:10291000DF92EF92FF920F931F93B82ED701809111
:102920006D01882319F085E090E03CC0EB2DFF2776
:10293000E931F105B8F4EA5BFF4FEE0FFF1F059098
:10294000F491E02D099485E00E94B5039927282F82
:10295000882349F481E080936D01B0927F0C80E080
:1029600090E020C021E0822F99271CC068017901E6
:102970008D019A01AB0160E0E6CF680179018D011C
:102980009A01AB0163E0DFCF680179018D019A0103
:10299000AB0161E0D8CF680179018D019A01AB01EB
:1029A00062E0D1CF1F910F91FF90EF90DF90CF9019
:1029B000BF900895BF92CF92DF92EF92FF920F9354
:1029C0001F93B82E6701780180916D01882319F05B
:1029D00085E090E034C0EB2DFF27E931F105B8F434
:1029E000E15AFF4FEE0FFF1F0590F491E02D09947F
:1029F00084E00E94B5039927282F882349F481E0B9
:102A000080936D01B0927F0C80E090E018C021E0CF
:102A1000822F992714C089019A01AB0160E0E8CFA9
:102A200089019A01AB0163E0E3CF89019A01AB010F
:102A300061E0DECF89019A01AB0162E0D9CF1F913D
:102A40000F91FF90EF90DF90CF90BF900895EF929D
:102A5000FF920F931F93813051F0813030F082301C
:102A600041F0833041F081E009C086E005C089E093
:102A700003C087E001C088E00E94DA1499271F9103
:102A80000F91FF90EF900895BF92CF92DF92EF9257
:102A9000FF920F931F93B82E6701780180916D010B
:102AA000882319F085E090E034C0EB2DFF27E93151
:102AB000F105B8F4E858FF4FEE0FFF1F0590F491B1
:102AC000E02D099481E00E94B5039927282F8823DF
:102AD00049F481E080936D01B0927F0C80E090E03A
:102AE00018C021E0822F992714C089019A01AB01F7
:102AF00060E0E8CF89019A01AB0163E0E3CF89018F
:102B00009A01AB0161E0DECF89019A01AB0162E07D
:102B1000D9CF1F910F91FF90EF90DF90CF90BF9092
:102B20000895AF92BF92CF92DF92EF92FF920F93F0
:102B30001F9380914704992722E330E0829FA001F0
:102B4000839F500D929F500D1124FA01E75EF34FC1
:102B50008081A82EBB24CC24DD249AE0AA0CBB1CC7
:102B6000CC1CDD1C9A95D1F7FA01E65EF34F80810B
:102B70002CE2829FC0011124AA27BB27A80EB91EF0
:102B8000CA1EDB1E9A01255E334F80916B01823095
:102B900079F08330B1F0813011F081E01CC08CE21B
:102BA000E82EF12C012D112DB601A50185E011C0F3
:102BB0000CE2E02EF12C012D112DB601A50183E0D0
:102BC00008C01CE2E12EF12C012D112DB601A5014A
:102BD00084E00E944415882311F0109272021F9124
:102BE0000F91FF90EF90DF90CF90BF90AF9008953E
:102BF0001F93982F1FB7F89480917001823099F538
:102C000080913C01891779F580913A0120E030E00C
:102C10008F3F11F421E030E0232BF1F49FEF9093EC
:102C20003C018F3F19F42FEF30E00DC0282F3327E0
:102C3000F901E852FC4F808180933A018F3F11F4F3
:102C400090933B0190832093780481E080937001FE
:102C50008EE10E94130205C08FEF80933C01109219
:102C6000700121E001C020E0812F99278FBF90E003
:102C7000213009F491E081E09827892F99271F914D
:102C8000089510927801823031F0833041F0813024
:102C900049F480E101C08EE00E94F81508958FE0AC
:102CA0000E94F81508951F93982F8FB7F894182F46
:102CB00080916F018330B1F580913901891791F5C9
:102CC0008091370120E030E08F3F11F421E030E0C7
:102CD000232BF9F48F3F19F42FEF30E00EC0282F8B
:102CE0003327F901E45FF34F8081809337018F3FF1
:102CF00011F4809338018FEF80832093DC078FEFEE
:102D00008093390181E080936F018DE10E9413026D
:102D100005C084E08093390110926F011FBF80E0ED
:102D200090E003C01FBF81E090E01F9108950F93D2
:102D30001F93CF93DF93182F8FB7F894282F332743
:102D4000022F80917601882359F581E080937601E6
:102D500010934D042FBF8FB7F8949927379A8FBFE0
:102D60008FB7F894C82FDD279C2F80913D018130CB
:102D7000A9F480917601813021F481E20E9413024E
:102D800009C0823059F480914D0480933D0183E065
:102D900080937601CFBF80E090E025C09FBFFBCF3E
:102DA00080914D04811711F42FBFF5CF812F0E9420
:102DB000A306882319F085E090E014C0E12FE69582
:102DC000E695E695FF27E85FF94F177081E090E000
:102DD00002C0880F991F1A95E2F72081282B2083C3
:102DE00080E090E00FBFDF91CF911F910F91089588
:102DF000CF92DF92EF92FF920F931F9380936E0119
:102E00006093830BC901880F892F881F990B9195B7
:102E10008093840B220F812F9927282B2093850BD9
:102E20000093860BD0925107C0925007F092720423
:102E3000E0927104409367048CE10E9413021F9199
:102E40000F91FF90EF90DF90CF900895109277014F
:102E500080914E049927833019F08430D1F406C054
:102E600081E0809377010E946508089540E050E07A
:102E700060E070E0809153040E94E60760933302A3
:102E800070933402809335029093360280E00E9462
:102E9000971608950F931F93182F0FB7F89461E0BA
:102EA00080E00E945405882371F5109314018091ED
:102EB00017018823A9F580914601823089F586E0C3
:102EC0000CC00E94910580914601882349F481E05D
:102ED000809346011092810388E00E9413022AC069
:102EE000809170048F3F31F5E0911601EE2311F1CE
:102EF0001CC01092150104C0FF27E059FB4F10823F
:102F00001092160117C081E090E002C0880F991F4F
:102F10001A95E2F720914501282B209345010AC01C
:102F2000809146018823E1F6CCCF809115018F3F37
:102F300019F7DFCF802F99278FBF80E090E01F9196
:102F40000F9108951F938FB7F894282F3327122FCE
:102F50008091840C882321F02FBF81E090E013C082
:102F600081E08093840C8091420190914301049709
:102F700021F481E00E944A1703C084E00E941302FA
:102F80001FBF80E090E01F9108951F9383E00E948F
:102F9000A6059927182F882319F083E00E944A1765
:102FA000812F99271F9108958531C1F0863138F41A
:102FB000843061F0853051F08330D9F407C0873117
:102FC00089F0873168F08831A1F410C080912B011D
:102FD000813079F488E10E941302089580E003C0F3
:102FE00082E001C083E00E946609089581E00E94AA
:102FF00066090895CF93DF93EC010E94890D282F75
:10300000809146022817D1F0382F31503093460274
:1030100013C0822F992763E0880F991F6A95E1F703
:10302000DC01AC57BC4FFC01E457FC4F88E0019039
:103030000D928150E1F72F5F231758F38091760BA3
:103040009091770B8C179D07A1F48FEF9FEF9093D2
:10305000770B8093760B1092790B1092780B10926D
:103060007A0B10927B0B81E08093680186E10E94CD
:103070001302DF91CF910895BF92CF92DF92EF922A
:10308000FF920F931F93B82E80912402882339F06A
:1030900085E080936E018CE10E9413021DC08B2D90
:1030A0009927FC01EE0FFF1FE80FF91FE757FD4FAF
:1030B00020813181BB2011F461E601C060E671E03E
:1030C000C72ED12CEE24FF2400E010E040E08AE07F
:1030D0000E94F816B09276051F910F91FF90EF9025
:1030E000DF90CF90BF900895CF92DF92EF92FF9242
:1030F0000F931F9380912402882339F085E08093F9
:103100006E018CE10E94130229C040910506842FB4
:103110009927FC01EE0FFF1FE80FF91FDF01A757EA
:10312000BD4F2D913C91E557FD4F808182FF06C038
:10313000442311F068E807C069E805C0442311F092
:1031400063E801C066E8B1E0CB2ED12CEE24FF2469
:1031500000E010E040E089E00E94F8161F910F9116
:10316000FF90EF90DF90CF900895AF92BF92CF92F3
:10317000DF92EF92FF920F931F93282F33278BE05C
:1031800090E0289FF001299FF00D389FF00D112449
:10319000E458FE4F82819381A481B5810097A105F7
:1031A000B10569F080819181880F991F9183808397
:1031B0008150944020F080E094E0918380838BE004
:1031C00090E0289F5001299FB00C389FB00C11242B
:1031D0008CE791E0A80EB91EF50186819781A08544
:1031E000B18582839383A483B583C080D180EE248C
:1031F000FF2469E0CC0CDD1CEE1CFF1C6A95D1F7A6
:103200000E948704DC01CB01F50100811181B80126
:10321000762F6627770F0E94584FAA27BB278C0D61
:103220009D1DAE1DBF1D222733274AE0000F111F31
:10323000221F331F4A95D1F7081B190B2A0B3B0B92
:10324000068317832087318722813381448155810A
:10325000280F391F4A1F5B1F228333834483558302
:103260001F910F91FF90EF90DF90CF90BF90AF90A4
:1032700008951F93CF93DF93182F8FB7F894C82F1B
:10328000DD2760E080E00E946E05882321F0CFBF3B
:1032900080E090E005C0CFBF812F0E94E305992711
:1032A000DF91CF911F910895EF92FF920F931F939B
:1032B000CF93DF93182F7B01042F8FB7F894C82F7B
:1032C000DD2760E080E00E946E05882321F0CFBFFB
:1032D00080E090E014C0CFBF1064812F99279093B5
:1032E0008204809381040E94E305182F402F552704
:1032F000B70180E090E00E945D06812F9927DF9161
:10330000CF911F910F91FF90EF900895C098609119
:103310007A0170917B0141E08FE30E945419089576
:1033200082E090E0909371028093700281E080933C
:10333000F80320E030E080911401843011F421E0A2
:1033400030E0232B29F484E00E94A605882319F499
:103350000E948619089584E00E944A1708951F92DA
:103360000F920FB60F9211242F933F934F935F93B9
:103370006F937F938F939F93AF93BF93EF93FF933D
:103380008091700290917102019749F482E090E07F
:1033900090937102809370020E94901905C08091F1
:1033A00080038F5F80938003FF91EF91BF91AF9176
:1033B0009F918F917F916F915F914F913F912F914D
:1033C0000F900FBE0F901F9018951F93809145018D
:1033D000882309F04BC0109114011F3F09F046C02B
:1033E00060E00E946E05882309F440C081E080936C
:1033F000560B809149028823E1F11092560B85E02B
:1034000090E045C0923069F5C09A8091150120E0A6
:1034100030E08F3F11F421E030E0232BE9F41093EA
:1034200017018F3F19F42FEF30E00DC0282F3327FD
:10343000F901E059FB4F8081809315018F3F11F412
:103440001093160110832093810381E0809346013D
:1034500088E00E94130205C01093170110924601E4
:1034600011C080914601882369F00FC081E090E08F
:103470000EC08091170190914601882319F2923075
:1034800021F0EFCF80E00E94850580E090E01F9161
:1034900008951F93CF93DF939FB7F894C92FDD272B
:1034A0001C2F90911401981721F0CFBF81E090E07C
:1034B0003AC08FEF80931401309145013323F1F42A
:1034C0008FB7F89499271092B1078FBF0E94E51922
:1034D000CFBF11C02093140181E090E002C0880F9B
:1034E000991F4A95E2F7809538233093450186E08D
:1034F0000E9413021FBF80E090E015C080E065E0ED
:10350000E32FFF270E944C4F292F492F5527CF012A
:10351000042E02C0959587950A94E2F780FDDACFD4
:10352000822F8F5FEFCFDF91CF911F91089583E0BE
:103530000E94491A992708951F93CF93DF938FB75D
:10354000F894C82FDD271C2F809170029091710292
:10355000892B29F484E00E94491ACFBF1EC0109223
:10356000F80380918003882311F0B79904C00E9965
:1035700008C0882319F08150809380030E9490191D
:103580000BC081E090E090937102809370021092E2
:10359000800384E00E94491A1FBFDF91CF911F91E1
:1035A00008950E94CD0DC09AC09888E00E943919F4
:1035B00088E00E943919C09A84E00E94491A0E944A
:1035C0009C1A0895FF920F931F93CF93DF93F82EC9
:1035D0008B018FB7F894C82FDD2760E080E00E9450
:1035E0006E05882321F0CFBF80E090E00CC0CFBFF4
:1035F0008F2D0E94E305812F99270E94E305802FDC
:103600000E94E3059927DF91CF911F910F91FF90C1
:1036100008951F931FB7F89480917F03882319F4AE
:1036200060E070E009C060E08091790C882309F4C3
:1036300061E081E06827772780915804882319F496
:1036400080E090E00AC090E08091D307882309F4DD
:1036500091E081E09827892F9927762F6627770FA9
:10366000770F770FF4E0880F991FFA95E1F7826ED4
:103670009262682B792B81E10E94E21A812F9927AF
:103680008FBF1F9108958FB7F89499276091DD0738
:103690008FBF85E0689FB0011124625D7E4F70642A
:1036A00088E10E94E21A08951F938FB7F894282F9B
:1036B000332780914401882311F02FBF30C02FBFE2
:1036C00080B39927B6E096958795BA95E1F7182FBC
:1036D000117090917D0480917E048917D9F019179B
:1036E000C9F484E090E090934301809342018FB746
:1036F000F894992721E0209344018FBF60E070E0A7
:103700008DE10E94E21A0E943B13C09AC09880E0AB
:103710000E94130210937E0485E00E9413021F9101
:103720000895FF920F931F93CF93DF93C0915A0494
:10373000D0915B04EE968A81EE979927182F882303
:1037400009F41FE1C09880912803811749F0612F87
:1037500077276F717070606E706885E10E94E21A61
:1037600010932803F8808FB7F894082F112760E092
:1037700080E00E946E05882311F00FBF12C00FBFBA
:103780008EE390E090938204809381048EE30E9404
:10379000E305FA944F2D552760E070E0CE010E94BA
:1037A0005D06DF91CF911F910F91FF9008950F93C8
:1037B0001F93CF93DF93EC010FB7F89411270E946A
:1037C0001005FC018FE380830FBF1092130C109241
:1037D000120C61E082E00E945405882319F085E014
:1037E00090E075C08091570B8F5F8093570B81508D
:1037F0008B838FB7F894082F112762E081E00E9435
:103800006E05882329F40FBF0E947E0681E05EC00A
:10381000DE01DE968FB7F894992724E02093B20753
:103820008FBFD0938F04C0938E040FBFFE013196DB
:10383000818129819927982F88273327822B932BE1
:1038400080729C7C8983892F992781832981982F75
:10385000882733272164822B932B8983892F9927EB
:103860008183FD0114821C921FAE1186108617827F
:1038700080E8868361E06093B50740918E045091A3
:103880008F048FB7F894282F3327809147019091A8
:1038900048018830910511F0019711F02FBF15C034
:1038A00082E090E090934801809347016093B80CC8
:1038B00050935B0440935A041092D3012FBF0E948F
:1038C000C517882311F40E94911B80E09927DF918E
:1038D000CF911F910F910895CF93DF93DA01422F7B
:1038E000233318F082E090E05EC0ED018B876E8399
:1038F000872F99278F832FB7F89433278091490416
:1039000090914A042FBFFD018483892F99278583D5
:103910002FB7F894332780911801909119012FBF88
:103920008887892F992789873196818129819927CD
:10393000982F8827332720643868822B932B89831C
:10394000892F99278183435F4C934D5080911B01B0
:10395000882359F010921B01642FCD010E94D71BC0
:103960009927282F8823A9F417C0842F992790938B
:103970008B0480938A04B0934C01A0934B018CE09C
:103980000E94130280911B01882349F489E090E092
:103990000AC08FEF80931B01822F992704C01092D9
:1039A000610480E090E0DF91CF9108951F938091B2
:1039B00025019927019667E070E00E946C4F682FFF
:1039C0008093250110E0462F5527FA01EE0FFF1FC7
:1039D000E05AFA4FA081B181109799F0E62FE69551
:1039E000E695E695FF27E05FF34F808199279A01DE
:1039F0002770307002C0959587952A95E2F780FF71
:103A00000DC0CA01019667E070E00E946C4F682FFC
:103A10001F5F1730C1F61093250119C0609325016F
:103A20006730A8F42C912D503327FD01678177274B
:103A3000762F662786819927682B792BAD018385A0
:103A40000E946C1C882319F085E10E9413021F91CB
:103A50000895CF93DF93582FFB01873018F081E052
:103A600090E033C0C82FDD27CC0FDD1FC05ADA4FDE
:103A700088819981892B19F085E090E026C07983AF
:103A80006883435F40834D5080912501873018F44F
:103A900080E090E01AC0838567817727762F6627BC
:103AA00026813327622B732B50932501242FAF01DE
:103AB0000E946C1C9927282F882329F087E0809387
:103AC000250119821882822F9927DF91CF910895BD
:103AD000AF92BF92CF92DF92EF92FF920F931F931C
:103AE000BC0180913E02882309F479C08091F503DE
:103AF000882309F074C081E08093F50360939601F8
:103B0000872F9927809395018EED6030780721F0FB
:103B1000AA24BB24650108C0A0907101B090720175
:103B2000C0907301D0907401A0929A0111270D2DBD
:103B3000FC2CEB2CE0929901960144275527209309
:103B400098018D2D9927AA27BB27E5E9F1E082830B
:103B5000FF2400271127102F0F2DFE2CEE24B82F45
:103B6000AA2799278827332744275527A9013327D0
:103B70002227822B932BA42BB52B2A2D33274427C6
:103B80005527822B932BA42BB52BE82AF92A0A2B35
:103B90001B2BE114F1040105110511F410E010C014
:103BA00060507E4D21F41AE06FEB77E003C010E027
:103BB00060E070E0412F55278BE991E00E94E54FCE
:103BC0008FEF80938F018093900180E68093940122
:103BD0001A5F412F69E871E085E00E94291D1F915D
:103BE0000F91FF90EF90DF90CF90BF90AF9008952E
:103BF0001F93182F81E090E0909348018093470134
:103C0000109249020E94E5198FB7F89499271093F2
:103C100041018FBF82E00E9413021F910895BF925D
:103C2000CF92DF92EF92FF920F931F93B82E809165
:103C30006D01882319F085E090E04CC0EB2DFF2743
:103C4000E931F105B8F4EF56FF4FEE0FFF1F059075
:103C5000F491E02D099482E00E94B5039927282F62
:103C6000882349F481E080936D01B0927F0C80E05D
:103C700090E030C021E0822F99272CC0CC24DD2495
:103C8000760100E010E020E030E040E050E060E04D
:103C9000E2CFCC24DD24760100E010E020E030E02B
:103CA00040E050E063E0D7CFCC24DD24760100E093
:103CB00010E020E030E040E050E061E0CCCFCC24E8
:103CC000DD24760100E010E020E030E040E050E04C
:103CD00062E0C1CF1F910F91FF90EF90DF90CF90E6
:103CE000BF900895CF92DF92EF92FF920F931F93B0
:103CF000982F80916D01882319F085E090E04AC0EB
:103D0000E92FFF27E931F105A8F4E655FF4FEE0F43
:103D1000FF1F0590F491E02D099483E00E94B50304
:103D20009927282F882339F481E080936D0180E062
:103D300090E030C021E0822F99272CC0CC24DD24D4
:103D4000760100E010E020E030E040E050E060E08C
:103D5000E4CFCC24DD24760100E010E020E030E068
:103D600040E050E063E0D9CFCC24DD24760100E0D0
:103D700010E020E030E040E050E061E0CECFCC2425
:103D8000DD24760100E010E020E030E040E050E08B
:103D900062E0C3CF1F910F91FF90EF90DF90CF9023
:103DA0000895813051F0813030F0823041F083301D
:103DB00041F081E009C085E105C088E103C086E1EA
:103DC00001C087E10E94721E99270895CF92DF9269
:103DD000EF92FF920F931F93CFB6F894DD240E94C9
:103DE0008704DC01CB0166E470E00E94584FABE031
:103DF000EA2EF12CE80EF91EF092830CE092820C70
:103E00000E94720800271127A80197010E942F091C
:103E1000CFBE1F910F91FF90EF90DF90CF9008954C
:103E200061E081E00E9454058823E9F48FB7F8949B
:103E3000282F33278091420190914301892B11F063
:103E40002FBF20C081E090E0909343018093420116
:103E50002FBFDD9A0E94720824E130E040E050E07C
:103E60000E942F090FC062E081E00E946E05882346
:103E700019F089E090E0089561E081E00E946E050C
:103E8000882319F080E090E0089585E090E008959F
:103E9000EF92FF920F931F9380911305843090F45B
:103EA00010923902B4E5EB2EF12C012D112D2BE2ED
:103EB00033E040E050E060E070E0809159040E94FF
:103EC000271505C00E94101F83E0809339021F91BF
:103ED0000F91FF90EF900895EF92FF920F931F9331
:103EE00080913902823009F04EC0809147029927B3
:103EF000982F8827209148023327822B932BE8168E
:103F0000F906A9F080915904813049F0813028F0F8
:103F1000823049F08330B9F508C08AE001C08DE0F5
:103F20000E940F1E30C08BE0FBCF8CE0F9CF409198
:103F300082034F5F40938203809133034817B0F4AC
:103F400081E0809339025527440F551F40585F4F39
:103F50006627772712E0E12EF12C012D112D27E4A1
:103F600032E0809159040E9427150DC0E09113059D
:103F7000EF5FE0931305FF27E05FFE4F80818093A2
:103F800059040E94481F1F910F91FF90EF900895D0
:103F9000CF92EF92FF920F931F938930E9F08A300E
:103FA00038F4873099F08830A8F4863001F50CC0D9
:103FB0008231B1F0833118F48131C9F40FC08331FB
:103FC00089F08431A1F410C080E001C082E00E9439
:103FD0006C1F0DC083E0FBCF81E0F9CF80E005C00E
:103FE00082E003C083E001C081E00E944A091F9182
:103FF0000F91FF90EF90CF90089580913902823019
:1040000019F0833071F4FBCFE0911305EF5FE0937B
:104010001305FF27E05FFE4F8081809359040E94C3
:10402000481F08951F93CF93DF938FB7F894C82F3D
:10403000DD271C2F80914701909148010897C9F412
:1040400089E00E94391983E00E94491AC09A81E0F0
:1040500090E090934801809347018FB7F894992797
:1040600023E0209341018FBF82E00E941302CFBF63
:1040700030C0C0988091B80C882311F085E001C051
:1040800084E00E94391983FD09C080E00E9439193B
:1040900083FF04C085E090E020E003C083E090E06F
:1040A00021E09093480180934701C09A1FBF2223CB
:1040B00041F01092D30183E00E94491A0E94E61E4B
:1040C00008C00E94720820E431E040E050E00E9405
:1040D0002F09DF91CF911F9108951F93CF93DF9305
:1040E0008FB7F8949927109114018FBF123009F4FB
:1040F00065C0133030F4112359F0113009F0ACC011
:1041000048C0133009F474C0143009F0A5C0A2C02F
:10411000C0988FB7F894C82FDD2780914201909105
:1041200043010297A1F583E090E0909343018093CF
:10413000420168E170E08DE10E94E21A81E0809323
:104140007D041092440180B3992736E096958795B7
:104150003A95E1F78170907080937E0485E00E942B
:10416000130281E00E9439196FE772E08CE10E942E
:10417000E21A0E94431B0E94091B66E57AE287E16E
:104180000E94E21A6FEF70E885E10E94E21ACFBF49
:1041900063C0C09886E00E9439190E94431B0E94A8
:1041A000091B0E943B13C09AC09883E00E943919F2
:1041B000C09A81E00E94491A84E045C0C0988FB738
:1041C000F894C82FDD2760E080E00E946E05882308
:1041D00011F0CFBF0AC0CFBF83E50E94E30580E0A6
:1041E0000E94E30580E00E94E305C09A82E02FC0B0
:1041F0008FB7F8949927209147018FBF243039F069
:10420000283041F0223011F50E94911B25C00E94F8
:10421000122022C0C09889E00E943919C09A83E018
:104220000E94491A8FB7F894992721E030E0309323
:104230004801209347018FBF8FB7F89499271093B7
:1042400041018FBF82E00E94130206C083E00E94FA
:10425000491A02C00E948619DF91CF911F910895DB
:10426000EF92FF920F931F93CF93DF938B01809177
:1042700081049091820486FF45C18F7B8F3309F0C2
:1042800093C1C0917A01D0917B0158815093730200
:1042900080917002909171028530910509F443C0BC
:1042A0008630910509F48AC0029709F024C185E09F
:1042B00090E0909371028093700240914302852FA9
:1042C00099270196242F3327281739074CF1B799DE
:1042D00006C00E9904C0451B4150409343024091D3
:1042E00073024034E8F44423A1F0BE016F5F7F4FB6
:1042F000483018F047E050E007C086E090E0909327
:10430000710280937002552780E090E00E945D0664
:104310004BC11092F803C09A84E00E94491AE8C089
:104320000E94D11A41C186E090E09093710280937F
:10433000700280915804882309F439C08091D30712
:104340008823A9F5898185FF32C08F814E812FB7DF
:10435000F89433276091790470917A042FBF9927DC
:10436000982F88275527842B952B8617970759F068
:104370008F812E819927982F88273327822B932B83
:104380008F5F9F4FA1F489818770813081F4C09A3B
:10439000C0988AE00E943919C09AC098409173026F
:1043A00047502896BE018FE30E945419FDC04091EA
:1043B0007302475055272896BE01A6CFC09A809118
:1043C0008003882339F484E00E94491A8091800395
:1043D000882311F0B7990AC00E9B08C09091FF0B7B
:1043E000992321F0809173028B3038F480917A0107
:1043F00090917B010E94D90D3EC0913009F5E0916A
:10440000090CFF27EE0FFF1FEE0FFF1FEF56F44FB3
:104410002081318142815381E0917A01F0917B01C9
:10442000FE962187BB27A52F942F832F8087CA0153
:10443000AA27BB278783252F332744275527268381
:104440008091090C9927019668E070E00E946C4FFA
:104450008093090C8091FF0B81508093FF0B882380
:1044600051F080917A0190917B010E94D90D1092B8
:10447000090C1092FF0B80917302FE01E80FF11DF1
:10448000808187FF35C0012B99F169816770209188
:104490007A0130917B01623039F5C0915A04D09194
:1044A0005B04209729F1809147019091480107977B
:1044B000F9F49B81F90183819817D1F487B78F7E36
:1044C00087BFDE01DE96908181E0FD018483F901E2
:1044D000E90FF11D829131968C9380818F778FAF98
:1044E00080E00E94F81D04C0613011F489E02AC008
:1044F0000E949C1A59C01092F803C09A84E00E944E
:10450000491A52C08E3309F04FC0C09A80914701BA
:10451000909148010897C9F4C09889E00E94391920
:10452000C09A83E00E94491A81E090E0909348018C
:10453000809347018FB7F894992723E02093410196
:104540008FBF82E00E9413022FC08091B80C882395
:1045500049F484E090E090934801809347010E94E1
:10456000122022C083E00E94491A83E090E09093D9
:104570004801809347010E948704DC01CB0166E378
:1045800071E00E94584F4BE0E42EF12CE80EF91E2A
:10459000F0923802E09237020E9472080027112739
:1045A000A80197010E942F09DF91CF911F910F91D0
:1045B000FF90EF9008951F920F920FB60F92112463
:1045C0002F933F934F935F936F937F938F939F931B
:1045D000AF93BF93EF93FF932FB1E0910407F09156
:1045E0000507309739F08091140590911505E80F73
:1045F000F91F2083809114059091150501969093E1
:1046000015058093140580E00E948B054091870179
:104610005091880180911405909115058417950794
:1046200018F40E94EF051CC0609104077091050703
:1046300080917A0C90917B0C1092050710920407E0
:1046400010927B0C10927A0C1092880110928701C4
:1046500010921505109214052FB120E00E94302110
:10466000FF91EF91BF91AF919F918F917F916F914A
:104670005F914F913F912F910F900FBE0F901F9020
:10468000189578941F920F920FB60F9211242F92C3
:104690003F924F925F926F927F928F929F92AF92D2
:1046A000BF92CF92DF92EF92FF920F931F932F93BF
:1046B0003F934F935F936F937F938F939F93AF93AA
:1046C000BF93CF93DF93EF93FF93C6B5D7B58FB763
:1046D000F894282E0E9472089B012C1B3D0B442746
:1046E00055272B013C01421A530A640A750A80912E
:1046F0004701909148018530910521F0069709F016
:10470000E3C0C2C086E090E09093480180934701E7
:1047100031E0332E3092F4031092490180E00E9480
:104720002A0EE0915A04F0915B04FE964186BB2765
:10473000A72D962D852D8087C301AA27BB278783A8
:10474000872D9927AA27BB278683E0915A04F091E9
:104750005B04FE968581FE97882309F484C06081FE
:10476000655077274F01860E971EF4012081E18066
:104770008281A3809927AA27BB27BA2FA92F982F18
:104780008827332744275527522F442733272227AA
:10479000FF24002711278701FF24EE242E293F291B
:1047A000402B512BBB24CC24DD242A293B294C2926
:1047B0005D29822B932BA42BB52B84199509A6096F
:1047C000B7098383292F3A2F4B2F552722839D0129
:1047D0004427552721838B2F9927AA27BB2780831E
:1047E000C09824E0A40180E090E00E94E90DC09A06
:1047F000F4012081E1808281A3809927AA27BB2729
:10480000BA2FA92F982F8827332744275527522FAF
:10481000442733272227FF24002711278701FF245D
:10482000EE242E293F29402B512BBB24CC24DD2400
:104830002A293B294C295D29822B932BA42BB52BAC
:10484000840D951DA61DB71D8383292F3A2F4B2F4D
:10485000552722839D014427552721838B2F992794
:10486000AA27BB278083E0915A04F0915B048181E1
:1048700085FF02C03092490283E00E94491A87B73F
:104880008F7E87BF84997AC01092F40381E00E94E2
:104890002A0EE0915A04F0915B04818185FF0FC0DC
:1048A00087E090E090934801809347010E9472084E
:1048B00020E031E040E050E00E942F0903C080E09A
:1048C0000E94F81D849B5AC080914901882391F56C
:1048D0008091F403882371F511E01093F4030E9492
:1048E0002A0E80B32091FF0B283098F4E091090C38
:1048F000E20FFF27E770F070EE0FFF1FEE0FFF1FB4
:10490000EF56F44F40825182628273822F5F209370
:10491000FF0B10934901D0938404C09383048499BE
:104920002DC0992724E0969587952A95E1F7182FB1
:10493000117001C010E08091F4038130F9F41092FD
:10494000F4030E942A0E109249011123B9F48091B8
:10495000830490918404C81BD90B2A9778F4809122
:10496000FF0B882319F081508093FF0B80915A042C
:1049700090915B04009711F00E94D90D2FBEFF911A
:10498000EF91DF91CF91BF91AF919F918F917F91E7
:104990006F915F914F913F912F911F910F91FF90D8
:1049A000EF90DF90CF90BF90AF909F908F907F90CF
:1049B0006F905F904F903F902F900F900FBE0F9091
:1049C0001F90189578941F920F920FB60F92112492
:1049D0001F932F933F934F935F936F937F938F9387
:1049E0009F93AF93BF93EF93FF9387B78F7E87BF5C
:1049F00078941FB7F89480916A0490916B04A09109
:104A00006C04B0916D040097A105B10509F051C087
:104A100080914701909148018530910561F1863080
:104A2000910530F48330910549F0049781F51AC05F
:104A300087309105F1F0089751F514C0869B0FC09F
:104A400084E090E090934801809347010E947208AF
:104A500027E030E040E050E00E942F0918C00E949B
:104A6000E61E15C00E94C517882389F40E941220F3
:104A70000EC080E00AC089E00E94391981E00E94DE
:104A80002A0E83E00E94491A87E00E94F81D809157
:104A9000420190914301019771F482E090E090937C
:104AA000430180934201DE98DE9A80E00E944A171B
:104AB00002C00E948F08812F99278FBFFF91EF912D
:104AC000BF91AF919F918F917F916F915F914F9126
:104AD0003F912F911F910F900FBE0F901F9018952F
:104AE000AF92BF92CF92DF92EF92FF920F931F93FC
:104AF0000E9441047B018C01609148067091490637
:104B000080914A0690914B06A0907E01B0907F0163
:104B1000C0908001D0908101A114B104C104D104DE
:104B200009F44EC0EFB7F8942091520720FD36C02B
:104B3000A8019701261B370B480B590B2A153B057B
:104B40004C055D05C8F4A21AB30AC40AD50A8091BF
:104B50007E0190917F01A0918001B0918101821B23
:104B6000930BA40BB50B80937E0190937F01A093D0
:104B70008001B093810115C081E090E0A0E0B0E039
:104B800080937E0190937F01A0938001B093810177
:104B9000F1E0AF2EB12CC12CD12C03C02E7F20937D
:104BA00052078E2F99278FBF0E944104AB01BC0191
:104BB000E1E0EE2E9601850187E00E94220405C007
:104BC000809150068D7F809350061F910F91FF902A
:104BD000EF90DF90CF90BF90AF900895FF920F932A
:104BE0001F93CF93DF93F82E282F33278BE090E08D
:104BF000289FE001299FD00D389FD00D1124C45863
:104C0000DE4F81E090E0998388831A868A819B81B8
:104C1000AC81BD810097A105B105A1F00FB7F89453
:104C20001127C9010E94CD070FBF1A821B821C8267
:104C30001D821E821F82188619868F2D0E94B5182C
:104C40000E947025DF91CF911F910F91FF900895E1
:104C50009C0180911F02882309F455C0AFEBB7E097
:104C6000F9018AE001900D928150E1F78091710184
:104C700090917201A0917301B0917401CD01AA27A6
:104C8000BB270196A11DB11D809371019093720104
:104C9000A0937301B09374010097A105B10561F46D
:104CA00081E090E0A0E0B0E0809371019093720108
:104CB000A0937301B093740120917101309172013E
:104CC0004091730150917401A901332722278091EB
:104CD0000E0190910F01AA27BB27280F391F4A1FE9
:104CE0005B1F2093710130937201409373015093C5
:104CF000740180E09EED0E94681D80E00E94EE2518
:104D00008FE10E9413020895EF92FF920F931F9379
:104D1000CF93DF930FB7F894112781E00E942A0EFA
:104D200031E0E32EF12CF0924801E092470110921D
:104D3000490110924902109228030FBF0FB7F8944F
:104D400011270E94CD0DF0927102E0927002109234
:104D5000F80389B78F7B89BF80E488BF8AB78062F8
:104D60008ABF8AB78F7E8ABF89B7806489BF0FBF29
:104D70008FB7F894C82FDD278091420190914301AD
:104D8000049719F483E00E943919CFBF0FB7F89444
:104D90001127C09A80E00E94491A0FBF8FB7F8947C
:104DA000992722E02093B2078FBF80917E019091D6
:104DB0007F01A0918001B09181010097A105B1050B
:104DC00031F510927E0110927F01109280011092B5
:104DD000810110928201109283011092840110923D
:104DE00085011092860180E00E94B5180FB7F894F3
:104DF000112780E090E00E94CD070FBF0E94702530
:104E000080E00E94EE2581E080931F0203C080E0D5
:104E10000E94EE2581E080933E028093650180919F
:104E20006601882311F00E94870480915F018460ED
:104E300080935F0190E080916201882309F491E002
:104E4000992319F483E10E9413020E94720BDF91EF
:104E5000CF911F910F91FF90EF900895AF92BF9265
:104E6000CF92DF92EF920F931F9320918E073327FB
:104E70002150304081E090E0A0E0B0E004C0880F15
:104E8000991FAA1FBB1F2A95D2F780938A07909378
:104E90008B07A0938C07B0938D070E948704A09086
:104EA0008A07B0908B07C0908C07D0908D07882719
:104EB00099270894A108B108C108D1086A217B216B
:104EC0008C219D210894A11CB11CC11CD11CA60ED3
:104ED000B71EC81ED91EA0928A07B0928B07C09237
:104EE0008C07D0928D0780918F078E7F80938F07DC
:104EF000809147068D7F809347060E944104AB0155
:104F0000BC01E1E0EE2E9601850186E00E942204BC
:104F10001F910F91EF90DF90CF90BF90AF900895C9
:104F200080918E07893029F089E080938E070E9456
:104F30002E270895AF92BF92CF92DF92EF920F93F8
:104F40001F935B016C010E944104AB01BC01F1E0C5
:104F5000EF2E9601850182E00E9422041F910F919D
:104F6000EF90DF90CF90BF90AF900895EF92FF92B7
:104F70000F931F938091270190912801A0912901FF
:104F8000B0912A01B695A795979587958093D403FC
:104F90009093D503A093D603B093D7030E948704C0
:104FA000E090D403F090D5030091D6031091D7037D
:104FB000A80197010E947F4F6E0D7F1D801F911FDA
:104FC0006093D4037093D5038093D6039093D70353
:104FD0001092700B0E949A271F910F91FF90EF90F3
:104FE000089580E890E0A0E0B0E0809327019093DE
:104FF0002801A0932901B0932A010E94B6270895A1
:10500000AF92BF92CF92DF92EF920F931F935B010B
:105010006C010E944104AB01BC0101E0E02E96014D
:10502000850184E00E9422041F910F91EF90DF9090
:10503000CF90BF90AF900895CF92DF92EF92FF9202
:105040000F931F936C017B010E948704DC01CB014D
:10505000B6010E94584FE80EF91E00271127C8011B
:10506000B7010E9400281F910F91FF90EF90DF90F1
:10507000CF9008950F931F93CF93DF93EC01E091AE
:105080006001FF27EE0FFF1FE85AF44F00811181E6
:10509000662329F06CE170E08CE190E031C08091F2
:1050A0005F0183FF3FC0EE968C81EE978823D1F598
:1050B0008F819927982F88272E813327822B932B36
:1050C0000E94EB09982F8F3F71F08EE0989FF001BE
:1050D0001124E858FA4F85858F5F8587853018F051
:1050E000CF010E94640A86E10E941302F8018381C5
:1050F00081508383882339F067E070E087E090E097
:105100000E941C283FC00E947F0A80915F018F7E11
:1051100080935F0167E070E087E090E00E941C28C8
:1051200040E02CC00E947F0A80915F018F7E8093B7
:105130005F0167E070E087E090E00E941C288F81AB
:105140009927982F88272E813327822B932B0E9413
:10515000EB09982F8F3F89F08EE0989FF001112482
:10516000E858FA4F84858F5F848785858F5F8587B0
:10517000853018F0CF010E94640A41E0BE01C801E9
:105180000E949213DF91CF911F910F910895AF92DA
:10519000BF92CF92DF92EF920F931F93882389F0F3
:1051A0000E9487045B016C018FEF90E0A0E0B0E00B
:1051B000A822B922CA22DB2280E190E0A0E0B0E080
:1051C00010C00E9487045B016C018FE790E0A0E0B3
:1051D000B0E0A822B922CA22DB2280E890E0A0E059
:1051E000B0E0A80EB91ECA1EDB1E0E944104AB012E
:1051F000BC01E1E0EE2E9601850185E00E942204CB
:105200001F910F91EF90DF90CF90BF90AF900895D6
:10521000EF920F931F93282FCB01233009F12430F5
:1052200028F4213081F02230C0F409C0253009F47F
:1052300047C0253010F1263009F044C041C0642F2A
:105240000E943A283FC06A5F7340E1F58091670190
:105250008823C1F11092670135C01092690132C0F4
:1052600080916A01853071F580915C048150809352
:105270005C0480E00E94C72825C020912705E22F0A
:10528000E695E695E695FF27EC5AF84F277081E002
:1052900090E002C0880F991F2A95E2F7809520813F
:1052A000282320830E944104AB01BC01F1E0EF2ED2
:1052B00002E010E020E030E085E00E94220402C01D
:1052C0001092F5031F910F91EF900895EF92FF92C6
:1052D0000F931F93E82E8B01F42EE82FFF27EE0F7C
:1052E000FF1FE05AFA4F118210820E94D61C4F2DE8
:1052F000B8018E2D0E9408291F910F91FF90EF9009
:1053000008950F931F93CF93DF93042F10912501DE
:105310001730A0F4E12FFF27EE0FFF1FE05AFA4FDE
:10532000C081D181C617D70749F4118210820E942B
:10533000D61C402FBE01812F0E940829DF91CF91FA
:105340001F910F910895CF93DF93C0914B01D0919E
:105350004C0160918A04CE010E94D71B482F55272B
:10536000442351F08FEF80931B0160914B017091AA
:105370004C018B850E948129DF91CF910895EF9296
:10538000FF920F931F93CF93DF93CDB7DEB7229792
:105390000FB6F894DEBF0FBECDBF60916A01862FB5
:1053A0008250823008F0CBC0E090B807FF2400277D
:1053B0001127102F0F2DFE2CEE242091B607332736
:1053C00044275527522F4427332722278091B70798
:1053D0009927AA27BB27DC0199278827282B392B57
:1053E0004A2B5B2B8091B9079927AA27BB27282B2B
:1053F000392B4A2B5B2BE22AF32A042B152B8091A5
:105400002C0190912D01A0912E01B0912F018E15AC
:105410009F05A007B10729F480918F0781608093D1
:105420008F07623061F580916C01882309F087C095
:1054300081E080936C0183E00E94AC2A80912C0172
:1054400090912D01A0912E01B0912F0180932505FF
:10545000292F3A2F4B2F5527209324059D014427B0
:105460005527209323058B2F9927AA27BB278093A5
:1054700022058091300180932605109227056091C6
:105480002705772728E130E044E557E0CE01019673
:105490000E941D03882321F081E00E94AC2A4FC0A6
:1054A00089818093270520913001422F5527662757
:1054B00077272AE0440F551F661F771F2A95D1F7DB
:1054C0002CE2829FC0011124AA27BB27480F591F35
:1054D0006A1F7B1F80916B01823079F08330B1F0BD
:1054E000813011F081E01CC09CE2E92EF12C012DED
:1054F000112D28E235E082E011C08CE2E82EF12C7B
:10550000012D112D28E235E080E008C00CE2E02EEC
:10551000F12C012D112D28E235E081E00E94DA14F2
:10552000882369F00E944104AB01BC0111E0E12E27
:1055300000E110E020E030E085E00E9422042296A5
:105540000FB6F894DEBF0FBECDBFDF91CF911F9194
:105550000F91FF90EF900895823040F490916A018E
:10556000933011F0953011F410926C0180936A0120
:1055700008950F931F938B019C0190916A01892FCD
:105580008250823000F580912C0190912D01A091E4
:105590002E01B0912F01081719072A073B074CF07D
:1055A000081719072A073B0751F580913001481762
:1055B00030F581E00E94AC2A1092540710925507F2
:1055C000109256071CC094509230C8F4809131015B
:1055D00090913201A0913301B0913401081719075D
:1055E0002A073B074CF0081719072A073B0739F42D
:1055F00080913501841718F081E08093820B1F9110
:105600000F910895CF92EF920F931F9385E0283268
:10561000380769F580916A01833049F5CC2021F083
:1056200081E00E94AC2A23C0809106069091070673
:1056300080931C05892F992780931D0582E580930F
:10564000210542E3B9016251704084E00E94291DA6
:10565000882369F00E944104AB01BC01A1E0EA2E5D
:1056600000E110E020E030E085E00E9422041F917C
:105670000F91EF90CF900895DF92EF92FF920F93EA
:105680001F937B018C01D42E80916A01882319F429
:1056900081E00E94AC2AE0923101F0923201009345
:1056A000330110933401D09235018FEF8093910430
:1056B000809392048093930480E090E01F910F9177
:1056C000FF90EF90DF90089580916A018430F1F5AA
:1056D00080916C01882309F079C081E080936C018E
:1056E00085E00E94AC2A809106069091070680937F
:1056F0002305892F99278093220580910E0190918F
:105700000F0180932505892F992780932405809187
:10571000310190913201A0913301B0913401809315
:105720002905292F3A2F4B2F5527209328059D0116
:1057300044275527209327058B2F9927AA27BB2776
:10574000809326058091350180932A0580916A0116
:105750008530E1F58091820B882331F080E00E9452
:10576000C7281092820B089580915C04882321F44D
:1057700081E00E94AC2A08958091910480932B05CA
:105780008091920480932C058091930480932D0541
:10579000809122059927982F882720912305332768
:1057A000822B932B80931C05892F992780931D05AD
:1057B00081E5809321054CE066E175E083E00E947D
:1057C000291D882319F080E00E94C72808958F9230
:1057D0009F92AF92BF92CF92DF92EF92FF920F9380
:1057E0001F93CF93DF93CDB7DEB728970FB6F8940A
:1057F000DEBF0FBECDBF4B015C01CC24DD24E9E050
:10580000F6E0608561FF98C120813181428153813A
:10581000E480F58006811781D501C401821B930BBA
:10582000A40BB50B8E159F05A007B10708F484C122
:1058300060FF03C06D7F608708C02E0D3F1D401FB5
:10584000511F208331834283538325E0C21609F41C
:1058500089C02C1560F083E0C81609F46EC08C1561
:1058600008F477C022E0C21609F06FC110C087E0CB
:10587000C81609F4D3C0C81608F479C029E0C216C6
:1058800009F401C18AE0C81609F05FC110C1809116
:105890006501882309F459C180916601882309F4C0
:1058A00054C18091700B882301F586E10E94130298
:1058B00087E10E9413026091270170912801809175
:1058C000290190912A012091D4033091D503409170
:1058D000D6035091D703621B730B840B950B21E009
:1058E0002093700B0E949A2730C1809127019091DC
:1058F0002801A0912901B0912A01880F991FAA1FA0
:10590000BB1F8093270190932801A0932901B09396
:105910002A018150904DA740B04060F080E090EDAA
:10592000A7E0B0E08093270190932801A09329017C
:10593000B0932A010E94B62708C18091650188238F
:1059400009F403C180916601882309F4FEC086E151
:1059500006C080915F018F7E80935F0183E10E948A
:105960001302F3C00E94642B0E94BF29EEC08091F5
:105970008F0780FD2FC080916901882359F58091A0
:105980000E0190910F0180939C02892F992780939B
:105990009B0282E080939D0210929E02AFE9B2E0EA
:1059A000E6EBF7E089E001900D928150E1F78FEF8F
:1059B000809395028093960280E580939A024EE050
:1059C0006FE872E082E00E94291D882319F481E0CB
:1059D0008093690190E080916A01823008F091E043
:1059E00080918F07992319F08170846007C0982FE8
:1059F000969531F09150990F8170892B80938F0784
:105A000080918F078E7F39F480918E07863118F44C
:105A10008F5F80938E070E942E2797C020914C069F
:105A200030914D0640914E0650914F0680917E0177
:105A300090917F01A0918001B09181010097A10513
:105A4000B105F1F082179307A407B507C9F4809157
:105A50008601882361F42FB7F89433278091770566
:105A60008160809377052FBF80E20E94130280E05F
:105A700090E00E94CD0780E00E94B5181092860148
:105A80000E94702562C080917901882309F05DC071
:105A900082E10E940F08882319F082E10E94F81524
:105AA00080917901882309F050C0D99A4EC0809125
:105AB000C9079927853021F0863009F046C014C007
:105AC00040E050E060E070E08091CE070E94E60781
:105AD00060933302709334028093350290933602C0
