S01800006275696C642F6D6963617A2F6D61696E2E73726563E5
S11300000C94EC010C94BC0E0C94C60E0C94D00E03
S11300100C94DA0E0C94E40E0C94EE0E0C94371936
S11300200C94F80E0C940B020C940B020C94E62026
S11300300C948A220C94860E0C949C0E0C9413142B
S11300400C94750E0C94C5240C94B1100C940B02F2
S11300500C942D110C94B3120C940B020C940B02FF
S11300600C94910E0C9480120C945F120C946A12EE
S11300700C9475120C9493120C9442120C940B026F
S11300800C9454120C940B020C940B0294149B14B5
S11300908D1494149B148D14861494149B148D1431
S11300A0861494149B148D1494149B148D14861428
S11300B094149B148D14861494149B148D14E514B9
S11300C0EA14E014E514EA14E014DB14E514EA1469
S11300D0E014DB14E514EA14E014E514EA14E01463
S11300E0DB14E514EA14E014DB14E514EA14E01458
S11300F04F1554154A154F1554154A1545154F15E6
S113010054154A1545154F1554154A154F155415D0
S11301104A1545154F1554154A1545154F155415CF
S11301204A158D1E981E821E8D1E981E821E771ED5
S11301308D1E981E821E771E8D1E981E821E8D1E79
S1130140981E821E771E8D1E981E821E771E8D1E7F
S1130150981E821EEF1EFA1EE41EEF1EFA1EE41EF7
S1130160D91EEF1EFA1EE41ED91EEF1EFA1EE41E4F
S1130170EF1EFA1EE41ED91EEF1EFA1EE41ED91E3F
S1130180EF1EFA1EE41EF3419242A142F342F742EB
S1130190FE4237433A435D4373437643A9430144E4
S11301A02A440F456D456F457245A845AB45D94175
S11301B0D345E745D34696471149BB47C2470C4848
S11301C0224943494E4AE04175498D491A4AEB4157
S11301D0334A00002110422063308440A550C66099
S11301E0E770088129914AA16BB18CC1ADD1CEE1F0
S11301F0EFF13112100273325222B5529442F77267
S1130200D662399318837BB35AA3BDD39CC3FFF33F
S1130210DEE36224433420040114E664C774A44476
S113022085546AA54BB528850995EEE5CFF5ACC58F
S11302308DD55336722611163006D776F666955646
S1130240B4465BB77AA719973887DFF7FEE79DD7DF
S1130250BCC7C448E5588668A778400861180228D6
S11302602338CCC9EDD98EE9AFF9488969990AA92F
S11302702BB9F55AD44AB77A966A711A500A333AA6
S1130280122AFDDBDCCBBFFB9EEB799B588B3BBB7F
S11302901AABA66C877CE44CC55C222C033C600C36
S11302A0411CAEED8FFDECCDCDDD2AAD0BBD688DCF
S11302B0499D977EB66ED55EF44E133E322E511E86
S11302C0700E9FFFBEEFDDDFFCCF1BBF3AAF599F1F
S11302D0788F8891A981CAB1EBA10CD12DC14EF1BF
S11302E06FE18010A100C230E32004502540467025
S11302F06760B9839893FBA3DAB33DC31CD37FE350
S11303005EF3B1029012F322D23235421452776274
S11303105672EAB5CBA5A89589856EF54FE52CD51F
S11303200DC5E234C324A0148104667447642454C4
S11303300544DBA7FAB79987B8975FE77EF71DC72F
S11303403CD7D326F2369106B01657667676154614
S113035034564CD96DC90EF92FE9C899E9898AB97F
S1130360ABA94458654806782768C018E108823864
S1130370A3287DCB5CDB3FEB1EFBF98BD89BBBAB8F
S11303809ABB754A545A376A167AF10AD01AB32AB4
S1130390923A2EFD0FED6CDD4DCDAABD8BADE89DDF
S11303A0C98D267C076C645C454CA23C832CE01C04
S11303B0C10C1FEF3EFF5DCF7CDF9BAFBABFD98F6F
S11303C0F89F176E367E554E745E932EB23ED10E54
S11303D0F01E00081C18141011241FBECFEFD0E12A
S11303E0DEBFCDBF11E0A0E0B1E0EEEEFFE900E03A
S11303F00BBF02C007900D92A034B107D9F71FE0DC
S1130400A0E4B1E001C01D92AF3DB107E1F70E9445
S1130410804A0C94F64F0C9400008FB7F8949927F7
S113042008958FBF0895282F9FB7F894E82FFF27CA
S1130430EA57FD4F80818F3F81F4E091710FE217FD
S113044071F40BC02093B00E04C0FF27EA57FD4F90
S113045020832093710F20E007C025E005C0809120
S1130460B00E8F3F91F7EECF892F99278FBF822F40
S1130470992708951F931FB7F89480916A0F8823D2
S113048041F48DE00E941302882319F481E08093E3
S11304906A0F812F99278FBF1F910895382FFA0172
S11304A0422F213518F082E090E008956683872F6B
S11304B09927858333872187809152019091530135
S11304C0892B19F085E090E008952FB7F89433272D
S11304D085E08093550110925601F0935101E09309
S11304E0500182E090E09093530180935201109266
S11304F0580110925701445F409354012FBF8FB7A6
S1130500F894282F33278091B3088A3011F42FBF31
S113051019C02FBF9FB7F89480911D05882311F04F
S113052020E006C081E080931D0510921E0521E0A5
S1130530892F99278FBF222329F00E943A0280E055
S113054090E00895109253011092520181E090E0DE
S113055008951F93CF93DF93E82FFF27EE0FFF1F1C
S1130560ED5BF14F1182108280913E019927019633
S113057062E070E00E94584F682F80933E0110E0C3
S1130580462F5527FA01EE0FFF1FED5BF14FA081B7
S1130590B181109799F0E62FE695E695E695FF2749
S11305A0E250FB4F808199279A012770307002C076
S11305B0959587952A95E2F780FF0DC0CA010196AB
S11305C062E070E00E94584F682F1F5F1230C1F63E
S11305D010933E011AC060933E016230B0F4FD01F5
S11305E0359624813327ED016D817727762F662791
S11305F081819927682B792BAD0186810E944E0257
S1130600882319F085E20E941302DF91CF911F9194
S11306100895CF92DF92EF92FF920F931F93CF939F
S1130620DF936C018B017A01E901232B19F1FB01A2
S113063043E0F695E7954A95E1F7EE0DFF1D8081BD
S113064099279B012770307002C0959587952A954C
S1130650E2F780FF06C0F6017183608380E090E0DA
S11306600BC0CB010196BE010E94444FBC01801710
S11306709107E9F681E090E0DF91CF911F910F910E
S1130680FF90EF90DF90CF900895CF93DF93982F52
S11306908FB7F894282F3327422F80916F01882336
S11306A021F581E080936F01909306092FBF8FB7E6
S11306B0F894C82FDD279C2F80913901843099F458
S11306C080916F01813021F48DE10E94130209C0F1
S11306D0823049F4809106098093390183E0809344
S11306E06F01CFBF07C09FBF05C08091060989175E
S11306F021F42FBF80E090E021C0E92FFF27E454CC
S1130700F14F80818F3F89F4E0913801E91789F432
S11307100CC09093370104C0FF27E454F14F908339
S11307209093380180E090E002C085E090E04FBFF4
S113073005C0809137018F3F79F7EBCFDF91CF91DF
S11307400895CF92DF92EF92FF920F931F93CF936E
S1130750DF93782FC62FDD278BE090E0C89FF00150
S1130760C99FF00DD89FF00D1124E75DFA4F8081E9
S1130770882319F085E090E048C0643018F480E0E4
S113078091E002C080E090E0AA27BB27BA2FA92FEE
S1130790982F882782179307A407B507A0F1821B17
S11307A0930BA40BB50B8C159D05AE05BF0558F135
S11307B08BE090E0C89FF001C99FF00DD89FF00D29
S11307C01124E75DFA4F7083238334834583568372
S11307D0C782D086E186F28612830183613069F094
S11307E0613028F0623059F0633059F003C080E082
S11307F00E94450380E090E008C081E0F9CF82E0E8
S1130800F7CF83E0F5CF86E090E0DF91CF911F91A1
S11308100F91FF90EF90DF90CF9008957FB7F894F9
S113082062B720915C0230915D0240915E0250916A
S11308305F0206B601FE0FC081B792B7280F311DC3
S1130840411D511D2F5F3F4F4F4F5F4F290F311DEA
S1130850411D511D04C0260F311D411D511D872FFF
S113086099278FBFCA01B90108952F923F924F92E1
S11308705F926F927F928F929F92AF92BF92CF922C
S1130880DF92EF92FF920F931F93CF93DF93CDB735
S1130890DEB729970FB6F894DEBF0FBECDBF6FB792
S11308A06983F8942090F3043090F4044090F504A4
S11308B05090F604662477248824BEE4AB2EA3E883
S11308C0BA2ECC24DD24EE24FF2400E010E0222DF7
S11308D0332D442D552D662D772D882D90E00E94C3
S11308E0984D2A833B834C835D836E837F83888703
S11308F09987822E932EA42EB52E2401350100E271
S11309000E94964EA22EB32EC42ED52EA301920180
S113091056954795379527952A0D3B1D4C1D5D1D12
S113092057FF05C05F772F5F3F4F4F4F5F4F2093B7
S1130930F3043093F4044093F5045093F604E981EE
S11309408E2F99278FBFCA01B90129960FB6F89443
S1130950DEBF0FBECDBFDF91CF911F910F91FF90EE
S1130960EF90DF90CF90BF90AF909F908F907F904B
S11309706F905F904F903F902F900895FC0182817B
S11309809927582F442781819927482B592BCA012D
S1130990892F99278695869583709070823091056A
S11309A059F08330910559F0892B19F420E030E097
S11309B008C02CE93FEF05C022E030E002C028E087
S11309C030E0CA0184E0989F812D99271124823058
S11309D0910559F08330910559F0892B19F480E081
S11309E090E008C08CE99FEF05C082E090E002C06F
S11309F088E090E0280F391F2A5F3F4FCF01820F14
S1130A00931F0895282F9FB7F894662349F0E82F81
S1130A10FF27E552F74F8081882311F021E006C0BB
S1130A20E22FFF27E552F74F608320E0892F9927B3
S1130A308FBF822F99270895E82F8FB7F894282F16
S1130A40332790E0FF27E552F74F8081861709F49A
S1130A5091E02FBF892F99270895882311F06E9A6A
S1130A6008956E980895882311F06F9A08956F98E9
S1130A70089580E00E942D05BA9ABB98B99AB89A55
S1130A806C9A80E00E9433056B986A9881E00E941A
S1130A902D05709A8DB18C7F8DB908950F931F9396
S1130AA0CF93DF93182F8FB7F894C82FDD270C2F1F
S1130AB061E080E00E940205882321F0CFBF85E039
S1130AC090E024C0809117018823A1F4809146010D
S1130AD0823081F409C082E08093460110921701AC
S1130AE00E943905B89AC0981093140180E00FBF92
S1130AF099270CC080914601882369F38FB7F89435
S1130B0099271092DB088FBF81E0F1CFDF91CF915D
S1130B101F910F9108951F93182F81E00E942D05B6
S1130B201FB9779BFECF8FB199271F9108958F929C
S1130B309F92AF92BF92CF92DF92EF92FF920F9368
S1130B401F93CF93DF938FB7F8949927C090660FC4
S1130B50D090670F8090110890901208C091C7053B
S1130B60D091C8052091870130918801EAE0AE2E2A
S1130B70B12CAC0EBD1E2A153B0508F459018FBFDC
S1130B807401EC0EFD1E86010C0F1D1F14C0C11450
S1130B90D10419F0F801808101C080E00E948B0526
S1130BA08114910411F0F701808321960894E11CCB
S1130BB0F11C0F5F1F4FC5010197C817D90738F300
S1130BC081E00E9433059FB7F894C114D10431F039
S1130BD0CC0EDD1EF60180818FB901C01FB8D09301
S1130BE0C805C093C705892F99278FBF80E090E07F
S1130BF0DF91CF911F910F91FF90EF90DF90CF90F5
S1130C00BF90AF909F908F9008952FB7F89433279B
S1130C1050938801409387019093670F8093660FE8
S1130C2070931208609311081092C8051092C705BA
S1130C302FBF452B29F08FB10E949705992708955E
S1130C4087E00E94130280E090E008958FB7F89443
S1130C5099271092DD088FBF0895E2EDF1E069272E
S1130C60660FF11DE60FF11DC895982F802D319662
S1130C70C895902508951F93CF93DF93142FEB010C
S1130C8004C069910E942D0611501123D1F7DF9100
S1130C90CF911F910895982F969596959695E9ED85
S1130CA0F6E0E90FF11D877021E030E002C0220F69
S1130CB0331F8A95E2F780818223992708958091D2
S1130CC0B80E882319F02FE170E002C078E02EE11D
S1130CD0622FEFB7F8948091A1038E7F8093A103D4
S1130CE087B1982F9F71829586958695837019F0A8
S1130CF080E090E012C0822F8850863118F081E0A5
S1130D0090E00BC040E050E03327892F9927281743
S1130D10390711F441E050E0CA01982F9170990FFE
S1130D208091A1038178262F2F71422F440F440F05
S1130D30892B842B8093A103332727B9783059F565
S1130D408091B10E9091B20E21E08638920718F08E
S1130D5087E090E01FC0833C910518F086E090E0A6
S1130D6019C08136910518F085E090E013C08033F6
S1130D70910518F084E090E00DC08831910518F0D9
S1130D8083E090E007C00C9718F082E090E002C086
S1130D9080E090E0782F7770887D872B886D992785
S1130DA086B98E2F99278FBF0895FC016683672F1C
S1130DB0772765830895CF93DF93582FDB01823023
S1130DC018F081E090E038C0C82FDD27CC0FDD1F7C
S1130DD0CD5BD14F88819981892B19F085E090E012
S1130DE02BC0798368839B012B5F3F4FF9014483B8
S1130DF080913E01823018F480E090E01DC0F9013A
S1130E008681FB0165817727762F6627F901218189
S1130E103327622B732B50933E01242FAD010E9484
S1130E204E029927282F882329F082E080933E01DF
S1130E3019821882822F9927DF91CF910895CF923A
S1130E40DF92EF92FF920F931F937A018B018093AD
S1130E50610535E5C32E35E0D32E6FEF7FEFC60174
S1130E600E94D50683E5809360054E2DB60180E08F
S1130E700E94DB061F910F91FF90EF90DF90CF90BF
S1130E800895CF92EF92FF920F931F93809179016F
S1130E90833079F42256354061F410927901089434
S1130EA0E11CF11C011D111DB801A7018C2D0E942C
S1130EB01F071F910F91FF90EF90CF9008950F930C
S1130EC01F938093440308E313E06FEF7FEFC8019F
S1130ED00E94D50684E58093430341E0B80181E094
S1130EE00E94DB061F910F9108954FB7F894552780
S1130EF0FC0153E0F695E7955A95E1F7E358F74F6F
S1130F008770907021E030E002C0220F331F8A9571
S1130F10E2F78081822B80834FBF08950F931F9344
S1130F20CF93DF93182F8FB7F894282F3327022FEE
S1130F3080917601882359F581E08093760110939E
S1130F40E3042FBF8FB7F8949927379A8FBF8FB7D1
S1130F50F894C82FDD279C2F80913D018130A9F49E
S1130F6080917601813021F481E20E94130209C04C
S1130F70823059F48091E30480933D0183E08093AF
S1130F807601CFBF80E090E025C09FBFFBCF80916A
S1130F90E304811711F42FBFF5CF812F0E944B0674
S1130FA0882319F085E090E014C0E12FE695E695DA
S1130FB0E695FF27E752F94F177081E090E002C0F1
S1130FC0880F991F1A95E2F72081282B208380E04F
S1130FD090E00FBFDF91CF911F910F910895E82FFB
S1130FE09A01AB01BB27A52F942F832FBC01E130BD
S1130FF049F0E13078F0E23041F0E33049F060E06C
S113100078E008C060507F4F05C060507E4F02C03A
S113101060507D4F88279927982F872F762F662732
S1131020307044275527620F731F841F951F08953E
S11310309FB7F894292F3327422F90913C0198179A
S113104041F480917001823021F42FBF81E090E05F
S113105008954FBF80E090E00895CF93DF93982FD9
S11310608FB7F894C82FDD272C2F80917001882327
S113107061F481E08093700190930E058EE10E94EB
S11310801302CFBF80E090E021C0E92FFF27E05B8F
S1131090FB4F80818F3F89F4E0913B01E91789F48C
S11310A00CC090933A0104C0FF27E05BFB4F908390
S11310B090933B0180E090E002C085E090E02FBF78
S11310C005C080913A018F3F79F7EBCFDF91CF9143
S11310D0089581E10E941808882321F083E20E9488
S11310E01302089581E10E942D0808958FB7F894A2
S11310F060913F06709140062CB53DB506B602FEE0
S113110004C06F5F7F4F2CB53DB599278FBF8827EB
S11311109927CB017727662744275527622B732B02
S1131120842B952B0895EF92FF920F931F930E94A7
S113113076087B018C0120910A0530910B054091C2
S11311400C0550910D058091000590910105A09129
S11311500205B0910305820F931FA41FB51FE21669
S1131160F3060407150730F082179307A407B507A1
S113117058F005C082179307A407B507E0F5E816F1
S1131180F9060A071B07B8F59C01AD012E193F09A2
S1131190400B510B213060E8360760E0460760E001
S11311A0560768F180E090E8A0E0B0E0E80EF91E90
S11311B00A1F1B1FE0920A05F0920B0500930C0511
S11311C010930D0580E090E8AFEFBFEFE80EF91E35
S11311D00A1F1B1F205030484040504020930005F8
S11311E030930105409302055093030520E030E855
S11311F040E050E014C020E030E040E050E0809354
S11312000A0590930B05A0930C05B0930D0510925D
S11312100005109201051092020510920305A90120
S1131220B7012CB53DB5C9018E199F0903968417E2
S1131230950720F0B9016D5F7F4F02C0640F751FE1
S11312406115710511F461E070E0615070407BBD7F
S11312506ABD80E186BF87B7806187BF1F910F9108
S1131260FF90EF9008950F931F930FB7F8941127F1
S113127060930A0570930B0580930C0590930D05FC
S11312802093000530930105409302055093030514
S11312900E9493080FBF1F910F910895CF92EF9270
S11312A0FF9280917901843089F410927901CC20E5
S11312B031F4E09263058F2D99278093620543E012
S11312C050E060E070E08C2D0E941F07FF90EF90CB
S11312D0CF900895862F90917901913011F0963036
S11312E041F41092790141E050E060E070E00E9426
S11312F01F070895813049F0813078F0823041F041
S1131300833049F060E070E008C060507E4F05C053
S113131060507D4F02C060507F4FCB010895982FDD
S11313204FB7F894552722B3277D22BB80E097FD61
S1131330939A959A8299806822BB96FD939A959A7E
S11313408299806422BB95FD939A959A82998062D2
S113135022BB94FD939A959A8299806122BB93FD56
S1131360939A959A8299886022BB92FD939A959A52
S11313708299846022BB91FD939A959A82998260A6
S113138022BB90FD939A959A829981604FBF9927C9
S113139008951F93182F809178018823E1F4623017
S11313A041F0633041F0613011F081E007C080E129
S11313B003C08EE001C08FE00E942D0890E08823D6
S11313C009F491E090937801992329F01093120E77
S11313D080E090E002C081E090E01F910895AC01AC
S11313E0E9E4F6E080E090E09C01858180FF05C09F
S11313F0808191818417950741F0C90101963E9639
S11314008A30910589F72FEF30E0C90108950E94D1
S1131410EF098F3F99F09927880F991FFC0123E06A
S1131420EE0FFF1F2A95E1F7E81BF90BE75BF94F75
S1131430858181FF03C08285938508958FEF90E0B5
S113144008950E94EF098F3F19F481E090E0089518
S11314509927880F991FFC0143E0EE0FFF1F4A955F
S1131460E1F7E81BF90BE75BF94F85818860858319
S113147080E090E008959C016E5F613518F080E093
S113148090E008950C9611F0C9010E960895FC01A0
S113149080899927982F882721893327822B932B9A
S11314A00895FC01CB01428553859A0173E0220F14
S11314B0331F7A95E1F7240F351F2B5F3F4F820FBF
S11314C0931F6AE070E00E94444F73876287089517
S11314D0FC0164859585662339F48AE0989FB00100
S11314E011246A5070400BC077278AE0989FC0018E
S11314F011240E94584F6A50704014861586CF01FB
S11315000E94510A089580916001E82FFF27EE0F91
S1131510FF1FE651F24F0190F081E02D209162010E
S1131520222351F08F5F809360018C3011F410926C
S11315306001215020936201CF010895FC0180894C
S11315409927982F882721893327822B932B089555
S1131550AF92BF92DF92EF92FF920F931F93CF93BC
S1131560DF935C01D0906102F0902605EE2425C043
S11315700F2D03701127C5010E949E0AF801EE0F7A
S1131580FF1FEE0FFF1FE00FF11FEF54FD4F2081EF
S113159031818217930779F4D5011C96ED019E8160
S11315A08281891741F499818481891721F49F816B
S11315B08381891721F0E394F394ED14C9F68E2DF9
S11315C09927DF91CF911F910F91FF90EF90DF90BA
S11315D0BF90AF900895AC01209123052C3018F0F2
S11315E081E090E008958091FA04682F620F712DD4
S11315F0711DFB016C30710508F03C97EE0FFF1F65
S1131600E454F74F518340832F5F2093230580E0F8
S113161090E00895AC01209122052C3018F081E06F
S113162090E008958091C10E682F620F712D711D95
S1131630FB016C30710508F03C97EE0FFF1FED5372
S1131640F04F518340832F5F2093220580E090E088
S113165008950F931F93CF93DF93EC01892BE9F047
S11316602091080E3091090E8FEF2F3F3807A9F013
S113167080916202813019F4198218820BC00091A2
S11316800A0E10910B0EC9010E94070A080F191FB8
S11316901983088380E090E002C081E090E0DF914C
S11316A0CF911F910F9108959C01685F613518F0E7
S11316B080E090E008950C9611F0C90144960895D5
S11316C0CF93DF93EC01483101F5809140018823E9
S11316D0E1F4D9988EEF91E090936D0F80936C0FA5
S11316E0DC01FB0188E101900D928150E1F728E1D2
S11316F042EF51E06FEF7FEF8CEA0E944E028823A5
S113170021F481E080934001D898CE01DF91CF91FC
S11317100895982F8FB7F894282F3327809170015C
S1131720882349F482E08093700190933C012FBF99
S113173080E090E008952FBF81E090E008958FB796
S1131740F894282F3327922F8091B3088A3041F0E0
S113175080917104843021F02FBF89E090E00895D6
S11317609FBF8EE00E94130280E090E00895809174
S1131770B3088A3021F480917104843021F081E02F
S113178080934D0108958FE00E94130210924D0141
S113179008952FB7F89433278CB95E9A2FBF089514
S11317A0FC016115710519F481E090E008958091C0
S11317B0150590911605892B19F085E090E00895A0
S11317C07093110E6093100EF0931605E0931505B7
S11317D01092DB041092DA0481E08093DC045E9AB8
S11317E0569A808121E030E03093DB042093DA04C0
S11317F00E94C90B80E090E008958FB7F894992770
S113180020915E012E7F20935E012EE72093B0028B
S11318108FBF61E070E080EB92E00E94D00B9927CB
S11318200895DF92EF92FF920F931F938FB7F8946E
S1131830282F3327D22E91B782B746B7981711F0C5
S113184041FF02C02FBF6AC08091BD058823E1F12A
S11318500E940E04E090D708F090D8080091D908AF
S11318601091DA0820917B0230917C0240917D0234
S113187050917E026E197F09800B910B62177307DA
S11318808407950720F01092BD0571E01EC02E0D4F
S11318903F1D401F511F80915C0290915D02A091F9
S11318A05E02B0915F02281B390B4A0B5B0B273E8B
S11318B031054105510540F4822F223010F070E0CB
S11318C005C070E082E002C070E086EE682F6150CF
S11318D000B601FCFDCF82B7681709F46F5F209151
S11318E05C0230915D0240915E0250915F02DA0128
S11318F0C9010196A11DB11D860F911DA11DB11D28
S113190082179307A407B50710F4622F609561BF8F
S1131910DFBE772319F08AE00E9413021F910F9112
S1131920FF90EF90DF900895AFB7F894BB27E1E004
S1131930E093BD056093D7087093D8088093D908C5
S11319409093DA0820937B0230937C0240937D02CB
S113195050937E02AFBF0E94110C089508950F9317
S11319601F93CF93DF93282F3327C901880F991F23
S1131970FC0113E0EE0FFF1F1A95E1F7E81BF90BCA
S1131980E75BF94F858182FF03C062838B7F858388
S11319908281962F981B628383818F5F838386E085
S11319A08683992361F08481890F815084839B30DD
S11319B030F0148281E08383178211861086C90176
S11319C0880F991FFC01A3E0EE0FFF1FAA95E1F712
S11319D0E81BF90BE75BF94F8381833008F471C08E
S11319E000811181C9E4D6E088819981801791072B
S11319F009F061C08D8180FF5EC08E81882311F063
S1131A0081508E838F81882311F081508F838E8142
S1131A10882351F48F81882339F48D8191E08927BB
S1131A208D831986188642C08D8182608D839B8147
S1131A306C81690F633008F463E077278FEF989F18
S1131A40C00111240E94584F888529E0829FC0015B
S1131A5011240596860F911D6AE070E00E94584F8C
S1131A6068871B821C824985662301F14423F1F0B7
S1131A70772781E09EEF0E94444FCB019B01F3E066
S1131A80220F331FFA95E1F7642F7727880F991FE8
S1131A90820F931F0E94444F6A5070406F3F71053C
S1131AA019F010F06CE370E0772702C06CE370E08B
S1131AB0CE010E94510A2E9686E0C53DD80709F052
S1131AC093CFDF91CF911F910F91089580E090E023
S1131AD0EEE4F6E09C01808180FF08C0C901019614
S1131AE03E968A309105B1F72FEF30E0C901089591
S1131AF09EE0899FF0011124E75BF94F71836083B5
S1131B0012821382148285E0858386E0868387832C
S1131B1010861186138612860895982FAFEF60E021
S1131B2070E040E050E0EEE4F6E08081282F3327B7
S1131B3020FF0BC021FF09C023FD07C0258136818A
S1131B402617370710F0A42FB9014F5F5F4F3E9659
S1131B504A30510551F7892F99276817790718F4E6
S1131B608FEF90E008958A2F99270895AC01309162
S1131B7082028FEF4F3F580711F020E012C0832FED
S1131B8099270895E22FFF2783E0EE0FFF1F8A9520
S1131B90E1F7E450FC4F808191818417950719F097
S1131BA02F5F231779F7822F992708951F93CF93D7
S1131BB0DF93162FC0E0D0E06EE40E943B0AFC01E4
S1131BC080818123811711F4C1E0D0E0CE01DF913F
S1131BD0CF911F910895FC018081448555274F7052
S1131BE050709A01220F331F240F351F821B8F5010
S1131BF09927089580E880937F02109270041092D0
S1131C00B90E1092AF0E1092F80308951F93CF935C
S1131C10DF93182F8FB7F894C82FDD2760E080E09A
S1131C200E941C05882321F0CFBF80E090E005C00E
S1131C30CFBF812F0E948B059927DF91CF911F91F0
S1131C400895CF93DF93FC01E45AFF4F1582DF011F
S1131C501696ED011B821A82198280E88683DF9131
S1131C60CF91089597B79F7D97BF90E296BF882341
S1131C7019F08EB5806402C08EB58F7B8EBD87B798
S1131C80806287BF80E090E00895AF92BF92CF92C8
S1131C90DF92EF92FF920F931F93CF93DF93CDB711
S1131CA0DEB728970FB6F894DEBF0FBECDBF20E095
S1131CB070E0E0910E01F0910F0132E14DE65CE439
S1131CC06FE480910F019E2F28960FB6F894DEBF23
S1131CD00FBECDBFDF91CF911F910F91FF90EF9079
S1131CE0DF90CF90BF90AF9008951F920F920FB6E0
S1131CF00F9211248F9383B783BF00B600FCFDCFEE
S1131D008F910F900FBE0F901F90189578941F928B
S1131D100F920FB60F9211240F900FBE0F901F90C9
S1131D20189578941F920F920FB60F9211240F906A
S1131D300FBE0F901F90189578941F920F920FB6B4
S1131D400F9211242F933F938F939F932FB7F8945F
S1131D50332780913F069091400601969093400668
S1131D6080933F062FBF9F918F913F912F910F90AA
S1131D700FBE0F901F9018951F920F920FB60F92DF
S1131D8011240F900FBE0F901F9018951F920F9261
S1131D900FB60F9211240F900FBE0F901F9018953D
S1131DA01F920F920FB60F9211240F900FBE0F9037
S1131DB01F9018951F920F920FB60F9211240F9037
S1131DC00FBE0F901F9018951F920F920FB60F928F
S1131DD011240F900FBE0F901F9018951F920F9211
S1131DE00FB60F9211240F900FBE0F901F901895ED
S1131DF01F920F920FB60F9211240F900FBE0F90E7
S1131E001F901895982F80915901882389F599235B
S1131E1079F531E03093590180911E0180935A0184
S1131E2020914E01822F8170809381028091230141
S1131E309091240190935C0180935B0180914F0108
S1131E4080935D0132273170267EE32FFF27EE0F4A
S1131E50FF1FE15EFE4F8081918190932401809366
S1131E602301232B20934E0182E10E941302089543
S1131E7080914E0180FF02C08B7F01C08D7F8093D3
S1131E804E0108950F931F93082F162F809171040C
S1131E908130D9F0813038F0823009F44AC083307F
S1131EA009F028C159C0002309F458C11092040E46
S1131EB01092030E1092BB0810921E0E1092DE04B4
S1131EC0109244061092430639C1002309F046C11A
S1131ED080914306909144060E942D0690934406F7
S1131EE08093430682E08093710410931E0E143491
S1131EF009F000C125C18695869503C080914E01E5
S1131F008695817009F0F6C080914E01992311F0F5
S1131F10846001C0826080934E0180914E01877E6F
S1131F20886080934E0110924F018FEF80931E01C1
S1131F3015C1002309F0DEC06093DE0480914306DE
S1131F40909144060E942D06909344068093430684
S1131F5083E08093710402C18091BB088F3F09F430
S1131F60C9C0002309F461C0823008F4C3C0E09101
S1131F70030EEE2309F4EBC04E2F4150E42FFF274C
S1131F80ED5FF14F82819927382F2227442311F4E2
S1131F90E2E002C0E42FE150FF27ED5FF14F8281C0
S1131FA09927282B392B80914306909144062817B2
S1131FB0390709F09FC080E00E94020F3091DE04CF
S1131FC08091BE052091BF05982F9F5F963008F041
S1131FD090E0921771F0E82FFF27E254FA4F328312
S1131FE08F5F8093BE05863010F01092BE050E946C
S1131FF03A021092040E1092030E94E0909371042E
S11320001092BB0810921E0E1092DE041092440629
S11320101092430680915E018D7F80935E018091D2
S11320204D01882309F49AC084C0823008F44EC05C
S1132030E091040EFF27ED5FF14F8281482F552771
S1132040342F20914E01822F869586958695837034
S113205099278130910519F00297F9F40EC0277E73
S1132060206120934E01442311F485E001C080E0F7
S113207080934F0130931E0110C080914F01883628
S113208060F4E0912301F0912401E80FF11D4083F5
S113209080914F018F5F80934F018091040EE82F50
S11320A0FF27ED5FF14F62818F5F8093040E8330D1
S11320B010F01092040E7727809143069091440605
S11320C00E942D0690934406809343068091030E4C
S11320D0E82FFF27ED5FF14F12838F5F8093030E8C
S11320E0833010F01092030E8091BB088F5F8093B1
S11320F0BB0834C01092040E1092030E14E0109327
S113210071041092BB0810921E0E1092DE041092FD
S113211044061092430680915E018D7F80935E0198
S113212081E00E94020F80914D01882329F01093D1
S113213071040E94B70B12C0002381F081E009CF23
S113214080914E01982F917080FDD5CED7CE80918D
S1132150070E9927382F222742E01CCF1F910F9199
S113216008951F920F920FB60F9211242F933F934D
S11321704F935F936F937F938F939F93AF93BF938B
S1132180EF93FF935F9B3DC06CB1E0914506F091E6
S113219046063097F9F08091680F9091690FE80F27
S11321A0F91F608301969093690F8093680F2091C3
S11321B0DD0F3091DE0F8217930718F11092460657
S11321C01092450680917E088330D9F0579810927A
S11321D07E0817C06E3719F460E081E010C080916A
S11321E05E016D3721F4826080935E010AC081FF35
S11321F005C08D7F80935E0180E2682780E00E94A5
S1132200420FFF91EF91BF91AF919F918F917F9179
S11322106F915F914F913F912F910F900FBE0F904F
S11322201F901895982F8D57823068F480915E0125
S1132230816080935E0180E289278093BA088DE7EC
S11322408093B00202C09093B00261E070E080EB32
S113225092E00E94D00B9927089578941F920F92D0
S11322600FB60F921124FF920F931F932F933F9356
S11322704F935F936F937F938F939F93AF93BF938A
S1132280CF93DF93EF93FF932091DA043091DB0433
S11322908091100E9091110E2817390780F4E09167
S11322A01505F0911605E20FF31F80812F5F3F4F54
S11322B03093DB042093DA040E94C90BCDC0109242
S11322C01605109215051092DC045698FFB6F89482
S11322D080915E0180FF0EC08E7F80935E018091AD
S11322E0BA088093B00261E070E080EB92E00E9453
S11322F0D00BAFC08091B308843009F48CC0853012
S113230040F4823021F18330B8F5813009F09CC06B
S11323100DC0863009F48DC0863008F483C0873040
S113232009F48EC0883009F08FC091C080910905EE
S11323300E941211082F83E08093B308609109056D
S11323408091DB0F9091DC0F0E942D0610C08091CC
S1132350B70E0E941211082F83E08093B308609196
S1132360B70E8091DB0F9091DC0F0E942D069093A5
S1132370DC0F8093DB0F66C0E091D506FF27EE0FDC
S1132380FF1FE45EFA4F80810E941211082F109102
S1132390D506C12FDD27FE01EE0FFF1FE45EFA4FC5
S11323A060818091DB0F9091DC0F0E942D06909349
S11323B0DC0F8093DB0F2091FF042F5F2093FF0439
S11323C0113039F580915501E0915001F09151019E
S11323D0E80FF11DE0818F5F8093550190915401C6
S11323E0981730F482E080931D0540E050E002C06D
S11323F04E2F5527DE01AA0FBB1FFD01E55EFA4FE4
S11324008081823031F02F3F21F0A45EBA4F4C938B
S113241019C084E012C08091DB0F0E941211082FB2
S113242085E00BC08091DC0F0E941211082F86E01A
S113243004C00E94FD0B082F87E08093B30802C0FC
S113244088E003C0002329F089E08093B3080E9448
S11324503A028F2D99278FBFFF91EF91DF91CF9192
S1132460BF91AF919F918F917F916F915F914F91A8
S11324703F912F911F910F91FF900F900FBE0F90DE
S11324801F9018951F920F920FB60F9211248F93DD
S113249080919B0087FF02C080919C008F910F90D8
S11324A00FBE0F901F90189578941F920F920FB63D
S11324B00F9211240F900FBE0F901F9018957894CF
S11324C01F920F920FB60F9211240F900FBE0F9010
S11324D01F90189578941F920F920FB60F921124A3
S11324E00F900FBE0F901F90189578941F920F9223
S11324F00FB60F9211240F900FBE0F901F901895D6
S113250078941F920F920FB60F9211248F939F937A
S113251080918000909181009F918F910F900FBEC8
S11325200F901F90189578941F920F920FB60F92E8
S113253011242F933F938F939F932FB7F8943327AE
S11325408091FB049091FC0401969093FC04809389
S1132550FB042FBF9F918F913F912F910F900FBE3E
S11325600F901F9018951F920F920FB60F9211247F
S11325702F933F934F935F936F937F938F939F9387
S1132580AF93BF93EF93FF9344B155B178948FB752
S1132590F89499272091A103322F36953170217038
S11325A08FBF2223D9F4339880911F05813021F005
S11325B0823009F039C00AC0332351F05093B20875
S11325C04093B10882E20E9413022EC0332319F40F
S11325D00E945F0629C010921F0526C08FB7F89489
S11325E099278FBF2FB7F894332786B1582F577088
S11325F0482F4072987D942B952B8074977B982B51
S113260090619F77892F992786B9887D842B852BA4
S113261087738061992786B9887D842B852B877B76
S11326208069992786B92FBFFF91EF91BF91AF9130
S11326309F918F917F916F915F914F913F912F91D6
S11326400F900FBE0F901F901895EF92FF920F936B
S11326501F93CF93DF93EA017B010AC08C010F5FC4
S11326601F4F0E94E14FF70181937F012197C80119
S11326702097A1F780E090E0DF91CF911F910F9117
S1132680FF90EF900895EF92FF920F931F937901BB
S11326908A016A3018F04AE050E002C0462F5527FC
S11326A0BC0189EE98E00E94D14FE0927101F09252
S11326B0720100937301109374011F910F91FF90A5
S11326C0EF900895AF92BF92CF92DF92FF920F9353
S11326D01F93CF93DF935C01442309F472C0EC0190
S11326E0C880D98080916102843009F046C0C60157
S11326F00E94A80A20916102622F0E94384F492F3C
S11327009217D8F5992359F48091260599270196B3
S113271064E070E00E94584F8093260529C08091A0
S11327202605840F912D911D9C0123703070E901C1
S1132730CC0FDD1FCC0FDD1FC20FD31F019664E049
S113274070E00E94584FFC01EE0FFF1FEE0FFF1FB9
S1132750E80FF91FCF54DD4FEF54FD4F85E0019092
S113276009928150E1F74F5F809161024817B8F2F6
S113277080916102815080936102F09061028091A6
S113278026058F0D912D911D837090708C01000F83
S1132790111F000F111F080F191F0F541D4FC601E1
S11327A00E949E0AF80191838083F6013C968681FB
S11327B0E8018A8381818C8387818B83F394F092EF
S11327C06102F501808191810E94EB0AC5010E949A
S11327D00A0BDF91CF911F910F91FF90DF90CF9063
S11327E0BF90AF900895EF92FF920F931F93CF93F2
S11327F0DF93EA017B010AC0F70161917F018C013B
S11328000F5F1F4F0E94E94F2197C8012097A1F73E
S1132810E199FECF80E090E0DF91CF911F910F917D
S1132820FF90EF9008951F920F920FB60F9211240C
S11328302F933F934F935F936F937F938F939F93C4
S1132840AF93BF93EF93FF9383B783BF00B600FCAE
S1132850FDCF81B799270196AA27BB2720915C0257
S113286030915D0240915E0250915F02280F391F42
S11328704A1F5B1F20935C0230935D0240935E020B
S113288050935F0278940E94110CFF91EF91BF91D5
S1132890AF919F918F917F916F915F914F913F91F4
S11328A02F910F900FBE0F901F901895BF92CF924B
S11328B0DF92EF92FF920F931F93B82ED70180916E
S11328C06D01882319F085E090E03CC0EB2DFF27D3
S11328D0E931F105B8F4EA5BFF4FEE0FFF1F0590F5
S11328E0F491E02D099485E00E94A1039927282FF3
S11328F0882349F481E080936D01B0926B0F80E0EE
S113290090E020C021E0822F99271CC06801790142
S11329108D019A01AB0160E0E6CF680179018D0178
S11329209A01AB0163E0DFCF680179018D019A015F
S1132930AB0161E0D8CF680179018D019A01AB0147
S113294062E0D1CF1F910F91FF90EF90DF90CF9075
S1132950BF900895BF92CF92DF92EF92FF920F93B0
S11329601F93B82E6701780180916D01882319F0B7
S113297085E090E034C0EB2DFF27E931F105B8F490
S1132980E15AFF4FEE0FFF1F0590F491E02D0994DB
S113299084E00E94A1039927282F882349F481E029
S11329A080936D01B0926B0F80E090E018C021E03D
S11329B0822F992714C089019A01AB0160E0E8CF06
S11329C089019A01AB0163E0E3CF89019A01AB016C
S11329D061E0DECF89019A01AB0162E0D9CF1F919A
S11329E00F91FF90EF90DF90CF90BF900895EF92FA
S11329F0FF920F931F93813051F0813030F0823079
S1132A0041F0833041F081E009C086E005C089E0EF
S1132A1003C087E001C088E00E94AA1499271F918F
S1132A200F91FF90EF900895BF92CF92DF92EF92B3
S1132A30FF920F931F93B82E6701780180916D0167
S1132A40882319F085E090E034C0EB2DFF27E931AD
S1132A50F105B8F4E858FF4FEE0FFF1F0590F4910D
S1132A60E02D099481E00E94A1039927282F88234F
S1132A7049F481E080936D01B0926B0F80E090E0A7
S1132A8018C021E0822F992714C089019A01AB0153
S1132A9060E0E8CF89019A01AB0163E0E3CF8901EB
S1132AA09A01AB0161E0DECF89019A01AB0162E0DA
S1132AB0D9CF1F910F91FF90EF90DF90CF90BF90EF
S1132AC00895AF92BF92CF92DF92EF92FF920F934D
S1132AD01F938091DD04992720E530E0829FA001B7
S1132AE0839F500D929F500D1124FA01E753F14F2B
S1132AF08081A82EBB24CC24DD24FAE0AA0CBB1CC4
S1132B00CC1CDD1CFA95D1F7FA01E653F14F808114
S1132B102AE4829FC0011124AA27BB27A80EB91E4C
S1132B20CA1EDB1E9A012553314F80916B018230FE
S1132B3079F08330B1F0813011F081E01CC0EAE417
S1132B40EE2EF12C012D112DB601A50185E011C049
S1132B507AE4E72EF12C012D112DB601A50183E0B5
S1132B6008C06AE4E62EF12C012D112DB601A50151
S1132B7084E00E941415882311F01092AE021F9174
S1132B800F91FF90EF90DF90CF90BF90AF9008959A
S1132B901F93982F8FB7F894182F80916F0183306B
S1132BA0B1F580913901891791F58091370120E0C1
S1132BB030E08F3F11F421E030E0232BF9F48F3F14
S1132BC019F42FEF30E00EC0282F3327F901E45415
S1132BD0F14F8081809337018F3F11F48093380146
S1132BE08FEF8083209306098FEF8093390181E072
S1132BF080936F018DE10E94130205C084E08093ED
S1132C00390110926F011FBF80E090E003C01FBF25
S1132C1081E090E01F9108951F93982F1FB7F894B7
S1132C2080917001823099F580913C01891779F582
S1132C3080913A0120E030E08F3F11F421E030E050
S1132C40232BF1F49FEF90933C018F3F19F42FEF66
S1132C5030E00DC0282F3327F901E05BFB4F808162
S1132C6080933A018F3F11F490933B01908320931A
S1132C700E0581E0809370018EE10E94130205C06D
S1132C808FEF80933C011092700121E001C020E09D
S1132C90812F99278FBF90E0213009F491E081E0E2
S1132CA09827892F99271F910895109278018230CF
S1132CB031F0833041F0813049F480E101C08EE08D
S1132CC00E940C1608958FE00E940C160895EF924E
S1132CD00F931F93AE2D99E0899FF0011124E652C2
S1132CE0F94F40835183628373830483158326835E
S1132CF03783A17080858E7F8A2B826080878BE0EA
S1132D000E9413021F910F91EF90089561E081E0FA
S1132D100E9402058823E9F48FB7F894282F3327FB
S1132D208091420190914301892B11F02FBF20C063
S1132D3081E090E090934301809342012FBFDD9A9C
S1132D400E94760824E130E040E050E00E9433091C
S1132D500FC062E081E00E941C05882319F089E01D
S1132D6090E0089561E081E00E941C05882319F039
S1132D7080E090E0089585E090E00895EF92FF925E
S1132D800F931F938091C605843090F410927502BE
S1132D90A4E5EA2EF12C012D112D23EA33E040E0C5
S1132DA050E060E070E08091EF040E94F71405C0E9
S1132DB00E94861683E0809375021F910F91FF9005
S1132DC0EF90089580917502823019F0833071F488
S1132DD0FBCFE091C605EF5FE093C605FF27E05FF8
S1132DE0FE4F80818093EF040E94BE1608950F93D6
S1132DF01F93182F0FB7F89461E080E00E9402053A
S1132E00882371F510931401809117018823A9F583
S1132E1080914601823089F586E00CC00E94390514
S1132E2080914601882349F481E080934601109201
S1132E30F90388E00E9413022AC0809106058F3F9F
S1132E4031F5E0911601EE2311F11CC01092150129
S1132E5004C0FF27EA5FFA4F10821092160117C0D0
S1132E6081E090E002C0880F991F1A95E2F7209143
S1132E704501282B209345010AC0809146018823EF
S1132E80E1F6CCCF809115018F3F19F7DFCF802F6A
S1132E9099278FBF80E090E01F910F9108951F93B1
S1132EA08FB7F894282F3327122F8091700F88231F
S1132EB021F02FBF81E090E013C081E08093700F78
S1132EC08091420190914301049721F481E00E9492
S1132ED0F71603C084E00E9413021FBF80E090E055
S1132EE01F9108951F9383E00E944E059927182F80
S1132EF0882319F083E00E94F716812F99271F91E8
S1132F000895CF92DF92EF92FF920F931F938093D5
S1132F106E016093150EC901880F892F881F990BC4
S1132F2091958093160E220F812F9927282B209399
S1132F30170E0093180ED0927C08C0927B08F09272
S1132F400805E09207054093FD048CE10E941302FA
S1132F501F910F91FF90EF90DF90CF900895AF9263
S1132F60BF92CF92DF92EF920F931F93882389F041
S1132F700E9435045B016C018FEF90E0A0E0B0E0AB
S1132F80A822B922CA22DB2280E190E0A0E0B0E0CE
S1132F9010C00E9435045B016C018FE790E0A0E053
S1132FA0B0E0A822B922CA22DB2280E890E0A0E0A7
S1132FB0B0E0A80EB91ECA1EDB1E0E940E04AB01AF
S1132FC0BC01E1E0EE2E9601850185E00E946716C2
S1132FD01F910F91EF90DF90CF90BF90AF90089525
S1132FE08531C1F0863138F4843061F0853051F098
S1132FF08330D9F407C0873189F0873168F088318C
S1133000A1F410C080912B01813079F488E10E94F1
S11330101302089580E003C082E001C083E00E94AF
S11330206A09089581E00E946A090895CF93DF93A5
S1133030EC010E94B60D282F809182022817D1F04E
S1133040382F31503093820213C0822F9927F3E036
S1133050880F991FFA95E1F7DC01A450BC4FFC01DD
S1133060EC5FFB4F88E001900D928150E1F72F5FF8
S1133070231758F38091080E9091090E8C179D0721
S1133080A1F48FEF9FEF9093090E8093080E109296
S11330900B0E10920A0E10920C0E10920D0E81E07F
S11330A08093680186E10E941302DF91CF91089515
S11330B0AF92BF92CF92DF92EF92FF920F931F9342
S11330C0282F33278BE090E0289FF001299FF00DF3
S11330D0389FF00D1124E458FE4F82819381A4811E
S11330E0B5810097A105B10569F080819181880FB0
S11330F0991F918380838150944020F080E094E074
S1133100918380838BE090E0289F5001299FB00C2D
S1133110389FB00C11248CE791E0A80EB91EF5017C
S113312086819781A085B18582839383A483B583A7
S1133130C080D180EE24FF2469E0CC0CDD1CEE1CA1
S1133140FF1C6A95D1F70E943504DC01CB01F5011F
S113315000811181B801762F6627770F0E94444FB2
S1133160AA27BB278C0D9D1DAE1DBF1D222733270B
S11331704AE0000F111F221F331F4A95D1F7081B85
S1133180190B2A0B3B0B0683178320873187228177
S1133190338144815581280F391F4A1F5B1F2283C5
S11331A03383448355831F910F91FF90EF90DF90F9
S11331B0CF90BF90AF900895EF92FF920F931F931B
S11331C0CF93DF93182F7B01042F8FB7F894C82F68
S11331D0DD2760E080E00E941C05882321F0CFBF3A
S11331E080E090E014C0CFBF1064812F99279093A2
S11331F01805809317050E948B05182F402F55271B
S1133200B70180E090E00E940506812F9927DF91A5
S1133210CF911F910F91FF90EF900895C098609106
S11332207A0170917B0141E08FE30E94DC180895DC
S113323082E090E09093AD028093AC0281E08093B1
S1133240700420E030E080911401843011F421E016
S113325030E0232B29F484E00E944E05882319F4DE
S11332600E940E19089584E00E94F71608951F9293
S11332700F920FB60F9211242F933F934F935F93A6
S11332806F937F938F939F93AF93BF93EF93FF932A
S11332908091AC029091AD02019749F482E090E0F4
S11332A09093AD028093AC020E94181905C08091DE
S11332B0F8038F5F8093F803FF91EF91BF91AF9173
S11332C09F918F917F916F915F914F913F912F913A
S11332D00F900FBE0F901F9018951F93809145017A
S11332E0882309F04BC0109114011F3F09F046C018
S11332F060E00E941C05882309F440C081E08093AB
S1133300E80D809185028823E1F11092E80D85E0B3
S113331090E045C0923069F5C09A8091150120E093
S113332030E08F3F11F421E030E0232BE9F41093D7
S113333017018F3F19F42FEF30E00DC0282F3327EA
S1133340F901EA5FFA4F8081809315018F3F11F4F0
S11333501093160110832093F90381E080934601B2
S113336088E00E94130205C01093170110924601D1
S113337011C080914601882369F00FC081E090E07C
S11333800EC08091170190914601882319F2923062
S113339021F0EFCF80E00E942D0580E090E01F91A6
S11333A008951F93CF93DF939FB7F894C92FDD2718
S11333B01C2F90911401981721F0CFBF81E090E069
S11333C03AC08FEF80931401309145013323F1F417
S11333D08FB7F89499271092DB088FBF0E946D195C
S11333E0CFBF11C02093140181E090E002C0880F88
S11333F0991F4A95E2F7809538233093450186E07A
S11334000E9413021FBF80E090E015C080E065E0D9
S1133410E32FFF270E94384F292F492F5527CF012B
S1133420042E02C0959587950A94E2F780FDDACFC1
S1133430822F8F5FEFCFDF91CF911F9108951F935C
S1133440CF93DF938FB7F894C82FDD271C2F80917B
S1133450AC029091AD02892B29F484E00E94D11929
S1133460CFBF1EC0109270048091F803882311F01E
S1133470B79904C00E9908C0882319F0815080932D
S1133480F8030E9418190BC081E090E09093AD02FC
S11334908093AC021092F80384E00E94D1191FBFFC
S11334A0DF91CF911F9108950E94FA0DC09AC098A0
S11334B088E00E94060E88E00E94060EC09A84E00E
S11334C00E94D1190E941F1A0895FF920F931F930F
S11334D0CF93DF93F82E8B018FB7F894C82FDD2795
S11334E060E080E00E941C05882321F0CFBF80E0CB
S11334F090E00CC0CFBF8F2D0E948B05812F9927A0
S11335000E948B05802F0E948B059927DF91CF9114
S11335101F910F91FF9008951F931FB7F894809106
S1133520F703882319F460E070E009C060E080913B
S1133530650F882309F461E081E06827772780918B
S1133540EE04882319F480E090E00AC090E08091B2
S1133550FD08882309F491E081E09827892F9927B1
S1133560762F6627770F770F770FF4E0880F991F70
S1133570FA95E1F7826E9262682B792B81E10E94C1
S1133580651A812F99278FBF1F9108958FB7F894DB
S11335909927609107098FBF85E0689FB0011124C6
S11335A0625D7E4F706488E10E94651A0895FF92FF
S11335B00F931F93CF93DF93C091F004D091F10444
S11335C0C45ADF4F8A81CC55D0409927182F8823BD
S11335D009F41FE1C0988091A003811749F0612F7D
S11335E077276F717070606E706885E10E94651A4C
S11335F01093A003F8808FB7F894082F112760E088
S113360080E00E941C05882311F00FBF12C00FBF79
S11336108EE390E090931805809317058EE30E9443
S11336208B05FA944F2D552760E070E0CE010E947F
S11336300506DF91CF911F910F91FF9008950F938D
S11336401F93CF93DF93EC010FB7F89411270E94D7
S1133650BE04FC018FE380830FBF1092C30E10924F
S1133660C20E61E082E00E940205882319F085E021
S113367090E077C08091E90D8F5F8093E90D8150D0
S11336808B838FB7F894082F112762E081E00E94A2
S11336901C05882329F40FBF0E94260681E060C020
S11336A0AE01445A5F4F8FB7F894992724E02093D2
S11336B0DC088FBFD0932505C09324050FBFDE011E
S11336C01196FD01818129819927982F8827332715
S11336D0822B932B80729C7C8983892F99278183E9
S11336E02981982F882733272164822B932B898360
S11336F0892F99278183FA011482108211821186FD
S11337001086178280E8868361E06093DF08409129
S11337102405509125058FB7F894282F33278091DD
S11337204701909148018830910511F0019711F0FB
S11337302FBF15C082E090E0909348018093470129
S11337406093C20F5093F1044093F0041092F1017E
S11337502FBF0E947217882311F40E94D71A80E0A9
S11337609927DF91CF911F910F910895CF93DF9304
S1133770DA01422F213518F082E090E05EC0ED01BD
S11337808B876E83872F99278F832FB7F8943327DE
S11337908091DF049091E0042FBFFD018483892F81
S11337A0992785832FB7F894332780911801909136
S11337B019012FBF8887892F99278987319681819D
S11337C029819927982F8827332720643868822BEA
S11337D0932B8983892F99278183435F4C934D5081
S11337E080911B01882359F010921B01642FCD0195
S11337F00E941F1B9927282F8823A9F417C0842F00
S113380099279093210580932005B0934C01A093B0
S11338104B018CE00E94130280911B01882349F420
S113382089E090E00AC08FEF80931B01822F9927D3
S113383004C01092F70480E090E0DF91CF910895E6
S11338401F93809125019927019667E070E00E94FB
S1133850584F682F8093250110E0462F5527FA0111
S1133860EE0FFF1FEF5CF94FA081B181109799F023
S1133870E62FE695E695E695FF27E054F14F808123
S113388099279A012770307002C0959587952A95DB
S1133890E2F780FF0DC0CA01019667E070E00E9464
S11338A0584F682F1F5F1730C1F61093250119C0B8
S11338B0609325016730A8F42C912D503327FD0126
S11338C067817727762F662786819927682B792B3E
S11338D0AD0183850E94B61B882319F085E10E94FF
S11338E013021F910895CF93DF93582FFB01873064
S11338F018F081E090E033C0C82FDD27CC0FDD1F26
S1133900CF5CD94F88819981892B19F085E090E0AB
S113391026C079836883435F40834D50809125019D
S1133920873018F480E090E01AC083856781772798
S1133930762F662726813327622B732B509325011C
S1133940242FAF010E94B61B9927282F882329F022
S113395087E08093250119821882822F9927DF91AD
S1133960CF910895AF92BF92CF92DF92EF92FF92E0
S11339700F931F93BC0180917A02882309F479C0C4
S113398080916D04882309F074C081E080936D04F4
S113399060939601872F9927809395018EED60306F
S11339A0780721F0AA24BB24650108C0A090710106
S11339B0B0907201C0907301D0907401A0929A01EA
S11339C011270D2DFC2CEB2CE09299019601442734
S11339D05527209398018D2D9927AA27BB27E5E920
S11339E0F1E08283FF2400271127102F0F2DFE2CD6
S11339F0EE24B82FAA279927882733274427552749
S1133A00A90133272227822B932BA42BB52B2A2DF4
S1133A10332744275527822B932BA42BB52BE82A35
S1133A20F92A0A2B1B2BE114F1040105110511F4E9
S1133A3010E010C060507E4D21F41AE069EE78E089
S1133A4003C010E060E070E0412F55278BE991E05E
S1133A500E94D14F8FEF80938F018093900180E675
S1133A60809394011A5F412F69E871E085E00E9418
S1133A70731C1F910F91FF90EF90DF90CF90BF9038
S1133A80AF900895CF92DF92EF92FF920F931F931E
S1133A9080916002882339F085E080936E018CE187
S1133AA00E94130229C04091D606842F9927FC0155
S1133AB0EE0FFF1FE80FF91FDF01AB53BD4F2D9130
S1133AC03C91E953FD4F808182FF06C0442311F0ED
S1133AD068E807C069E805C0442311F063E801C041
S1133AE066E8A1E0CA2ED12CEE24FF2400E010E009
S1133AF040E089E00E9481171F910F91FF90EF90A1
S1133B00DF90CF900895CF92DF92EF92FF920F93C0
S1133B101F93CF93DF938C01F62E6A01E22E8FB7A9
S1133B20F894C82FDD2760E080E00E941C058823FC
S1133B3021F0CFBF80E090E01EC0CFBF0F0D111D5C
S1133B40802F80680E948B05F82E16950795802F8C
S1133B50807C0E948B050E2D0AC0EE2DFF27E01BF2
S1133B60F109EC0DFD1D80810E948B05015000239D
S1133B70A1F78F2D9927DF91CF911F910F91FF907E
S1133B80EF90DF90CF900895CF93DF93CDB7DEB75A
S1133B902C970FB6F894DEBF0FBECDBF8FB7F89445
S1133BA0282FAE014F5F5F4FDA01EEEFF8E088E0B7
S1133BB001900D928150E1F78091DF049091E0042F
S1133BC08987892F99278A8780910F0590911005FD
S1133BD08B87892F99278C872FBF2CE060E080E6A4
S1133BE091E00E94831D2C960FB6F894DEBF0FBEA1
S1133BF0CDBFDF91CF910895BF92CF92DF92EF9224
S1133C00FF920F931F93B82E80916002882339F09E
S1133C1085E080936E018CE10E9413021DC08B2D00
S1133C209927FC01EE0FFF1FE80FF91FEB53FD4F1F
S1133C3020813181BB2011F461E601C060E671E0AE
S1133C40C72ED12CEE24FF2400E010E040E08AE0EF
S1133C500E948117B09247061F910F91FF90EF9039
S1133C60DF90CF90BF9008951F93182F81E090E0CC
S1133C709093480180934701109285020E946D1928
S1133C808FB7F8949927109341018FBF82E00E9467
S1133C9013021F910895CF92DF92EF92FF920F9338
S1133CA01F93982F80916D01882319F085E090E08F
S1133CB04AC0E92FFF27E931F105A8F4EF56FF4F79
S1133CC0EE0FFF1F0590F491E02D099483E00E940C
S1133CD0A1039927282F882339F481E080936D016B
S1133CE080E090E030C021E0822F99272CC0CC24C2
S1133CF0DD24760100E010E020E030E040E050E018
S1133D0060E0E4CFCC24DD24760100E010E020E084
S1133D1030E040E050E063E0D9CFCC24DD247601EC
S1133D2000E010E020E030E040E050E061E0CECF81
S1133D30CC24DD24760100E010E020E030E040E017
S1133D4050E062E0C3CF1F910F91FF90EF90DF909E
S1133D50CF900895BF92CF92DF92EF92FF920F938C
S1133D601F93B82E80916D01882319F085E090E0AF
S1133D704CC0EB2DFF27E931F105B8F4E655FF4FB0
S1133D80EE0FFF1F0590F491E02D099482E00E944C
S1133D90A1039927282F882349F481E080936D019A
S1133DA0B0926B0F80E090E030C021E0822F992721
S1133DB02CC0CC24DD24760100E010E020E030E0CB
S1133DC040E050E060E0E2CFCC24DD24760100E066
S1133DD010E020E030E040E050E063E0D7CFCC24B6
S1133DE0DD24760100E010E020E030E040E050E027
S1133DF061E0CCCFCC24DD24760100E010E020E0AB
S1133E0030E040E050E062E0C1CF1F910F91FF909D
S1133E10EF90DF90CF90BF900895EF92FF920F93B1
S1133E201F9380917502823009F04EC08091830205
S1133E309927982F8827209184023327822B932B4C
S1133E40E816F906A9F08091EF04813049F0813039
S1133E5028F0823049F08330B9F508C08AE001C007
S1133E608DE00E94AA1E30C08BE0FBCF8CE0F9CF1E
S1133E704091FA034F5F4093FA038091AB034817D4
S1133E80B0F481E0809375025527440F551F4058C4
S1133E905F4F66277727B2E0EB2EF12C012D112D11
S1133EA023E832E08091EF040E94F7140DC0E09102
S1133EB0C605EF5FE093C605FF27E05FFE4F8081F4
S1133EC08093EF040E94BE161F910F91FF90EF9014
S1133ED00895CF92EF92FF920F931F938930E9F0E8
S1133EE08A3038F4873099F08830A8F4863001F5A8
S1133EF00CC08231B1F0833118F48131C9F40FC0A0
S1133F00833189F08431A1F410C080E001C082E0E3
S1133F100E940D1F0DC083E0FBCF81E0F9CF80E04C
S1133F2005C082E003C083E001C081E00E944E0925
S1133F301F910F91FF90EF90CF900895CF92DF9251
S1133F40EF92FF920F931F93CFB6F894DD240E9453
S1133F503504DC01CB0166E470E00E94444F2BE0A1
S1133F60E22EF12CE80EF91EF0926F0FE0926E0F24
S1133F700E94760800271127A80197010E9433099F
S1133F80CFBE1F910F91FF90EF90DF90CF900895D7
S1133F901F93CF93DF938FB7F894C82FDD271C2F7F
S1133FA080914701909148010897C9F489E00E94E3
S1133FB0060E83E00E94D119C09A81E090E09093AC
S1133FC04801809347018FB7F894992723E0209301
S1133FD041018FBF82E00E941302CFBF30C0C0985E
S1133FE08091C20F882311F085E001C084E00E9413
S1133FF0060E83FD09C080E00E94060E83FF04C004
S113400085E090E020E003C083E090E021E090931D
S1134010480180934701C09A1FBF222341F01092A8
S1134020F10183E00E94D1190E949E1F08C00E94E2
S1134030760820E431E040E050E00E943309DF914B
S1134040CF911F9108951F93CF93DF938FB7F89467
S11340509927109114018FBF123009F465C01330F1
S113406030F4112359F0113009F0ACC048C01330BA
S113407009F474C0143009F0A5C0A2C0C0988FB769
S1134080F894C82FDD278091420190914301029753
S1134090A1F583E090E0909343018093420168E1AD
S11340A070E08DE10E94651A81E0809313051092FF
S11340B0440180B3992736E0969587953A95E1F7C0
S11340C0817090708093140585E00E94130281E052
S11340D00E94060E6FE772E08CE10E94651A0E944E
S11340E0C61A0E948C1A66E57AE287E10E94651A74
S11340F06FEF70E885E10E94651ACFBF63C0C09876
S113410086E00E94060E0E94C61A0E948C1A0E9423
S1134110C41DC09AC09883E00E94060EC09A81E034
S11341200E94D11984E045C0C0988FB7F894C82F75
S1134130DD2760E080E00E941C05882311F0CFBFDA
S11341400AC0CFBF83E50E948B0580E00E948B05E7
S113415080E00E948B05C09A82E02FC08FB7F8944C
S11341609927209147018FBF243039F0283041F03E
S1134170223011F50E94D71A25C00E94C81F22C000
S1134180C09889E00E94060EC09A83E00E94D1196B
S11341908FB7F894992721E030E0309348012093B9
S11341A047018FBF8FB7F8949927109341018FBFB0
S11341B082E00E94130206C083E00E94D11902C06B
S11341C00E940E19DF91CF911F91089578941F9248
S11341D00F920FB60F9211242F923F924F925F923B
S11341E06F927F928F929F92AF92BF92CF92DF9203
S11341F0EF92FF920F931F932F933F934F935F93ED
S11342006F937F938F939F93AF93BF93CF93DF93DA
S1134210EF93FF93C6B5D7B58FB7F894282E0E94B5
S113422076089B012C1B3D0B442755272B013C0191
S1134230421A530A640A750A809147019091480111
S11342408530910521F0069709F0E6C0C5C086E0E7
S113425090E0909348018093470131E0332E3092EF
S11342606C041092490180E00E94320EE091F00447
S1134270F091F104E45AFF4F4186BB27A72D962DF8
S1134280852D8087C301AA27BB278783872D99277C
S1134290AA27BB278683E091F004F091F104E45A45
S11342A0FF4F8581EC55F040882309F484C0608178
S11342B0655077274F01860E971EF4012081E18017
S11342C08281A3809927AA27BB27BA2FA92F982FC9
S11342D08827332744275527522F4427332722275B
S11342E0FF24002711278701FF24EE242E293F29CC
S11342F0402B512BBB24CC24DD242A293B294C29D7
S11343005D29822B932BA42BB52B84199509A6091F
S1134310B7098383292F3A2F4B2F552722839D01D9
S11343204427552721838B2F9927AA27BB278083CE
S1134330C09824E0A40180E090E00E94831DC09A0C
S1134340F4012081E1808281A3809927AA27BB27D9
S1134350BA2FA92F982F8827332744275527522F60
S1134360442733272227FF24002711278701FF240E
S1134370EE242E293F29402B512BBB24CC24DD24B1
S11343802A293B294C295D29822B932BA42BB52B5D
S1134390840D951DA61DB71D8383292F3A2F4B2FFE
S11343A0552722839D014427552721838B2F992745
S11343B0AA27BB278083E091F004F091F104818166
S11343C085FF02C03092850283E00E94D11987B72D
S11343D08F7E87BF84997AC010926C0481E00E941A
S11343E0320EE091F004F091F104818185FF0FC059
S11343F087E090E090934801809347010E947608FB
S113440020E031E040E050E00E94330903C080E046
S11344100E94341E849B5AC080914901882391F5DF
S113442080916C04882371F511E010936C040E9450
S1134430320E80B32091AF0E283098F4E091B90E7B
S1134440E20FFF27E770F070EE0FFF1FEE0FFF1F64
S1134450ED5DF14F40825182628273822F5F20931F
S1134460AF0E10934901D0931A05C093190584998E
S11344702DC0992744E0969587954A95E1F7182F22
S1134480117001C010E080916C048130F9F4109235
S11344906C040E94320E109249011123B9F48091E8
S11344A0190590911A05C81BD90B2A9778F48091A5
S11344B0AF0E882319F081508093AF0E8091F004E1
S11344C09091F104009711F00E94210E2FBEFF91EC
S11344D0EF91DF91CF91BF91AF919F918F917F9198
S11344E06F915F914F913F912F911F910F91FF9089
S11344F0EF90DF90CF90BF90AF909F908F907F9080
S11345006F905F904F903F902F900F900FBE0F9041
S11345101F90189578941F920F920FB60F92112442
S11345201F932F933F934F935F936F937F938F9337
S11345309F93AF93BF93EF93FF9387B78F7E87BF0C
S113454078941FB7F8948091000590910105A0918B
S11345500205B09103050097A105B10509F051C00A
S113456080914701909148018530910561F1863031
S1134570910530F48330910549F0049781F51AC010
S113458087309105F1F0089751F514C0869B0FC050
S113459084E090E090934801809347010E9476085C
S11345A027E030E040E050E00E94330918C00E9448
S11345B09E1F15C00E947217882389F40E94C81F89
S11345C00EC080E00AC089E00E94060E81E00E94CD
S11345D0320E83E00E94D11987E00E94341E80913C
S11345E0420190914301019771F482E090E090932D
S11345F0430180934201DE98DE9A80E00E94F71620
S113460002C00E949308812F99278FBFFF91EF91D9
S1134610BF91AF919F918F917F916F915F914F91D6
S11346203F912F911F910F900FBE0F901F901895DF
S1134630EF92FF920F931F93CF93DF938B0180919F
S113464017059091180586FF47C18F7B8F3309F0BA
S113465095C1C0917A01D0917B0158815093AF02EA
S11346608091AC029091AD028530910509F443C06C
S11346708630910509F48AC0029709F026C185E0C5
S113468090E09093AD028093AC0240917F02852F1D
S113469099270196242F3327281739074CF1B79906
S11346A006C00E9904C0451B415040937F024091BF
S11346B0AF024E35E8F44423A1F0BE016F5F7F4F93
S11346C0483018F047E050E007C086E090E090934F
S11346D0AD028093AC02552780E090E00E9405066D
S11346E04DC110927004C09A84E00E94D119EAC0AE
S11346F00E94541A43C186E090E09093AD028093E7
S1134700AC028091EE04882309F439C08091FD083D
S11347108823A9F5898185FF32C08F814E812FB707
S1134720F894332760910F05709110052FBF9927D6
S1134730982F88275527842B952B8617970759F090
S11347408F812E819927982F88273327822B932BAB
S11347508F5F9F4FA1F489818770813081F4C09A63
S1134760C0988AE00E94060EC09AC0984091AF0299
S113477047502896BE018FE30E94DC18FFC0409189
S1134780AF02475055272896BE01A6CFC09A809104
S1134790F803882339F484E00E94D1198091F80346
S11347A0882311F0B7990AC00E9B08C09091AF0EF0
S11347B0992321F08091AF028B3038F480917A01F3
S11347C090917B010E94210E3FC0913011F5E09140
S11347D0B90EFF27EE0FFF1FEE0FFF1FED5DF14F28
S11347E02081318142815381E0917A01F0917B01F2
S11347F0E45AFF4F2187BB27A52F942F832F80874F
S1134800CA01AA27BB278783252F33274427552787
S113481026838091B90E9927019668E070E00E9482
S1134820584F8093B90E8091AF0E81508093AF0E94
S1134830882351F080917A0190917B010E94210E8E
S11348401092B90E1092AF0E8091AF02FE01E80FE4
S1134850F11D808187FF36C0012BA1F1698167704A
S1134860C0917A01D0917B01623041F5E091F0046E
S1134870F091F104309731F1809147019091480112
S1134880079701F593818B819817E1F487B78F7EA1
S113489087BFDF01A45ABF4F988181E0FD01848363
S11348A0FE01E90FF11D829131968C9380818F77FF
S11348B0FD01818380E00E94341E04C0613011F444
S11348C089E02AC00E941F1A59C010927004C09A2D
S11348D084E00E94D11952C08E3309F04FC0C09AAF
S11348E080914701909148010897C9F4C09889E0E4
S11348F00E94060EC09A83E00E94D11981E090E0E4
S113490090934801809347018FB7F894992723E047
S1134910209341018FBF82E00E9413022FC0809137
S1134920C20F882349F484E090E090934801809377
S113493047010E94C81F22C083E00E94D11983E06E
S113494090E090934801809347010E943504DC0174
S1134950CB0166E371E00E94444F4BE0E42EF12C5E
S1134960E80EF91EF0927402E09273020E94760837
S113497000271127A80197010E943309DF91CF91E5
S11349801F910F91FF90EF9008951F920F920FB611
S11349900F9211242F933F934F935F936F937F93C1
S11349A08F939F93AF93BF93EF93FF932FB1E091B6
S11349B01108F0911208309739F08091C705909151
S11349C0C805E80FF91F20838091C7059091C80599
S11349D001969093C8058093C70580E00E94330533
S11349E040918701509188018091C7059091C80535
S11349F08417950718F40E9497051CC0609111084C
S1134A00709112088091660F9091670F10921208AE
S1134A10109211081092670F1092660F109288017D
S1134A20109287011092C8051092C7052FB120E09B
S1134A300E941823FF91EF91BF91AF919F918F91A5
S1134A407F916F915F914F913F912F910F900FBE86
S1134A500F901F901895AF92BF92CF92DF92EF9272
S1134A600F931F935B016C010E940E04AB01BC0108
S1134A7081E0E82E9601850184E00E9467161F916B
S1134A800F91EF90DF90CF90BF90AF900895CF92A9
S1134A90DF92EF92FF920F931F936C017B010E94B0
S1134AA03504DC01CB01B6010E94444FE80EF91E27
S1134AB000271127C801B7010E942B251F910F91D0
S1134AC0FF90EF90DF90CF9008950F931F93CF93B3
S1134AD0DF93EC01E0916001FF27EE0FFF1FE65129
S1134AE0F24F00811181662329F06CE170E08CE1C2
S1134AF090E033C080915F0183FF41C0C45ADF4F0F
S1134B008C81CC55D0408823D1F58F819927982F5B
S1134B1088272E813327822B932B0E94EF09982F0D
S1134B208F3F71F08EE0989FF0011124E75BF94FFD
S1134B3085858F5F8587853018F0CF010E94680ACC
S1134B4086E10E941302F8018381815083838823C4
S1134B5039F067E070E087E090E00E9447253FC0AD
S1134B600E94830A80915F018F7E80935F0167E0DA
S1134B7070E087E090E00E94472540E02CC00E944E
S1134B80830A80915F018F7E80935F0167E070E00C
S1134B9087E090E00E9447258F819927982F8827E6
S1134BA02E813327822B932B0E94EF09982F8F3F5E
S1134BB089F08EE0989FF0011124E75BF94F84851A
S1134BC08F5F848785858F5F8587853018F0CF0157
S1134BD00E94680A41E0BE01C8010E946213DF918D
S1134BE0CF911F910F910895BF92CF92DF92EF92D0
S1134BF0FF920F931F93CF93DF93CDB7DEB7229726
S1134C000FB6F894DEBF0FBECDBF80915F0184FD67
S1134C10D4C090E080916201882309F491E0992343
S1134C2009F0CBC080916202882359F420E080917E
S1134C30080E9091090E8F5F9F4F09F021E0222307
S1134C4031F0CE0101960E94290B882339F060E1EE
S1134C5077E280E090E00E942B25AFC0E0916001F4
S1134C60FF27EE0FFF1FE651F24FC080D180D6011F
S1134C70ED91FC911081E090080EF090090ECF01A7
S1134C800E94A80A20E090916102891708F421E0AB
S1134C90222359F00E94830AF601808191810E94A7
S1134CA0EB0AC6010E940A0B85C080916202D601FC
S1134CB0ED91FC91882359F1B388A0911105B0912D
S1134CC0120588E601900D928150E1F700911105DB
S1134CD010911205F80180818551E82EFF246E2D74
S1134CE0C8010E94540BBC01FCEABF1629F44E2DE6
S1134CF0C8010E94600B8C011093120500931105EA
S1134D0060E0D6018D919C910E94652556C08981F1
S1134D109A818787892F99278687D601ED91FC91FF
S1134D20119784858F7384874D915C91DA01119674
S1134D30FD0121813327322F2227FA01818199270E
S1134D408062282B392B2183232F3327FD012183D4
S1134D5080915F01886080935F0180FF0BC0D60162
S1134D60ED91FC9184858064848780915F018E7FBE
S1134D7080935F01D601ED91FC91E6828F2D9927F6
S1134D80878381E783871D50412F5527BF0180E02A
S1134D900E94731C9927882331F480915F018061FC
S1134DA080935F010AC0823041F4D601ED91FC91F9
S1134DB08DE5808383E10E94130222960FB6F89456
S1134DC0DEBF0FBECDBFDF91CF911F910F91FF903A
S1134DD0EF90DF90CF90BF900895AF92BF92CF92A3
S1134DE0DF92EF920F931F935B016C010E940E04FC
S1134DF0AB01BC0111E0E12E9601850182E00E9425
S1134E0067161F910F91EF90DF90CF90BF90AF90F6
S1134E100895EF92FF920F931F9380912701909131
S1134E202801A0912901B0912A01B695A7959795DB
S1134E30879580934C0490934D04A0934E04B093B3
S1134E404F040E943504E0904C04F0904D0400910E
S1134E504E0410914F04A80197010E946B4F6E0DF0
S1134E607F1D801F911F60934C0470934D048093A9
S1134E704E0490934F041092020E0E94ED261F914F
S1134E800F91FF90EF900895EF92FF920F931F936D
S1134E90CF93DF93CDB7DEB722970FB6F894DEBF7A
S1134EA00FBECDBF60916A01862F8250823008F018
S1134EB0CBC0E090E208FF2400271127102F0F2D0C
S1134EC0FE2CEE242091E008332744275527522F47
S1134ED04427332722278091E1089927AA27BB2753
S1134EE0DC0199278827282B392B4A2B5B2B8091AF
S1134EF0E3089927AA27BB27282B392B4A2B5B2B9E
S1134F00E22AF32A042B152B80912C0190912D0178
S1134F10A0912E01B0912F018E159F05A007B10716
S1134F2029F48091B90881608093B908623061F5F1
S1134F3080916C01882309F087C081E080936C0123
S1134F4083E00E94312880912C0190912D01A09141
S1134F502E01B0912F018093D805292F3A2F4B2F82
S1134F6055272093D7059D01442755272093D6051F
S1134F708B2F9927AA27BB278093D50580913001D1
S1134F808093D9051092DA056091DA0577272EE02F
S1134F9030E04FE758E0CE0101960E9409038823D0
S1134FA021F081E00E9431284FC089818093DA0585
S1134FB020913001422F552766277727EAE0440FD6
S1134FC0551F661F771FEA95D1F72AE4829FC00117
S1134FD01124AA27BB27480F591F6A1F7B1F8091E2
S1134FE06B01823079F08330B1F0813011F081E0CF
S1134FF01CC03AE4E32EF12C012D112D2BED35E0EC
S113500082E011C02AE4E22EF12C012D112D2BEDAA
S113501035E080E008C09AE4E92EF12C012D112D31
S11350202BED35E081E00E94AA14882369F00E94E8
S11350300E04AB01BC0181E0E82E00E110E020E0A9
S113504030E085E00E94671622960FB6F894DEBF22
S11350500FBECDBFDF91CF911F910F91FF90EF90C5
S11350600895823040F490916A01933011F09530A4
S113507011F410926C0180936A0108950F931F93A9
S11350808B019C0190916A01892F82508230F0F447
S113509080912C0190912D01A0912E01B0912F01AE
S11350A0081719072A073B074CF0081719072A079E
S11350B03B0741F580913001481720F581E00E94BB
S11350C0312810927F08109280081CC094509230AE
S11350D0C8F48091310190913201A0913301B091D3
S11350E03401081719072A073B074CF0081719075A
S11350F02A073B0739F480913501841718F081E0C1
S11351008093140E1F910F910895DF92EF92FF92F6
S11351100F931F937B018C01D42E80916A01882305
S113512019F481E00E943128E0923101F0923201B9
S11351300093330110933401D09235018FEF8093A3
S113514027058093280580E090E01F910F91FF9040
S1135150EF90DF90089580916A018430F1F5809199
S11351606C01882309F075C081E080936C0185E0AF
S11351700E9431288091D7069091D8068093D60555
S1135180892F99278093D50580910E0190910F0165
S11351908093D805892F99278093D7058091310171
S11351A090913201A0913301B09134018093DC05D8
S11351B0292F3A2F4B2F55272093DB059D01442798
S11351C055272093DA058B2F9927AA27BB2780938D
S11351D0D905809135018093DD0580916A01853080
S11351E0C1F58091140E882331F080E00E94AF173E
S11351F01092140E08958091F204882321F481E022
S11352000E9431280895809127058093DE058091BE
S113521028058093DF058091D5059927982F882745
S11352202091D6053327822B932B8093CF05892F8A
S113523099278093D00581E58093D4054BE069ECF0
S113524075E083E00E94731C882319F080E00E94BB
S1135250AF170895809118078D7F80931807809168
S11352600F078D7F80930F0780E00E9431288FEF16
S113527090E0A0E0B0E08093310190933201A093DC
S11352803301B09334019FEF9093350110922705B9
S11352901092280510927F081092800885E0809370
S11352A02B019093E3081092E2081092E108109207
S11352B0E0089093E4089093E7081092B80880E01F
S11352C090E00895AF92BF92CF92DF92EF92FF9257
S11352D00F931F930E940E047B018C0160911907A8
S11352E070911A0780911B0790911C07A0907E0172
S11352F0B0907F01C0908001D0908101A114B104CD
S1135300C104D10409F44EC0EFB7F89420917D088C
S113531020FD36C0A8019701261B370B480B590BFB
S11353202A153B054C055D05C8F4A21AB30AC40A44
S1135330D50A80917E0190917F01A0918001B09166
S11353408101821B930BA40BB50B80937E01909378
S11353507F01A0938001B093810115C081E090E0AA
S1135360A0E0B0E080937E0190937F01A093800140
S1135370B0938101F1E0AF2EB12CC12CD12C03C02C
S11353802E7F20937D088E2F99278FBF0E940E04B5
S1135390AB01BC01E1E0EE2E9601850187E00E949D
S11353A0671605C0809121078D7F809321071F9187
S11353B00F91FF90EF90DF90CF90BF90AF90089542
S11353C0FF920F931F93CF93DF93F82E282F332749
S11353D08BE090E0289FE001299FD00D389FD00DED
S11353E01124C458DE4F81E090E0998388831A86A3
S11353F08A819B81AC81BD810097A105B105A1F093
S11354000FB7F8941127C9010E9475070FBF1A82BC
S11354101B821C821D821E821F82188619868F2D74
S11354200E9458180E946229DF91CF911F910F9119
S1135430FF9008959C0180915B02882309F455C074
S1135440A9EEB8E0F9018AE001900D928150E1F7EC
S11354508091710190917201A0917301B0917401D6
S1135460CD01AA27BB270196A11DB11D809371010F
S113547090937201A0937301B09374010097A105F6
S1135480B10561F481E090E0A0E0B0E080937101A7
S113549090937201A0937301B093740120917101F0
S11354A0309172014091730150917401A901332725
S11354B0222780910E0190910F01AA27BB27280F64
S11354C0391F4A1F5B1F209371013093720140936F
S11354D073015093740180E09EED0E94B21C80E041
S11354E00E94E0298FE10E94130208952F923F92B7
S11354F04F925F926F927F928F929F92AF92BF92E0
S1135500CF92DF92EF92FF920F931F93CF93DF938B
S11355108FB7F894992720915A0120905B0130901D
S11355205C01409081028FBF222309F07CC2E1011B
S11355302C96F10183859927833521F0843509F070
S113554072C2E2C180917901882309F06CC2F10131
S11355508585843008F043C0E82FFF27E05FFE4FC5
S11355605080FFEF5F16D9F1F1018485823068F431
S113557082E10E941808882341F482E10E94890B89
S11355809927282F882309F0B5C1D9980E940E04C1
S1135590AB01BC01B1E0EB2E00E018E020E030E00C
S11355A089E00E94671650923F01888199278230D2
S11355B009F489C0833030F4882371F0813009F014
S11355C032C20FC0853009F444C1863009F45BC18E
S11355D0833009F028C2DAC081E08093790121E0A8
S11355E089C182E0809379014E818F815527542FA0
S11355F044279927482B592BBE01685F7F4F82E7C8
S11356009FE00E94D14F8E812F819927982F882760
S11356103327822B932B3C01882499242A81EB8005
S11356208C81AD809927AA27BB27BA2FA92F982F41
S11356308827332744275527522F442733272227E7
S1135640FF24002711278701FF24EE242E293F2958
S1135650402B512BBB24CC24DD242A293B294C2963
S11356605D29822B932BA42BB52BF1E05F1689F0D7
S11356705F1638F022E05216A1F0E3E05E16C9F09E
S1135680F6C08401730122E73FE0AC01BD0185E16E
S113569017C08401730122E73FE0AC01BD0188E13A
S11356A00FC08401730122E73FE0AC01BD0186E134
S11356B007C08401730122E73FE0AC01BD0187E12B
S11356C00E94141513C183E0809379018E812F8188
S11356D09927982F88273327822B932B3C018824E2
S11356E099242A81EB808C81AD809927AA27BB2736
S11356F0BA2FA92F982F8827332744275527522FAD
S1135700442733272227FF24002711278701FF245A
S1135710EE242E293F29402B512BBB24CC24DD24FD
S11357202A293B294C295D29822B932BA42BB52BA9
S1135730F1E05F1689F05F1638F022E05216A1F00E
S1135740E3E05E16C9F093C08401730122E635E0FC
S1135750AC01BD0181E117C08401730122E635E08B
S1135760AC01BD0184E10FC08401730122E635E080
S1135770AC01BD0182E107C08401730122E635E07A
S1135780AC01BD0183E10E94AA14B0C084E08093FF
S113579079018E812F819927982F88273327822B8F
S11357A0932B3C01882499242A81EB808C81AD8041
S11357B09927AA27BB27BA2FA92F982F88273327E1
S11357C044275527522F442733272227FF24002715
S11357D011278701FF24EE242E293F29402B512B2A
S11357E0BB24CC24DD242A293B294C295D29822B86
S11357F0932BA42BB52BF1E05F1689F05F1638F0DC
S113580022E05216A1F0E3E05E16C9F030C0EE24A7
S1135810FF2494018301AC01BD0181E117C0EE2492
S1135820FF2494018301AC01BD0184E10FC0EE2487
S1135830FF2494018301AC01BD0182E107C0EE2481
S1135840FF2494018301AC01BD0183E10E9456143D
S11358504DC086E080937901F1E05F1661F05F1638
S113586040F022E0521649F083E0581641F081E0FE
S11358703DC085E105C088E103C086E101C087E140
S11358800E944B1E33C0E2E6F5E08AE1DF011D927F
S11358908A95E9F7EF01A0E0B1E08EE00D9009925E
S11358A08150E1F794E39093750588EA8093740539
S11358B08DE6809373058BE5808B9093790586E460
S11358C0809378058FEC8093770586E3848B8091B1
S11358D00E0190910F0180937B05892F9927808F6A
S11358E04BE150E060E070E080E00BC0282F88239B
S11358F009F499C01092790141E050E060E070E051
S1135900822F0E941F078FC08AE0E3EFF8E0119214
S11359108A95E9F781E10E940C1680917701823023
S113592031F46091E904772780E00E94C9090E945C
S11359302A2910927701F10184858093F30881016B
S1135940035F1F4F8585843018F08FEF90E006C009
S1135950E82FFF27E05FFE4F80819927D8018C93C1
S11359608881682F7727653040F46330A8F461306C
S113597041F0623009F057C008C0673008F053C0E6
S113598039C083EF98E00E941A2A80E00E945F07E2
S11359908BE10E940C1647C0F80180818F3F79F19A
S11359A08BE10E941808882329F48BE10E94890B5B
S11359B0882329F5D8019C9180917502833099F54B
S11359C081E08093130EF4E5EF2EF12C012D112DBF
S11359D023EA33E040E050E060E070E0892F0E9469
S11359E0F714882311F484E002C080917502809337
S11359F0750219C0F801808199278F3F11F481E065
S1135A0010C08093F8080E940E04AB01BC01E1E0D1
S1135A10EE2E00E014E020E030E08AE00E946716F9
S1135A2080E00E945F078FB7F894E42DFF27EE0F04
S1135A30FF1FE15EFE4F3182208220914E014420FF
S1135A4011F02B7F01C02D7F20934E01109259013C
S1135A5099278FBFDF91CF911F910F91FF90EF9006
S1135A60DF90CF90BF90AF909F908F907F906F907A
S1135A705F904F903F902F900895AF92BF92CF9236
S1135A80DF92EF920F931F932091B8083327215090
S1135A90304081E090E0A0E0B0E004C0880F991F9E
S1135AA0AA1FBB1F2A95D2F78093B4089093B50818
S1135AB0A093B608B093B7080E943504A090B40828
S1135AC0B090B508C090B608D090B7088827992739
S1135AD00894A108B108C108D1086A217B218C214E
S1135AE09D210894A11CB11CC11CD11CA60EB71E7B
S1135AF0C81ED91EA092B408B092B508C092B608C8
S1135B00D092B7088091B9088E7F8093B9088091AC
S1135B1018078D7F809318070E940E04AB01BC0107
S1135B2011E0E12E9601850186E00E9467161F911F
S1135B300F91EF90DF90CF90BF90AF900895809138
S1135B40B808893029F089E08093B8080E943D2D77
S1135B500895EF92FF920F931F938091E708E82F27
S1135B60FF278091E408E817A0F56091E208772701
S1135B7088279927982F872F762F6627E090E008AB
S1135B80FF24002711271E2D0027FF24EE24209137
S1135B90E108332744275527A90133272227E22A7E
S1135BA0F32A042B152B2091E30833274427552788
S1135BB0E22AF32A042B152B6E297F29802B912BA3
S1135BC04E2F0E94852884E08093B9080E949F2D5F
S1135BD01BC04FEF6FEF70E080E090E00E948528DB
S1135BE00E942A2981E080932B0180915A028230FD
S1135BF031F0833031F0813039F485E003C083E043
S1135C0001C084E00E944B1E1F910F91FF90EF9002
S1135C10089583E080932B0180917602909177021E
S1135C20A0917802B09179028093E308292F3A2F4A
S1135C304B2F55272093E2089D0144275527209395
S1135C40E1088B2F9927AA27BB278093E00880912E
S1135C500D0890910E08A0910F08B09110080197BB
S1135C60A109B1093AE0B695A795979587953A9514
S1135C70D1F78F5F8093E4081092E70845E060EE67
S1135C8078E080E090E00E943B068093E608892F4C
S1135C9099278093E50880912B01833011F40E94A9
S1135CA09F2D84E080932B0180915A0280936B0195
S1135CB00E94A92D0895CF92EF92FF920F931F9304
S1135CC0CF93DF93CDB7DEB722970FB6F894DEBF3C
S1135CD00FBECDBF8091DD04482F552780E590E0AD
S1135CE0489FF001499FF00D589FF00D1124CF01FA
