:100000000C94EC010C94BB0E0C94C50E0C94CF0E0A
:100010000C94D90E0C94E30E0C94ED0E0C9436193E
:100020000C94F70E0C940B020C940B020C94E12030
:100030000C9482220C94850E0C949B0E0C9412143A
:100040000C94740E0C94BB240C94B0100C940B0202
:100050000C942C110C94B2120C940B020C940B0205
:100060000C94900E0C947F120C945E120C946912F6
:100070000C9474120C9492120C9441120C940B0276
:100080000C9453120C940B020C940B0293149A14BC
:100090008C1493149A148C14851493149A148C143D
:1000A000851493149A148C1493149A148C14851434
:1000B00093149A148C14851493149A148C14E414C5
:1000C000E914DF14E414E914DF14DA14E414E91475
:1000D000DF14DA14E414E914DF14E414E914DF146F
:1000E000DA14E414E914DF14DA14E414E914DF1464
:1000F0004E15531549154E155315491544154E15F2
:100100005315491544154E15531549154E155315DC
:10011000491544154E155315491544154E155315DB
:100120004915881E931E7D1E881E931E7D1E721EFD
:10013000881E931E7D1E721E881E931E7D1E881EA5
:10014000931E7D1E721E881E931E7D1E721E881EAB
:10015000931E7D1EEA1EF51EDF1EEA1EF51EDF1E23
:10016000D41EEA1EF51EDF1ED41EEA1EF51EDF1E7B
:10017000EA1EF51EDF1ED41EEA1EF51EDF1ED41E6B
:10018000EA1EF51EDF1E00429F42AE4200430443BA
:100190000B43444347436A4380438343B6430E447F
:1001A00037441C457A457C457F45B545B845E64111
:1001B000E045F445E046A3471E49C847CF471948E4
:1001C0002F4950495B4AED4182499A49274AF841F3
:1001D000404A00002110422063308440A550C66090
:1001E000E770088129914AA16BB18CC1ADD1CEE1F4
:1001F000EFF13112100273325222B5529442F7726B
:10020000D662399318837BB35AA3BDD39CC3FFF343
:10021000DEE36224433420040114E664C774A4447A
:1002200085546AA54BB528850995EEE5CFF5ACC593
:100230008DD55336722611163006D776F66695564A
:10024000B4465BB77AA719973887DFF7FEE79DD7E3
:10025000BCC7C448E5588668A778400861180228DA
:100260002338CCC9EDD98EE9AFF9488969990AA933
:100270002BB9F55AD44AB77A966A711A500A333AAA
:10028000122AFDDBDCCBBFFB9EEB799B588B3BBB83
:100290001AABA66C877CE44CC55C222C033C600C3A
:1002A000411CAEED8FFDECCDCDDD2AAD0BBD688DD3
:1002B000499D977EB66ED55EF44E133E322E511E8A
:1002C000700E9FFFBEEFDDDFFCCF1BBF3AAF599F23
:1002D000788F8891A981CAB1EBA10CD12DC14EF1C3
:1002E0006FE18010A100C230E32004502540467029
:1002F0006760B9839893FBA3DAB33DC31CD37FE354
:100300005EF3B1029012F322D23235421452776278
:100310005672EAB5CBA5A89589856EF54FE52CD523
:100320000DC5E234C324A0148104667447642454C8
:100330000544DBA7FAB79987B8975FE77EF71DC733
:100340003CD7D326F2369106B01657667676154618
:1003500034564CD96DC90EF92FE9C899E9898AB983
:10036000ABA94458654806782768C018E108823868
:10037000A3287DCB5CDB3FEB1EFBF98BD89BBBAB93
:100380009ABB754A545A376A167AF10AD01AB32AB8
:10039000923A2EFD0FED6CDD4DCDAABD8BADE89DE3
:1003A000C98D267C076C645C454CA23C832CE01C08
:1003B000C10C1FEF3EFF5DCF7CDF9BAFBABFD98F73
:1003C000F89F176E367E554E745E932EB23ED10E58
:1003D000F01E00081C18141011241FBECFEFD0E12E
:1003E000DEBFCDBF11E0A0E0B1E0E8E0F0EA00E060
:1003F0000BBF02C007900D92A034B107D9F71CE0E3
:10040000A0E4B1E001C01D92A53DB107E1F70E9453
:100410008D4A0C9403500C9400008FB7F8949927E0
:1004200008958FBF0895282F9FB7F894E82FFF27CE
:10043000E65BFD4F80818F3F81F4E091850CE217F0
:1004400071F40BC02093000C04C0FF27E65BFD4F46
:1004500020832093850C20E007C025E005C0809113
:10046000000C8F3F91F7EECF892F99278FBF822FF6
:10047000992708951F931FB7F89480917E0C8823C5
:1004800041F48DE00E941302882319F481E08093E7
:100490007E0C812F99278FBF1F910895382FFA0165
:1004A000422F233318F082E090E008956683872F6F
:1004B0009927858333872187809152019091530139
:1004C000892B19F085E090E008952FB7F894332731
:1004D00085E08093550110925601F0935101E0930D
:1004E000500182E090E0909353018093520110926A
:1004F000580110925701445F409354012FBF8FB7AA
:10050000F894282F3327809189078A3011F42FBF60
:1005100019C02FBF9FB7F89480918704882311F0EA
:1005200020E006C081E0809387041092880421E0D7
:10053000892F99278FBF222329F00E943A0280E059
:1005400090E00895109253011092520181E090E0E2
:1005500008951F93CF93DF93E82FFF27EE0FFF1F20
:10056000EF54F44F1182108280913E019927019639
:1005700062E070E00E94654F682F80933E0110E0BA
:10058000462F5527FA01EE0FFF1FEF54F44FA081BD
:10059000B181109799F0E62FE695E695E695FF274D
:1005A000E859FB4F808199279A012770307002C06B
:1005B000959587952A95E2F780FF0DC0CA010196AF
:1005C00062E070E00E94654F682F1F5F1230C1F635
:1005D00010933E011AC060933E016230B0F4FD01F9
:1005E000359624813327ED016D817727762F662795
:1005F00081819927682B792BAD0186810E944E025B
:10060000882319F085E20E941302DF91CF911F9198
:100610000895CF92DF92EF92FF920F931F93CF93A3
:10062000DF936C018B017A01E901232B19F1FB01A6
:1006300043E0F695E7954A95E1F7EE0DFF1D8081C1
:1006400099279B012770307002C0959587952A9550
:10065000E2F780FF06C0F6017183608380E090E0DE
:100660000BC0CB010196BE010E94514FBC01801707
:100670009107E9F681E090E0DF91CF911F910F9112
:10068000FF90EF90DF90CF900895CF93DF93982F56
:100690008FB7F894282F3327422F80916F0188233A
:1006A00021F581E080936F019093DC072FBF8FB716
:1006B000F894C82FDD279C2F80913901843099F45C
:1006C00080916F01813021F48DE10E94130209C0F5
:1006D000823049F48091DC078093390183E0809374
:1006E0006F01CFBF07C09FBF05C08091DC0789178E
:1006F00021F42FBF80E090E021C0E92FFF27E45FC5
:10070000F34F80818F3F89F4E0913801E91789F434
:100710000CC09093370104C0FF27E45FF34F908330
:100720009093380180E090E002C085E090E04FBFF8
:1007300005C0809137018F3F79F7EBCFDF91CF91E3
:100740000895CF92DF92EF92FF920F931F93CF9372
:10075000DF93782FC62FDD278BE090E0C89FF00154
:10076000C99FF00DD89FF00D1124EC56FB4F8081EE
:10077000882319F085E090E048C0643018F480E0E8
:1007800091E002C080E090E0AA27BB27BA2FA92FF2
:10079000982F882782179307A407B507A0F1821B1B
:1007A000930BA40BB50B8C159D05AE05BF0558F139
:1007B0008BE090E0C89FF001C99FF00DD89FF00D2D
:1007C0001124EC56FB4F7083238334834583568377
:1007D000C782D086E186F28612830183613069F098
:1007E000613028F0623059F0633059F003C080E086
:1007F0000E94450380E090E008C081E0F9CF82E0EC
:10080000F7CF83E0F5CF86E090E0DF91CF911F91A5
:100810000F91FF90EF90DF90CF9008957FB7F894FD
:1008200062B7209120023091210240912202509122
:10083000230206B601FE0FC081B792B7280F311D03
:10084000411D511D2F5F3F4F4F4F5F4F290F311DEE
:10085000411D511D04C0260F311D411D511D872F03
:1008600099278FBFCA01B90108952F923F924F92E5
:100870005F926F927F928F929F92AF92BF92CF9230
:10088000DF92EF92FF920F931F93CF93DF93CDB739
:10089000DEB729970FB6F894DEBF0FBECDBF6FB796
:1008A0006983F89420905D0430905E0440905F046A
:1008B00050906004662477248824BEE4AB2EA3E81D
:1008C000BA2ECC24DD24EE24FF2400E010E0222DFB
:1008D000332D442D552D662D772D882D90E00E94C7
:1008E000A54D2A833B834C835D836E837F838887FA
:1008F0009987822E932EA42EB52E2401350100E275
:100900000E94A34EA22EB32EC42ED52EA301920177
:1009100056954795379527952A0D3B1D4C1D5D1D16
:1009200057FF05C05F772F5F3F4F4F4F5F4F2093BB
:100930005D0430935E0440935F0450936004E9814A
:100940008E2F99278FBFCA01B90129960FB6F89447
:10095000DEBF0FBECDBFDF91CF911F910F91FF90F2
:10096000EF90DF90CF90BF90AF909F908F907F904F
:100970006F905F904F903F902F900895FC0182817F
:100980009927582F442781819927482B592BCA0131
:10099000892F99278695869583709070823091056E
:1009A00059F08330910559F0892B19F420E030E09B
:1009B00008C02CE93FEF05C022E030E002C028E08B
:1009C00030E0CA0184E0989F812D9927112482305C
:1009D000910559F08330910559F0892B19F480E085
:1009E00090E008C08CE99FEF05C082E090E002C073
:1009F00088E090E0280F391F2A5F3F4FCF01820F18
:100A0000931F0895282F9FB7F894662349F0E82F85
:100A1000FF27EF54F84F8081882311F021E006C0B2
:100A2000E22FFF27EF54F84F608320E0892F9927AA
:100A30008FBF822F99270895E82F8FB7F894282F1A
:100A4000332790E0FF27EF54F84F8081861709F491
:100A500091E02FBF892F99270895882311F06E9A6E
:100A600008956E980895882311F06F9A08956F98ED
:100A7000089580E00E942D05BA9ABB98B99AB89A59
:100A80006C9A80E00E9433056B986A9881E00E941E
:100A90002D05709A8DB18C7F8DB908950F931F939A
:100AA000CF93DF93182F8FB7F894C82FDD270C2F23
:100AB00061E080E00E940205882321F0CFBF85E03D
:100AC00090E024C0809117018823A1F48091460111
:100AD000823081F409C082E08093460110921701B0
:100AE0000E943905B89AC0981093140180E00FBF96
:100AF00099270CC080914601882369F38FB7F89439
:100B000099271092B1078FBF81E0F1CFDF91CF918C
:100B10001F910F9108951F93182F81E00E942D05BA
:100B20001FB9779BFECF8FB199271F9108958F92A0
:100B30009F92AF92BF92CF92DF92EF92FF920F936C
:100B40001F93CF93DF938FB7F8949927C0907A0CB7
:100B5000D0907B0C8090040790900507C0911405FD
:100B6000D09115052091870130918801EAE0AE2EE1
:100B7000B12CAC0EBD1E2A153B0508F459018FBFE0
:100B80007401EC0EFD1E86010C0F1D1F14C0C11454
:100B9000D10419F0F801808101C080E00E948B052A
:100BA0008114910411F0F701808321960894E11CCF
:100BB000F11C0F5F1F4FC5010197C817D90738F304
:100BC00081E00E9433059FB7F894C114D10431F03D
:100BD000CC0EDD1EF60180818FB901C01FB8D09305
:100BE0001505C0931405892F99278FBF80E090E0E9
:100BF000DF91CF911F910F91FF90EF90DF90CF90F9
:100C0000BF90AF909F908F9008952FB7F89433279F
:100C1000509388014093870190937B0C80937A0CCA
:100C20007093050760930407109215051092140540
:100C30002FBF452B29F08FB10E9497059927089562
:100C400087E00E94130280E090E008958FB7F89447
:100C500099271092B3078FBF0895E2EDF1E069275D
:100C6000660FF11DE60FF11DC895982F802D319666
:100C7000C895902508951F93CF93DF93142FEB0110
:100C800004C069910E942D0611501123D1F7DF9104
:100C9000CF911F910895982F969596959695E8E097
:100CA000F6E0E90FF11D877021E030E002C0220F6D
:100CB000331F8A95E2F780818223992708958091D6
:100CC000080C882319F02FE170E002C078E02EE1D3
:100CD000622FEFB7F894809129038E7F80932903C8
:100CE00087B1982F9F71829586958695837019F0AC
:100CF00080E090E012C0822F8850863118F081E0A9
:100D000090E00BC040E050E03327892F9927281747
:100D1000390711F441E050E0CA01982F9170990F02
:100D2000809129038178262F2F71422F440F440F81
:100D3000892B842B80932903332727B9783059F5E1
:100D40008091010C9091020C21E08638920718F0F6
:100D500087E090E01FC0833C910518F086E090E0AA
:100D600019C08136910518F085E090E013C08033FA
:100D7000910518F084E090E00DC08831910518F0DD
:100D800083E090E007C00C9718F082E090E002C08A
:100D900080E090E0782F7770887D872B886D992789
:100DA00086B98E2F99278FBF0895FC016683672F20
:100DB000772765830895CF93DF93582FDB01823027
:100DC00018F081E090E038C0C82FDD27CC0FDD1F80
:100DD000CF54D44F88819981892B19F085E090E018
:100DE0002BC0798368839B012B5F3F4FF9014483BC
:100DF00080913E01823018F480E090E01DC0F9013E
:100E00008681FB0165817727762F6627F90121818D
:100E10003327622B732B50933E01242FAD010E9488
:100E20004E029927282F882329F082E080933E01E3
:100E300019821882822F9927DF91CF910895CF923E
:100E4000DF92EF92FF920F931F937A018B018093B1
:100E5000CC0430ECC32E34E0D32E6FEF7FEFC6010D
:100E60000E94D50683E58093CB044E2DB60180E029
:100E70000E94DB061F910F91FF90EF90DF90CF90C3
:100E80000895CF92EF92FF920F931F938091790173
:100E9000833079F42D5C344061F410927901089428
:100EA000E11CF11C011D111DB801A7018C2D0E9430
:100EB0001F071F910F91FF90EF90CF9008950F9310
:100EC0001F938093EA020EED12E06FEF7FEFC801EF
:100ED0000E94D50684E58093E90241E0B80181E0F3
:100EE0000E94DB061F910F9108954FB7F894552784
:100EF000FC0153E0F695E7955A95E1F7EE5AF84F65
:100F00008770907021E030E002C0220F331F8A9575
:100F1000E2F78081822B80834FBF08950F931F9348
:100F2000CF93DF93182F8FB7F894282F3327022FF2
:100F300080917601882359F581E0809376011093A2
:100F40004D042FBF8FB7F8949927379A8FBF8FB76B
:100F5000F894C82FDD279C2F80913D018130A9F4A2
:100F600080917601813021F481E20E94130209C050
:100F7000823059F480914D0480933D0183E0809349
:100F80007601CFBF80E090E025C09FBFFBCF80916E
:100F90004D04811711F42FBFF5CF812F0E944B060E
:100FA000882319F085E090E014C0E12FE695E695DE
:100FB000E695FF27E85FF94F177081E090E002C0E7
:100FC000880F991F1A95E2F72081282B208380E053
:100FD00090E00FBFDF91CF911F910F910895E82FFF
:100FE0009A01AB01BB27A52F942F832FBC01E130C1
:100FF00049F0E13078F0E23041F0E33049F060E070
:1010000078E008C060507F4F05C060507E4F02C03E
:1010100060507D4F88279927982F872F762F662736
:10102000307044275527620F731F841F951F089542
:101030009FB7F894292F3327422F90913C0198179E
:1010400041F480917001823021F42FBF81E090E063
:1010500008954FBF80E090E00895CF93DF93982FDD
:101060008FB7F894C82FDD272C2F8091700188232B
:1010700061F481E080937001909378048EE10E9486
:101080001302CFBF80E090E021C0E92FFF27E85294
:10109000FC4F80818F3F89F4E0913B01E91789F48F
:1010A0000CC090933A0104C0FF27E852FC4F908394
:1010B00090933B0180E090E002C085E090E02FBF7C
:1010C00005C080913A018F3F79F7EBCFDF91CF9147
:1010D000089581E10E941808882321F083E20E948C
:1010E0001302089581E10E942D0808958FB7F894A6
:1010F00060916E0570916F052CB53DB506B602FE88
:1011000004C06F5F7F4F2CB53DB599278FBF8827EF
:101110009927CB017727662744275527622B732B06
:10112000842B952B0895EF92FF920F931F930E94AB
:1011300076087B018C0120917404309175044091F4
:1011400076045091770480916A0490916B04A09189
:101150006C04B0916D04820F931FA41FB51FE2169B
:10116000F3060407150730F082179307A407B507A5
:1011700058F005C082179307A407B507E0F5E816F5
:10118000F9060A071B07B8F59C01AD012E193F09A6
:10119000400B510B213060E8360760E0460760E005
:1011A000560768F180E090E8A0E0B0E0E80EF91E94
:1011B0000A1F1B1FE0927404F092750400937604DA
:1011C0001093770480E090E8AFEFBFEFE80EF91ED0
:1011D0000A1F1B1F205030484040504020936A0493
:1011E00030936B0440936C0450936D0420E030E81E
:1011F00040E050E014C020E030E040E050E0809358
:10120000740490937504A0937604B09377041092BD
:101210006A0410926B0410926C0410926D04A90180
:10122000B7012CB53DB5C9018E199F0903968417E6
:10123000950720F0B9016D5F7F4F02C0640F751FE5
:101240006115710511F461E070E0615070407BBD83
:101250006ABD80E186BF87B7806187BF1F910F910C
:10126000FF90EF9008950F931F930FB7F8941127F5
:10127000609374047093750480937604909377045C
:1012800020936A0430936B0440936C0450936D0474
:101290000E9493080FBF1F910F910895CF92EF9274
:1012A000FF9280917901843089F410927901CC20E9
:1012B00031F4E092CE048F2D99278093CD0443E042
:1012C00050E060E070E08C2D0E941F07FF90EF90CF
:1012D000CF900895862F90917901913011F096303A
:1012E00041F41092790141E050E060E070E00E942A
:1012F0001F070895813049F0813078F0823041F045
:10130000833049F060E070E008C060507E4F05C057
:1013100060507D4F02C060507F4FCB010895982FE1
:101320004FB7F894552722B3277D22BB80E097FD65
:10133000939A959A8299806822BB96FD939A959A82
:101340008299806422BB95FD939A959A82998062D6
:1013500022BB94FD939A959A8299806122BB93FD5A
:10136000939A959A8299886022BB92FD939A959A56
:101370008299846022BB91FD939A959A82998260AA
:1013800022BB90FD939A959A829981604FBF9927CD
:1013900008951F93182F809178018823E1F462301B
:1013A00041F0633041F0613011F081E007C080E12D
:1013B00003C08EE001C08FE00E942D0890E08823DA
:1013C00009F491E090937801992329F01093800B10
:1013D00080E090E002C081E090E01F910895AC01B0
:1013E000E8E7F5E080E090E09C01858180FF05C0A2
:1013F000808191818417950741F0C90101963E963D
:101400008A30910589F72FEF30E0C90108950E94D5
:10141000EF098F3F99F09927880F991FFC0123E06E
:10142000EE0FFF1F2A95E1F7E81BF90BE858FA4F7A
:10143000858181FF03C08285938508958FEF90E0B9
:1014400008950E94EF098F3F19F481E090E008951C
:101450009927880F991FFC0143E0EE0FFF1F4A9563
:10146000E1F7E81BF90BE858FA4F8581886085831E
:1014700080E090E008959C016E5F633318F080E097
:1014800090E008950C9611F0C9010E960895FC01A4
:1014900080899927982F882721893327822B932B9E
:1014A0000895FC01CB01428553859A0173E0220F18
:1014B000331F7A95E1F7240F351F2B5F3F4F820FC3
:1014C000931F6AE070E00E94514F7387628708950E
:1014D000FC0164859585662339F48AE0989FB00104
:1014E00011246A5070400BC077278AE0989FC00192
:1014F00011240E94654F6A50704014861586CF01F2
:101500000E94510A089580916001E82FFF27EE0F95
:10151000FF1FE85AF44F0190F081E02D2091620105
:10152000222351F08F5F809360018C3011F4109270
:101530006001215020936201CF010895FC01808950
:101540009927982F882721893327822B932B089559
:10155000AF92BF92DF92EF92FF920F931F93CF93C0
:10156000DF935C01D0902502F0909004EE2425C01A
:101570000F2D03701127C5010E949E0AF801EE0F7E
:10158000FF1FEE0FFF1FE00FF11FEB58FD4F2081F3
:1015900031818217930779F4D5011C96ED019E8164
:1015A0008281891741F499818481891721F49F816F
:1015B0008381891721F0E394F394ED14C9F68E2DFD
:1015C0009927DF91CF911F910F91FF90EF90DF90BE
:1015D000BF90AF900895AC0120918D042C3018F08D
:1015E00081E090E0089580916404682F620F712D6E
:1015F000711DFB016C30710508F03C97EE0FFF1F69
:10160000EE56F84F518340832F5F20938D0480E086
:1016100090E00895AC0120918C042C3018F081E00A
:1016200090E008958091110C682F620F712D711D4B
:10163000FB016C30710508F03C97EE0FFF1FE7547B
:10164000F34F518340832F5F20938C0480E090E020
:1016500008950F931F93CF93DF93EC01892BE9F04B
:101660002091760B3091770B8FEF2F3F3807A9F041
:1016700080912602813019F4198218820BC00091E2
:10168000780B1091790BC9010E94070A080F191FE6
:101690001983088380E090E002C081E090E0DF9150
:1016A000CF911F910F9108959C01685F633318F0EB
:1016B00080E090E008950C9611F0C90144960895D9
:1016C000CF93DF93EC01483101F5809140018823ED
:1016D000E1F4D99880EE91E09093810C8093800C96
:1016E000DC01FB0188E101900D928150E1F728E1D6
:1016F00044ED51E06FEF7FEF8CEA0E944E028823A9
:1017000021F481E080934001D898CE01DF91CF9100
:101710000895982F8FB7F894282F33278091700160
:10172000882349F482E08093700190933C012FBF9D
:1017300080E090E008952FBF81E090E008958FB79A
:10174000F894282F3327922F809189078A3041F00F
:101750008091F903843021F02FBF89E090E0089553
:101760009FBF8EE00E94130280E090E00895809178
:1017700089078A3021F48091F903843021F081E0D7
:1017800080934D0108958FE00E94130210924D0145
:1017900008952FB7F89433278CB95E9A2FBF089518
:1017A000FC016115710519F481E090E008958091C4
:1017B0007F0490918004892B19F085E090E00895D2
:1017C00070937F0B60937E0BF0938004E0937F0413
:1017D000109245041092440481E0809346045E9A7E
:1017E000569A808121E030E03093450420934404F0
:1017F0000E94C90B80E090E008958FB7F894992774
:1018000020915E012E7F20935E012EE720937402CB
:101810008FBF61E070E084E792E00E94D00B9927CF
:101820000895DF92EF92FF920F931F938FB7F89472
:10183000282F3327D22E91B782B746B7981711F0C9
:1018400041FF02C02FBF6AC080910A058823E1F1E1
:101850000E940E04E090AD07F090AE070091AF0734
:101860001091B00720913F02309140024091410217
:10187000509142026E197F09800B910B621773071A
:101880008407950720F010920A0571E01EC02E0D06
:101890003F1D401F511F8091200290912102A09175
:1018A0002202B0912302281B390B4A0B5B0B273E07
:1018B00031054105510540F4822F223010F070E0CF
:1018C00005C070E082E002C070E086EE682F6150D3
:1018D00000B601FCFDCF82B7681709F46F5F209155
:1018E0002002309121024091220250912302DA011C
:1018F000C9010196A11DB11D860F911DA11DB11D2C
:1019000082179307A407B50710F4622F609561BF93
:10191000DFBE772319F08AE00E9413021F910F9116
:10192000FF90EF90DF900895AFB7F894BB27E1E008
:10193000E0930A056093AD077093AE078093AF07FD
:101940009093B00720933F023093400240934102AE
:1019500050934202AFBF0E94110C089508950F9357
:101960001F93CF93DF93282F3327C901880F991F27
:10197000FC0113E0EE0FFF1F1A95E1F7E81BF90BCE
:10198000E858FA4F858182FF03C062838B7F85838D
:101990008281962F981B628383818F5F838386E089
:1019A0008683992361F08481890F815084839B30E1
:1019B00030F0148281E08383178211861086C9017A
:1019C000880F991FFC01A3E0EE0FFF1FAA95E1F716
:1019D000E81BF90BE858FA4F8381833008F471C093
:1019E00000811181C8E7D5E088819981801791072E
:1019F00009F061C08D8180FF5EC08E81882311F067
:101A000081508E838F81882311F081508F838E8146
:101A1000882351F48F81882339F48D8191E08927BF
:101A20008D831986188642C08D8182608D839B814B
:101A30006C81690F633008F463E077278FEF989F1C
:101A4000C00111240E94654F888529E0829FC00152
:101A500011240596860F911D6AE070E00E94654F83
:101A600068871B821C824985662301F14423F1F0BB
:101A7000772781E09EEF0E94514FCB019B01F3E05D
:101A8000220F331FFA95E1F7642F7727880F991FEC
:101A9000820F931F0E94514F6A5070406F3F710533
:101AA00019F010F06CE370E0772702C06CE370E08F
:101AB000CE010E94510A2E9686E0C430D80709F064
:101AC00093CFDF91CF911F910F91089580E090E027
:101AD000EDE7F5E09C01808180FF08C0C901019617
:101AE0003E968A309105B1F72FEF30E0C901089595
:101AF0009EE0899FF0011124E858FA4F71836083BA
:101B000012821382148285E0858386E08683878330
:101B100010861186138612860895982FAFEF60E025
:101B200070E040E050E0EDE7F5E08081282F3327BA
:101B300020FF0BC021FF09C023FD07C0258136818E
:101B40002617370710F0A42FB9014F5F5F4F3E965D
:101B50004A30510551F7892F99276817790718F4EA
:101B60008FEF90E008958A2F99270895AC01309166
:101B700046028FEF4F3F580711F020E012C0832F2D
:101B800099270895E22FFF2783E0EE0FFF1F8A9524
:101B9000E1F7EC57FC4F808191818417950719F08C
:101BA0002F5F231779F7822F992708951F93CF93DB
:101BB000DF93162FC0E0D0E060E30E943B0AFC01F7
:101BC00080818123811711F4C1E0D0E0CE01DF9143
:101BD000CF911F910895FC018081448555274F7056
:101BE00050709A01220F331F240F351F821B8F5014
:101BF0009927089580E8809343021092F803109289
:101C0000090C1092FF0B1092800308951F93CF933D
:101C1000DF93182F8FB7F894C82FDD2760E080E09E
:101C20000E941C05882321F0CFBF80E090E005C012
:101C3000CFBF812F0E948B059927DF91CF911F91F4
:101C40000895CF93DF93FC01FE961582DF0116966F
:101C5000ED011B821A82198280E88683DF91CF9181
:101C6000089597B79F7D97BF90E296BF882319F09C
:101C70008EB5806402C08EB58F7B8EBD87B78062C3
:101C800087BF80E090E00895AF92BF92CF92DF923D
:101C9000EF92FF920F931F93CF93DF93CDB7DEB7F1
:101CA00028970FB6F894DEBF0FBECDBF20E070E0DE
:101CB000E0910E01F0910F0132E14DE65CE46FE43A
:101CC00080910F019E2F28960FB6F894DEBF0FBEAD
:101CD000CDBFDF91CF911F910F91FF90EF90DF90DB
:101CE000CF90BF90AF9008951F920F920FB60F92B2
:101CF00011248F9383B783BF00B600FCFDCF8F9173
:101D00000F900FBE0F901F90189578941F920F920E
:101D10000FB60F9211240F900FBE0F901F901895C1
:101D200078941F920F920FB60F9211240F900FBE4E
:101D30000F901F90189578941F920F920FB60F92E4
:101D400011242F933F938F939F932FB7F8943327AA
:101D500080916E0590916F05019690936F05809329
:101D60006E052FBF9F918F913F912F910F900FBEC6
:101D70000F901F9018951F920F920FB60F9211247B
:101D80000F900FBE0F901F9018951F920F920FB6D5
:101D90000F9211240F900FBE0F901F9018951F9255
:101DA0000F920FB60F9211240F900FBE0F901F903D
:101DB00018951F920F920FB60F9211240F900FBE1D
:101DC0000F901F9018951F920F920FB60F9211242B
:101DD0000F900FBE0F901F9018951F920F920FB685
:101DE0000F9211240F900FBE0F901F9018951F9205
:101DF0000F920FB60F9211240F900FBE0F901F90ED
:101E00001895982F80915901882389F5992379F5A0
:101E100031E03093590180911E0180935A01209145
:101E20004E01822F81708093450280912301909111
:101E3000240190935C0180935B0180914F0180931A
:101E40005D0132273170267EE32FFF27EE0FFF1F43
:101E5000E15EFE4F80819181909324018093230164
:101E6000232B20934E0182E10E941302089580915A
:101E70004E0180FF02C08B7F01C08D7F80934E0199
:101E800008950F931F93082F162F8091F903813027
:101E9000D9F0813038F0823009F44AC0833009F03B
:101EA00028C159C0002309F458C11092720B109236
:101EB000710B1092910710928C0B109248041092A3
:101EC00073051092720539C1002309F046C1809153
:101ED0007205909173050E942D069093730580936F
:101EE000720582E08093F90310938C0B143409F08F
:101EF00000C125C18695869503C080914E018695C7
:101F0000817009F0F6C080914E01992311F0846030
:101F100001C0826080934E0180914E01877E88606F
:101F200080934E0110924F018FEF80931E0115C1D7
:101F3000002309F0DEC060934804809172059091FF
:101F400073050E942D06909373058093720583E0BC
:101F50008093F90302C1809191078F3F09F4C9C0B2
:101F6000002309F461C0823008F4C3C0E091710B12
:101F7000EE2309F4EBC04E2F4150E42FFF27EF581A
:101F8000F44F82819927382F2227442311F4E2E06D
:101F900002C0E42FE150FF27EF58F44F82819927C8
:101FA000282B392B809172059091730528173907DA
:101FB00009F09FC080E00E94010F30914804809199
:101FC0000B0520910C05982F9F5F963008F090E04C
:101FD000921771F0E82FFF27E55FFA4F32838F5F8A
:101FE00080930B05863010F010920B050E943A0288
:101FF0001092720B1092710B94E09093F90310926F
:10200000910710928C0B1092480410927305109255
:10201000720580915E018D7F80935E0180914D01FC
:10202000882309F49AC084C0823008F44EC0E0913D
:10203000720BFF27EF58F44F8281482F5527342F1A
:1020400020914E01822F86958695869583709927DB
:102050008130910519F00297F9F40EC0277E2061B6
:1020600020934E01442311F485E001C080E0809369
:102070004F0130931E0110C080914F018A3460F4EB
:10208000E0912301F0912401E80FF11D408380913C
:102090004F018F5F80934F018091720BE82FFF27D4
:1020A000EF58F44F62818F5F8093720B833010F092
:1020B0001092720B772780917205909173050E94A0
:1020C0002D0690937305809372058091710BE82F14
:1020D000FF27EF58F44F12838F5F8093710B83308B
:1020E00010F01092710B809191078F5F8093910790
:1020F00034C01092720B1092710B14E01093F9031C
:102100001092910710928C0B109248041092730554
:102110001092720580915E018D7F80935E0181E057
:102120000E94010F80914D01882329F01093F9033B
:102130000E94B70B12C0002381F081E009CF80918B
:102140004E01982F917080FDD5CED7CE8091750B22
:102150009927382F222742E01CCF1F910F91089515
:102160001F920F920FB60F9211242F933F934F930C
:102170005F936F937F938F939F93AF93BF93EF93EF
:10218000FF935F9B3DC06CB1E0917405F0917505C4
:102190003097F9F080917C0C90917D0CE80FF91F3D
:1021A0006083019690937D0C80937C0C2091D30CDE
:1021B0003091D40C8217930718F110927505109284
:1021C0007405809153078330D9F0579810925307C4
:1021D00017C06E3719F460E081E010C080915E0195
:1021E0006D3721F4826080935E010AC081FF05C0D3
:1021F0008D7F80935E0180E2682780E00E94410F1E
:10220000FF91EF91BF91AF919F918F917F916F91CE
:102210005F914F913F912F910F900FBE0F901F90A4
:102220001895982F8D57823068F480915E018160F7
:1022300080935E0180E28927809390078DE78093E9
:10224000740202C09093740261E070E084E792E04F
:102250000E94D00B9927089578941F920F920FB681
:102260000F921124FF920F931F932F933F934F933D
:102270005F936F937F938F939F93AF93BF93CF930E
:10228000DF93EF93FF9320914404309145048091B4
:102290007E0B90917F0B2817390780F4E0917F0423
:1022A000F0918004E20FF31F80812F5F3F4F309346
:1022B0004504209344040E94C90BCDC010928004B1
:1022C00010927F04109246045698FFB6F8948091BD
:1022D0005E0180FF0EC08E7F80935E01809190072B
:1022E0008093740261E070E084E792E00E94D00B7A
:1022F000AFC080918907843009F48CC0853040F4E8
:10230000823021F18330B8F5813009F09CC00DC0D6
:10231000863009F48DC0863008F483C0873009F414
:102320008EC0883009F08FC091C0809173040E94E4
:102330001111082F83E080938907609173048091C5
:10234000D10C9091D20C0E942D0610C08091070CE8
:102350000E941111082F83E0809389076091070C78
:102360008091D10C9091D20C0E942D069093D20CAA
:102370008093D10C66C0E0910406FF27EE0FFF1F8B
:10238000EA57FB4F80810E941111082F109104061B
:10239000C12FDD27FE01EE0FFF1FEA57FB4F6081C3
:1023A0008091D10C9091D20C0E942D069093D20C6A
:1023B0008093D10C209169042F5F20936904113020
:1023C00039F580915501E0915001F0915101E80FEC
:1023D000F11DE0818F5F8093550190915401981712
:1023E00030F482E08093870440E050E002C04E2F3A
:1023F0005527DE01AA0FBB1FFD01EB57FB4F808164
:10240000823031F02F3F21F0AA57BB4F4C9319C0B7
:1024100084E012C08091D10C0E941111082F85E038
:102420000BC08091D20C0E941111082F86E004C0CD
:102430000E94FD0B082F87E08093890702C088E087
:1024400003C0002329F089E0809389070E943A02A3
:102450008F2D99278FBFFF91EF91DF91CF91BF9182
:10246000AF919F918F917F916F915F914F913F912C
:102470002F911F910F91FF900F900FBE0F901F9003
:1024800018951F920F920FB60F9211248F9380917F
:102490009B0087FF02C080919C008F910F900FBE20
:1024A0000F901F90189578941F920F920FB60F926D
:1024B00011240F900FBE0F901F90189578941F92C3
:1024C0000F920FB60F9211240F900FBE0F901F9016
:1024D000189578941F920F920FB60F9211240F90B7
:1024E0000FBE0F901F90189578941F920F920FB601
:1024F0000F9211240F900FBE0F901F901895789493
:102500001F920F920FB60F9211248F939F93809179
:102510008000909181009F918F910F900FBE0F903E
:102520001F90189578941F920F920FB60F92112456
:102530002F933F938F939F932FB7F89433278091D6
:1025400065049091660401969093660480936504F7
:102550002FBF9F918F913F912F910F900FBE0F90A2
:102560001F9018951F920F920FB60F9211242F9360
:102570003F934F935F936F937F938F939F93AF930B
:10258000BF93EF93FF9344B155B178948FB7F8940C
:10259000992720912903322F3695317021708FBFF2
:1025A0002223D9F4339880918904813021F082303C
:1025B00009F039C00AC0332351F050938807409383
:1025C000870782E20E9413022EC0332319F40E946F
:1025D0005F0629C01092890426C08FB7F894992706
:1025E0008FBF2FB7F894332786B1582F5770482FD5
:1025F0004072987D942B952B8074977B982B9061DB
:102600009F77892F992786B9887D842B852B87739F
:102610008061992786B9887D842B852B877B80698B
:10262000992786B92FBFFF91EF91BF91AF919F91ED
:102630008F917F916F915F914F913F912F910F906B
:102640000FBE0F901F901895EF92FF920F931F935C
:10265000CF93DF93EA017B010AC08C010F5F1F4F0C
:102660000E94EE4FF70181937F012197C8012097C7
:10267000A1F780E090E0DF91CF911F910F91FF9043
:10268000EF900895EF92FF920F931F9379018A01C3
:102690006A3018F04AE050E002C0462F5527BC01CE
:1026A0008FEB97E00E94DE4FE0927101F092720191
:1026B00000937301109374011F910F91FF90EF909D
:1026C0000895AF92BF92CF92DF92FF920F931F9324
:1026D000CF93DF935C01442309F472C0EC01C880FE
:1026E000D98080912502843009F046C0C6010E943D
:1026F000A80A20912502622F0E94454F492F921768
:10270000D8F5992359F4809190049927019664E0B3
:1027100070E00E94654F8093900429C080919004DE
:10272000840F912D911D9C0123703070E901CC0F15
:10273000DD1FCC0FDD1FC20FD31F019664E070E0D8
:102740000E94654FFC01EE0FFF1FEE0FFF1FE80F09
:10275000F91FCB58DD4FEB58FD4F85E001900992F2
:102760008150E1F74F5F809125024817B8F28091C0
:102770002502815080932502F090250280919004DB
:102780008F0D912D911D837090708C01000F111F82
:10279000000F111F080F191F0B581D4FC6010E9473
:1027A0009E0AF80191838083F6013C968681E801B8
:1027B0008A8381818C8387818B83F394F0922502B5
:1027C000F501808191810E94EB0AC5010E940A0BEC
:1027D000DF91CF911F910F91FF90DF90CF90BF902D
:1027E000AF900895EF92FF920F931F93CF93DF93D3
:1027F000EA017B010AC0F70161917F018C010F5F43
:102800001F4F0E94F64F2197C8012097A1F7E19929
:10281000FECF80E090E0DF91CF911F910F91FF906C
:10282000EF9008951F920F920FB60F9211242F93DD
:102830003F934F935F936F937F938F939F93AF9348
:10284000BF93EF93FF9383B783BF00B600FCFDCF28
:1028500081B799270196AA27BB27209120023091A2
:1028600021024091220250912302280F391F4A1F52
:102870005B1F209320023093210240932202509349
:10288000230278940E94110CFF91EF91BF91AF91B8
:102890009F918F917F916F915F914F913F912F9178
:1028A0000F900FBE0F901F901895BF92CF92DF929E
:1028B000EF92FF920F931F93B82ED70180916D0175
:1028C000882319F085E090E03CC0EB2DFF27E9312B
:1028D000F105B8F4EA5BFF4FEE0FFF1F0590F4918E
:1028E000E02D099485E00E94A1039927282F8823D1
:1028F00049F481E080936D01B0927F0C80E090E01C
:1029000020C021E0822F99271CC0680179018D0128
:102910009A01AB0160E0E6CF680179018D019A016F
:10292000AB0163E0DFCF680179018D019A01AB0152
:1029300061E0D8CF680179018D019A01AB0162E0B5
:10294000D1CF1F910F91FF90EF90DF90CF90BF906C
:102950000895BF92CF92DF92EF92FF920F931F9351
:10296000B82E6701780180916D01882319F085E008
:1029700090E034C0EB2DFF27E931F105B8F4E15ABE
:10298000FF4FEE0FFF1F0590F491E02D099484E0B6
:102990000E94A1039927282F882349F481E080937E
:1029A0006D01B0927F0C80E090E018C021E0822F92
:1029B000992714C089019A01AB0160E0E8CF890131
:1029C0009A01AB0163E0E3CF89019A01AB0161E0B9
:1029D000DECF89019A01AB0162E0D9CF1F910F913F
:1029E000FF90EF90DF90CF90BF900895EF92FF920D
:1029F0000F931F93813051F0813030F0823041F0DD
:102A0000833041F081E009C086E005C089E003C061
:102A100087E001C088E00E94A91499271F910F91B7
:102A2000FF90EF900895BF92CF92DF92EF92FF92C6
:102A30000F931F93B82E6701780180916D01882351
:102A400019F085E090E034C0EB2DFF27E931F10566
:102A5000B8F4E858FF4FEE0FFF1F0590F491E02DFA
:102A6000099481E00E94A1039927282F882349F423
:102A700081E080936D01B0927F0C80E090E018C0FF
:102A800021E0822F992714C089019A01AB0160E0EF
:102A9000E8CF89019A01AB0163E0E3CF89019A0194
:102AA000AB0161E0DECF89019A01AB0162E0D9CFD1
:102AB0001F910F91FF90EF90DF90CF90BF900895FE
:102AC000AF92BF92CF92DF92EF92FF920F931F933C
:102AD00080914704992722E330E0829FA001839FE1
:102AE000500D929F500D1124FA01E75EF34F808143
:102AF000A82EBB24CC24DD24FAE0AA0CBB1CCC1CE1
:102B0000DD1CFA95D1F7FA01E65EF34F80812CE2E5
:102B1000829FC0011124AA27BB27A80EB91ECA1E76
:102B2000DB1E9A01255E334F80916B01823079F074
:102B30008330B1F0813011F081E01CC0ECE2EE2E68
:102B4000F12C012D112DB601A50185E011C07CE20B
:102B5000E72EF12C012D112DB601A50183E008C04F
:102B60006CE2E62EF12C012D112DB601A50184E0B9
:102B70000E941315882311F0109272021F910F9179
:102B8000FF90EF90DF90CF90BF90AF9008951F938C
:102B9000982F8FB7F894182F80916F018330B1F57B
:102BA00080913901891791F58091370120E030E05B
:102BB0008F3F11F421E030E0232BF9F48F3F19F41B
:102BC0002FEF30E00EC0282F3327F901E45FF34FD9
:102BD0008081809337018F3F11F4809338018FEF0C
:102BE00080832093DC078FEF8093390181E080930D
:102BF0006F018DE10E94130205C084E080933901CA
:102C000010926F011FBF80E090E003C01FBF81E002
:102C100090E01F9108951F93982F1FB7F89480910B
:102C20007001823099F580913C01891779F5809186
:102C30003A0120E030E08F3F11F421E030E0232B17
:102C4000F1F49FEF90933C018F3F19F42FEF30E0A8
:102C50000DC0282F3327F901E852FC4F8081809363
:102C60003A018F3F11F490933B01908320937804B5
:102C700081E0809370018EE10E94130205C08FEF06
:102C800080933C011092700121E001C020E0812F6F
:102C900099278FBF90E0213009F491E081E09827D7
:102CA000892F99271F91089510927801823031F071
:102CB000833041F0813049F480E101C08EE00E9410
:102CC0000B1608958FE00E940B160895EF920F9354
:102CD0001F93AE2D99E0899FF0011124E75FF94F12
:102CE00040835183628373830483158326833783F0
:102CF000A17080858E7F8A2B826080878BE00E9406
:102D000013021F910F91EF90089561E081E00E94FE
:102D100002058823E9F48FB7F894282F3327809190
:102D2000420190914301892B11F02FBF20C081E017
:102D300090E090934301809342012FBFDD9A0E945F
:102D4000760824E130E040E050E00E9433090FC0F3
:102D500062E081E00E941C05882319F089E090E080
:102D6000089561E081E00E941C05882319F080E04D
:102D700090E0089585E090E00895EF92FF920F9320
:102D80001F9380911305843090F410923902A4E5CA
:102D9000EA2EF12C012D112D2BE233E040E050E022
:102DA00060E070E0809159040E94F61405C00E9412
:102DB000851683E0809339021F910F91FF90EF9069
:102DC000089580913902823019F0833071F4FBCF7D
:102DD000E0911305EF5FE0931305FF27E05FFE4FDF
:102DE0008081809359040E94BD1608950F931F930C
:102DF000182F0FB7F89461E080E00E940205882345
:102E000071F510931401809117018823A9F5809121
:102E10004601823089F586E00CC00E943905809118
:102E20004601882349F481E0809346011092810392
:102E300088E00E9413022AC0809170048F3F31F510
:102E4000E0911601EE2311F11CC01092150104C08F
:102E5000FF27E059FB4F10821092160117C081E046
:102E600090E002C0880F991F1A95E2F72091450162
:102E7000282B209345010AC0809146018823E1F662
:102E8000CCCF809115018F3F19F7DFCF802F992785
:102E90008FBF80E090E01F910F9108951F938FB72F
:102EA000F894282F3327122F8091840C882321F047
:102EB0002FBF81E090E013C081E08093840C80916B
:102EC000420190914301049721F481E00E94F6169B
:102ED00003C084E00E9413021FBF80E090E01F91B6
:102EE00008951F9383E00E944E059927182F882389
:102EF00019F083E00E94F616812F99271F910895FB
:102F0000CF92DF92EF92FF920F931F9380936E0107
:102F10006093830BC901880F892F881F990B9195A6
:102F20008093840B220F812F9927282B2093850BC8
:102F30000093860BD0925107C0925007F092720412
:102F4000E0927104409367048CE10E9413021F9188
:102F50000F91FF90EF90DF90CF900895AF92BF92C6
:102F6000CF92DF92EF920F931F93882389F00E94F4
:102F700035045B016C018FEF90E0A0E0B0E0A82287
:102F8000B922CA22DB2280E190E0A0E0B0E010C0CC
:102F90000E9435045B016C018FE790E0A0E0B0E097
:102FA000A822B922CA22DB2280E890E0A0E0B0E0AB
:102FB000A80EB91ECA1EDB1E0E940E04AB01BC0186
:102FC000E1E0EE2E9601850185E00E9466161F91D4
:102FD0000F91EF90DF90CF90BF90AF900895853123
:102FE000C1F0863138F4843061F0853051F083309F
:102FF000D9F407C0873189F0873168F08831A1F4AE
:1030000010C080912B01813079F488E10E94130275
:10301000089580E003C082E001C083E00E946A0955
:10302000089581E00E946A090895CF93DF93EC012F
:103030000E94B60D282F809146022817D1F0382F14
:1030400031503093460213C0822F9927F3E0880F46
:10305000991FFA95E1F7DC01AC57BC4FFC01E4572E
:10306000FC4F88E001900D928150E1F72F5F23170C
:1030700058F38091760B9091770B8C179D07A1F4F4
:103080008FEF9FEF9093770B8093760B1092790BD5
:103090001092780B10927A0B10927B0B81E0809348
:1030A000680186E10E941302DF91CF910895AF92EB
:1030B000BF92CF92DF92EF92FF920F931F93282F30
:1030C00033278BE090E0289FF001299FF00D389F77
:1030D000F00D1124E458FE4F82819381A481B581C3
:1030E0000097A105B10569F080819181880F991F32
:1030F000918380838150944020F080E094E091831C
:1031000080838BE090E0289F5001299FB00C389F6E
:10311000B00C11248CE791E0A80EB91EF501868150
:103120009781A085B18582839383A483B583C08072
:10313000D180EE24FF2469E0CC0CDD1CEE1CFF1CCA
:103140006A95D1F70E943504DC01CB01F5010081BD
:103150001181B801762F6627770F0E94514FAA2759
:10316000BB278C0D9D1DAE1DBF1D222733274AE0B6
:10317000000F111F221F331F4A95D1F7081B190B8F
:103180002A0B3B0B068317832087318722813381EB
:1031900044815581280F391F4A1F5B1F22833383C7
:1031A000448355831F910F91FF90EF90DF90CF9054
:1031B000BF90AF900895EF92FF920F931F93CF931C
:1031C000DF93182F7B01042F8FB7F894C82FDD27CA
:1031D00060E080E00E941C05882321F0CFBF80E0E2
:1031E00090E014C0CFBF1064812F99279093820480
:1031F000809381040E948B05182F402F5527B7011B
:1032000080E090E00E940506812F9927DF91CF9101
:103210001F910F91FF90EF900895C09860917A01EF
:1032200070917B0141E08FE30E94DB18089582E0FA
:1032300090E0909371028093700281E08093F80394
:1032400020E030E080911401843011F421E030E07E
:10325000232B29F484E00E944E05882319F40E9450
:103260000D19089584E00E94F61608951F920F929A
:103270000FB60F9211242F933F934F935F936F9349
:103280007F938F939F93AF93BF93EF93FF9380911F
:10329000700290917102019749F482E090E090935E
:1032A0007102809370020E94171905C080918003FB
:1032B0008F5F80938003FF91EF91BF91AF919F91BA
:1032C0008F917F916F915F914F913F912F910F90CF
:1032D0000FBE0F901F9018951F9380914501882372
:1032E00009F04BC0109114011F3F09F046C060E087
:1032F0000E941C05882309F440C081E08093560B8E
:10330000809149028823E1F11092560B85E090E00C
:1033100045C0923069F5C09A8091150120E030E0F7
:103320008F3F11F421E030E0232BE9F410931701D3
:103330008F3F19F42FEF30E00DC0282F3327F9010C
:10334000E059FB4F8081809315018F3F11F410935A
:10335000160110832093810381E08093460188E069
:103360000E94130205C0109317011092460111C06C
:1033700080914601882369F00FC081E090E00EC083
:103380008091170190914601882319F2923021F023
:10339000EFCF80E00E942D0580E090E01F9108951E
:1033A0001F93CF93DF939FB7F894C92FDD271C2F6E
:1033B00090911401981721F0CFBF81E090E03AC0BE
:1033C0008FEF80931401309145013323F1F48FB7CF
:1033D000F89499271092B1078FBF0E946C19CFBF44
:1033E00011C02093140181E090E002C0880F991F62
:1033F0004A95E2F7809538233093450186E00E9494
:1034000013021FBF80E090E015C080E065E0E32F6D
:10341000FF270E94454F292F492F5527CF01042E02
:1034200002C0959587950A94E2F780FDDACF822F46
:103430008F5FEFCFDF91CF911F9108951F93CF93AF
:10344000DF938FB7F894C82FDD271C2F809170026F
:1034500090917102892B29F484E00E94D019CFBF8A
:103460001EC01092F80380918003882311F0B79951
:1034700004C00E9908C0882319F0815080938003FE
:103480000E9417190BC081E090E090937102809325
:1034900070021092800384E00E94D0191FBFDF9158
:1034A000CF911F9108950E94FA0DC09AC09888E0AC
:1034B0000E94060E88E00E94060EC09A84E00E94D8
:1034C000D0190E941E1A0895FF920F931F93CF9355
:1034D000DF93F82E8B018FB7F894C82FDD2760E0BB
:1034E00080E00E941C05882321F0CFBF80E090E09F
:1034F0000CC0CFBF8F2D0E948B05812F99270E9472
:103500008B05802F0E948B059927DF91CF911F910A
:103510000F91FF9008951F931FB7F89480917F0338
:10352000882319F460E070E009C060E08091790CB4
:10353000882309F461E081E06827772780915804A7
:10354000882319F480E090E00AC090E08091D307CE
:10355000882309F491E081E09827892F9927762F15
:103560006627770F770F770FF4E0880F991FFA958A
:10357000E1F7826E9262682B792B81E10E94641AD6
:10358000812F99278FBF1F9108958FB7F89499279E
:103590006091DD078FBF85E0689FB0011124625DF7
:1035A0007E4F706488E10E94641A0895FF920F9321
:1035B0001F93CF93DF93C0915A04D0915B04EE9692
:1035C0008A81EE979927182F882309F41FE1C09864
:1035D00080912803811749F0612F77276F717070F0
:1035E000606E706885E10E94641A10932803F88069
:1035F0008FB7F894082F112760E080E00E941C0527
:10360000882311F00FBF12C00FBF8EE390E090939C
:103610008204809381048EE30E948B05FA944F2DDF
:10362000552760E070E0CE010E940506DF91CF9142
:103630001F910F91FF9008950F931F93CF93DF93E6
:10364000EC010FB7F89411270E94BE04FC018FE330
:1036500080830FBF1092130C1092120C61E082E075
:103660000E940205882319F085E090E075C08091E2
:10367000570B8F5F8093570B81508B838FB7F894D4
:10368000082F112762E081E00E941C05882329F49D
:103690000FBF0E94260681E05EC0DE01DE968FB776
:1036A000F894992724E02093B2078FBFD0938F041A
:1036B000C0938E040FBFFE01319681812981992725
:1036C000982F88273327822B932B80729C7C8983A9
:1036D000892F992781832981982F8827332721646F
:1036E000822B932B8983892F99278183FD01148253
:1036F0001C921FAE11861086178280E8868361E0D7
:103700006093B50740918E0450918F048FB7F89461
:10371000282F3327809147019091480188309105E7
:1037200011F0019711F02FBF15C082E090E0909347
:103730004801809347016093B80C50935B04409319
:103740005A041092D3012FBF0E947117882311F4DD
:103750000E94D61A80E09927DF91CF911F910F9197
:103760000895CF93DF93DA01422F233318F082E0DC
:1037700090E05EC0ED018B876E83872F99278F8342
:103780002FB7F89433278091490490914A042FBFB2
:10379000FD018483892F992785832FB7F8943327D8
:1037A00080911801909119012FBF8887892F99273F
:1037B00089873196818129819927982F88273327F6
:1037C00020643868822B932B8983892F99278183E2
:1037D000435F4C934D5080911B01882359F0109208
:1037E0001B01642FCD010E941C1B9927282F8823C1
:1037F000A9F417C0842F992790938B0480938A048F
:10380000B0934C01A0934B018CE00E941302809175
:103810001B01882349F489E090E00AC08FEF809370
:103820001B01822F992704C01092610480E090E070
:10383000DF91CF9108951F938091250199270196DB
:1038400067E070E00E94654F682F8093250110E0CB
:10385000462F5527FA01EE0FFF1FE05AFA4FA081BD
:10386000B181109799F0E62FE695E695E695FF274A
:10387000E05FF34F808199279A012770307002C072
:10388000959587952A95E2F780FF0DC0CA010196AC
:1038900067E070E00E94654F682F1F5F1730C1F628
:1038A0001093250119C0609325016730A8F42C916D
:1038B0002D503327FD0167817727762F6627868174
:1038C0009927682B792BAD0183850E94B11B882332
:1038D00019F085E10E9413021F910895CF93DF93A1
:1038E000582FFB01873018F081E090E033C0C82FDB
:1038F000DD27CC0FDD1FC05ADA4F88819981892BD3
:1039000019F085E090E026C079836883435F4083A7
:103910004D5080912501873018F480E090E01AC066
:10392000838567817727762F662726813327622B49
:10393000732B50932501242FAF010E94B11B9927AF
:10394000282F882329F087E0809325011982188287
:10395000822F9927DF91CF910895AF92BF92CF9296
:10396000DF92EF92FF920F931F93BC0180913E0272
:10397000882309F479C08091F503882309F074C085
:1039800081E08093F50360939601872F99278093B8
:1039900095018EED6030780721F0AA24BB246501E3
:1039A00008C0A0907101B0907201C0907301D090D6
:1039B0007401A0929A0111270D2DFC2CEB2CE092A2
:1039C0009901960144275527209398018D2D992719
:1039D000AA27BB27E5E9F1E08283FF24002711270E
:1039E000102F0F2DFE2CEE24B82FAA2799278827F9
:1039F000332744275527A90133272227822B932BCE
:103A0000A42BB52B2A2D332744275527822B932B04
:103A1000A42BB52BE82AF92A0A2B1B2BE114F1045D
:103A20000105110511F410E010C060507E4D21F425
:103A30001AE06FEB77E003C010E060E070E0412F28
:103A400055278BE991E00E94DE4F8FEF80938F0125
:103A50008093900180E6809394011A5F412F69E87A
:103A600071E085E00E946E1C1F910F91FF90EF9016
:103A7000DF90CF90BF90AF900895CF92DF92EF92FA
:103A8000FF920F931F9380912402882339F085E0E1
:103A900080936E018CE10E94130229C040910506BB
:103AA000842F9927FC01EE0FFF1FE80FF91FDF019C
:103AB000A757BD4F2D913C91E557FD4F808182FF67
:103AC00006C0442311F068E807C069E805C0442334
:103AD00011F063E801C066E8A1E0CA2ED12CEE2403
:103AE000FF2400E010E040E089E00E9480171F9171
:103AF0000F91FF90EF90DF90CF900895CF92DF92DB
:103B0000EF92FF920F931F93CF93DF938C01F62ECA
:103B10006A01E22E8FB7F894C82FDD2760E080E0BD
:103B20000E941C05882321F0CFBF80E090E01EC0DA
:103B3000CFBF0F0D111D802F80680E948B05F82EBE
:103B400016950795802F807C0E948B050E2D0AC04C
:103B5000EE2DFF27E01BF109EC0DFD1D80810E9479
:103B60008B0501500023A1F78F2D9927DF91CF916D
:103B70001F910F91FF90EF90DF90CF900895CF931A
:103B8000DF93CDB7DEB72C970FB6F894DEBF0FBE2C
:103B9000CDBF8FB7F894282FAE014F5F5F4FDA018A
:103BA000E4EDF7E088E001900D928150E1F780911B
:103BB000490490914A048987892F99278A8780919F
:103BC000790490917A048B87892F99278C872FBF4E
:103BD0002CE060E080E691E00E947E1D2C960FB6FE
:103BE000F894DEBF0FBECDBFDF91CF910895BF9295
:103BF000CF92DF92EF92FF920F931F93B82E809196
:103C00002402882339F085E080936E018CE10E94C4
:103C100013021DC08B2D9927FC01EE0FFF1FE80F2B
:103C2000F91FE757FD4F20813181BB2011F461E678
:103C300001C060E671E0C72ED12CEE24FF2400E025
:103C400010E040E08AE00E948017B09276051F9154
:103C50000F91FF90EF90DF90CF90BF9008951F934A
:103C6000182F81E090E090934801809347011092D3
:103C700049020E946C198FB7F8949927109341015B
:103C80008FBF82E00E9413021F910895CF92DF92AE
:103C9000EF92FF920F931F93982F80916D018823CD
:103CA00019F085E090E04AC0E92FFF27E931F105DE
:103CB000A8F4EF56FF4FEE0FFF1F0590F491E02D93
:103CC000099483E00E94A1039927282F882339F4BF
:103CD00081E080936D0180E090E030C021E0822F90
:103CE00099272CC0CC24DD24760100E010E020E0F0
:103CF00030E040E050E060E0E4CFCC24DD24760109
:103D000000E010E020E030E040E050E063E0D9CF98
:103D1000CC24DD24760100E010E020E030E040E03B
:103D200050E061E0CECFCC24DD24760100E010E04D
:103D300020E030E040E050E062E0C3CF1F910F91FF
:103D4000FF90EF90DF90CF900895BF92CF92DF92D7
:103D5000EF92FF920F931F93B82E80916D018823ED
:103D600019F085E090E04CC0EB2DFF27E931F1051B
:103D7000B8F4E655FF4FEE0FFF1F0590F491E02DCC
:103D8000099482E00E94A1039927282F882349F4EF
:103D900081E080936D01B0927F0C80E090E030C0B4
:103DA00021E0822F99272CC0CC24DD24760100E06D
:103DB00010E020E030E040E050E060E0E2CFCC24D2
:103DC000DD24760100E010E020E030E040E050E04B
:103DD00063E0D7CFCC24DD24760100E010E020E0C2
:103DE00030E040E050E061E0CCCFCC24DD2476012F
:103DF00000E010E020E030E040E050E062E0C1CFC1
:103E00001F910F91FF90EF90DF90CF90BF9008959A
:103E1000EF92FF920F931F9380913902823009F045
:103E20004EC0809147029927982F882720914802F9
:103E30003327822B932BE816F906A9F080915904B9
:103E4000813049F0813028F0823049F08330B9F573
:103E500008C08AE001C08DE00E94A51E30C08BE042
:103E6000FBCF8CE0F9CF409182034F5F40938203F8
:103E7000809133034817B0F481E0809339025527CD
:103E8000440F551F40585F4F66277727B2E0EB2E4F
:103E9000F12C012D112D27E432E0809159040E946C
:103EA000F6140DC0E0911305EF5FE0931305FF27B3
:103EB000E05FFE4F8081809359040E94BD161F91E0
:103EC0000F91FF90EF900895CF92EF92FF920F9392
:103ED0001F938930E9F08A3038F4873099F08830C0
:103EE000A8F4863001F50CC08231B1F0833118F4AA
:103EF0008131C9F40FC0833189F08431A1F410C03D
:103F000080E001C082E00E94081F0DC083E0FBCF6B
:103F100081E0F9CF80E005C082E003C083E001C00A
:103F200081E00E944E091F910F91FF90EF90CF907A
:103F30000895CF92DF92EF92FF920F931F93CFB627
:103F4000F894DD240E943504DC01CB0166E470E0C6
:103F50000E94514F2BE0E22EF12CE80EF91EF09258
:103F6000830CE092820C0E94760800271127A8019A
:103F700097010E943309CFBE1F910F91FF90EF90E0
:103F8000DF90CF9008951F93CF93DF938FB7F8946E
:103F9000C82FDD271C2F8091470190914801089779
:103FA000C9F489E00E94060E83E00E94D019C09AED
:103FB00081E090E090934801809347018FB7F89497
:103FC000992723E0209341018FBF82E00E941302D2
:103FD000CFBF30C0C0988091B80C882311F085E025
:103FE00001C084E00E94060E83FD09C080E00E94AB
:103FF000060E83FF04C085E090E020E003C083E06C
:1040000090E021E09093480180934701C09A1FBF40
:10401000222341F01092D30183E00E94D0190E9424
:10402000991F08C00E94760820E431E040E050E08B
:104030000E943309DF91CF911F9108951F93CF9371
:10404000DF938FB7F8949927109114018FBF123026
:1040500009F465C0133030F4112359F0113009F020
:10406000ACC048C0133009F474C0143009F0A5C0C6
:10407000A2C0C0988FB7F894C82FDD278091420165
:10408000909143010297A1F583E090E09093430162
:104090008093420168E170E08DE10E94641A81E042
:1040A00080937D041092440180B3992736E0969561
:1040B00087953A95E1F78170907080937E0485E052
:1040C0000E94130281E00E94060E6FE772E08CE10D
:1040D0000E94641A0E94C51A0E948B1A66E57AE251
:1040E00087E10E94641A6FEF70E885E10E94641A0C
:1040F000CFBF63C0C09886E00E94060E0E94C51A1A
:104100000E948B1A0E94BF1DC09AC09883E00E9433
:10411000060EC09A81E00E94D01984E045C0C09884
:104120008FB7F894C82FDD2760E080E00E941C055F
:10413000882311F0CFBF0AC0CFBF83E50E948B0553
:1041400080E00E948B0580E00E948B05C09A82E08F
:104150002FC08FB7F8949927209147018FBF243043
:1041600039F0283041F0223011F50E94D61A25C0CE
:104170000E94C31F22C0C09889E00E94060EC09A08
:1041800083E00E94D0198FB7F894992721E030E09E
:1041900030934801209347018FBF8FB7F894992738
:1041A000109341018FBF82E00E94130206C083E09A
:1041B0000E94D01902C00E940D19DF91CF911F916A
:1041C000089578941F920F920FB60F9211242F9298
:1041D0003F924F925F926F927F928F929F92AF9297
:1041E000BF92CF92DF92EF92FF920F931F932F9384
:1041F0003F934F935F936F937F938F939F93AF936F
:10420000BF93CF93DF93EF93FF93C6B5D7B58FB727
:10421000F894282E0E9476089B012C1B3D0B442706
:1042200055272B013C01421A530A640A750A8091F2
:104230004701909148018530910521F0069709F0DA
:10424000E3C0C2C086E090E09093480180934701AC
:1042500031E0332E3092F4031092490180E00E9445
:10426000310EE0915A04F0915B04FE964186BB2723
:10427000A72D962D852D8087C301AA27BB2787836D
:10428000872D9927AA27BB278683E0915A04F091AE
:104290005B04FE968581FE97882309F484C06081C3
:1042A000655077274F01860E971EF4012081E1802B
:1042B0008281A3809927AA27BB27BA2FA92F982FDD
:1042C0008827332744275527522F4427332722276F
:1042D000FF24002711278701FF24EE242E293F29E0
:1042E000402B512BBB24CC24DD242A293B294C29EB
:1042F0005D29822B932BA42BB52B84199509A60934
:10430000B7098383292F3A2F4B2F552722839D01ED
:104310004427552721838B2F9927AA27BB278083E2
:10432000C09824E0A40180E090E00E947E1DC09A25
:10433000F4012081E1808281A3809927AA27BB27ED
:10434000BA2FA92F982F8827332744275527522F74
:10435000442733272227FF24002711278701FF2422
:10436000EE242E293F29402B512BBB24CC24DD24C5
:104370002A293B294C295D29822B932BA42BB52B71
:10438000840D951DA61DB71D8383292F3A2F4B2F12
:10439000552722839D014427552721838B2F992759
:1043A000AA27BB278083E0915A04F0915B048181A6
:1043B00085FF02C03092490283E00E94D01987B77E
:1043C0008F7E87BF84997AC01092F40381E00E94A7
:1043D000310EE0915A04F0915B04818185FF0FC09A
:1043E00087E090E090934801809347010E9476080F
:1043F00020E031E040E050E00E94330903C080E05B
:104400000E942F1E849B5AC080914901882391F5F8
:104410008091F403882371F511E01093F4030E9456
:10442000310E80B32091FF0B283098F4E091090CF5
:10443000E20FFF27E770F070EE0FFF1FEE0FFF1F78
:10444000EF56F44F40825182628273822F5F209335
:10445000FF0B10934901D0938404C0938304849983
:104460002DC0992744E0969587954A95E1F7182F36
:10447000117001C010E08091F4038130F9F41092C2
:10448000F4030E94310E109249011123B9F4809176
:10449000830490918404C81BD90B2A9778F48091E7
:1044A000FF0B882319F081508093FF0B80915A04F1
:1044B00090915B04009711F00E94210E2FBEFF9196
:1044C000EF91DF91CF91BF91AF919F918F917F91AC
:1044D0006F915F914F913F912F911F910F91FF909D
:1044E000EF90DF90CF90BF90AF909F908F907F9094
:1044F0006F905F904F903F902F900F900FBE0F9056
:104500001F90189578941F920F920FB60F92112456
:104510001F932F933F934F935F936F937F938F934B
:104520009F93AF93BF93EF93FF9387B78F7E87BF20
:1045300078941FB7F89480916A0490916B04A091CD
:104540006C04B0916D040097A105B10509F051C04C
:1045500080914701909148018530910561F1863045
:10456000910530F48330910549F0049781F51AC024
:1045700087309105F1F0089751F514C0869B0FC064
:1045800084E090E090934801809347010E94760870
:1045900027E030E040E050E00E94330918C00E945C
:1045A000991F15C00E947117882389F40E94C31FA8
:1045B0000EC080E00AC089E00E94060E81E00E94E1
:1045C000310E83E00E94D01987E00E942F1E809157
:1045D000420190914301019771F482E090E0909341
:1045E000430180934201DE98DE9A80E00E94F61635
:1045F00002C00E949308812F99278FBFFF91EF91EE
:10460000BF91AF919F918F917F916F915F914F91EA
:104610003F912F911F910F900FBE0F901F901895F3
:10462000EF92FF920F931F93CF93DF938B018091B3
:1046300081049091820486FF45C18F7B8F3309F0FE
:1046400093C1C0917A01D0917B015881509373023C
:1046500080917002909171028530910509F443C0F8
:104660008630910509F48AC0029709F024C185E0DB
:1046700090E0909371028093700240914302852FE5
:1046800099270196242F3327281739074CF1B7991A
:1046900006C00E9904C0451B41504093430240910F
:1046A00073024034E8F44423A1F0BE016F5F7F4FF2
:1046B000483018F047E050E007C086E090E0909363
:1046C000710280937002552780E090E00E940506F9
:1046D0004BC11092F803C09A84E00E94D019E8C040
:1046E0000E94531A41C186E090E09093710280933A
:1046F000700280915804882309F439C08091D3074F
:104700008823A9F5898185FF32C08F814E812FB71B
:10471000F89433276091790470917A042FBF992718
:10472000982F88275527842B952B8617970759F0A4
:104730008F812E819927982F88273327822B932BBF
:104740008F5F9F4FA1F489818770813081F4C09A77
:10475000C0988AE00E94060EC09AC09840917302E9
:1047600047502896BE018FE30E94DB18FDC04091A0
:104770007302475055272896BE01A6CFC09A809154
:104780008003882339F484E00E94D019809180034B
:10479000882311F0B7990AC00E9B08C09091FF0BB7
:1047A000992321F0809173028B3038F480917A0143
:1047B00090917B010E94210E3EC0913009F5E0915D
:1047C000090CFF27EE0FFF1FEE0FFF1FEF56F44FF0
:1047D0002081318142815381E0917A01F0917B0106
:1047E000FE962187BB27A52F942F832F8087CA0190
:1047F000AA27BB278783252F3327442755272683BE
:104800008091090C9927019668E070E00E94654F3D
:104810008093090C8091FF0B81508093FF0B8823BC
:1048200051F080917A0190917B010E94210E1092AB
:10483000090C1092FF0B80917302FE01E80FF11D2D
:10484000808187FF35C0012B99F1698167702091C4
:104850007A0130917B01623039F5C0915A04D091D0
:104860005B04209729F180914701909148010797B7
:10487000F9F49B81F90183819817D1F487B78F7E72
:1048800087BFDE01DE96908181E0FD018483F9011E
:10489000E90FF11D829131968C9380818F778FAFD4
:1048A00080E00E942F1E04C0613011F489E02AC00C
:1048B0000E941E1A59C01092F803C09A84E00E9408
:1048C000D01952C08E3309F04FC0C09A8091470171
:1048D000909148010897C9F4C09889E00E94060E9B
:1048E000C09A83E00E94D01981E090E09093480143
:1048F000809347018FB7F894992723E020934101D3
:104900008FBF82E00E9413022FC08091B80C8823D1
:1049100049F484E090E090934801809347010E941D
:10492000C31F22C083E00E94D01983E090E09093DF
:104930004801809347010E943504DC01CB0166E306
:1049400071E00E94514F4BE0E42EF12CE80EF91E6D
:10495000F0923802E09237020E9476080027112771
:10496000A80197010E943309DF91CF911F910F9108
:10497000FF90EF9008951F920F920FB60F9211249F
:104980002F933F934F935F936F937F938F939F9357
:10499000AF93BF93EF93FF932FB1E0910407F09192
:1049A0000507309739F08091140590911505E80FAF
:1049B000F91F20838091140590911505019690931D
:1049C00015058093140580E00E943305409187010E
:1049D00050918801809114059091150584179507D1
:1049E00018F40E9497051CC0609104077091050798
:1049F00080917A0C90917B0C10920507109204071D
:104A000010927B0C10927A0C109288011092870100
:104A100010921505109214052FB120E00E9410236A
:104A2000FF91EF91BF91AF919F918F917F916F9186
:104A30005F914F913F912F910F900FBE0F901F905C
:104A40001895AF92BF92CF92DF92EF920F931F9380
:104A50005B016C010E940E04AB01BC0181E0E82EF9
:104A60009601850184E00E9466161F910F91EF90D8
:104A7000DF90CF90BF90AF900895CF92DF92EF92EA
:104A8000FF920F931F936C017B010E943504DC01A0
:104A9000CB01B6010E94514FE80EF91E00271127E5
:104AA000C801B7010E9421251F910F91FF90EF903F
:104AB000DF90CF9008950F931F93CF93DF93EC0176
:104AC000E0916001FF27EE0FFF1FE85AF44F0081CD
:104AD0001181662329F06CE170E08CE190E031C037
:104AE00080915F0183FF3FC0EE968C81EE97882313
:104AF000D1F58F819927982F88272E813327822BF4
:104B0000932B0E94EF09982F8F3F71F08EE0989FB2
:104B1000F0011124E858FA4F85858F5F858785302D
:104B200018F0CF010E94680A86E10E941302F80182
:104B3000838181508383882339F067E070E087E0C8
:104B400090E00E943D253FC00E94830A80915F0152
:104B50008F7E80935F0167E070E087E090E00E94C5
:104B60003D2540E02CC00E94830A80915F018F7E2A
:104B700080935F0167E070E087E090E00E943D2550
:104B80008F819927982F88272E813327822B932B6B
:104B90000E94EF09982F8F3F89F08EE0989FF001D7
:104BA0001124E858FA4F84858F5F848785858F5F4D
:104BB0008587853018F0CF010E94680A41E0BE0168
:104BC000C8010E946113DF91CF911F910F91089549
:104BD000BF92CF92DF92EF92FF920F931F93CF93EA
:104BE000DF93CDB7DEB722970FB6F894DEBF0FBEC6
:104BF000CDBF80915F0184FDD4C090E080916201BF
:104C0000882309F491E0992309F0CBC08091260212
:104C1000882359F420E08091760B9091770B8F5F79
:104C20009F4F09F021E0222331F0CE0101960E942E
:104C3000290B882339F060E177E280E090E00E9460
:104C40002125AFC0E0916001FF27EE0FFF1FE85A5A
:104C5000F44FC080D180D601ED91FC911081E0909D
:104C6000760BF090770BCF010E94A80A20E090917C
:104C70002502891708F421E0222359F00E94830AB3
:104C8000F601808191810E94EB0AC6010E940A0B05
:104C900085C080912602D601ED91FC91882359F1BF
:104CA000B388A0917B04B0917C048AE401900D92BA
:104CB0008150E1F700917B0410917C04F801808120
:104CC0008551E82EFF246E2DC8010E94540BBC01B3
:104CD000FCEABF1629F44E2DC8010E94600B8C011E
:104CE00010937C0400937B0460E0D6018D919C912D
:104CF0000E945B2556C089819A818787892F9927D1
:104D00008687D601ED91FC91119784858F738487F6
:104D10004D915C91DA011196FD0121813327322FEB
:104D20002227FA01818199278062282B392B218340
:104D3000232F3327FD01218380915F0188608093B9
:104D40005F0180FF0BC0D601ED91FC9184858064EA
:104D5000848780915F018E7F80935F01D601ED9102
:104D6000FC91E6828F2D9927878381E783871D50E9
:104D7000412F5527BF0180E00E946E1C9927882390
:104D800031F480915F01806180935F010AC08230BD
:104D900041F4D601ED91FC918FE3808383E10E9481
:104DA000130222960FB6F894DEBF0FBECDBFDF917F
:104DB000CF911F910F91FF90EF90DF90CF90BF9018
:104DC0000895AF92BF92CF92DF92EF920F931F930D
:104DD0005B016C010E940E04AB01BC0111E0E12EED
:104DE0009601850182E00E9466161F910F91EF9057
:104DF000DF90CF90BF90AF900895EF92FF920F9306
:104E00001F938091270190912801A0912901B091D1
:104E10002A01B695A795979587958093D40390938B
:104E2000D503A093D603B093D7030E943504E09036
:104E3000D403F090D5030091D6031091D703A801B5
:104E400097010E94784F6E0D7F1D801F911F609308
:104E5000D4037093D5038093D6039093D703109215
:104E6000700B0E94E1261F910F91FF90EF90089523
:104E7000EF92FF920F931F93CF93DF93CDB7DEB7DF
:104E800022970FB6F894DEBF0FBECDBF60916A01C6
:104E9000862F8250823008F0CBC0E090B807FF2404
:104EA00000271127102F0F2DFE2CEE242091B6077E
:104EB000332744275527522F442733272227809111
:104EC000B7079927AA27BB27DC0199278827282B12
:104ED000392B4A2B5B2B8091B9079927AA27BB272F
:104EE000282B392B4A2B5B2BE22AF32A042B152B78
:104EF00080912C0190912D01A0912E01B0912F0154
:104F00008E159F05A007B10729F480918F07816056
:104F100080938F07623061F580916C01882309F0DE
:104F200087C081E080936C0183E00E9425288091F6
:104F30002C0190912D01A0912E01B0912F01809311
:104F40002505292F3A2F4B2F5527209324059D0106
:104F500044275527209323058B2F9927AA27BB2762
:104F600080932205809130018093260510922705B9
:104F700060912705772728E130E044E557E0CE012E
:104F800001960E940903882321F081E00E942528D0
:104F90004FC089818093270520913001422F5527EA
:104FA00066277727EAE0440F551F661F771FEA95AB
:104FB000D1F72CE2829FC0011124AA27BB27480FFA
:104FC000591F6A1F7B1F80916B01823079F08330FB
:104FD000B1F0813011F081E01CC03CE2E32EF12CF5
:104FE000012D112D28E235E082E011C02CE2E22EE5
:104FF000F12C012D112D28E235E080E008C09CE263
:10500000E92EF12C012D112D28E235E081E00E94DE
:10501000A914882369F00E940E04AB01BC0181E051
:10502000E82E00E110E020E030E085E00E94661606
:1050300022960FB6F894DEBF0FBECDBFDF91CF91A1
:105040001F910F91FF90EF900895823040F490915E
:105050006A01933011F0953011F410926C01809335
:105060006A0108950F931F938B019C0190916A012F
:10507000892F8250823000F580912C0190912D0172
:10508000A0912E01B0912F01081719072A073B079D
:105090004CF0081719072A073B0751F5809130019A
:1050A000481730F581E00E9425281092540710928D
:1050B0005507109256071CC094509230C8F4809146
:1050C000310190913201A0913301B0913401081760
:1050D00019072A073B074CF0081719072A073B074F
:1050E00039F480913501841718F081E08093820BA8
:1050F0001F910F910895DF92EF92FF920F931F93EC
:105100007B018C01D42E80916A01882319F481E0FF
:105110000E942528E0923101F09232010093330180
:1051200010933401D09235018FEF809391048093D6
:1051300092048093930480E090E01F910F91FF9080
:10514000EF90DF90089580916A018430F1F58091AD
:105150006C01882309F079C081E080936C0185E0BF
:105160000E942528809106069091070680932305CA
:10517000892F99278093220580910E0190910F012C
:1051800080932505892F99278093240580913101EB
:1051900090913201A0913301B0913401809329059F
:1051A000292F3A2F4B2F5527209328059D0144275F
:1051B0005527209327058B2F9927AA27BB27809354
:1051C00026058091350180932A0580916A018530FA
:1051D000E1F58091820B882331F080E00E94AE17C8
:1051E0001092820B089580915C04882321F481E061
:1051F0000E94252808958091910480932B05809129
:10520000920480932C058091930480932D058091C6
:1052100022059927982F8827209123053327822B51
:10522000932B80931C05892F992780931D0581E579
:10523000809321054CE066E175E083E00E946E1CDE
:10524000882319F080E00E94AE17089580914706E8
:105250008D7F8093470680913E068D7F80933E062A
:1052600080E00E9425288FEF90E0A0E0B0E08093DE
:10527000310190933201A0933301B09334019FEF39
:10528000909335011092910410929204109293041D
:1052900010925407109255071092560785E080939C
:1052A0002B019093B9071092B8071092B70710928C
:1052B000B6079093BA079093BD0710928E0780E0CF
:1052C00090E00895AF92BF92CF92DF92EF92FF925B
:1052D0000F931F930E940E047B018C01609148067E
:1052E0007091490680914A0690914B06A0907E01EC
:1052F000B0907F01C0908001D0908101A114B104D1
:10530000C104D10409F44EC0EFB7F89420915207BC
:1053100020FD36C0A8019701261B370B480B590BFF
:105320002A153B054C055D05C8F4A21AB30AC40A48
:10533000D50A80917E0190917F01A0918001B0916A
:105340008101821B930BA40BB50B80937E0190937C
:105350007F01A0938001B093810115C081E090E0AE
:10536000A0E0B0E080937E0190937F01A093800144
:10537000B0938101F1E0AF2EB12CC12CD12C03C030
:105380002E7F209352078E2F99278FBF0E940E04E5
:10539000AB01BC01E1E0EE2E9601850187E00E94A1
:1053A000661605C0809150068D7F809350061F9130
:1053B0000F91FF90EF90DF90CF90BF90AF90089546
:1053C000FF920F931F93CF93DF93F82E282F33274D
:1053D0008BE090E0289FE001299FD00D389FD00DF1
:1053E0001124C458DE4F81E090E0998388831A86A7
:1053F0008A819B81AC81BD810097A105B105A1F097
:105400000FB7F8941127C9010E9475070FBF1A82C0
:105410001B821C821D821E821F82188619868F2D78
:105420000E9457180E946229DF91CF911F910F911E
:10543000FF9008959C0180911F02882309F455C0B4
:10544000AFEBB7E0F9018AE001900D928150E1F7EE
:105450008091710190917201A0917301B0917401DA
:10546000CD01AA27BB270196A11DB11D8093710113
:1054700090937201A0937301B09374010097A105FA
:10548000B10561F481E090E0A0E0B0E080937101AB
:1054900090937201A0937301B093740120917101F4
:1054A000309172014091730150917401A901332729
:1054B000222780910E0190910F01AA27BB27280F68
:1054C000391F4A1F5B1F2093710130937201409373
:1054D00073015093740180E09EED0E94AD1C80E04A
:1054E0000E94E0298FE10E94130208952F923F92BB
:1054F0004F925F926F927F928F929F92AF92BF92E4
:10550000CF92DF92EF92FF920F931F93CF93DF938F
:105510008FB7F894992720915A0120905B01309021
:105520005C01409045028FBF222309F07DC2E1015A
:105530002C96F10183859927833521F0843509F074
:1055400073C2E3C180917901882309F06DC2F10132
:105550008585843008F043C0E82FFF27E05FFE4FC9
:105560005080FFEF5F16D9F1F1018485823068F435
:1055700082E10E941808882341F482E10E94890B8D
:105580009927282F882309F0B6C1D9980E940E04C4
:10559000AB01BC01B1E0EB2E00E018E020E030E010
:1055A00089E00E94661650923F01888199278230D7
:1055B00009F489C0833030F4882371F0813009F018
:1055C00033C20FC0853009F444C1863009F45BC191
:1055D000833009F029C2DAC081E08093790121E0AB
:1055E0008AC182E0809379014E818F815527542FA3
:1055F00044279927482B592BBE01685F7F4F86E8C7
:105600009CE00E94DE4F8E812F819927982F88275A
:105610003327822B932B3C01882499242A81EB8009
:105620008C81AD809927AA27BB27BA2FA92F982F45
:105630008827332744275527522F442733272227EB
:10564000FF24002711278701FF24EE242E293F295C
:10565000402B512BBB24CC24DD242A293B294C2967
:105660005D29822B932BA42BB52BF1E05F1689F0DB
:105670005F1638F022E05216A1F0E3E05E16C9F0A2
:10568000F6C08401730126E83CE0AC01BD0185E170
:1056900017C08401730126E83CE0AC01BD0188E13C
:1056A0000FC08401730126E83CE0AC01BD0186E136
:1056B00007C08401730126E83CE0AC01BD0187E12D
:1056C0000E94131514C183E0809379018E812F818C
:1056D0009927982F88273327822B932B3C018824E6
:1056E00099242A81EB808C81AD809927AA27BB273A
:1056F000BA2FA92F982F8827332744275527522FB1
:10570000442733272227FF24002711278701FF245E
:10571000EE242E293F29402B512BBB24CC24DD2401
:105720002A293B294C295D29822B932BA42BB52BAD
:10573000F1E05F1689F05F1638F022E05216A1F012
:10574000E3E05E16C9F093C0840173012DEC34E0F0
:10575000AC01BD0181E117C0840173012DEC34E07F
:10576000AC01BD0184E10FC0840173012DEC34E074
:10577000AC01BD0182E107C0840173012DEC34E06E
:10578000AC01BD0183E10E94A914B1C084E0809303
:1057900079018E812F819927982F88273327822B93
:1057A000932B3C01882499242A81EB808C81AD8045
:1057B0009927AA27BB27BA2FA92F982F88273327E5
:1057C00044275527522F442733272227FF24002719
:1057D00011278701FF24EE242E293F29402B512B2E
:1057E000BB24CC24DD242A293B294C295D29822B8A
:1057F000932BA42BB52BF1E05F1689F05F1638F0E0
:1058000022E05216A1F0E3E05E16C9F030C0EE24AB
:10581000FF2494018301AC01BD0181E117C0EE2496
:10582000FF2494018301AC01BD0184E10FC0EE248B
:10583000FF2494018301AC01BD0182E107C0EE2485
:10584000FF2494018301AC01BD0183E10E94551442
:105850004EC086E080937901F1E05F1661F05F163B
:1058600040F022E0521649F083E0581641F081E002
:105870003EC085E105C088E103C086E101C087E143
:105880000E94461E34C0EDECF4E08AE1DF011D9277
:105890008A95E9F7EF01A0E0B1E08EE00D90099262
:1058A0008150E1F786EE8093E0048BE88093DF047B
:1058B00084E68093DE048BE5808B8EE48093E404A1
:1058C0008AEB8093E3048EE98093E20485EC848B79
:1058D00080910E0190910F018093E604892F992702
:1058E000808F4BE150E060E070E080E00BC0282F3B
:1058F000882309F499C01092790141E050E060E0FA
:1059000070E0822F0E941F078FC08AE0E9ECF7E069
:1059100011928A95E9F781E10E940B168091770137
:10592000823031F460915304772780E00E94C909E6
:105930000E94262910927701F10184858093C9077E
:105940008101035F1F4F8585843018F08FEF90E051
:1059500006C0E82FFF27E05FFE4F80819927D8011E
:105960008C938881682F7727653040F46330A8F4E2
:10597000613041F0623009F057C008C0673008F06C
:1059800053C039C089EC97E00E941A2A80E00E9437
:105990005F078BE10E940B1647C0F80180818F3FA3
:1059A00079F18BE10E941808882329F48BE10E9489
:1059B000890B882329F5D8019C9180913902833085
:1059C00099F581E08093810BF4E5EF2EF12C012D08
:1059D000112D2BE233E040E050E060E070E0892FD1
:1059E0000E94F614882311F484E002C080913902E9
:1059F0008093390219C0F801808199278F3F11F4F3
:105A000081E010C08093CE070E940E04AB01BC0160
:105A1000E1E0EE2E00E014E020E030E08AE00E94B9
:105A2000661680E00E945F078FB7F894E42DFF2789
:105A3000EE0FFF1FE15EFE4F3182208220914E016A
:105A4000442011F02B7F01C02D7F20934E01109236
:105A5000590199278FBFDF91CF911F910F91FF902F
:105A6000EF90DF90CF90BF90AF909F908F907F90FE
:105A70006F905F904F903F902F900895AF92BF929C
:105A8000CF92DF92EF920F931F9320918E073327CF
:105A90002150304081E090E0A0E0B0E004C0880FE9
:105AA000991FAA1FBB1F2A95D2F780938A0790934C
:105AB0008B07A0938C07B0938D070E943504A090AC
:105AC0008A07B0908B07C0908C07D0908D078827ED
:105AD00099270894A108B108C108D1086A217B213F
