:100000000C94CA010C945E0E0C94680E0C94720E43
:100010000C947C0E0C94860E0C94900E0C94AE1CDA
:100020000C949A0E0C94E9010C94E9010C9490251F
:100030000C9434270C94280E0C943E0E0C94F60F5E
:100040000C94170E0C946F290C94E9010C94E9019F
:100050000C94E9010C94C20E0C94E9010C94E90192
:100060000C94330E0C94E9010C94E9010C94E90111
:100070000C94E9010C94E9010C94E9010C94E90158
:100080000C94E9010C9413230C94E9016F10741083
:100090006A106F1074106A1079106F1074106A1063
:1000A00079106F1074106A106F1074106A10241198
:1000B0002B111D1124112B111D11321124112B1183
:1000C0001D11321124112B111D1124112B111D1181
:1000D00077117C11721177117C11721181117711D6
:1000E0007C117211811177117C11721177117C11C1
:1000F00072114E1E591E431E4E1E591E431E641E73
:100100004E1E591E431E641E4E1E591E431E4E1E79
:10011000591E431EB01EBB1EA51EB01EBB1EA51E33
:10012000C61EB01EBB1EA51EC61EB01EBB1EA51E33
:10013000B01EBB1EA51E783F7C3F803FA23FA63F5E
:10014000B53FB93FBD3FC53FC93FCD3FF23F094035
:10015000F9462C4780479047703FB847C647A548A7
:10016000A848AB48BD48C048C348C948F948FC48FE
:10017000FF480249054908490B490E4911491649EA
:100180001D4920492349264929492C492F49000066
:100190002110422063308440A550C660E77008817A
:1001A00029914AA16BB18CC1ADD1CEE1EFF13112F1
:1001B000100273325222B5529442F772D6623993CA
:1001C00018837BB35AA3BDD39CC3FFF3DEE3622441
:1001D000433420040114E664C774A44485546AA51A
:1001E0004BB528850995EEE5CFF5ACC58DD55336D1
:1001F000722611163006D776F6669556B4465BB76A
:100200007AA719973887DFF7FEE79DD7BCC7C448A0
:10021000E5588668A7784008611802282338CCC9B9
:10022000EDD98EE9AFF9488969990AA92BB9F55A30
:10023000D44AB77A966A711A500A333A122AFDDB09
:10024000DCCBBFFB9EEB799B588B3BBB1AABA66C00
:10025000877CE44CC55C222C033C600C411CAEED59
:100260008FFDECCDCDDD2AAD0BBD688D499D977E10
:10027000B66ED55EF44E133E322E511E700E9FFFA9
:10028000BEEFDDDFFCCF1BBF3AAF599F788F88915F
:10029000A981CAB1EBA10CD12DC14EF16FE1801043
:1002A000A100C230E3200450254046706760B98346
:1002B0009893FBA3DAB33DC31CD37FE35EF3B10293
:1002C0009012F322D2323542145277625672EAB556
:1002D000CBA5A89589856EF54FE52CD50DC5E234E3
:1002E000C324A01481046674476424540544DBA726
:1002F000FAB79987B8975FE77EF71DC73CD7D32633
:10030000F2369106B01657667676154634564CD9B5
:100310006DC90EF92FE9C899E9898AB9ABA9445882
:10032000654806782768C018E1088238A3287DCB85
:100330005CDB3FEB1EFBF98BD89BBBAB9ABB754AD2
:10034000545A376A167AF10AD01AB32A923A2EFD15
:100350000FED6CDD4DCDAABD8BADE89DC98D267C22
:10036000076C645C454CA23C832CE01CC10C1FEF65
:100370003EFF5DCF7CDF9BAFBABFD98FF89F176E72
:10038000367E554E745E932EB23ED10EF01E00089E
:100390001C18141011241FBECFEFD0E1DEBFCDBF5B
:1003A00011E0A0E0B1E0E6E8FDE900E00BBF02C02B
:1003B00007900D92A633B107D9F71DE0A6E3B1E08F
:1003C00001C01D92A63DB107E1F70E947A490C9445
:1003D000C24E0C9400008FB7F894992708958FBFF0
:1003E0000895CF93DF9320E030E0B9016F5F7F4F36
:1003F000FB01EE0FFF1FED5EFD4F80819927582F07
:10040000442781819927482B592BE22FD901AA0F24
:10041000BB1FAD5EBD4F06C0ED012D83832F992715
:100420008C83E150E7FD0DC01297ED018A81992779
:10043000382F22278B819927282B392B42175307D6
:100440005CF3FF27E7FDF095EE0FFF1FEB5EFD4F1E
:100450004183852F992780836930710511F09B01B5
:10046000C4CFDF91CF910895CF92DF92EF92FF92A8
:100470000F931F93CF93DF936C018B017A01E901F6
:10048000232B19F1FB01A3E0F695E795AA95E1F777
:10049000EE0DFF1D808199279B012770307002C0EF
:1004A000959587952A95E2F780FF06C0F60171833E
:1004B000608380E090E00BC0CB010196BE010E94FA
:1004C000104EBC0180179107E9F681E090E0DF91C2
:1004D000CF911F910F91FF90EF90DF90CF900895F3
:1004E000282F9FB7F894E82FFF27E35DFD4F808109
:1004F0008F3F81F4E091BB0DE21771F40BC02093A4
:100500008E0C04C0FF27E35DFD4F20832093BB0DBD
:1005100020E007C025E005C080918E0C8F3F91F749
:10052000EECF892F99278FBF822F9927089589E0D1
:100530000E9470029927089583E10E947002992712
:10054000089580E10E94700299270895CF93DF9368
:10055000982F8FB7F894282F3327422F809160016E
:10056000882321F581E080936001909303022FBFDF
:100570008FB7F894C82FDD279C2F809132018430EB
:1005800099F480916001813021F487E20E94700229
:1005900009C0823049F4809103028093320183E0E4
:1005A00080936001CFBF07C09FBF05C08091030249
:1005B000891721F42FBF80E090E021C0E92FFF27A9
:1005C000E756F34F80818F3F89F4E0913101E917BD
:1005D00089F40CC09093300104C0FF27E756F34F15
:1005E00090839093310180E090E002C085E090E03C
:1005F0004FBF05C0809130018F3F79F7EBCFDF917E
:10060000CF910895CF92DF92EF92FF920F931F93B5
:10061000CF93DF93782FC62FDD278BE090E0C89F24
:10062000F001C99FF00DD89FF00D1124E05AFB4F47
:100630008081882319F085E090E048C0643018F488
:1006400080E091E002C080E090E0AA27BB27BA2FAB
:10065000A92F982F882782179307A407B507A0F121
:10066000821B930BA40BB50B8C159D05AE05BF0526
:1006700058F18BE090E0C89FF001C99FF00DD89F22
:10068000F00D1124E05AFB4F70832383348345839C
:100690005683C782D086E186F28612830183613059
:1006A00069F0613028F0623059F0633059F003C0CE
:1006B00080E00E94A60280E090E008C081E0F9CFCF
:1006C00082E0F7CF83E0F5CF86E090E0DF91CF9135
:1006D0001F910F91FF90EF90DF90CF900895EF92D0
:1006E0000F931F93AE2D99E0899FF0011124E356DB
:1006F000FA4F408351836283738304831583268377
:100700003783A17080858E7F8A2B826080878EE000
:100710000E9470021F910F91EF9008957FB7F89497
:1007200062B72091E7013091E8014091E9015091D1
:10073000EA0106B601FE0FC081B792B7280F311D3E
:10074000411D511D2F5F3F4F4F4F5F4F290F311DEF
:10075000411D511D04C0260F311D411D511D872F04
:1007600099278FBFCA01B90108952F923F924F92E6
:100770005F926F927F928F929F92AF92BF92CF9231
:10078000DF92EF92FF920F931F93CF93DF93CDB73A
:10079000DEB729970FB6F894DEBF0FBECDBF6FB797
:1007A0006983F894209033043090340440903504E9
:1007B00050903604662477248824BEE4AB2EA3E848
:1007C000BA2ECC24DD24EE24FF2400E010E0222DFC
:1007D000332D442D552D662D772D882D90E00E94C8
:1007E000644C2A833B834C835D836E837F8388873D
:1007F0009987822E932EA42EB52E2401350100E276
:100800000E94624DA22EB32EC42ED52EA3019201BA
:1008100056954795379527952A0D3B1D4C1D5D1D17
:1008200057FF05C05F772F5F3F4F4F4F5F4F2093BC
:100830003304309334044093350450933604E981F3
:100840008E2F99278FBFCA01B90129960FB6F89448
:10085000DEBF0FBECDBFDF91CF911F910F91FF90F3
:10086000EF90DF90CF90BF90AF909F908F907F9050
:100870006F905F904F903F902F900895FC01828180
:100880009927582F442781819927482B592BCA0132
:10089000892F99278695869583709070823091056F
:1008A00059F08330910559F0892B19F420E030E09C
:1008B00008C02CE93FEF05C022E030E002C028E08C
:1008C00030E0CA0184E0989F812D9927112482305D
:1008D000910559F08330910559F0892B19F480E086
:1008E00090E008C08CE99FEF05C082E090E002C074
:1008F00088E090E0280F391F2A5F3F4FCF01820F19
:10090000931F0895282F9FB7F894662349F0E82F86
:10091000FF27E453F94F8081882311F021E006C0BE
:10092000E22FFF27E453F94F608320E0892F9927B6
:100930008FBF822F99270895E82F8FB7F894282F1B
:10094000332790E0FF27E453F94F8081861709F49D
:1009500091E02FBF892F99270895882311F06E9A6F
:1009600008956E980895882311F06F9A08956F98EE
:10097000089580E00E94AD04BA9ABB98B99AB89ADB
:100980006C9A80E00E94B3046B986A9881E00E94A0
:10099000AD04709A8DB18C7F8DB908951F93182F77
:1009A00081E00E94AD041FB9779BFECF8FB19927DC
:1009B0001F9108958F929F92AF92BF92CF92DF9234
:1009C000EF92FF920F931F93CF93DF938FB7F8941B
:1009D0009927C090490DD0904A0D809004069090C0
:1009E0000506C0918E04D0918F042091780130913A
:1009F0007901EAE0AE2EB12CAC0EBD1E2A153B05E6
:100A000008F459018FBF7401EC0EFD1E86010C0F16
:100A10001D1F14C0C114D10419F0F801808101C058
:100A200080E00E94CE048114910411F0F7018083CC
:100A300021960894E11CF11C0F5F1F4FC50101971F
:100A4000C817D90738F381E00E94B3049FB7F89420
:100A5000C114D10431F0CC0EDD1EF60180818FB9B6
:100A600001C01FB8D0938F04C0938E04892F99279B
:100A70008FBF80E090E0DF91CF911F910F91FF90A9
:100A8000EF90DF90CF90BF90AF909F908F900895A0
:100A90002FB7F894332750937901409378019093BE
:100AA0004A0D8093490D70930506609304061092D9
:100AB0008F0410928E042FBF452B29F08FB10E9416
:100AC000DA04992708958AE00E94700280E090E09D
:100AD00008958FB7F89499271092CE068FBF089586
:100AE000EEE8F1E06927660FF11DE60FF11DC895EC
:100AF000982F802D3196C895902508951F93CF93F8
:100B0000DF93142FEB0104C069910E94700511500E
:100B10001123D1F7DF91CF911F910895462FBC018A
:100B200080E090E00E947E0508951F93982F1FB7E4
:100B3000F89480916101823099F58091350189178F
:100B400079F58091330120E030E08F3F11F421E00E
:100B500030E0232BF1F49FEF909335018F3F19F490
:100B60002FEF30E00DC0282F3327F901E25CFC4F56
:100B70008081809333018F3F11F4909334019083EF
:100B800020934A0481E08093610188E20E94700210
:100B900005C08FEF809335011092610121E001C003
:100BA00020E0812F99278FBF90E0213009F491E058
:100BB00081E09827892F99271F910895982F96955E
:100BC00096959695ECE9F5E0E90FF11D877021E027
:100BD00030E002C0220F331F8A95E2F78081822322
:100BE000992708950F931F93CF93DF93182F8FB7F3
:100BF000F894282F3327022F80915901882359F523
:100C000081E08093590110939B052FBF8FB7F89413
:100C10009927379A8FBF8FB7F894C82FDD279C2F5D
:100C2000809123018230A9F480915901813021F40F
:100C300080E20E94700209C0823059F480919B05C5
:100C40008093230183E080935901CFBF80E090E03F
:100C500025C09FBFFBCF80919B05811711F42FBF4B
:100C6000F5CF812F0E94DE05882319F085E090E002
:100C700014C0E12FE695E695E695FF27E456FA4F76
:100C8000177081E090E002C0880F991F1A95E2F773
:100C90002081282B208380E090E00FBFDF91CF914F
:100CA0001F910F910895E82F9A01AB01BB27A52F43
:100CB000942F832FBC01E13049F0E13078F0E2302D
:100CC00041F0E33049F060E078E008C060507F4FC9
:100CD00005C060507E4F02C060507D4F8827992725
:100CE000982F872F762F6627307044275527620F5D
:100CF000731F841F951F08958FB7F89460910605A0
:100D0000709107052CB53DB506B602FE04C06F5FB5
:100D10007F4F2CB53DB599278FBF88279927CB01E9
:100D20007727662744275527622B732B842B952B17
:100D30000895EF92FF920F931F930E947C067B0110
:100D40008C01209146043091470440914804509111
:100D5000490480913C0490913D04A0913E04B091DF
:100D60003F04820F931FA41FB51FE216F30604076A
:100D7000150730F082179307A407B50758F005C090
:100D800082179307A407B507E0F5E816F9060A07E6
:100D90001B07B8F59C01AD012E193F09400B510B03
:100DA000213060E8360760E0460760E0560768F1EA
:100DB00080E090E8A0E0B0E0E80EF91E0A1F1B1FDB
:100DC000E0924604F09247040093480410934904CB
:100DD00080E090E8AFEFBFEFE80EF91E0A1F1B1F7F
:100DE000205030484040504020933C0430933D0414
:100DF00040933E0450933F0420E030E840E050E050
:100E000014C020E030E040E050E08093460490932E
:100E10004704A0934804B093490410923C041092F4
:100E20003D0410923E0410923F04A901B7012CB575
:100E30003DB5C9018E199F0903968417950720F0C7
:100E4000B9016D5F7F4F02C0640F751F6115710599
:100E500011F461E070E0615070407BBD6ABD80E1DB
:100E600086BF87B7806187BF1F910F91FF90EF907A
:100E700008950F931F930FB7F894112760934604BA
:100E800070934704809348049093490420933C0452
:100E900030933D0440933E0450933F040E949906D2
:100EA0000FBF1F910F91089510926701823031F0AA
:100EB000833041F0813049F480E101C08EE00E942E
:100EC000950508958FE00E9495050895813049F0B9
:100ED000813078F0823041F0833049F060E070E09A
:100EE00008C060507E4F05C060507D4F02C060500A
:100EF0007F4FCB010895982F4FB7F894552722B311
:100F0000277D22BB80E097FD939A959A829980680D
:100F100022BB96FD939A959A8299806422BB95FD97
:100F2000939A959A8299806222BB94FD939A959A9E
:100F30008299806122BB93FD939A959A82998860E9
:100F400022BB92FD939A959A8299846022BB91FD6F
:100F5000939A959A8299826022BB90FD939A959A72
:100F6000829981604FBF992708958091950C8823BD
:100F700011F0813011F478E008C0882329F0813025
:100F800019F02FE170E002C070E02EE1622FEFB7A0
:100F9000F8948091E6028E7F8093E60287B1982FC5
:100FA0009F71829586958695837019F080E090E018
:100FB00012C0822F8850863118F081E090E00BC07B
:100FC00040E050E03327892F99272817390711F47B
:100FD00041E050E0CA01982F9170990F8091E6028C
:100FE0008178262F2F71422F440F440F892B842B99
:100FF0008093E602332727B9783059F580918F0C1A
:101000009091900C21E08638920718F087E090E0EC
:101010001FC0833C910518F086E090E019C081362E
:10102000910518F085E090E013C08033910518F029
:1010300084E090E00DC08831910518F083E090E0E5
:1010400007C00C9718F082E090E002C080E090E0CA
:10105000782F7770887D872B886D992786B98E2F9A
:1010600099278FBF08954FB7F894209151012223FB
:1010700019F421E030E00FC080911B01823019F09B
:1010800020E030E008C080E090E02150223010F4F1
:1010900081E090E09C01842F99278FBF822F9927B0
:1010A0000895CF93DF938FB7F894C82FDD279C2F37
:1010B00080911B018230A9F480915101813021F48B
:1010C00087E10E94700209C0823059F48091ED06D8
:1010D00080931B0183E080935101CFBF80E090E0BB
:1010E00003C09FBF81E090E0DF91CF9108950E94FF
:1010F0003308882311F00E9451080895CF93DF939D
:10110000982F8FB7F894282F3327422F80915401BE
:10111000882321F581E080935401909321042FBF0F
:101120008FB7F894C82FDD279C2F80911E01813046
:1011300099F480915401813021F48AE10E94700277
:1011400009C0823049F48091210480931E0183E01C
:1011500080935401CFBF07C09FBF05C08091210479
:10116000891721F42FBF80E090E021C0E92FFF27ED
:10117000E755FC4F80818F3F89F4E0911D01E9170D
:1011800089F40CC090931C0104C0FF27E755FC4F65
:10119000908390931D0180E090E002C085E090E094
:1011A0004FBF05C080911C018F3F79F7EBCFDF91D6
:1011B000CF91089580E00E947E08992708958FB707
:1011C000F89499272091740020936E068FBF08959C
:1011D0000E94DF0880916E068E7F806980936E0684
:1011E0008093740008951F93CF93DF93982F8FB748
:1011F000F894282F3327422F80915501882309F036
:1012000044C011E01093550190935B022FBF8FB73C
:10121000F894C82FDD27809156018823B9F4889867
:1012200089981092710081E480937000109272008E
:10123000109274000E94DF0880916E0684608E7F99
:1012400080936E068093740010935601CFBF8FB7C2
:10125000F894C82FDD279C2F80912101823099F4CA
:1012600080915501813021F48DE10E94700209C006
:10127000823049F480915B028093210183E0809366
:101280005501CFBF07C09FBF05C080915B02891782
:1012900021F42FBF80E090E021C0E92FFF27E95D16
:1012A000FD4F80818F3F89F4E0912001E91789F497
:1012B0000CC090931F0104C0FF27E95DFD4F908390
:1012C0009093200180E090E002C085E090E04FBF65
:1012D00005C080911F018F3F79F7EBCFDF91CF9150
:1012E0001F910895982F8150883018F082E090E087
:1012F00008958091A50C882319F085E090E0089569
:1013000081E08093A50C8093E4019093A606892F39
:101310009927019721E030E002C0220F331F8A9500
:10132000E2F780914004822B8093400480E00E9489
:10133000F30880E090E0089590E087FF02C01F9AD4
:1013400001C01F98AB9AAB989F5F983011F0880F3F
:10135000F4CF089517981F9AAB9A0F9B03C081E0B2
:1013600090E00895AB9880E090E008952FB7F8944E
:1013700099B79F7799BF90E898BF9AB790689ABF3E
:10138000882319F08AB7806402C08AB78F7B8ABF2E
:1013900089B7806889BF822F99278FBF80E090E04E
:1013A000089580E020E0AB9A0F998160273031F0FA
:1013B000880FAB982F5F283011F0F5CFAB98179AB4
:1013C0001F98AB9AAB9817981F9A99270895179A68
:1013D0001F9AAB9AAB980895AC01ECE0F5E080E081
:1013E00090E09C01858180FF05C0808191818417F8
:1013F000950741F0C90101963E968A30910589F71B
:101400002FEF30E0C90108950E94EC098F3F99F059
:101410009927880F991FFC0123E0EE0FFF1F2A95E3
:10142000E1F7E81BF90BE45FFA4F858181FF03C008
:101430008285938508958FEF90E008950E94EC09CE
:101440008F3F19F481E090E008959927880F991F44
:10145000FC0143E0EE0FFF1F4A95E1F7E81BF90B93
:10146000E45FFA4F85818860858380E090E008958D
:101470009C016E5F613518F080E090E008950C9655
:1014800011F0C9010E960895FC0180899927982FC3
:10149000882721893327822B932B0895FC01CB01C8
:1014A000428553859A0173E0220F331F7A95E1F745
:1014B000240F351F2B5F3F4F820F931F6AE070E0B0
:1014C0000E94104E738762870895FC01648595859C
:1014D000662339F48AE0989FB00111246A50704065
:1014E0000BC077278AE0989FC00111240E94244EE8
:1014F0006A50704014861586CF010E944E0A0895E6
:1015000080914401E82FFF27EE0FFF1FEF52F44FA9
:101510000190F081E02D20914601222351F08F5F50
:10152000809344018D3011F4109244012150209396
:101530004601CF010895FC0180899927982F8827BB
:1015400021893327822B932B0895AF92BF92DF928C
:10155000EF92FF920F931F93CF93DF935C01D09094
:10156000EC01F0905D04EE2425C00F2D03701127CF
:10157000C5010E949B0AF801EE0FFF1FEE0FFF1F2F
:10158000E00FF11FE25AFD4F20813181821793074E
:1015900079F4D5011C96ED019E818281891741F471
:1015A00099818481891721F49F818381891721F092
:1015B000E394F394ED14C9F68E2D9927DF91CF9122
:1015C0001F910F91FF90EF90DF90BF90AF90089523
:1015D000AC0120915A042C3018F081E090E008957D
:1015E00080913A04682F620F712D711DFB016C30E0
:1015F000710508F03C97EE0FFF1FE355F94F51833B
:1016000040832F5F20935A0480E090E00895AC015E
:10161000209159042C3018F081E090E008958091D9
:10162000A00C682F620F712D711DFB016C307105CC
:1016300008F03C97EE0FFF1FE354F24F51834083B5
:101640002F5F2093590480E090E008950F931F933B
:10165000CF93DF93EC01892BE9F02091EE0B3091D1
:10166000EF0B8FEF2F3F3807A9F08091EF0181300A
:1016700019F4198218820BC00091F00B1091F10B34
:10168000C9010E94040A080F191F1983088380E00A
:1016900090E002C081E090E0DF91CF911F910F9127
:1016A00008959C01685F613518F080E090E008952E
:1016B0000C9611F0C901449608954FB7F894552738
:1016C000FC0173E0F695E7957A95E1F7EF58F94F4D
:1016D0008770907021E030E002C0220F331F8A959E
:1016E000E2F78081822B80834FBF0895DF92EF92D3
:1016F000FF920F931F938FB7F894282F3327D22E82
:1017000091B782B746B7981711F041FF02C02FBFBB
:101710006AC080918C048823E1F10E948E03E090DE
:10172000C806F090C9060091CA061091CB06209118
:10173000090230910A0240910B0250910C026E197D
:101740007F09800B910B621773078407950720F0C0
:1017500010928C0471E01EC02E0D3F1D401F511FC2
:101760008091E7019091E801A091E901B091EA012F
:10177000281B390B4A0B5B0B273E310541055105F0
:1017800040F4822F223010F070E005C070E082E05B
:1017900002C070E086EE682F615000B601FCFDCFFC
:1017A00082B7681709F46F5F2091E7013091E80173
:1017B0004091E9015091EA01DA01C9010196A11DA8
:1017C000B11D860F911DA11DB11D82179307A4079E
:1017D000B50710F4622F609561BFDFBE772319F063
:1017E0008DE00E9470021F910F91FF90EF90DF90AB
:1017F0000895AFB7F894BB27E1E0E0938C046093C1
:10180000C8067093C9068093CA069093CB062093AE
:10181000090230930A0240930B0250930C02AFBFAF
:101820000E94760B089508950F931F93CF93DF9333
:10183000282F3327C901880F991FFC0113E0EE0FF1
:10184000FF1F1A95E1F7E81BF90BE45FFA4F85815A
:1018500082FF03C062838B7F85838281962F981BD2
:10186000628383818F5F838386E08683992361F01F
:101870008481890F815084839B3030F0148281E011
:101880008383178211861086C901880F991FFC0176
:10189000A3E0EE0FFF1FAA95E1F7E81BF90BE45F49
:1018A000FA4F8381833008F471C000811181CCE04C
:1018B000D5E0888199818017910709F061C08D81F9
:1018C00080FF5EC08E81882311F081508E838F81CE
:1018D000882311F081508F838E81882351F48F816A
:1018E000882339F48D8191E089278D8319861886A4
:1018F00042C08D8182608D839B816C81690F6330D2
:1019000008F463E077278FEF989FC00111240E94AD
:10191000244E888529E0829FC00111240596860FF8
:10192000911D6AE070E00E94244E68871B821C8231
:101930004985662301F14423F1F0772781E09EEF8A
:101940000E94104ECB019B01F3E0220F331FFA954A
:10195000E1F7642F7727880F991F820F931F0E944A
:10196000104E6A5070406F3F710519F010F06CE333
:1019700070E0772702C06CE370E0CE010E944E0A4F
:101980002E9685E0C839D80709F093CFDF91CF9123
:101990001F910F91089580E090E0E1E1F5E09C0156
:1019A000808180FF08C0C90101963E968A3091056A
:1019B000B1F72FEF30E0C90108959EE0899FF00153
:1019C0001124E45FFA4F71836083128213821482C0
:1019D00085E0858386E0868387831086118613865B
:1019E00012860895982FAFEF60E070E040E050E07D
:1019F000E1E1F5E08081282F332720FF0BC021FF94
:101A000009C023FD07C0258136812617370710F04E
:101A1000A42FB9014F5F5F4F3E964A30510551F7F1
:101A2000892F99276817790718F48FEF90E00895A8
:101A30008A2F99270895AC01309129028FEF4F3FEB
:101A4000580711F020E012C0832F99270895E22F44
:101A5000FF2783E0EE0FFF1F8A95E1F7EB5AFC4F5B
:101A6000808191818417950719F02F5F231779F7EB
:101A7000822F992708951F93CF93DF93162FC0E0ED
:101A8000D0E06EE40E94380AFC0180818123811736
:101A900011F4C1E0D0E0CE01DF91CF911F91089504
:101AA000FC018081448555274F7050709A01220FA8
:101AB000331F240F351F821B8F5099270895AC01C7
:101AC000209146012D3018F081E090E0089580913A
:101AD0004501E82FFF27EE0FFF1FEF52F44F518310
:101AE00040838F5F809345018D3011F41092450142
:101AF0002F5F2093460180E090E0089580E8809376
:101B00000D021092AE031092960C10928D0C109252
:101B10003D0308951F93CF93DF93182F8FB7F89449
:101B2000C82FDD2760E080E00E949C04882321F01C
:101B3000CFBF80E090E005C0CFBF812F0E94CE04D0
:101B40009927DF91CF911F910895CF93DF93FC01E7
:101B5000E45AFF4F1582DF011696ED011B821A82AF
:101B6000198280E88683DF91CF91089597B79F7D92
:101B700097BF90E296BF882319F08EB5806402C0AB
:101B80008EB58F7B8EBD87B7806287BF80E090E087
:101B90000895AF92BF92CF92DF92EF92FF920F9390
:101BA0001F93F82E5A016B010E948E03AB01BC01FA
:101BB000EE24960185018F2D0E946F031F910F91D6
:101BC000FF90EF90DF90CF90BF90AF900895AF92CD
:101BD000BF92CF92DF92EF92FF920F931F93CF931A
:101BE000DF93CDB7DEB728970FB6F894DEBF0FBEF0
:101BF000CDBF20E070E0E0910001F091010132E101
:101C00004DE65CE46FE4809101019E2F28960FB6AB
:101C1000F894DEBF0FBECDBFDF91CF911F910F9122
:101C2000FF90EF90DF90CF90BF90AF9008951F92FC
:101C30000F920FB60F9211248F9383B783BF00B614
:101C400000FCFDCF8F910F900FBE0F901F90189545
:101C500078941F920F920FB60F9211240F900FBE1F
:101C60000F901F90189578941F920F920FB60F92B5
:101C700011240F900FBE0F901F90189578941F920B
:101C80000F920FB60F9211242F933F938F939F9330
:101C90002FB7F89433278091060590910705019698
:101CA00090930705809306052FBF9F918F913F91D9
:101CB0002F910F900FBE0F901F9018951F920F92AB
:101CC0000FB60F9211240F900FBE0F901F90189512
:101CD0001F920F920FB60F9211240F900FBE0F900C
:101CE0001F9018951F920F920FB60F9211240F900C
:101CF0000FBE0F901F9018951F920F920FB60F9264
:101D000011240F900FBE0F901F9018951F920F92E5
:101D10000FB60F9211240F900FBE0F901F901895C1
:101D20001F920F920FB60F9211240F900FBE0F90BB
:101D30001F9018951F920F920FB60F9211242F9398
:101D40003F934F935F936F937F938F939F93AF9343
:101D5000BF93EF93FF9389B78F7789BF85E10E9487
:101D60007002FF91EF91BF91AF919F918F917F9101
:101D70006F915F914F913F912F910F900FBE0F90F8
:101D80001F9018951F920F920FB60F9211242F9348
:101D90003F934F935F936F937F938F939F93AF93F3
:101DA000BF93EF93FF9344B155B178948FB7F894F4
:101DB00099272091E602322F3695317021708FBF1E
:101DC0002223D9F4339880915504813021F0823058
:101DD00009F039C00AC0332351F05093A50640934F
:101DE000A40681E20E9470022EC0332319F40E94DF
:101DF000B50729C01092550426C08FB7F8949927CB
:101E00008FBF2FB7F894332786B1582F5770482FBC
:101E10004072987D942B952B8074977B982B9061C2
:101E20009F77892F992786B9887D842B852B877387
:101E30008061992786B9887D842B852B877B806973
:101E4000992786B92FBFFF91EF91BF91AF919F91D5
:101E50008F917F916F915F914F913F912F910F9053
:101E60000FBE0F901F901895EF92FF920F931F9344
:101E7000CF93DF93EA017B010AC08C010F5F1F4FF4
:101E80000E94AD4EF70181937F012197C8012097F1
:101E9000A1F780E090E0DF91CF911F910F91FF902B
:101EA000EF900895AF92BF92CF92DF92FF920F937F
:101EB0001F93CF93DF935C01FC018281882361F43F
:101EC000B092480DA092470D8281882309F084C00A
:101ED00010923601D89A80C0442309F475C0F501E8
:101EE000C080D1808091EC01843009F046C0C601E9
:101EF0000E94A50A2091EC01622F0E94044E492FF6
:101F00009217D8F5992359F480915D049927019689
:101F100064E070E00E94244E80935D0429C08091AB
:101F20005D04840F912D911D9C0123703070E90197
:101F3000CC0FDD1FCC0FDD1FC20FD31F019664E055
:101F400070E00E94244EFC01EE0FFF1FEE0FFF1FFA
:101F5000E80FF91FC25ADD4FE25AFD4F85E00190AC
:101F600009928150E1F74F5F8091EC014817B8F278
:101F70008091EC0181508093EC01F090EC01809114
:101F80005D048F0D912D911D837090708C01000F59
:101F9000111F000F111F080F191F025A1D4FC601F4
:101FA0000E949B0AF80191838083F6018289F801DF
:101FB0008283F6018585F8018483F6018389F8011F
:101FC0008383F394F092EC01F501808191810E946A
:101FD000E80AC5010E94070BDF91CF911F910F9175
:101FE000FF90DF90CF90BF90AF9008951F920F9217
:101FF0000FB60F9211242F933F934F935F936F93DC
:102000007F938F939F93AF93BF93EF93FF9383B788
:1020100083BF00B600FCFDCF81B799270196AA27A0
:10202000BB272091E7013091E8014091E9015091EF
:10203000EA01280F391F4A1F5B1F2093E7013093E5
:10204000E8014093E9015093EA0178940E94760BED
:10205000FF91EF91BF91AF919F918F917F916F9180
:102060005F914F913F912F910F900FBE0F901F9056
:102070001895BF92CF92DF92EF92FF920F931F932A
:10208000B82E6701780180915E01882319F085E000
:1020900090E034C0EB2DFF27E131F105B8F4EA5BA5
:1020A000FF4FEE0FFF1F0590F491E02D099481E0A2
:1020B0000E9402039927282F882349F481E0809306
:1020C0005E01B092B60D80E090E018C021E0822F52
:1020D000992714C089019A01AB0163E0E8CF890117
:1020E0009A01AB0161E0E3CF89019A01AB0162E0A3
:1020F000DECF89019A01AB0160E0D9CF1F910F912A
:10210000FF90EF90DF90CF90BF900895AF92BF9275
:10211000CF92DF92EF92FF920F931F93809118045A
:10212000992720E530E0829FA001839F500D929F68
:10213000500D1124FA01E655F34F8081A82EBB24DF
:10214000CC24DD24AAE0AA0CBB1CCC1CDD1CAA9567
:10215000D1F7FA01E555F34F80812AE4829FC0014F
:102160001124AA27BB27A80EB91ECA1EDB1E9A017E
:102170002455334F80915C01823079F08330B1F087
:10218000813011F081E01CC0FAE4EF2EF12C012D1A
:10219000112DB601A50185E011C0EAE4EE2EF12C67
:1021A000012D112DB601A50183E008C07AE4E72EC8
:1021B000F12C012D112DB601A50184E00E943910EA
:1021C000882311F010925C021F910F91FF90EF9005
:1021D000DF90CF90BF90AF900895BF92CF92DF92E3
:1021E000EF92FF920F931F93B82ED70180915E015B
:1021F000882319F085E090E03CC0EB2DFF27E1310A
:10220000F105B8F4E95AFF4FEE0FFF1F0590F49166
:10221000E02D099485E00E9402039927282F882346
:1022200049F481E080935E01B092B60D80E090E0C9
:1022300020C021E0822F99271CC0680179018D01FF
:102240009A01AB0163E0E6CF680179018D019A0143
:10225000AB0161E0DFCF680179018D019A01AB012B
:1022600062E0D8CF680179018D019A01AB0160E08D
:10227000D1CF1F910F91FF90EF90DF90CF90BF9043
:102280000895BF92CF92DF92EF92FF920F931F9328
:10229000B82E6701780180915E01882319F085E0EE
:1022A00090E034C0EB2DFF27E131F105B8F4E85997
:1022B000FF4FEE0FFF1F0590F491E02D099484E08D
:1022C0000E9402039927282F882349F481E08093F4
:1022D0005E01B092B60D80E090E018C021E0822F40
:1022E000992714C089019A01AB0163E0E8CF890105
:1022F0009A01AB0161E0E3CF89019A01AB0162E091
:10230000DECF89019A01AB0160E0D9CF1F910F9117
:10231000FF90EF90DF90CF90BF900895EF92FF92E3
:102320000F931F93813051F0813030F0823041F0B3
:10233000833041F081E009C086E005C089E003C038
:1023400087E001C088E00E94411199271F910F91F9
:10235000FF90EF9008958FB7F894992720919B05EF
:102360002093230123E0209359018FBF8091230103
:10237000882319F0813079F408C081E080935504F6
:102380001092950C0E94B507089580935504809390
:10239000950C0E94B50708950F931F93CF93DF9379
:1023A000182F8FB7F894C82FDD270C2F61E080E03D
:1023B0000E948204882321F0CFBF85E090E024C0F2
:1023C00080910B018823A1F480913C01823081F43B
:1023D00009C082E080933C0110920B010E94B90475
:1023E000B89AC0981093080180E00FBF99270CC0DD
:1023F00080913C01882369F38FB7F8949927109254
:10240000CC068FBF81E0F1CFDF91CF911F910F916B
:102410000895EF92FF920F931F93CF93DF93982F1E
:102420008FB7F894E82E80915901833009F045C0A8
:1024300080912301891709F040C080919C05882371
:1024400009F046C03EC0EF2DE695E695E695FF27DC
:102450004F2D5527E456FA4F9A012770307081E0CE
:1024600090E002C0880F991F2A95E2F7809520819D
:1024700028232083C093580111C02196C230D10572
:1024800011F4C0E0D0E0FC2E8C2F0E94DE058823E2
:10249000D1F6C017D10789F74FEF50E040939B0565
:1024A0008FEF8093230181E08093590180E20E94A5
:1024B0007002EFBE80E090E011C0EFBE81E090E0DE
:1024C0000DC082E080932301109259013798F1CF1B
:1024D00080915801082F1127E801CFCFDF91CF91CC
:1024E0001F910F91FF90EF900895982F81508830A1
:1024F00018F082E090E008958091A50C882319F0EF
:1025000085E090E0089581E08093A50C8093A30C72
:102510009093A606892F9927019721E030E002C009
:10252000220F331F8A95E2F780914004822780931F
:10253000400480E00E94F30880E090E00895982F26
:1025400080915501833009F047C08091210189179E
:1025500009F042C080911F0120E030E08F3F11F46C
:1025600021E030E0232BF9F48F3F19F42FEF30E016
:102570000EC0282F3327F901E95DFD4F808180933C
:102580001F018F3F11F4809320018FEF80832093F0
:102590005B028FEF8093210181E0809355018DE1F3
:1025A0000E94700216C082E08093210110925501B2
:1025B00080915601813069F40E94DF0880916E0697
:1025C0008A7680936E06809374009098919810920A
:1025D000560180E090E0089581E090E008951F9317
:1025E000182F80917601909177016817790789F407
:1025F000413079F4275B3D4061F40E94E80881E0B6
:102600000E949F12112311F48EE101C08FE10E94FC
:1026100070021F91089581E08093500180E00E9434
:102620007E08992708951F93982F8FB7F894182F35
:10263000809151018330D1F580911B018917B1F54B
:102640008091190120E030E08F3F11F421E030E06B
:10265000232BE9F48F3F19F42FEF30E00EC0282F21
:102660003327F901E356F34F8081809319018F3F9F
:1026700011F480931A018FEF80832093ED068FEF82
:1026800080931B0181E08093510187E109C082E0C2
:1026900080931B011092510181E08093520189E1E6
:1026A0000E9470021FBF80E090E003C01FBF81E066
:1026B00090E01F9108951F93982F8FB7F894182FCB
:1026C000809154018330B1F580911E01891791F5F5
:1026D00080911C0120E030E08F3F11F421E030E0D8
:1026E000232BF9F48F3F19F42FEF30E00EC0282F81
:1026F0003327F901E755FC4F808180931C018F3F00
:1027000011F480931D018FEF8083209321048FEFBC
:1027100080931E0181E0809354018AE10E9470023F
:1027200005C081E080931E01109254011FBF80E01C
:1027300090E003C01FBF81E090E01F91089580E00A
:102740000E945B1399270895CF93DF93982F8FB73B
:10275000F894C82FDD272C2F80916101882361F424
:1027600081E08093610190934A0488E20E947002A4
:10277000CFBF80E090E021C0E92FFF27E25CFC4F53
:1027800080818F3F89F4E0913401E91789F40CC00E
:102790009093330104C0FF27E25CFC4F9083909339
:1027A000340180E090E002C085E090E02FBF05C0DA
:1027B000809133018F3F79F7EBCFDF91CF9108956F
:1027C0008FB7F894282F3327922F809135018131CC
:1027D00049F480916101823029F42FBF8BE20E947D
:1027E000700208959FBF81E10E94A41308951F9372
:1027F000182F809167018823E1F4623041F0633043
:1028000041F0613011F081E007C080E103C08EE04B
:1028100001C08FE00E94A41390E0882309F491E0A6
:1028200090936701992329F01093F50B80E090E0D5
:1028300002C081E090E01F9108958FB7F894992726
:10284000DA9AD998D8988FBF1092660180912204A5
:102850009927833019F08430D1F406C081E0809349
:1028600066010E94E013089540E050E060E070E0EF
:10287000809127040E9453066093FC017093FD0130
:102880008093FE019093FF0181E00E94F20508957C
:102890001F93982F8FB7F894182F80916001833081
:1028A000B1F580913201891791F58091300120E0D6
:1028B00030E08F3F11F421E030E0232BF9F48F3F1B
:1028C00019F42FEF30E00EC0282F3327F901E75617
:1028D000F34F8081809330018F3F11F48093310159
:1028E0008FEF8083209303028FEF8093320181E08A
:1028F0008093600187E20E94700205C084E08093AB
:102900003201109260011FBF80E090E003C01FBF42
:1029100081E090E01F9108950F931F938B0180E059
:102920000E941313D89AE0910701FF27EE0FFF1FB3
:10293000EF5EFD4F0183012F112700831F910F913F
:10294000089580915301813029F48093500180E0F3
:102950000E947E088FB7F894992710925301109225
:1029600052018FBF08950F931F9380914D018823CB
:1029700099F18091DB058D7F8093DB050E94D10961
:10298000082F0E94D109182F0E94D1090E94E7093F
:102990008091ED019091EE018330910519F005973A
:1029A000D9F412C010924D0180914D0D8823A1F4ED
:1029B000602F7727762F6627812F9927682B792B11
:1029C00080E00E948C1408C010924D0180914D0D42
:1029D000813011F40E9413131F910F9108950F93EA
:1029E0001F93182F0FB7F89461E080E00E948204D3
:1029F000882371F51093080180910B018823A9F5B4
:102A000080913C01823089F589E00CC00E94B904B4
:102A100080913C01882349F481E080933C0110922D
:102A200052038BE00E9470022AC0809143048F3FC2
:102A300031F5E0910A01EE2311F11CC01092090159
:102A400004C0FF27ED5BFB4F108210920A0117C0F4
:102A500081E090E002C0880F991F1A95E2F720915B
:102A60003B01282B20933B010AC080913C01882325
:102A7000E1F6CCCF809109018F3F19F7DFCF802F8E
:102A800099278FBF80E090E01F910F9108951F93C9
:102A90008FB7F894282F3327122F8091BA0D8823EF
:102AA00021F02FBF81E090E013C081E08093BA0D48
:102AB0008091380190913901049721F481E00E94BE
:102AC000EF1403C087E00E9470021FBF80E090E017
:102AD0001F9108951F9383E00E94CC119927182F0E
:102AE000882319F083E00E94EF14812F99271F910A
:102AF0000895CF92DF92EF92FF920F931F938093EE
:102B00005F016093F80BC901880F892F881F990B0B
:102B100091958093F90B220F812F9927282B2093D1
:102B2000FA0B0093FB0BD0927006C0926F06F092E6
:102B30004504E092440440933B0486E20E94700204
:102B40001F910F91FF90EF90DF90CF90089561E07B
:102B500081E00E9482048823E9F48FB7F894282F3B
:102B600033278091380190913901892B11F02FBFC3
:102B700020C081E090E090933901809338012FBF0D
:102B8000DD9A0E947C0624E130E040E050E00E94A3
:102B900039070FC062E081E00E949C04882319F08D
:102BA00089E090E0089561E081E00E949C04882320
:102BB00019F080E090E0089585E090E00895EF92AC
:102BC000FF920F931F9380918D04843090F41092A4
:102BD000020264E5E62EF12C012D112D28EE32E0E3
:102BE00040E050E060E070E080912D040E948E1182
:102BF00005C00E94A71583E0809302021F910F91E8
:102C0000FF90EF90089580910202823019F0833096
:102C100071F4FBCFE0918D04EF5FE0938D04FF270B
:102C2000EE5FFE4F808180932D040E94DF15089592
:102C3000843021F0853051F0833079F48091240183
:102C4000813059F482E20E9470020895809124013B
:102C5000813019F482E20E9470020895CF93DF93CD
:102C6000EC010E941B0D282F809129022817D1F01A
:102C7000382F31503093290213C0822F992773E0E7
:102C8000880F991F7A95E1F7DC01AB5ABC4FFC0124
:102C9000E35AFC4F88E001900D928150E1F72F5FDD
:102CA000231758F38091EE0B9091EF0B8C179D0733
:102CB000A1F48FEF9FEF9093EF0B8093EE0B1092A8
:102CC000F10B1092F00B1092F20B1092F30B81E0CB
:102CD00080934C0183E10E947002DF91CF910895AF
:102CE00068E18EE49DE00E94510B009709F44EC00C
:102CF000FC01AFE0B2E088E10D9001928150E1F774
:102D000080913601882309F041C08091430181FF01
:102D10003DC08DE280934E0D8091000190910101A4
:102D200080935F0D892F992780935E0D80910E020D
:102D30008F5F80930E0281508093600D8CEA8093A8
:102D4000610D10925B0DE091470DF091480D3097A9
:102D5000E9F08EE49DE09183808312828EE183838B
:102D6000CF010E945F0D882389F48091430182FF87
:102D700005C084FD03C080E10E9470021092480DDE
:102D80001092470D81E080933601D8980895BF9244
:102D9000CF92DF92EF92FF920F931F93B82E809104
:102DA000EB01882339F085E080935F0186E20E9481
:102DB00070021DC08B2D9927FC01EE0FFF1FE80F3D
:102DC000F91FEE58FD4F20813181BB2011F461E6DF
:102DD00001C060E6F1E0CF2ED12CEE24FF2400E00C
:102DE00010E040E08AE00E947915B0920A051F9138
:102DF0000F91FF90EF90DF90CF90BF900895CF920A
:102E0000DF92EF92FF920F931F938091EB01882343
:102E100039F085E080935F0186E20E94700229C04C
:102E200040919805842F9927FC01EE0FFF1FE80FB2
:102E3000F91FDF01AE58BD4F2D913C91EC58FD4F6D
:102E4000808182FF06C0442311F068E807C069E86A
:102E500005C0442311F063E801C066E8B1E0CB2E61
:102E6000D12CEE24FF2400E010E040E089E00E9435
:102E700079151F910F91FF90EF90DF90CF900895FB
:102E80001F93182F882321F488E00E94751208C030
:102E90001092500180E00E945B13812F0E94A114C8
:102EA0001F910895CF92DF92EF92FF920F931F939D
:102EB000CF93DF938C01F62E6A01E22E8FB7F89440
:102EC000C82FDD2760E080E00E949C04882321F069
:102ED000CFBF80E090E01EC0CFBF0F0D111D802F2F
:102EE00080680E94CE04F82E16950795802F807C6E
:102EF0000E94CE040E2D0AC0EE2DFF27E01BF10923
:102F0000EC0DFD1D80810E94CE0401500023A1F72D
:102F10008F2D9927DF91CF911F910F91FF90EF9007
:102F2000DF90CF900895CF93DF93CDB7DEB72C9786
:102F30000FB6F894DEBF0FBECDBF8FB7F894282F21
:102F4000AE014F5F5F4FDA01E5EEF6E088E00190F9
:102F50000D928150E1F78091190490911A048987AC
:102F6000892F99278A8780914B0490914C048B87F5
:102F7000892F99278C872FBF2CE060E080E691E0B5
:102F80000E9452172C960FB6F894DEBF0FBECDBF2D
:102F9000DF91CF910895AF92BF92CF92DF92EF92DF
:102FA000FF920F931F93282F33278BE090E0289FE9
:102FB000F001299FF00D389FF00D1124E559FE4FC7
:102FC00082819381A481B5810097A105B10569F043
:102FD00080819181880F991F9183808381509440D3
:102FE00020F080E094E0918380838BE090E0289F44
:102FF0005001299FB00C389FB00C11248BE691E052
:10300000A80EB91EF50186819781A085B1858283BE
:103010009383A483B583C080D180EE24FF24B9E0DC
:10302000CC0CDD1CEE1CFF1CBA95D1F70E94B50339
:10303000DC01CB01F50100811181B801762F6627F3
:10304000770F0E94104EAA27BB278C0D9D1DAE1D29
:10305000BF1D222733277AE0000F111F221F331FC5
:103060007A95D1F7081B190B2A0B3B0B06831783A4
:10307000208731872281338144815581280F391F70
:103080004A1F5B1F22833383448355831F910F9113
:10309000FF90EF90DF90CF90BF90AF900895FF9298
:1030A0000F931F93CF93DF93F82E8B018FB7F89474
:1030B000C82FDD2760E080E00E949C04882321F077
:1030C000CFBF80E090E00CC0CFBF8F2D0E94CE0418
:1030D000812F99270E94CE04802F0E94CE04992729
:1030E000DF91CF911F910F91FF9008951F931FB70C
:1030F000F89480913C03882319F460E070E009C0E3
:1031000060E08091460D882309F461E081E0682742
:10311000772780912C04882319F480E090E00AC07E
:1031200090E08091E406882309F491E081E09827FB
:10313000892F9927762F6627770F770F770F24E04F
:10314000880F991F2A95E1F7826E9262682B792B7E
:1031500081E10E944F18812F99278FBF1F910895F9
:103160008FB7F89499276091EE068FBF85E0689F2E
:10317000B0011124625D7E4F706488E10E944F1897
:103180000895FF920F931F93CF93DF93C0912E0466
:10319000D0912F04C45ADF4F8A81CC55D040992753
:1031A000182F882309F41FE1C0988091E502811748
:1031B00049F0612F77276F717070606E706885E1DC
:1031C0000E944F181093E502F8808FB7F894082FEB
:1031D000112760E080E00E949C04882311F00FBF5B
:1031E00012C00FBF8EE390E090935204809351047D
:1031F0008EE30E94CE04FA944F2D552760E070E0D4
:10320000CE010E944805DF91CF911F910F91FF9051
:1032100008950F931F93CF93DF93EC010FB7F894AA
:1032200011270E943E04FC018FE380830FBF1092A0
:10323000A20C1092A10C61E082E00E94820488231B
:1032400019F085E090E077C08091D00B8F5F80937C
:10325000D00B81508B838FB7F894082F112762E031
:1032600081E00E949C04882329F40FBF0E94690515
:1032700081E060C0AE01445A5F4F8FB7F894992740
:1032800024E02093CD068FBFD0935C04C0935B04F1
:103290000FBFDE011196FD01818129819927982FA9
:1032A00088273327822B932B80729C7C8983892FDC
:1032B000992781832981982F882733272164822B9E
:1032C000932B8983892F99278183FA011482108295
:1032D000118211861086178280E8868361E06093F0
:1032E000D00640915B0450915C048FB7F894282F6E
:1032F000332780913D0190913E018830910511F076
:10330000019711F02FBF15C082E090E090933E012D
:1033100080933D016093BC0D50932F0440932E0485
:103320001092E2012FBF0E946A15882311F40E94B7
:10333000C11880E09927DF91CF911F910F910895D7
:10334000CF93DF93DA01422F213518F082E090E02D
:103350005EC0ED018B876E83872F99278F832FB7F0
:10336000F89433278091190490911A042FBFFD011E
:103370008483892F992785832FB7F89433278091E9
:103380000C0190910D012FBF8887892F992789877C
:103390003196818129819927982F882733272064A6
:1033A0003868822B932B8983892F99278183435FE8
:1033B0004C934D5080910F01882359F010920F01CA
:1033C000642FCD010E9409199927282F8823A9F479
:1033D00017C0842F99279093570480935604B09375
:1033E0004201A09341018FE00E94700280910F0181
:1033F000882349F489E090E00AC08FEF80930F01A1
:10340000822F992704C01092370480E090E0DF916A
:10341000CF9108951F93809112019927019667E03B
:1034200070E00E94244E682F8093120110E0462F16
:103430005527FA01EE0FFF1FE850FB4FA081B18125
:10344000109799F0E62FE695E695E695FF27E15669
:10345000F34F808199279A012770307002C09595AB
:1034600087952A95E2F780FF0DC0CA01019667E0B3
:1034700070E00E94244E682F1F5F1730C1F6109332
:10348000120119C0609312016730A8F42C912D50DD
:103490003327FD0167817727762F66278681992755
:1034A000682B792BAD0183850E94A019882319F020
:1034B00082E10E9470021F910895CF93DF93582FED
:1034C000FB01873018F081E090E033C0C82FDD2782
:1034D000CC0FDD1FC850DB4F88819981892B19F0F3
:1034E00085E090E026C079836883435F40834D5038
:1034F00080911201873018F480E090E01AC0838533
:1035000067817727762F662726813327622B732BD7
:1035100050931201242FAF010E94A0199927282F40
:10352000882329F087E08093120119821882822F64
:103530009927DF91CF910895AF92BF92CF92DF92FA
:10354000EF92FF920F931F93CF93DF9380914B01E4
:10355000882309F0B8C0E0914104F0914204108240
:103560008091EE0B9091EF0BE0914104F0914204B9
:103570008283892F992781838091EF01882329F005
:103580008091F00B9091F10B20C08091EE0B909107
:10359000EF0BC091F00BD091F10B2FEF8F3F920703
:1035A00081F4E0914104F0914204C4838D2F992766
:1035B0008383E0914104F09142048081806880839C
:1035C0000CC00E94040A8C0F9D1FE0914104F091F1
:1035D00042048483892F99278383EBEBEE2EE3E06B
:1035E000FE2E68E0C7010C970E94380A8C010B5F21
:1035F0001F4FCC2440E0AA24BB2473E0D72E809137
:103600004801992701968A0D9B1D6AE070E00E948F
:10361000244E9C019927880F991FDC0153E0AA0FC3
:10362000BB1F5A95E1F7A81BB90BA45FBA4FED0178
:103630008D81992780FF11C081FF0FC08D919C91D2
:103640004D9DF0011124E00FF11F8183892F9927EF
:103650008083888582834F5FC22EE9E0AE16B10475
:1036600029F00894A11CB11C4F3048F2C0924801C7
:10367000809147018F5F809347018150E7018983E3
:10368000842F8F708093BB038FEF8093B50380935B
:10369000B60380E78093BA0383E0489FC0011124FA
:1036A000895F482F55276FEA73E081E00E945D1A19
:1036B0009927882321F481E080934B0104C0843052
:1036C00011F410924901DF91CF911F910F91FF905A
:1036D000EF90DF90CF90BF90AF900895AF92BF92E0
:1036E000CF92DF92EF92FF920F931F93BC018091D4
:1036F0000802882309F479C08091AB03882309F07C
:1037000074C081E08093AB0360938701872F992772
:10371000809386018EED6030780721F0AA24BB24C7
:10372000650108C0A0906201B0906301C09064017F
:10373000D0906501A0928B0111270D2DFC2CEB2C54
:10374000E0928A01960144275527209389018D2D07
:103750009927AA27BB27E6E8F1E08283FF24002708
:103760001127102F0F2DFE2CEE24B82FAA279927F2
:103770008827332744275527A90133272227822B5F
:10378000932BA42BB52B2A2D332744275527822B87
:10379000932BA42BB52BE82AF92A0A2B1B2BE11417
:1037A000F1040105110511F410E010C060507E4DC8
:1037B00021F41AE06AED76E003C010E060E070E00A
:1037C000412F55278CE891E00E949D4E8FEF80930A
:1037D00080018093810180E6809385011A5F412FEB
:1037E0006AE771E085E00E945D1A1F910F91FF90DA
:1037F000EF90DF90CF90BF90AF9008958FB7F8947F
:1038000020910B0520FD02C020E004C02E7F2093F4
:103810000B0521E099278FBF222339F080E09EED30
:103820000E946E1B8AE20E94700208951F938FB758
:10383000F894282F332780913A01882311F02FBF65
:1038400030C02FBF80B39927A6E096958795AA959B
:10385000E1F7182F117090914F048091500489174F
:10386000D9F01917C9F484E090E09093390180935E
:1038700038018FB7F894992721E020933A018FBF40
:1038800060E070E08DE10E944F180E949317C09A8B
:10389000C09883E00E9470021093500488E00E9458
:1038A00070021F910895EF92FF920F931F93CF9391
:1038B000DF93182F7B01042F8FB7F894C82FDD27D3
:1038C00060E080E00E949C04882321F0CFBF80E06C
:1038D00090E014C0CFBF1064812F992790935204B9
:1038E000809351040E94CE04182F402F5527B70112
:1038F00080E090E00E944805812F9927DF91CF91C9
:103900001F910F91FF90EF900895C098609168010A
:103910007091690141E08FE30E94531C089582E099
:1039200090E090935A028093590281E08093AE0315
:1039300020E030E080910801843011F421E030E093
:10394000232B29F484E00E94CC11882319F40E94CF
:10395000851C089584E00E94EF1408951F920F9231
:103960000FB60F9211242F933F934F935F936F9352
:103970007F938F939F93AF93BF93EF93FF93809128
:10398000590290915A02019749F482E090E0909395
:103990005A02809359020E948F1C05C080913D03FA
:1039A0008F5F80933D03FF91EF91BF91AF919F9106
:1039B0008F917F916F915F914F913F912F910F90D8
:1039C0000FBE0F901F9018951F9380913B01882385
:1039D00009F04BC0109108011F3F09F046C060E09C
:1039E0000E949C04882309F440C081E08093CF0B9F
:1039F00080912C028823E1F11092CF0B85E090E0BA
:103A000045C0923069F5C09A8091090120E030E00C
:103A10008F3F11F421E030E0232BE9F410930B01E8
:103A20008F3F19F42FEF30E00DC0282F3327F90115
:103A3000ED5BFB4F8081809309018F3F11F4109360
:103A40000A0110832093520381E080933C018BE0B4
:103A50000E94700205C010930B0110923C0111C02E
:103A600080913C01882369F00FC081E090E00EC096
:103A700080910B0190913C01882319F2923021F042
:103A8000EFCF80E00E94AD0480E090E01F910895A8
:103A90001F93182F81E090E090933E0180933D01A9
:103AA00010922C020E94E41C8FB7F894992710936F
:103AB00037018FBF85E00E9470021F9108951F9308
:103AC000CF93DF939FB7F894C92FDD271C2F9091D8
:103AD0000801981721F0CFBF81E090E03AC08FEF46
:103AE0008093080130913B013323F1F48FB7F894B0
:103AF00099271092CC068FBF0E94E41CCFBF11C043
:103B00002093080181E090E002C0880F991F4A9538
:103B1000E2F78095382330933B0189E00E947002E0
:103B20001FBF80E090E015C080E065E0E32FFF2735
:103B30000E94044E292F492F5527CF01042E02C081
:103B4000959587950A94E2F780FDDACF822F8F5FF3
:103B5000EFCFDF91CF911F9108951F93CF93DF9304
:103B60008FB7F894C82FDD271C2F809159029091B0
:103B70005A02892B29F484E00E945F1DCFBF1EC02A
:103B80001092AE0380913D03882311F0B79904C0D1
:103B90000E9908C0882319F0815080933D030E943C
:103BA0008F1C0BC081E090E090935A0280935902E1
:103BB00010923D0384E00E945F1D1FBFDF91CF91F3
:103BC0001F9108950E947E0DC09AC09888E00E94BF
:103BD0008A0D88E00E948A0DC09A84E00E945F1DD1
:103BE0000E94AD1D08951F93182F8823B1F4809172
:103BF00017048823D1F481E080931704809358043C
:103C000084E08093EC0B8091B70D98E08927809336
:103C1000B70D81E00E94F30808C01092500180E0C7
:103C20000E945B13812F0E94A1141F910895CF92CF
:103C3000DF92EF92FF920F931F93982F80915E0176
:103C4000882319F085E090E04AC0E92FFF27E13191
:103C5000F105A8F4E758FF4FEE0FFF1F0590F49110
:103C6000E02D099483E00E9402039927282F8823DE
:103C700039F481E080935E0180E090E030C021E083
:103C8000822F99272CC0CC24DD24760100E010E09F
:103C900020E030E040E050E063E0E4CFCC24DD24DD
:103CA000760100E010E020E030E040E050E061E02C
:103CB000D9CFCC24DD24760100E010E020E030E014
:103CC00040E050E062E0CECFCC24DD24760100E07D
:103CD00010E020E030E040E050E060E0C3CF1F9112
:103CE0000F91FF90EF90DF90CF900895BF92CF9209
:103CF000DF92EF92FF920F931F93B82E80915E0197
:103D0000882319F085E090E04CC0EB2DFF27E131CE
:103D1000F105B8F4E657FF4FEE0FFF1F0590F49141
:103D2000E02D099482E00E9402039927282F88231E
:103D300049F481E080935E01B092B60D80E090E09E
:103D400030C021E0822F99272CC0CC24DD247601BD
:103D500000E010E020E030E040E050E063E0E2CF3F
:103D6000CC24DD24760100E010E020E030E040E0EB
:103D700050E061E0D7CFCC24DD24760100E010E0F4
:103D800020E030E040E050E062E0CCCFCC24DD2405
:103D9000760100E010E020E030E040E050E060E03C
:103DA000C1CF1F910F91FF90EF90DF90CF90BF9008
:103DB0000895EF92FF920F931F9380910202823039
:103DC00009F04EC080912A029927982F88272091C8
:103DD0002B023327822B932BE816F906A9F080914A
:103DE0002D04813049F0813028F0823049F0833051
:103DF000B9F508C08AE001C08DE00E94761E30C08F
:103E00008BE0FBCF8CE0F9CF409153034F5F4093A1
:103E100053038091F0024817B0F481E080930202CE
:103E20005527440F551F40585F4F66277727B2E04C
:103E3000EB2EF12C012D112D2AE232E080912D0480
:103E40000E948E110DC0E0918D04EF5FE0938D0410
:103E5000FF27EE5FFE4F808180932D040E94DF15C7
:103E60001F910F91FF90EF900895CF92EF92FF92E4
:103E70000F931F93873061F0883018F4863079F4FF
:103E800005C0883039F0893051F406C080E005C0A3
:103E900082E003C083E001C081E00E94D91E1F912F
:103EA0000F91FF90EF90CF9008951F93182F80915E
:103EB0004B0D90914C0D6817790789F4413079F4D6
:103EC0002054344061F40E94E80880E00E949F1270
:103ED000112311F48BE101C08CE10E9470021F914B
:103EE0000895EF92FF920F931F93F62EE22E9FB745
:103EF000F894292F332790912201981711F02FBFA2
:103F00009BC02FBF8FB7F894282F3327809156017D
:103F1000813041F582E0809356012FBF8FB7F8942E
:103F20009927509331044093300410935103009328
:103F30005003E092E3016093D50D1092F40B1092C0
:103F400057018FBF0E94DF088FB7F894182F909108
:103F50006E06916C9F7E90936E066F2D772760FDA5
:103F60000BC011C0882321F42FBF84E090E06EC005
:103F70002FBF85E090E06AC0906290936E0684E067
:103F8000809356015CC0EE2009F448C083E0809322
:103F900056012091F40B4091E301241778F4E0914D
:103FA0005003F0915103E20FF11D80818093730063
:103FB0002F5F2093F40B9093740045C0292F2E7F20
:103FC00020936E068091D50D81FF07C08D7F809371
:103FD000D50D206120936E0603C09E7790936E06E8
:103FE00080916E068093740081E080935601209149
:103FF00050033091510360913004709131048091ED
:104000002201882319F08130F1F404C080E00E947D
:10401000551F19C080E00E94EF1215C061FF08C053
:1040200085E0809356019F7B906190936E0607C058
:1040300081E0809356011FBF81E090E007C080912E
:104040006E06809374001FBF80E090E01F910F9177
:10405000FF90EF9008950F931F932FB7F894332795
:1040600080915B028093210183E0809355012FBFF3
:10407000209121018FB7F8949927209322018FBFB7
:10408000222319F02130B1F40AC040914B0D509118
:104090004C0D00E414E021E063E080E009C04091B1
:1040A00076015091770107EB1DE021E063E081E0AC
:1040B0000E94711F1F910F9108951F93182F0E9446
:1040C000DF0880916E068A7F80936E06809374006D
:1040D0000E94DF0880916E06846080936E06809354
:1040E000740081E080935601809157018823C1F4C8
:1040F00020915003309151034091E30160913004CD
:104100007091310480912201882319F0813041F4AB
:1041100004C0812F0E94551F03C0812F0E94EF12FF
:104120001F9108959F92AF92BF92CF92DF92EF922C
:10413000FF920F931F93982EF90180910202813014
:1041400009F4DEC0813008F481C0843009F018C160
:1041500083E0809302028091F60B882309F010C15E
:10416000A280BB24CC24DD24DC2CCB2CBA2CAA24AA
:104170002081332744275527522F442733272227CE
:1041800081819927AA27BB27DC0199278827282B1B
:10419000392B4A2B5B2B83819927AA27BB27282BF6
:1041A000392B4A2B5B2BA22AB32AC42AD52AE090AA
:1041B0002504FF2400271127102F0F2DFE2CEE249D
:1041C00020912304332744275527522F4427332790
:1041D0002227809124049927AA27BB27DC0199274D
:1041E0008827282B392B4A2B5B2B80912604992773
:1041F000AA27BB27282B392B4A2B5B2BE22AF32A31
:10420000042B152BAE14BF04C006D106C9F480914F
:104210002204843099F440E050E060E070E0892DA1
:104220000E9453066093FC017093FD018093FE0190
:104230009093FF0181E00E94F205A2C081E001C0DD
:1042400082E0809366010E94E0139AC0CC2009F0BE
:1042500097C0E090EA02FF2400271127102F0F2DAE
:10426000FE2CEE242091E802332744275527522FB5
:104270004427332722278091E9029927AA27BB27C1
:10428000DC0199278827282B392B4A2B5B2B80911F
:10429000EB029927AA27BB27282B392B4A2B5B2B0C
:1042A000E22AF32A042B152B8FEFE8168FEFF8067E
:1042B0008FEF08078FEF1807A9F01092530381E0E2
:1042C0008093020282E0E82EF12C012D112D2AE2CA
:1042D00032E040E850E060E070E080912D040E9400
:1042E0008E114EC0E0918D04EF5FE0938D04FF27A7
:1042F000EE5FFE4F808180932D040E94DF1540C049
:1043000082E08093020260915303772788279927E0
:1043100020E534E040E050E00E94E54DAB01BC01F7
:1043200040585E4F6F4F7F4F80912D04813079F060
:10433000813028F0823099F0833011F518C0EE24D6
:10434000FF2400E514E020E030E086E017C0EE2412
:10435000FF2400E514E020E030E089E00FC0EE2407
:10436000FF2400E514E020E030E087E007C0EE2401
:10437000FF2400E514E020E030E088E00E94ED102A
:104380001F910F91FF90EF90DF90CF90BF90AF9073
:104390009F900895EF92FF920F931F93CF93DF9317
:1043A000CDB7DEB728970FB6F894DEBF0FBECDBFEE
:1043B000109255040091A4061091A5068091950CC9
:1043C000882319F0813049F404C080E00E9409126A
:1043D0000AC081E00E94091213C0882321F08130B5
:1043E00009F050C00DC000931202812F99278093CD
:1043F000110281E00E94700282E00E94700242C0BD
:104400000F5C114008F03EC08FB7F89448E050E0D0
:104410008E010F5F1F4FB80180EF9FE00E94340FA5
:104420008091FC019091FD01A091FE01B091FF01EE
:104430008B839C83AD83BE838FEF8F83188680919F
:104440000001909101019A838983780180EF9FE0B8
:10445000F70161917F018C010F5F1F4F0E94B54EE4
:10446000FFE0083F1F0711F0C801F2CFE199FECF2E
:1044700088E190E029E00FB6F894A89581BD0FBEC1
:1044800021BDFFCF28960FB6F894DEBF0FBECDBF7B
:10449000DF91CF911F910F91FF90EF9008958823A6
:1044A00021F488E00E94720908951092500180E082
:1044B0000E945B130E943308882311F00E94510868
:1044C00008958823A9F4809117048823E1F481E0FA
:1044D0008093170480936A0184E08093EC0B8091B1
:1044E000B70D88608093B70D81E00E94F3080895AE
:1044F0001092500180E00E945B130E9433088823D1
:1045000011F00E94510808958091A50C882309F4A8
:104510005AC01092A50C8091E401882341F11092B9
:10452000E4014091A606209140043327842F992767
:10453000019702C0359527958A95E2F720FF0AC0BA
:10454000473021F0483009F03EC002C080E008C08A
:1045500080E00AC0473019F04830A9F504C081E076
:104560000E944F22089581E00E9461220895809167
:10457000A30C882341F11092A30C4091A606209130
:1045800040043327842F9927019702C0359527953A
:104590008A95E2F720FD0BC0473019F0483099F4B6
:1045A00002C080E00AC080E00E94F31D08954730F9
:1045B00019F0483041F404C081E00E94401708958A
:1045C00081E00E94F31D08958091A50C882351F18C
:1045D0001092A50C8091E401882381F01092E401EF
:1045E0008091A606873019F0883041F404C081E03C
:1045F0000E944F2203C081E00E9461228091A30C9F
:10460000882381F01092A30C8091A606873019F0C0
:10461000883041F404C081E00E944017089581E091
:104620000E94F31D08951F920F920FB60F9211244E
:104630002F933F934F935F936F937F938F939F93AA
:10464000AF93BF93EF93FF930E94DF0880915601D1
:10465000843009F4DFC0863021F0833009F007C1CF
:1046600049C090917100987F80915701813041F449
:104670009034F1F583E0809356012091F40B4FC004
:104680009831B1F583E0809356019091F40B4091FD
:10469000E30120916E06941708F47DC0922F9E7F4F
:1046A00090936E068091D50D81FF07C08D7F80931A
:1046B000D50D906190936E0603C02E7720936E0601
:1046C00080916E068093740081E080935601209162
:1046D0005003309151036091300470913104809106
:1046E0002201882309F48EC0813009F0C0C08EC039
:1046F00084E0A5C0809157019091F40B813009F0BE
:1047000044C0E0915003F0915103E90FF11D8091F5
:10471000730080832091F40B2F5F2093F40B809122
:10472000E3012817A0F433279927019728173907A1
:1047300049F48091D50D82FD05C080916E068F7B76
:1047400080936E0680916E068093740090C0909165
:104750006E06292F2E7F20936E068091D50D81FF46
:1047600009C08D7F8093D50D206120936E068091C6
:10477000710003C09E7790936E0680916E068093C1
:10478000740081E08093560172C04091E301209152
:104790006E06941778F4E0915003F0915103E90FFD
:1047A000F11D8081809373009F5F9093F40B2093A1
:1047B00074005DC0922F9E7F90936E068091D50D00
:1047C00081FF07C08D7F8093D50D906190936E0619
:1047D00003C02E7720936E0680916E06809374003E
:1047E00081E08093560120915003309151036091F4
:1047F00030047091310480912201882319F08130B6
:10480000B1F504C080E00E94551F31C080E00E94D5
:10481000EF122DC08091D50D8E7F8093D50D909194
:104820006E069F7D90936E0680917100887F883020
:1048300049F080917100887F803121F081E00E94F1
:104840005D2015C0392F306430936E06909130048E
:10485000990F20E080915701813009F421E0922BDB
:104860009093730086E08093560130937400FF911B
:10487000EF91BF91AF919F918F917F916F915F91D8
:104880004F913F912F910F900FBE0F901F90189551
:10489000CF92DF92EF92FF920F931F93CFB6F894CF
:1048A000DD240E94B503DC01CB0166E470E00E94C8
:1048B000104E2BE0E22EF12CE80EF91EF092B90D0D
:1048C000E092B80D0E947C0600271127A8019701ED
:1048D0000E943907CFBE1F910F91FF90EF90DF909C
:1048E000CF9008951F93CF93DF938FB7F894C82F7D
:1048F000DD271C2F80913D0190913E010897C9F45E
:1049000089E00E948A0D83E00E945F1DC09A81E0C9
:1049100090E090933E0180933D018FB7F8949927E2
:1049200023E0209337018FBF85E00E947002CFBF44
:1049300030C0C0988091BC0D882311F085E001C083
:1049400084E00E948A0D83FD09C080E00E948A0DE8
:1049500083FF04C085E090E020E003C083E090E0A6
:1049600021E090933E0180933D01C09A1FBF222316
:1049700041F01092E20183E00E945F1D0E944824F2
:1049800008C00E947C0620E431E040E050E00E9434
:104990003907DF91CF911F9108951F93CF93DF9334
:1049A0008FB7F8949927109108018FBF123009F43E
:1049B00065C0133030F4112359F0113009F0ACC048
:1049C00048C0133009F474C0143009F0A5C0A2C067
:1049D000C0988FB7F894C82FDD2780913801909147
:1049E00039010297A1F583E090E09093390180931B
:1049F000380168E170E08DE10E944F1881E08093FA
:104A00004F0410923A0180B3992736E09695879526
:104A10003A95E1F7817090708093500488E00E948D
:104A2000700281E00E948A0D6FE772E08CE10E94C3
:104A30004F180E94B0180E94761866E57AE287E166
:104A40000E944F186FEF70E885E10E944F18CFBFAA
:104A500063C0C09886E00E948A0D0E94B0180E9430
:104A600076180E949317C09AC09883E00E948A0D1E
:104A7000C09A81E00E945F1D87E045C0C0988FB753
:104A8000F894C82FDD2760E080E00E949C04882312
:104A900011F0CFBF0AC0CFBF83E50E94CE0480E0F3
:104AA0000E94CE0480E00E94CE04C09A82E02FC013
:104AB0008FB7F894992720913D018FBF243039F0AA
:104AC000283041F0223011F50E94C11825C00E9403
:104AD000722422C0C09889E00E948A0DC09A83E0A7
:104AE0000E945F1D8FB7F894992721E030E0309342
:104AF0003E0120933D018FBF8FB7F8949927109303
:104B000037018FBF85E00E94700206C083E00E94DB
:104B10005F1D02C00E94851CDF91CF911F910895F7
:104B200078941F920F920FB60F9211242F923F92FA
:104B30004F925F926F927F928F929F92AF92BF92AD
:104B4000CF92DF92EF92FF920F931F932F933F9399
:104B50004F935F936F937F938F939F93AF93BF9385
:104B6000CF93DF93EF93FF93C6B5D7B58FB7F89484
:104B7000282E0E947C069B012C1B3D0B44275527A9
:104B80002B013C01421A530A640A750A80913D01C7
:104B900090913E018530910521F0069709F0E6C01D
:104BA000C5C086E090E090933E0180933D0131E0E6
:104BB000332E3092AA0310923F0180E00E94B60D7E
:104BC000E0912E04F0912F04E45AFF4F4186BB2759
:104BD000A72D962D852D8087C301AA27BB27878304
:104BE000872D9927AA27BB278683E0912E04F09171
:104BF0002F04E45AFF4F8581EC55F040882309F4D7
:104C000084C06081655077274F01860E971EF4019E
:104C10002081E1808281A3809927AA27BB27BA2F10
:104C2000A92F982F8827332744275527522F442709
:104C300033272227FF24002711278701FF24EE2492
:104C40002E293F29402B512BBB24CC24DD242A299B
:104C50003B294C295D29822B932BA42BB52B84193E
:104C60009509A609B7098383292F3A2F4B2F55277A
:104C700022839D014427552721838B2F9927AA271B
:104C8000BB278083C09824E0A40180E090E00E94CC
:104C90005217C09AF4012081E1808281A380992774
:104CA000AA27BB27BA2FA92F982F88273327442755
:104CB0005527522F442733272227FF240027112767
:104CC0008701FF24EE242E293F29402B512BBB24A2
:104CD000CC24DD242A293B294C295D29822B932BC6
:104CE000A42BB52B840D951DA61DB71D8383292FDD
:104CF0003A2F4B2F552722839D0144275527218387
:104D00008B2F9927AA27BB278083E0912E04F0914F
:104D10002F04818185FF02C030922C0283E00E9423
:104D20005F1D87B78F7E87BF84997AC01092AA03D0
:104D300081E00E94B60DE0912E04F0912F04818154
:104D400085FF0FC087E090E090933E0180933D0186
:104D50000E947C0620E031E040E050E00E943907EC
:104D600003C080E00E94481D849B5AC080913F018F
:104D7000882391F58091AA03882371F511E010939F
:104D8000AA030E94B60D80B320918D0C283098F4B0
:104D9000E091960CE20FFF27E770F070EE0FFF1F17
:104DA000EE0FFF1FEB5FF34F4082518262827382EE
:104DB0002F5F20938D0C10933F01D0935404C09328
:104DC000530484992DC0992744E0969587954A9578
:104DD000E1F7182F117001C010E08091AA03813013
:104DE000F9F41092AA030E94B60D10923F0111230C
:104DF000B9F48091530490915404C81BD90B2A979D
:104E000078F480918D0C882319F0815080938D0C5B
:104E100080912E0490912F04009711F00E94A50D0F
:104E20002FBEFF91EF91DF91CF91BF91AF919F91F5
:104E30008F917F916F915F914F913F912F911F9132
:104E40000F91FF90EF90DF90CF90BF90AF909F9029
:104E50008F907F906F905F904F903F902F900F902A
:104E60000FBE0F901F90189578941F920F920FB657
:104E70000F9211241F932F933F934F935F936F9340
:104E80007F938F939F93AF93BF93EF93FF9387B7D6
:104E90008F7E87BF78941FB7F89480913C049091DF
:104EA0003D04A0913E04B0913F040097A105B105D7
:104EB00009F051C080913D0190913E0185309105EE
:104EC00061F18630910530F48330910549F0049703
:104ED00081F51AC087309105F1F0089751F514C09B
:104EE000869B0FC084E090E090933E0180933D014B
:104EF0000E947C0627E030E040E050E00E94390745
:104F000018C00E94482415C00E946A15882389F49D
:104F10000E9472240EC080E00AC089E00E948A0DBF
:104F200081E00E94B60D83E00E945F1D87E00E9431
:104F3000481D8091380190913901019771F482E008
:104F400090E09093390180933801DE98DE9A80E0FA
:104F50000E94EF1402C00E949906812F99278FBFEB
:104F6000FF91EF91BF91AF919F918F917F916F9141
:104F70005F914F913F912F911F910F900FBE0F9016
:104F80001F901895EF92FF920F931F93CF93DF938B
:104F90008B01809151049091520486FF47C18F7B11
:104FA0008F3309F095C1C0916801D0916901588192
:104FB00050935D028091590290915A02853091057B
:104FC00009F443C08630910509F48AC0029709F0BC
:104FD00026C185E090E090935A0280935902409157
:104FE0000D02852F99270196242F3327281739077B
:104FF0004CF1B79906C00E9904C0451B415040932F
:105000000D0240915D024E35E8F44423A1F0BE014B
:105010006F5F7F4F483018F047E050E007C086E0F0
:1050200090E090935A0280935902552780E090E0D7
:105030000E9448054DC11092AE03C09A84E00E94C0
:105040005F1DEAC00E94E21D43C186E090E090939C
:105050005A028093590280912C04882309F439C0A4
:105060008091E4068823A9F5898185FF32C08F816C
:105070004E812FB7F894332760914B0470914C0404
:105080002FBF9927982F88275527842B952B861774
:10509000970759F08F812E819927982F88273327DA
:1050A000822B932B8F5F9F4FA1F489818770813072
:1050B00081F4C09AC0988AE00E948A0DC09AC09874
:1050C00040915D0247502896BE018FE30E94531C19
:1050D000FFC040915D02475055272896BE01A6CFDC
:1050E000C09A80913D03882339F484E00E945F1DBB
:1050F00080913D03882311F0B7990AC00E9B08C028
:1051000090918D0C992321F080915D028B3038F4C1
:1051100080916801909169010E94A50D3FC0913076
:1051200011F5E091960CFF27EE0FFF1FEE0FFF1F0A
:10513000EB5FF34F2081318142815381E09168011F
:10514000F0916901E45AFF4F2187BB27A52F942FC7
:10515000832F8087CA01AA27BB278783252F332760
:105160004427552726838091960C9927019668E05D
:1051700070E00E94244E8093960C80918D0C81509B
:1051800080938D0C882351F0809168019091690182
:105190000E94A50D1092960C10928D0C80915D02CC
:1051A000FE01E80FF11D808187FF36C0012BA1F1C0
:1051B00069816770C0916801D0916901623041F5E1
:1051C000E0912E04F0912F04309731F180913D0150
:1051D00090913E01079701F593818B819817E1F437
:1051E00087B78F7E87BFDF01A45ABF4F988181E0C8
:1051F000FD018483FE01E90FF11D829131968C93AC
:1052000080818F77FD01818380E00E94481D04C06A
:10521000613011F48CE02AC00E94AD1D59C010927B
:10522000AE03C09A84E00E945F1D52C08E3309F025
:105230004FC0C09A80913D0190913E010897C9F4FA
:10524000C09889E00E948A0DC09A83E00E945F1D89
:1052500081E090E090933E0180933D018FB7F894F8
:10526000992723E0209337018FBF85E00E947002C9
:105270002FC08091BC0D882349F484E090E0909386
:105280003E0180933D010E94722422C083E00E946F
:105290005F1D83E090E090933E0180933D010E946A
:1052A000B503DC01CB0166E371E00E94104E4BE0D8
:1052B000E42EF12CE80EF91EF0920102E0920002B9
:1052C0000E947C0600271127A80197010E94390738
:1052D000DF91CF911F910F91FF90EF9008951F9252
:1052E0000F920FB60F9211242F933F934F935F931A
:1052F0006F937F938F939F93AF93BF93EF93FF939E
:105300002FB1E0910406F0910506309739F08091B5
:105310008E0490918F04E80FF91F208380918E04F2
:1053200090918F04019690938F0480938E0480E077
:105330000E94B304409178015091790180918E04CC
:1053400090918F048417950718F40E94DA041CC00A
:1053500060910406709105068091490D90914A0D67
:10536000109205061092040610924A0D1092490DF3
:10537000109279011092780110928F0410928E048D
:105380002FB120E00E94C227FF91EF91BF91AF9112
:105390009F918F917F916F915F914F913F912F914D
:1053A0000F900FBE0F901F901895AF92BF92CF92A3
:1053B000DF92EF920F931F935B016C010E948E03AB
:1053C000AB01BC0181E0E82E9601850184E00E94DA
:1053D0006F031F910F91EF90DF90CF90BF90AF9030
:1053E0000895CF92DF92EF92FF920F931F936C017B
:1053F0007B010E94B503DC01CB01B6010E94104E77
:10540000E80EF91E00271127C801B7010E94D5290F
:105410001F910F91FF90EF90DF90CF9008950F9321
:105420001F93CF93DF93EC01E0914401FF27EE0F30
:10543000FF1FEF52F44F00811181662329F06CE1C8
:1054400070E08CE190E033C08091430183FF41C064
:10545000C45ADF4F8C81CC55D0408823D1F58F8141
:105460009927982F88272E813327822B932B0E94F0
:10547000EC09982F8F3F71F08EE0989FF001112476
:10548000E45FFA4F85858F5F8587853018F0CF01FF
:105490000E94650A83E10E947002F80183818150B5
:1054A0008383882339F067E070E087E090E00E9412
:1054B000F1293FC00E94800A809143018F7E809332
:1054C000430167E070E087E090E00E94F12940E04E
:1054D0002CC00E94800A809143018F7E80934301FB
:1054E00067E070E087E090E00E94F1298F819927C2
:1054F000982F88272E813327822B932B0E94EC092B
:10550000982F8F3F89F08EE0989FF0011124E45F7F
:10551000FA4F84858F5F848785858F5F8587853087
:1055200018F0CF010E94650A41E0BE01C8010E9447
:10553000520FDF91CF911F910F910895CF92DF927B
:10554000FF920F931F93CF93DF93CDB7DEB72297D0
:105550000FB6F894DEBF0FBECDBF8091430184FD2E
:10556000BAC090E080914601882309F491E0992324
:1055700009F0B1C08091EF01882359F420E08091B7
:10558000EE0B9091EF0B8F5F9F4F09F021E02223EC
:1055900031F0CE0101960E94260B882339F060E19C
:1055A00077E280E090E00E94D52995C0E091440127
:1055B000FF27EE0FFF1FEF52F44F00811181D8013A
:1055C000ED91FC91F080C090EE0BD090EF0BCF01ED
:1055D0000E94A50A20E09091EC01891708F421E0CF
:1055E000222359F00E94800AF801808191810E9453
:1055F000E80AC8010E94070B6BC08091EF01D80137
:10560000ED91FC91882381F0A0914D04B0914E045E
:1056100088E601900D928150E1F760E0F801808109
:1056200091810E940F2A57C089819A818787892F8B
:1056300099278687D801ED91FC91119784858F7306
:1056400084874D915C91DA011196FD012181332708
:10565000322F2227FA01818199278062282B392B4A
:105660002183232F3327FD0121838091430188600B
:105670008093430180FF0BC0D801ED91FC9184859C
:1056800080648487809143018E7F80934301D80199
:10569000ED91FC91C6828D2D9927878381E78387C1
:1056A000B3EFFB0E4F2D5527BF0180E00E945D1A1E
:1056B0009927882331F480914301806180934301CD
:1056C0000AC0823041F4D801ED91FC918DE58083D0
:1056D00080E10E94700222960FB6F894DEBF0FBEE2
:1056E000CDBFDF91CF911F910F91FF90DF90CF90B1
:1056F0000895AF92BF92CF92DF92EF920F931F93D4
:105700005B016C010E948E03AB01BC0111E0E12E34
:105710009601850182E00E946F031F910F91EF9027
:10572000DF90CF90BF90AF900895EF92FF920F93CC
:105730001F938091140190911501A0911601B091D1
:105740001701B695A795979587958093A503909394
:10575000A603A093A703B093A8030E94B503E0900B
:10576000A503F090A6030091A7031091A803A80138
:1057700097010E94374E6E0D7F1D801F911F609311
:10578000A5037093A6038093A7039093A803109298
:10579000EB0B0E94792B1F910F91FF90EF900895D2
:1057A00080E890E0A0E0B0E08093140190931501B0
:1057B000A0931601B09317010E94952B0895AF9204
:1057C000BF92CF92DF92EF920F931F935B016C0118
:1057D0000E948E03AB01BC0181E0E82E9601850199
:1057E00086E00E946F031F910F91EF90DF90CF90A2
:1057F000BF90AF9008951F93A39AAB9817981F9AE4
:1058000089B78F7789BF179A1F9AAB9880E0AB9AB8
:10581000AB988F5F8930D9F7179A1F9AAB98AB9ADC
:105820001F98AB98AB9A1F9AAB988091ED0190911D
:10583000EE018F7190709093EE018093ED010E94C4
:105840009C090E94AA09882329F010924D0181E049
:1058500090E056C08091ED019091EE018630910567
:10586000D1F18730910538F48330910571F00597B7
:1058700009F044C018C08730910509F14E97F1F541
:105880006BE070E080E090E017C017981F9A80E00E
:105890000E94B60980914E0180FD0AC06AE471E061
:1058A00080E090E009C017981F9A80E00E94B60936
:1058B0006AEF70E080E090E00E94DF2B1FC00E9442
:1058C000D109182F0E94D1090E94E70910934E01B7
:1058D00086E10E9470028091ED0B0E949C090E945B
:1058E000AA09882321F081E080934F0104C08091B0
:1058F000ED0B80934E0186E10E94700280E090E003
:105900001F9108958FB7F89499272091ED06209361
:105910001B0123E0209351018FBF20911B01222303
:1059200021F0213009F03FC025C080911801882363
:1059300099F080914D01882379F481E080934D01A5
:1059400083E090E09093EE018093ED0110924D0D75
:105950000E94FB2B882339F180E00E941313D89A10
:10596000E0910701FF27EE0FFF1FEF5EFD4F118251
:105970001082089580911801882391F080914D0143
:10598000882371F420934D0185E090E09093EE011F
:105990008093ED0120934D0D0E94FB2B882319F07D
:1059A00081E00E9413130895AF92BF92CF92DF92CD
:1059B000EF92FF920F931F930E948E037B018C0145
:1059C0006091EE057091EF058091F0059091F105E1
:1059D000A0906D01B0906E01C0906F01D0907001E9
:1059E000A114B104C104D10409F44EC0EFB7F89476
:1059F0002091710620FD36C0A8019701261B370BA8
:105A0000480B590B2A153B054C055D05C8F4A21A35
:105A1000B30AC40AD50A80916D0190916E01A091DC
:105A20006F01B0917001821B930BA40BB50B809397
:105A30006D0190936E01A0936F01B093700115C03A
:105A400081E090E0A0E0B0E080936D0190936E0162
:105A5000A0936F01B093700131E0A32EB12CC12C43
:105A6000D12C03C02E7F209371068E2F99278FBFD4
:105A70000E948E03AB01BC0121E0E22E960185015C
:105A800089E00E946F0305C08091F6058D7F8093A9
:105A9000F6051F910F91FF90EF90DF90CF90BF9090
:105AA000AF900895FF920F931F93CF93DF93F82E3B
:105AB000282F33278BE090E0289FE001299FD00D0D
:105AC000389FD00D1124C559DE4F81E090E09983B5
:105AD00088831A868A819B81AC81BD810097A1054C
