S01800006275696C642F6D6963617A2F6D61696E2E73726563E5
S11300000C94CA010C946C0E0C94760E0C94800E15
S11300100C948A0E0C94940E0C949E0E0C9433172C
S11300200C94A80E0C94E9010C94E9010C94F223AD
S11300300C9493250C94360E0C944C0E0C940410D2
S11300400C94250E0C94CC270C94E9010C94E90132
S11300500C94E9010C94D00E0C94E9010C94E90180
S11300600C94410E0C94E9010C94E9010C94E901FF
S11300700C94E9010C94E9010C94E9010C94E90154
S11300800C94E9010C9475210C94E9017D10821003
S113009078107D108210781087107D1082107810EF
S11300A087107D10821078107D1082107810E71070
S11300B0EC10E210E710EC10E210F110E710EC1075
S11300C0E210F110E710EC10E210E710EC10E2106F
S11300D09C11A31195119C11A3119511AA119C11A6
S11300E0A3119511AA119C11A31195119C11A3118F
S11300F09511FD1C081DF21CFD1C081DF21C131D8E
S1130100FD1C081DF21C131DFD1C081DF21CFD1C0A
S1130110081DF21C5F1D6A1D541D5F1D6A1D541DC0
S1130120751D5F1D6A1D541D751D5F1D6A1D541DBF
S11301305F1D6A1D541DF6400B41474168412B4227
S113014037428A428D42944297429A42BE42D342F7
S1130150D642094361437343E440574465444545EB
S113016008460B461D4620462346264629462C466D
S11301702F465E46A846C946CC46344753483747BF
S11301803C473F475A487B489C48EB40AF480000F7
S11301902110422063308440A550C660E770088176
S11301A029914AA16BB18CC1ADD1CEE1EFF13112ED
S11301B0100273325222B5529442F772D6623993C6
S11301C018837BB35AA3BDD39CC3FFF3DEE362243D
S11301D0433420040114E664C774A44485546AA516
S11301E04BB528850995EEE5CFF5ACC58DD55336CD
S11301F0722611163006D776F6669556B4465BB766
S11302007AA719973887DFF7FEE79DD7BCC7C4489C
S1130210E5588668A7784008611802282338CCC9B5
S1130220EDD98EE9AFF9488969990AA92BB9F55A2C
S1130230D44AB77A966A711A500A333A122AFDDB05
S1130240DCCBBFFB9EEB799B588B3BBB1AABA66CFC
S1130250877CE44CC55C222C033C600C411CAEED55
S11302608FFDECCDCDDD2AAD0BBD688D499D977E0C
S1130270B66ED55EF44E133E322E511E700E9FFFA5
S1130280BEEFDDDFFCCF1BBF3AAF599F788F88915B
S1130290A981CAB1EBA10CD12DC14EF16FE180103F
S11302A0A100C230E3200450254046706760B98342
S11302B09893FBA3DAB33DC31CD37FE35EF3B1028F
S11302C09012F322D2323542145277625672EAB552
S11302D0CBA5A89589856EF54FE52CD50DC5E234DF
S11302E0C324A01481046674476424540544DBA722
S11302F0FAB79987B8975FE77EF71DC73CD7D3262F
S1130300F2369106B01657667676154634564CD9B1
S11303106DC90EF92FE9C899E9898AB9ABA944587E
S1130320654806782768C018E1088238A3287DCB81
S11303305CDB3FEB1EFBF98BD89BBBAB9ABB754ACE
S1130340545A376A167AF10AD01AB32A923A2EFD11
S11303500FED6CDD4DCDAABD8BADE89DC98D267C1E
S1130360076C645C454CA23C832CE01CC10C1FEF61
S11303703EFF5DCF7CDF9BAFBABFD98FF89F176E6E
S1130380367E554E745E932EB23ED10EF01E00089A
S11303901C18141011241FBECFEFD0E1DEBFCDBF57
S11303A011E0A0E0B1E0E8E5FCE900E00BBF02C029
S11303B007900D92A633B107D9F71FE0A6E3B1E089
S11303C001C01D92AE3FB107E1F70E94E3480C94CF
S11303D02B4E0C9400008FB7F894992708958FBF83
S11303E00895CF92DF92EF92FF920F931F93CF93D2
S11303F0DF936C018B017A01E901232B19F1FB01D5
S113040083E0F695E7958A95E1F7EE0DFF1D80816F
S113041099279B012770307002C0959587952A957E
S1130420E2F780FF06C0F6017183608380E090E00C
S11304300BC0CB010196BE010E94794DBC0180170F
S11304409107E9F681E090E0DF91CF911F910F9140
S1130450FF90EF90DF90CF900895282F9FB7F894E6
S1130460E82FFF27E555F94F80818F3F81F4E09114
S1130470E30FE21771F40BC02093100F04C0FF27A1
S1130480E555F94F20832093E30F20E007C025E0D2
S113049005C08091100F8F3F91F7EECF892F9927D8
S11304A08FBF822F9927089589E00E942D029927F2
S11304B0089580E10E942D029927089586E20E9402
S11304C02D0299270895CF93DF93982F8FB7F8942F
S11304D0282F3327422F80916001882321F581E062
S11304E0809360019093E5012FBF8FB7F894C82FD4
S11304F0DD279C2F80913101843099F48091600133
S1130500813021F487E20E942D0209C0823049F42F
S11305108091E5018093310183E080936001CFBF36
S113052007C09FBF05C08091E501891721F42FBF43
S113053080E090E021C0E92FFF27E55EF04F808145
S11305408F3F89F4E0913001E91789F40CC090934E
S11305502F0104C0FF27E55EF04F90839093300194
S113056080E090E002C085E090E04FBF05C080913C
S11305702F018F3F79F7EBCFDF91CF910895CF9281
S1130580DF92EF92FF920F931F93CF93DF93782F15
S1130590C62FDD278BE090E0C89FF001C99FF00DC6
S11305A0D89FF00D1124ED55F74F8081882319F061
S11305B085E090E048C0643018F480E091E002C027
S11305C080E090E0AA27BB27BA2FA92F982F88276D
S11305D082179307A407B507A0F1821B930BA40B02
S11305E0B50B8C159D05AE05BF0558F18BE090E069
S11305F0C89FF001C99FF00DD89FF00D1124ED554F
S1130600F74F70832383348345835683C782D08610
S1130610E186F28612830183613069F0613028F04B
S1130620623059F0633059F003C080E00E946302E5
S113063080E090E008C081E0F9CF82E0F7CF83E06A
S1130640F5CF86E090E0DF91CF911F910F91FF905D
S1130650EF90DF90CF900895EF920F931F93AE2DFC
S113066099E0899FF0011124EE53F64F40835183A2
S1130670628373830483158326833783A170808503
S11306808E7F8A2B826080878EE00E942D021F91CC
S11306900F91EF9008957FB7F89462B72091C90144
S11306A03091CA014091CB015091CC0106B601FEB4
S11306B00FC081B792B7280F311D411D511D2F5F07
S11306C03F4F4F4F5F4F290F311D411D511D04C036
S11306D0260F311D411D511D872F99278FBFCA0138
S11306E0B90108952F923F924F925F926F927F9239
S11306F08F929F92AF92BF92CF92DF92EF92FF922E
S11307000F931F93CF93DF93CDB7DEB729970FB61F
S1130710F894DEBF0FBECDBF6FB76983F894209005
S113072075083090760840907708509078086624D1
S113073077248824BEE4AB2EA3E8BA2ECC24DD248F
S1130740EE24FF2400E010E0222D332D442D552DFE
S1130750662D772D882D90E00E94CD4B2A833B8314
S11307604C835D836E837F8388879987822E932E43
S1130770A42EB52E2401350100E20E94CB4CA22EFA
S1130780B32EC42ED52EA3019201569547953795C5
S113079027952A0D3B1D4C1D5D1D57FF05C05F7736
S11307A02F5F3F4F4F4F5F4F20937508309376086C
S11307B04093770850937808E9818E2F99278FBF4B
S11307C0CA01B90129960FB6F894DEBF0FBECDBF9A
S11307D0DF91CF911F910F91FF90EF90DF90CF9019
S11307E0BF90AF909F908F907F906F905F904F904D
S11307F03F902F9008950E947203DC01CB0108956D
S1130800FC0182819927582F442781819927482BFD
S1130810592BCA01892F99278695869583709070E4
S11308208230910559F08330910559F0892B19F4E0
S113083020E030E008C02CE93FEF05C022E030E0C2
S113084002C028E030E0CA0184E0989F812D9927F6
S113085011248230910559F08330910559F0892B88
S113086019F480E090E008C08CE99FEF05C082E0B5
S113087090E002C088E090E0280F391F2A5F3F4FC4
S1130880CF01820F931F0895282F9FB7F8946623F2
S113089049F0E82FFF27EC52F54F8081882311F0AF
S11308A021E006C0E22FFF27EC52F54F608320E0E1
S11308B0892F99278FBF822F99270895E82F8FB703
S11308C0F894282F332790E0FF27EC52F54F8081CE
S11308D0861709F491E02FBF892F99270895682F6F
S11308E081E00E945E0499270895882311F06E9A8E
S11308F008956E980895882311F06F9A08956F985B
S1130900089580E00E947504BA9ABB98B99AB89A7F
S11309106C9A80E00E947B046B986A9881E00E9444
S11309207504709A8DB18C7F8DB908950F931F93C0
S1130930CF93DF93182F8FB7F894C82FDD270C2F90
S113094061E080E00E944404882321F0CFBF85E069
S113095090E024C080910A018823A1F480913C0195
S1130960823081F409C082E080933C0110920A0134
S11309700E948104B89AC0981093070180E00FBFC9
S113098099270CC080913C01882369F38FB7F894B0
S113099099271092D40A8FBF81E0F1CFDF91CF91D4
S11309A01F910F9108951F93182F81E00E947504E1
S11309B01FB9779BFECF8FB199271F9108958F920E
S11309C09F92AF92BF92CF92DF92EF92FF920F93DA
S11309D01F93CF93DF938FB7F8949927C0908F0F0D
S11309E0D090900F8090290A90902A0AC091D10843
S11309F0D091D2082091780130917901EAE0AE2EAD
S1130A00B12CAC0EBD1E2A153B0508F459018FBF4D
S1130A107401EC0EFD1E86010C0F1D1F14C0C114C1
S1130A20D10419F0F801808101C080E00E94D30450
S1130A308114910411F0F701808321960894E11C3C
S1130A40F11C0F5F1F4FC5010197C817D90738F371
S1130A5081E00E947B049FB7F894C114D10431F063
S1130A60CC0EDD1EF60180818FB901C01FB8D09372
S1130A70D208C093D108892F99278FBF80E090E0D6
S1130A80DF91CF911F910F91FF90EF90DF90CF9066
S1130A90BF90AF909F908F9008952FB7F89433270D
S1130AA050937901409378019093900F80938F0F26
S1130AB070932A0A6093290A1092D2081092D108DE
S1130AC02FBF452B29F08FB10E94DF049927089589
S1130AD08AE00E942D0280E090E008958FB7F89498
S1130AE099271092D60A8FBF0895EEE8F1E069279E
S1130AF0660FF11DE60FF11DC895982F802D3196D4
S1130B00C895902508951F93CF93DF93142FEB017D
S1130B1004C069910E94750511501123D1F7DF912A
S1130B20CF911F9108951F93982F1FB7F894809128
S1130B306101823099F580913401891779F58091AA
S1130B40320120E030E08F3F11F421E030E0232B2C
S1130B50F1F49FEF909334018F3F19F42FEF30E0BD
S1130B600DC0282F3327F901E256F84F8081809376
S1130B7032018F3F11F490933301908320938C08BA
S1130B8081E08093610188E20E942D0205C08FEF0D
S1130B90809334011092610121E001C020E0812F93
S1130BA099278FBF90E0213009F491E081E09827E4
S1130BB0892F99271F910895982F96959695969524
S1130BC0E1ECF9E0E90FF11D877021E030E002C0AB
S1130BD0220F331F8A95E2F7808182239927089593
S1130BE0E82F9A01AB01BB27A52F942F832FBC01BB
S1130BF0E13049F0E13078F0E23041F0E33049F09F
S1130C0060E078E008C060507F4F05C060507E4FC0
S1130C1002C060507D4F88279927982F872F762F01
S1130C206627307044275527620F731F841F951F52
S1130C3008958FB7F89460912B0970912C092CB505
S1130C403DB506B602FE04C06F5F7F4F2CB53DB5BF
S1130C5099278FBF88279927CB01772766274427B1
S1130C605527622B732B842B952B0895EF92FF92BB
S1130C700F931F930E9419067B018C012091880811
S1130C803091890840918A0850918B0880917E08A0
S1130C9090917F08A0918008B0918108820F931FE2
S1130CA0A41FB51FE216F3060407150730F08217D8
S1130CB09307A407B50758F005C082179307A40744
S1130CC0B507E0F5E816F9060A071B07B8F59C0115
S1130CD0AD012E193F09400B510B213060E8360756
S1130CE060E0460760E0560768F180E090E8A0E025
S1130CF0B0E0E80EF91E0A1F1B1FE0928808F0926C
S1130D00890800938A0810938B0880E090E8AFEF7D
S1130D10BFEFE80EF91E0A1F1B1F20503048404049
S1130D20504020937E0830937F084093800850936E
S1130D30810820E030E840E050E014C020E030E0DA
S1130D4040E050E08093880890938908A0938A0833
S1130D50B0938B0810927E0810927F08109280083E
S1130D6010928108A901B7012CB53DB5C9018E19AE
S1130D709F0903968417950720F0B9016D5F7F4F93
S1130D8002C0640F751F6115710511F461E070E014
S1130D90615070407BBD6ABD80E186BF87B78061CA
S1130DA087BF1F910F91FF90EF9008950F931F93AA
S1130DB00FB7F8941127609388087093890880937B
S1130DC08A0890938B0820937E0830937F08409381
S1130DD08008509381080E9436060FBF1F910F911F
S1130DE0089510926701823031F0833041F08130F0
S1130DF049F480E101C08EE00E94930508958FE0DC
S1130E000E9493050895813049F0813078F0823052
S1130E1041F0833049F060E070E008C060507E4FDC
S1130E2005C060507D4F02C060507F4FCB010895D4
S1130E30982F4FB7F894552722B3277D22BB80E023
S1130E4097FD939A959A8299806822BB96FD939A0E
S1130E50959A8299806422BB95FD939A959A82997A
S1130E60806222BB94FD939A959A8299806122BBF9
S1130E7093FD939A959A8299886022BB92FD939AE6
S1130E80959A8299846022BB91FD939A959A82994E
S1130E90826022BB90FD939A959A829981604FBF9C
S1130EA099270895EF92FF920F931F93CF93DF93A7
S1130EB0982F8FB7F894E82E80915901833009F068
S1130EC045C080912201891709F040C08091C10971
S1130ED0882309F046C03EC0EF2DE695E695E695D9
S1130EE0FF274F2D5527EF53F64F9A012770307087
S1130EF081E090E002C0880F991F2A95E2F780955F
S1130F00208128232083C093580111C02196C23028
S1130F10D10511F4C0E0D0E0FC2E8C2F0E94DC053A
S1130F208823D1F6C017D10789F74FEF50E04093DB
S1130F30C0098FEF8093220181E08093590180E200
S1130F400E942D02EFBE80E090E011C0EFBE81E070
S1130F5090E00DC082E080932201109259013798ED
S1130F60F1CF80915801082F1127E801CFCFDF91ED
S1130F70CF911F910F91FF90EF9008958091170FDB
S1130F80882311F0813011F478E008C0882329F017
S1130F90813019F02FE170E002C070E02EE1622F81
S1130FA0EFB7F894809146078E7F8093460787B108
S1130FB0982F9F71829586958695837019F080E0AD
S1130FC090E012C0822F8850863118F081E090E0C2
S1130FD00BC040E050E03327892F992728173907A1
S1130FE011F441E050E0CA01982F9170990F80915B
S1130FF046078178262F2F71422F440F440F892BE7
S1131000842B80934607332727B9783059F580918C
S1131010110F9091120F21E08638920718F087E0A3
S113102090E01FC0833C910518F086E090E019C061
S11310308136910518F085E090E013C08033910566
S113104018F084E090E00DC08831910518F083E039
S113105090E007C00C9718F082E090E002C080E0B6
S113106090E0782F7770887D872B886D992786B9D3
S11310708E2F99278FBF08954FB7F894209151016F
S1131080222319F421E030E00FC080911A0182304C
S113109019F020E030E008C080E090E021502230D8
S11310A010F481E090E09C01842F99278FBF822F58
S11310B099270895CF93DF938FB7F894C82FDD272E
S11310C09C2F80911A018230A9F4809151018130C2
S11310D021F487E10E942D0209C0823059F48091E5
S11310E0F50A80931A0183E080935101CFBF80E019
S11310F090E003C09FBF81E090E0DF91CF9108951D
S1131100CF93DF93982F8FB7F894282F3327422F4C
S113111080915401882321F581E0809354019093B8
S113112063082FBF8FB7F894C82FDD279C2F8091B9
S11311301D01813099F480915401813021F48AE1B8
S11311400E942D0209C0823049F480916308809383
S11311501D0183E080935401CFBF07C09FBF05C02A
S113116080916308891721F42FBF80E090E021C0AB
S1131170E92FFF27E75FF74F80818F3F89F4E091E4
S11311801C01E91789F40CC090931B0104C0FF27CC
S1131190E75FF74F908390931C0180E090E002C0DA
S11311A085E090E04FBF05C080911B018F3F79F728
S11311B0EBCFDF91CF91089581E08093500180E0DF
S11311C00E948008992708958FB7F8949927209151
S11311D074002093750A8FBF08950E94E4088091DB
S11311E0750A8E7F80698093750A809374000895D0
S11311F01F93CF93DF93982F8FB7F894282F33271B
S1131200422F80915501882309F044C011E01093C6
S113121055019093D9062FBF8FB7F894C82FDD27B7
S1131220809156018823B9F48898899810927100A6
S113123081E48093700010927200109274000E94F6
S1131240E4088091750A84608E7F8093750A809388
S1131250740010935601CFBF8FB7F894C82FDD27C1
S11312609C2F80912001823099F480915501813026
S113127021F48DE10E942D0209C0823049F480914D
S1131280D9068093200183E080935501CFBF07C026
S11312909FBF05C08091D906891721F42FBF80E034
S11312A090E021C0E92FFF27EB55F94F80818F3F54
S11312B089F4E0911F01E91789F40CC090931E0191
S11312C004C0FF27EB55F94F908390931F0180E0F2
S11312D090E002C085E090E04FBF05C080911E0100
S11312E08F3F79F7EBCFDF91CF911F910895982F1E
S11312F08150883018F082E090E008958091270FA3
S1131300882319F085E090E0089581E08093270F09
S11313108093C6019093AE0A892F9927019721E003
S113132030E002C0220F331F8A95E2F780918208D1
S1131330822B8093820880E00E94F80880E090E08D
S1131340089590E087FF02C01F9A01C01F98AB9ACE
S1131350AB989F5F983011F0880FF4CF08951798D9
S11313601F9AAB9A0F9B03C081E090E00895AB985D
S113137080E090E008952FB7F89499B79F7799BFCC
S113138090E898BF9AB790689ABF882319F08AB7F3
S1131390806402C08AB78F7B8ABF89B7806889BF9F
S11313A0822F99278FBF80E090E0089580E020E0AD
S11313B0AB9A0F998160273031F0880FAB982F5F7B
S11313C0283011F0F5CFAB98179A1F98AB9AAB98C9
S11313D017981F9A99270895179A1F9AAB9AAB9852
S11313E00895AC01E1E3F9E080E090E09C0185819F
S11313F080FF05C0808191818417950741F0C90160
S113140001963E968A30910589F72FEF30E0C901A5
S113141008950E94F1098F3F99F09927880F991F29
S1131420FC0123E0EE0FFF1F2A95E1F7E81BF90BFF
S1131430EF5CF64F858181FF03C082859385089513
S11314408FEF90E008950E94F1098F3F19F481E035
S113145090E008959927880F991FFC0143E0EE0F4F
S1131460FF1F4A95E1F7E81BF90BEF5CF64F858106
S11314708860858380E090E008959C016E5F63330B
S113148018F080E090E008950C9611F0C9010E96D2
S11314900895FC0180899927982F8827218933276B
S11314A0822B932B0895FC01CB01428553859A012D
S11314B073E0220F331F7A95E1F7240F351F2B5F5A
S11314C03F4F820F931F6AE070E00E94794D73874B
S11314D062870895FC0164859585662339F48AE062
S11314E0989FB00111246A5070400BC077278AE09E
S11314F0989FC00111240E948D4D6A50704014863B
S11315001586CF010E94530A089580914401E82F63
S1131510FF27EE0FFF1FEF58F14F0190F081E02DF0
S113152020914601222351F08F5F809344018D3036
S113153011F410924401215020934601CF010895E3
S1131540FC0180899927982F882721893327822BAA
S1131550932B0895AF92BF92DF92EF92FF920F9375
S11315601F93CF93DF935C01D090CE01F0909F083E
S1131570EE2425C00F2D03701127C5010E94A00A77
S1131580F801EE0FFF1FEE0FFF1FE00FF11FE452F3
S1131590F94F208131818217930779F4D5011C9684
S11315A0ED019E818281891741F499818481891793
S11315B021F49F818381891721F0E394F394ED143E
S11315C0C9F68E2D9927DF91CF911F910F91FF902E
S11315D0EF90DF90BF90AF900895AC0120919C08EC
S11315E02C3018F081E090E0089580917C08682FF9
S11315F0620F712D711DFB016C30710508F03C9771
S1131600EE0FFF1FEB54F54F518340832F5F209360
S11316109C0880E090E00895AC0120919B082C3058
S113162018F081E090E008958091220F682F620FF6
S1131630712D711DFB016C30710508F03C97EE0FA4
S1131640FF1FEB51F04F518340832F5F20939B0882
S113165080E090E008950F931F93CF93DF93EC0104
S1131660892BE9F020918E0E30918F0E8FEF2F3F52
S11316703807A9F08091D101813019F419821882B8
S11316800BC00091900E1091910EC9010E94090A9D
S1131690080F191F1983088380E090E002C081E0DD
S11316A090E0DF91CF911F910F9108959C01685FA5
S11316B0633318F080E090E008950C9611F0C901AE
S11316C0449608954FB7F8945527FC0173E0F695B6
S11316D0E7957A95E1F7E858F54F8770907021E027
S11316E030E002C0220F331F8A95E2F78081822BFB
S11316F080834FBF0895DF92EF92FF920F931F9361
S11317008FB7F894282F3327D22E91B782B746B7D4
S1131710981711F041FF02C02FBF6AC08091CF0813
S11317208823E1F10E944B03E090D00AF090D10AA3
S11317300091D20A1091D30A2091EB013091EC016F
S11317404091ED015091EE016E197F09800B910BD0
S1131750621773078407950720F01092CF0871E091
S11317601EC02E0D3F1D401F511F8091C901909135
S1131770CA01A091CB01B091CC01281B390B4A0BB3
S11317805B0B273E31054105510540F4822F223081
S113179010F070E005C070E082E002C070E086EEF8
S11317A0682F615000B601FCFDCF82B7681709F4B9
S11317B06F5F2091C9013091CA014091CB015091D2
S11317C0CC01DA01C9010196A11DB11D860F911D3D
S11317D0A11DB11D82179307A407B50710F4622F4A
S11317E0609561BFDFBE772319F08DE00E942D0262
S11317F01F910F91FF90EF90DF900895AFB7F89489
S1131800BB27E1E0E093CF086093D00A7093D10A3C
S11318108093D20A9093D30A2093EB013093EC0186
S11318204093ED015093EE01AFBF0E947B0B0895EE
S113183008950F931F93CF93DF93282F3327C90164
S1131840880F991FFC0113E0EE0FFF1F1A95E1F7B3
S1131850E81BF90BEF5CF64F858182FF03C06283BE
S11318608B7F85838281962F981B628383818F5F10
S1131870838386E08683992361F08481890F815074
S113188084839B3030F0148281E083831782118635
S11318901086C901880F991FFC01A3E0EE0FFF1FFA
S11318A0AA95E1F7E81BF90BEF5CF64F83818330CF
S11318B008F471C000811181C1E3D9E08881998164
S11318C08017910709F061C08D8180FF5EC08E8111
S11318D0882311F081508E838F81882311F08150E9
S11318E08F838E81882351F48F81882339F48D81ED
S11318F091E089278D831986188642C08D81826084
S11319008D839B816C81690F633008F463E07727D2
S11319108FEF989FC00111240E948D4D888529E086
S1131920829FC00111240596860F911D6AE070E024
S11319300E948D4D68871B821C824985662301F1B4
S11319404423F1F0772781E09EEF0E94794DCB018B
S11319509B01F3E0220F331FFA95E1F7642F7727F9
S1131960880F991F820F931F0E94794D6A5070400F
S11319706F3F710519F010F06CE370E0772702C037
S11319806CE370E0CE010E94530A2E9689E0CD3BB1
S1131990D80709F093CFDF91CF911F910F9108954C
S11319A080E090E0E6E3F9E09C01808180FF08C0DC
S11319B0C90101963E968A309105B1F72FEF30E0C8
S11319C0C90108959EE0899FF0011124EF5CF64F50
S11319D07183608312821382148285E0858386E09A
S11319E08683878310861186138612860895982F1E
S11319F0AFEF60E070E040E050E0E6E3F9E08081C2
S1131A00282F332720FF0BC021FF09C023FD07C067
S1131A10258136812617370710F0A42FB9014F5FAF
S1131A205F4F3E964A30510551F7892F9927681721
S1131A30790718F48FEF90E008958A2F9927089575
S1131A40AC013091A7068FEF4F3F580711F020E00B
S1131A5012C0832F99270895E22FFF2783E0EE0F0A
S1131A60FF1F8A95E1F7EB54F84F80819181841729
S1131A70950719F02F5F231779F7822F9927089577
S1131A801F93CF93DF93162FC0E0D0E060E30E9452
S1131A903D0AFC0180818123811711F4C1E0D0E06B
S1131AA0CE01DF91CF911F910895FC01808144857F
S1131AB055274F7050709A01220F331F240F351F82
S1131AC0821B8F5099270895AC01209146012D3037
S1131AD018F081E090E0089580914501E82FFF27F8
S1131AE0EE0FFF1FEF58F14F518340838F5F8093B8
S1131AF045018D3011F4109245012F5F209346016A
S1131B0080E090E0089580E88093EF0110920E0841
S1131B101092180F10920F0F10929D0708951F93A3
S1131B20CF93DF93182F8FB7F894C82FDD2760E089
S1131B3080E00E945E04882321F0CFBF80E090E023
S1131B4005C0CFBF812F0E94D3049927DF91CF9185
S1131B501F91089583E00E948F0D99270895CF93D4
S1131B60DF93FC01FE961582DF011696ED011B82C0
S1131B701A82198280E88683DF91CF91089597B7FE
S1131B809F7D97BF90E296BF882319F08EB580643D
S1131B9002C08EB58F7B8EBD87B7806287BF80E021
S1131BA090E0089581E00E94BF0D99270895AF92B7
S1131BB0BF92CF92DF92EF92FF920F931F93F82E72
S1131BC05A016B010E944B03AB01BC01EE24960148
S1131BD085018F2D0E942C031F910F91FF90EF9090
S1131BE0DF90CF90BF90AF900895AF92BF92CF9205
S1131BF0DF92EF92FF920F931F93CF93DF93CDB7B2
S1131C00DEB728970FB6F894DEBF0FBECDBF20E035
S1131C1070E0E0910001F091010132E14DE65CE4F5
S1131C206FE4809101019E2F28960FB6F894DEBFD1
S1131C300FBECDBFDF91CF911F910F91FF90EF9019
S1131C40DF90CF90BF90AF9008951F920F920FB680
S1131C500F9211248F9383B783BF00B600FCFDCF8E
S1131C608F910F900FBE0F901F90189578941F922C
S1131C700F920FB60F9211240F900FBE0F901F906A
S1131C80189578941F920F920FB60F9211240F900B
S1131C900FBE0F901F90189578941F920F920FB655
S1131CA00F9211242F933F938F939F932FB7F89400
S1131CB0332780912B0990912C09019690932C093C
S1131CC080932B092FBF9F918F913F912F910F905C
S1131CD00FBE0F901F9018951F920F920FB60F9280
S1131CE011240F900FBE0F901F9018951F920F9202
S1131CF00FB60F9211240F900FBE0F901F901895DE
S1131D001F920F920FB60F9211240F900FBE0F90D7
S1131D101F9018951F920F920FB60F9211240F90D7
S1131D200FBE0F901F9018951F920F920FB60F922F
S1131D3011240F900FBE0F901F9018951F920F92B1
S1131D400FB60F9211240F900FBE0F901F9018958D
S1131D501F920F920FB60F9211242F933F934F931C
S1131D605F936F937F938F939F93AF93BF93EF93FF
S1131D70FF9389B78F7789BF85E10E942D02FF9178
S1131D80EF91BF91AF919F918F917F916F915F91EF
S1131D904F913F912F910F900FBE0F901F90189568
S1131DA01F920F920FB60F9211242F933F934F93CC
S1131DB05F936F937F938F939F93AF93BF93EF93AF
S1131DC0FF9344B155B178948FB7F8949927209133
S1131DD04607322F3695317021708FBF2223D9F4F4
S1131DE0339880919708813021F0823009F039C00E
S1131DF00AC0332351F05093AD0A4093AC0A81E2F8
S1131E000E942D022EC0332319F40E94BE0729C05C
S1131E101092970826C08FB7F89499278FBF2FB7D1
S1131E20F894332786B1582F5770482F4072987D05
S1131E30942B952B8074977B982B90619F77892F97
S1131E40992786B9887D842B852B87738061992790
S1131E5086B9887D842B852B877B8069992786B9F1
S1131E602FBFFF91EF91BF91AF919F918F917F9180
S1131E706F915F914F913F912F910F900FBE0F90F3
S1131E801F901895EF92FF920F931F93CF93DF93B8
S1131E90EA017B010AC08C010F5F1F4F0E94164E9E
S1131EA0F70181937F012197C8012097A1F780E072
S1131EB090E0DF91CF911F910F91FF90EF900895E3
S1131EC0AF92BF92CF92DF92FF920F931F93CF9363
S1131ED0DF935C01FC018281882361F4B0928E0F50
S1131EE0A0928D0F8281882309F084C0109236015C
S1131EF0D89A80C0442309F475C0F501C080D1800C
S1131F008091CE01843009F046C0C6010E94AA0A1D
S1131F102091CE01622F0E946D4D492F9217D8F562
S1131F20992359F480919F089927019664E070E001
S1131F300E948D4D80939F0829C080919F08840F33
S1131F40912D911D9C0123703070E901CC0FDD1F90
S1131F50CC0FDD1FC20FD31F019664E070E00E9416
S1131F608D4DFC01EE0FFF1FEE0FFF1FE80FF91F51
S1131F70C452D94FE452F94F85E00190099281503F
S1131F80E1F74F5F8091CE014817B8F28091CE01FE
S1131F9081508093CE01F090CE0180919F088F0DE7
S1131FA0912D911D837090708C01000F111F000FF3
S1131FB0111F080F191F0452194FC6010E94A00ACD
S1131FC0F80191838083F6018289F8018283F60106
S1131FD08585F8018483F6018389F8018383F3946A
S1131FE0F092CE01F501808191810E94ED0AC50134
S1131FF00E940C0BDF91CF911F910F91FF90DF9006
S1132000CF90BF90AF9008951F920F920FB60F928A
S113201011242F933F934F935F936F937F938F93E9
S11320209F93AF93BF93EF93FF9383B783BF00B6A0
S113203000FCFDCF81B799270196AA27BB272091E1
S1132040C9013091CA014091CB015091CC01280FB4
S1132050391F4A1F5B1F2093C9013093CA01409363
S1132060CB015093CC0178940E947B0BFF91EF91AC
S1132070BF91AF919F918F917F916F915F914F919C
S11320803F912F910F900FBE0F901F901895BF9204
S1132090CF92DF92EF92FF920F931F93B82E6701B6
S11320A0780180915E01882319F085E090E034C0C6
S11320B0EB2DFF27E131F105B8F4EA5BFF4FEE0F9A
S11320C0FF1F0590F491E02D099484E00E94BF0263
S11320D09927282F882349F481E080935E01B092E8
S11320E0DE0F80E090E018C021E0822F992714C011
S11320F089019A01AB0163E0E8CF89019A01AB0140
S113210061E0E3CF89019A01AB0162E0DECF89018E
S11321109A01AB0160E0D9CF1F910F91FF90EF902E
S1132120DF90CF90BF900895EF92FF920F931F938B
S1132130813051F0813030F0823041F0833041F011
S113214081E009C086E005C089E003C087E001C0E2
S113215088E00E94471099271F910F91FF90EF90FC
S11321600895BF92CF92DF92EF92FF920F931F9345
S1132170B82E6701780180915E01882319F085E00B
S113218090E034C0EB2DFF27E131F105B8F4E95AB2
S1132190FF4FEE0FFF1F0590F491E02D099481E0AD
S11321A00E94BF029927282F882349F481E0809355
S11321B05E01B092DE0F80E090E018C021E0822F33
S11321C0992714C089019A01AB0163E0E8CF890122
S11321D09A01AB0161E0E3CF89019A01AB0162E0AE
S11321E0DECF89019A01AB0160E0D9CF1F910F9135
S11321F0FF90EF90DF90CF90BF900895AF92BF9281
S1132200CF92DF92EF92FF920F931F9380915A081F
S1132210992722E330E0829FA001839F500D929F73
S1132220500D1124FA01E45DF04F8081A82EBB24E7
S1132230CC24DD24AAE0AA0CBB1CCC1CDD1CAA9572
S1132240D1F7FA01E35DF04F80812CE2829FC00157
S11322501124AA27BB27A80EB91ECA1EDB1E9A0189
S1132260225D304F80915C01823079F08330B1F08F
S1132270813011F081E01CC0FCE2EF2EF12C012D25
S1132280112DB601A50185E011C0ECE2EE2EF12C72
S1132290012D112DB601A50183E008C07CE2E72ED3
S11322A0F12C012D112DB601A50184E00E94B1107D
S11322B0882311F01092DA061F910F91FF90EF908E
S11322C0DF90CF90BF90AF900895BF92CF92DF92EE
S11322D0EF92FF920F931F93B82ED70180915E0166
S11322E0882319F085E090E03CC0EB2DFF27E13115
S11322F0F105B8F4E859FF4FEE0FFF1F0590F49174
S1132300E02D099485E00E94BF029927282F882395
S113231049F481E080935E01B092DE0F80E090E0AA
S113232020C021E0822F99271CC0680179018D010A
S11323309A01AB0163E0E6CF680179018D019A014E
S1132340AB0161E0DFCF680179018D019A01AB0136
S113235062E0D8CF680179018D019A01AB0160E098
S1132360D1CF1F910F91FF90EF90DF90CF90BF904E
S113237008958FB7F89499272091C00920932201DA
S113238023E0209359018FBF80912201882319F003
S1132390813079F408C081E0809397081092170F78
S11323A00E94BE070895809397088093170F0E9498
S11323B0BE070895982F8150883018F082E090E08D
S11323C008958091270F882319F085E090E00895FF
S11323D081E08093270F8093250F9093AE0A892F75
S11323E09927019721E030E002C0220F331F8A951C
S11323F0E2F78091820882278093820880E00E941D
S1132400F80880E090E008951F93982F8FB7F89410
S1132410182F809151018330D1F580911A018917C9
S1132420B1F58091180120E030E08F3F11F421E0F4
S113243030E0232BE9F48F3F19F42FEF30E00EC086
S1132440282F3327F901E15EF04F80818093180132
S11324508F3F11F4809319018FEF80832093F50A45
S11324608FEF80931A0181E08093510187E109C0C5
S113247082E080931A011092510181E0809352010D
S113248089E10E942D021FBF80E090E003C01FBFBE
S113249081E090E01F9108950F931F938B0180E0DA
S11324A00E940412E0910601FF27EE0FFF1FED507A
S11324B0FE4F0183012F112700831F910F9108956F
S11324C0CF93DF93982F8FB7F894C82FDD272C2F45
S11324D080916101882361F481E08093610190938C
S11324E08C0888E20E942D02CFBF80E090E021C0DA
S11324F0E92FFF27E256F84F80818F3F89F4E0915E
S11325003301E91789F40CC09093320104C0FF270A
S1132510E256F84F90839093330180E090E002C03C
S113252085E090E02FBF05C0809132018F3F79F79D
S1132530EBCFDF91CF9108958FB7F894282F3327ED
S1132540922F80913401813149F48091610182306C
S113255029F42FBF8BE20E942D0208959FBF81E1D1
S11325600E94601208951F93182F80916701882399
S1132570E1F4623041F0633041F0613011F081E008
S113258007C080E103C08EE001C08FE00E946012AA
S113259090E0882309F491E090936701992329F04E
S11325A01093950E80E090E002C081E090E01F91CE
S11325B008951F93982F8FB7F894182F8091600176
S11325C08330B1F580913101891791F580912F0104
S11325D020E030E08F3F11F421E030E0232BF9F4C8
S11325E08F3F19F42FEF30E00EC0282F3327F90165
S11325F0E55EF04F808180932F018F3F11F480932B
S113260030018FEF80832093E5018FEF80933101B8
S113261081E08093600187E20E942D0205C084E07E
S113262080933101109260011FBF80E090E003C0ED
S11326301FBF81E090E01F91089582E080935001D4
S113264080E00E948008992708951F93982F8FB7E0
S1132650F894182F809154018330B1F580911D01B5
S1132660891791F580911B0120E030E08F3F11F430
S113267021E030E0232BF9F48F3F19F42FEF30E001
S11326800EC0282F3327F901E75FF74F808180932D
S11326901B018F3F11F480931C018FEF80832093E3
S11326A063088FEF80931D0181E0809354018AE1D8
S11326B00E942D0205C081E080931D0110925401F7
S11326C01FBF80E090E003C01FBF81E090E01F9136
S11326D00895982F80915501833009F047C0809167
S11326E02001891709F042C080911E0120E030E0EA
S11326F08F3F11F421E030E0232BF9F48F3F19F4DC
S11327002FEF30E00EC0282F3327F901EB55F94F96
S1132710808180931E018F3F11F480931F018FEFFE
S113272080832093D9068FEF8093200181E08093EA
S113273055018DE10E942D0216C082E08093200194
S11327401092550180915601813069F40E94E40889
S11327508091750A8A768093750A809374009098A4
S113276091981092560180E090E0089581E090E005
S113277008951F93182F8091910F9091920F6817CD
S1132780790789F4413079F42258384061F40E9481
S1132790ED0880E00E946913112311F48BE101C05C
S11327A08CE10E942D021F91089580915301813084
S11327B029F48093500180E00E9480088FB7F89438
S11327C0992710925301109252018FBF08951F93BD
S11327D0182F1092500180E00E942513812F0E942F
S11327E0D5131F9108950F931F93CF93DF93182F41
S11327F08FB7F894282F3327022F8091590188230B
S113280059F581E0809359011093C0092FBF8FB708
S1132810F8949927379A8FBF8FB7F894C82FDD277C
S11328209C2F809122018230A9F48091590181303A
S113283021F480E20E942D0209C0823059F4809173
S1132840C0098093220183E080935901CFBF80E0C7
S113285090E025C09FBFFBCF8091C009811711F480
S11328602FBFF5CF812F0E94DC05882319F085E066
S113287090E014C0E12FE695E695E695FF27EF5327
S1132880F64F177081E090E002C0880F991F1A95E7
S1132890E2F72081282B208380E090E00FBFDF91B6
S11328A0CF911F910F910895882321F0813021F059
S11328B081E005C080E001C081E00E94F313992704
S11328C008950F931F9380914D01882399F180916E
S11328D0000A8D7F8093000A0E94D609082F0E9467
S11328E0D609182F0E94D6090E94EC098091CF01C5
S11328F09091D0018330910519F00597D9F412C055
S113290010924D018091930F8823A1F4602F7727B3
S1132910762F6627812F9927682B792B80E00E94D8
S11329204C1208C010924D018091930F813011F424
S11329300E9404121F910F910895CF92DF92EF929B
S1132940FF920F931F9380935F016093980EC901C8
S1132950880F892F881F990B91958093990E220FC8
S1132960812F9927282B20939A0E00939B0ED092A7
S1132970770AC092760AF0928708E092860840931C
S11329807D0886E20E942D021F910F91FF90EF9027
S1132990DF90CF900895AF92BF92CF92DF92EF92E3
S11329A00F931F93882389F00E9472035B016C01CB
S11329B08FEF90E0A0E0B0E0A822B922CA22DB2287
S11329C080E190E0A0E0B0E010C00E9472035B01DF
S11329D06C018FE790E0A0E0B0E0A822B922CA22FF
S11329E0DB2280E890E0A0E0B0E0A80EB91ECA1E89
S11329F0DB1E0E944B03AB01BC01E1E0EE2E96010D
S1132A00850187E00E942C031F910F91EF90DF90C6
S1132A10CF90BF90AF9008950F931F93182F0FB7C7
S1132A20F89461E080E00E944404882371F51093D7
S1132A30070180910A018823A9F580913C01823025
S1132A4089F589E00CC00E94810480913C018823AF
S1132A5049F481E080933C011092B2078BE00E941C
S1132A602D022AC0809185088F3F31F5E09109013C
S1132A70EE2311F11CC01092080104C0FF27EB578C
S1132A80F74F10821092090117C081E090E002C054
S1132A90880F991F1A95E2F720913B01282B209368
S1132AA03B010AC080913C018823E1F6CCCF8091A0
S1132AB008018F3F19F7DFCF802F99278FBF80E060
S1132AC090E01F910F9108951F938FB7F894282FCA
S1132AD03327122F8091E20F882321F02FBF81E04A
S1132AE090E013C081E08093E20F809138019091CF
S1132AF03901049721F481E00E940C1503C087E09A
S1132B000E942D021FBF80E090E01F9108951F9343
S1132B1083E00E9496049927182F882319F083E0F4
S1132B200E940C15812F99271F91089561E081E07F
S1132B300E9444048823E9F48FB7F894282F33279C
S1132B408091380190913901892B11F02FBF20C059
S1132B5081E090E090933901809338012FBFDD9A92
S1132B600E94190624E130E040E050E00E94D606BD
S1132B700FC062E081E00E945E04882319F089E0BE
S1132B8090E0089561E081E00E945E04882319F0DA
S1132B9080E090E0089585E090E00895EF92FF9240
S1132BA00F931F938091D008843090F41092E40125
S1132BB0F4E5EF2EF12C012D112D28E437E040E04F
S1132BC050E060E070E080916F080E94941005C0AE
S1132BD00E94961583E08093E4011F910F91FF906A
S1132BE0EF9008958091E401823019F0833071F4FC
S1132BF0FBCFE091D008EF5FE093D008FF27EE5FB2
S1132C00FE4F808180936F080E94CE150895843012
S1132C1021F0853051F0833079F4809123018130A3
S1132C2059F482E20E942D0208958091230181309B
S1132C3019F482E20E942D020895CF93DF93EC01F0
S1132C400E94200D282F8091A7062817D1F0382F35
S1132C5031503093A70613C0822F9927A3E0880F21
S1132C60991FAA95E1F7DC01AB54B84FFC01E3547A
S1132C70F84F88E001900D928150E1F72F5F231700
S1132C8058F380918E0E90918F0E8C179D07A1F4AE
S1132C908FEF9FEF90938F0E80938E0E1092910E74
S1132CA01092900E1092920E1092930E81E08093E7
S1132CB04C0183E10E942D02DF91CF910895CF92C0
S1132CC0DF92EF92FF920F931F938091CD0188239F
S1132CD039F085E080935F0186E20E942D0229C0CD
S1132CE04091BD09842F9927FC01EE0FFF1FE80FC7
S1132CF0F91FDF01A051B94F2D913C91EE50F94FCE
S1132D00808182FF06C0442311F068E807C069E8A7
S1132D1005C0442311F063E801C066E8B1E0CB2E9E
S1132D20D12CEE24FF2400E010E040E089E00E9472
S1132D309D141F910F91FF90EF90DF90CF90089515
S1132D40BF92CF92DF92EF92FF920F931F93B82E10
S1132D508091CD01882339F085E080935F0186E27C
S1132D600E942D021DC08B2D9927FC01EE0FFF1F21
S1132D70E80FF91FE051F94F20813181BB2011F494
S1132D8061E601C060E601E0C02ED12CEE24FF24F0
S1132D9000E010E040E08AE00E949D14B0922F0908
S1132DA01F910F91FF90EF90DF90CF90BF90089507
S1132DB0EF92FF920F931F93CF93DF93182F7B0112
S1132DC0042F8FB7F894C82FDD2760E080E00E94BD
S1132DD05E04882321F0CFBF80E090E014C0CFBF11
S1132DE01064812F992790939408809393080E94EC
S1132DF0D304182F402F5527B70180E090E00E949C
S1132E004D05812F9927DF91CF911F910F91FF904D
S1132E10EF900895C098609168017091690141E054
S1132E208FE30E94D816089582E090E09093D8062C
S1132E308093D70681E080930E0820E030E08091F3
S1132E400701843011F421E030E0232B29F484E0DD
S1132E500E949604882319F40E940A17089584E0B6
S1132E600E940C1508951F920F920FB60F92112411
S1132E702F933F934F935F936F937F938F939F937E
S1132E80AF93BF93EF93FF938091D7069091D806A9
S1132E90019749F482E090E09093D8068093D70696
S1132EA00E94141705C080919D078F5F80939D0732
S1132EB0FF91EF91BF91AF919F918F917F916F910E
S1132EC05F914F913F912F910F900FBE0F901F90E4
S1132ED018951F9380913B01882309F04BC01091F2
S1132EE007011F3F09F046C060E00E945E0488238A
S1132EF009F440C081E080936F0E8091AA06882374
S1132F00E1F110926F0E85E090E045C0923069F5D2
S1132F10C09A8091080120E030E08F3F11F421E055
S1132F2030E0232BE9F410930A018F3F19F42FEFBB
S1132F3030E00DC0282F3327F901EB57F74F80817C
S1132F40809308018F3F11F410930901108320939B
S1132F50B20781E080933C018BE00E942D0205C002
S1132F6010930A0110923C0111C080913C01882306
S1132F7069F00FC081E090E00EC080910A01909149
S1132F803C01882319F2923021F0EFCF80E00E94B7
S1132F90750480E090E01F9108951F93CF93DF9311
S1132FA09FB7F894C92FDD271C2F9091070198171C
S1132FB021F0CFBF81E090E03AC08FEF809307010A
S1132FC030913B013323F1F48FB7F8949927109291
S1132FD0D40A8FBF0E946917CFBF11C02093070185
S1132FE081E090E002C0880F991F4A95E2F780952E
S1132FF0382330933B0189E00E942D021FBF80E0FB
S113300090E015C080E065E0E32FFF270E946D4D3E
S1133010292F492F5527CF01042E02C09595879556
S11330200A94E2F780FDDACF822F8F5FEFCFDF9132
S1133030CF911F91089583E00E94CD179927089599
S11330401F93CF93DF938FB7F894C82FDD271C2FDE
S11330508091D7069091D806892B29F484E00E94A8
S1133060CD17CFBF1EC010920E0880919D078823F4
S113307011F0B79904C00E9908C0882319F0815043
S113308080939D070E9414170BC081E090E09093F9
S1133090D8068093D70610929D0784E00E94CD172E
S11330A01FBFDF91CF911F9108950E94830DC09A95
S11330B0C09888E00E948F0D88E00E948F0DC09A0E
S11330C084E00E94CD170E9420180895FF920F9368
S11330D01F93CF93DF93F82E8B018FB7F894C82FEB
S11330E0DD2760E080E00E945E04882321F0CFBFEA
S11330F080E090E00CC0CFBF8F2D0E94D304812FBD
S113310099270E94D304802F0E94D3049927DF912A
S1133110CF911F910F91FF9008951F931FB7F894BB
S113312080919C07882319F460E070E009C060E096
S113313080918C0F882309F461E081E06827772768
S113314080916E08882319F480E090E00AC090E032
S11331508091EC0A882309F491E081E09827892F73
S11331609927762F6627770F770F770F44E0880F1C
S1133170991F4A95E1F7826E9262682B792B81E15F
S11331800E946618812F99278FBF1F9108958FB7CA
S1133190F89499276091F60A8FBF85E0689FB00183
S11331A01124625D7E4F706488E10E946618089560
S11331B0FF920F931F93CF93DF93C0917008D09128
S11331C07108EE968A81EE979927182F882309F4BF
S11331D01FE1C09880914507811749F0612F772737
S11331E06F717070606E706885E10E94661810934C
S11331F04507F8808FB7F894082F112760E080E026
S11332000E945E04882311F00FBF12C00FBF8EE32B
S113321090E090939408809393088EE30E94D304E3
S1133220FA944F2D552760E070E0CE010E944D05C1
S1133230DF91CF911F910F91FF9008950F931F93EA
S1133240CF93DF93EC010FB7F89411270E94000489
S1133250FC018FE380830FBF1092240F1092230F81
S113326061E082E00E944404882319F085E090E044
S113327075C08091700E8F5F8093700E81508B8328
S11332808FB7F894082F112762E081E00E945E0452
S1133290882329F40FBF0E946E0581E05EC0DE0121
S11332A0DE968FB7F894992724E02093D50A8FBF30
S11332B0D0939E08C0939D080FBFFE013196818173
S11332C029819927982F88273327822B932B807263
S11332D09C7C8983892F992781832981982F88272A
S11332E033272164822B932B8983892F9927818308
S11332F0FD0114821C921FAE11861086178280E88D
S1133300868361E06093D80A40919D0850919E089D
S11333108FB7F894282F332780913D0190913E0177
S11333208830910511F0019711F02FBF15C082E08C
S113333090E090933E0180933D016093E40F50939D
S11333407108409370081092C4012FBF0E94871522
S1133350882311F40E94D81880E09927DF91CF9137
S11333601F910F910895CF93DF93DA01422F2333F6
S113337018F082E090E05EC0ED018B876E83872FAA
S113338099278F832FB7F894332780915B08909106
S11333905C082FBFFD018483892F992785832FB76C
S11333A0F894332780910B0190910C012FBF8887EB
S11333B0892F992789873196818129819927982F87
S11333C08827332720643868822B932B8983892F9D
S11333D099278183435F4C934D5080910E0188233C
S11333E059F010920E01642FCD010E941E199927E5
S11333F0282F8823A9F417C0842F9927909399081C
S113340080939808B0934201A09341018FE00E94F9
S11334102D0280910E01882349F489E090E00AC0CE
S11334208FEF80930E01822F992704C010927908A0
S113343080E090E0DF91CF9108951F938091110176
S11334409927019667E070E00E948D4D682F809364
S1133450110110E0462F5527FA01EE0FFF1FE35E1E
S1133460F64FA081B181109799F0E62FE695E69585
S1133470E695FF27EF5DF04F808199279A01277029
S1133480307002C0959587952A95E2F780FF0DC0AC
S1133490CA01019667E070E00E948D4D682F1F5F9E
S11334A01730C1F61093110119C0609311016730F0
S11334B0A8F42C912D503327FD0167817727762FAF
S11334C0662786819927682B792BAD0183850E9415
S11334D0B319882319F082E10E942D021F910895E7
S11334E0CF93DF93582FFB01873018F081E090E0F1
S11334F033C0C82FDD27CC0FDD1FC35ED64F8881B4
S11335009981892B19F085E090E026C0798368833E
S1133510435F40834D5080911101873018F480E05F
S113352090E01AC0838567817727762F66272681E6
S11335303327622B732B50931101242FAF010E9468
S1133540B3199927282F882329F087E08093110144
S113355019821882822F9927DF91CF910895AF9213
S1133560BF92CF92DF92EF92FF920F931F93BC0111
S11335708091EA01882309F479C080910B0888239B
S113358009F074C081E080930B0860938701872F52
S11335909927809386018EED6030780721F0AA2464
S11335A0BB24650108C0A0906201B0906301C09083
S11335B06401D0906501A0928B0111270D2DFC2C84
S11335C0EB2CE0928A019601442755272093890128
S11335D08D2D9927AA27BB27E6E8F1E08283FF24F3
S11335E000271127102F0F2DFE2CEE24B82FAA2709
S11335F099278827332744275527A90133272227CA
S1133600822B932BA42BB52B2A2D33274427552704
S1133610822B932BA42BB52BE82AF92A0A2B1B2BDC
S1133620E114F1040105110511F410E010C060501B
S11336307E4D21F41AE062EE7AE003C010E060E00F
S113364070E0412F55278CE891E00E94064E8FEFE1
S1133650809380018093810180E6809385011A5FC5
S1133660412F6AE771E085E00E94701A1F910F9163
S1133670FF90EF90DF90CF90BF90AF9008951F938D
S1133680182F8823B1F4809159088823D1F481E05C
S11336908093590880939A0884E080938C0E8091DB
S11336A0DF0F98E089278093DF0F81E00E94F808FC
S11336B008C01092500180E00E942513812F0E94BF
S11336C0D5131F9108951F93182F882321F488E0A0
S11336D00E94DA1108C01092500180E00E94251364
S11336E0812F0E94D5131F910895AF92BF92CF925C
S11336F0DF92EF92FF920F931F93282F33278BE0D3
S113370090E0289FF001299FF00D389FF00D1124BF
S1133710E559FE4F82819381A481B5810097A1056B
S1133720B10569F080819181880F991F918380830D
S11337308150944020F080E094E0918380838BE07A
S113374090E0289F5001299FB00C389FB00C1124A1
S11337508BE691E0A80EB91EF50186819781A085BC
S1133760B18582839383A483B583C080D180EE2402
S1133770FF2469E0CC0CDD1CEE1CFF1C6A95D1F71C
S11337800E947203DC01CB01F50100811181B801B3
S1133790762F6627770F0E94794DAA27BB278C0DB9
S11337A09D1DAE1DBF1D222733274AE0000F111FA8
S11337B0221F331F4A95D1F7081B190B2A0B3B0B09
S11337C00683178320873187228133814481558181
S11337D0280F391F4A1F5B1F228333834483558379
S11337E01F910F91FF90EF90DF90CF90BF90AF901B
S11337F00895CF92DF92EF92FF920F931F93CF938E
S1133800DF938C01F62E6A01E22E8FB7F894C82F4D
S1133810DD2760E080E00E945E04882321F0CFBFB2
S113382080E090E01EC0CFBF0F0D111D802F806877
S11338300E94D304F82E16950795802F807C0E9451
S1133840D3040E2D0AC0EE2DFF27E01BF109EC0D69
S1133850FD1D80810E94D30401500023A1F78F2D08
S11338609927DF91CF911F910F91FF90EF90DF90F7
S1133870CF900895CF93DF93CDB7DEB72C970FB6D3
S1133880F894DEBF0FBECDBF8FB7F894282FAE01DA
S11338904F5F5F4FDA01EDEEFAE088E001900D92A0
S11338A08150E1F780915B0890915C088987892FAA
S11338B099278A8780918D0890918E088B87892F0C
S11338C099278C872FBF2CE060E080E691E00E946E
S11338D0F91B2C960FB6F894DEBF0FBECDBFDF9157
S11338E0CF9108951F938FB7F894282F3327809191
S11338F03A01882311F02FBF30C02FBF80B399271E
S1133900B6E096958795BA95E1F7182F11709091C6
S11339109108809192088917D9F01917C9F484E0A5
S113392090E090933901809338018FB7F8949927E8
S113393021E020933A018FBF60E070E08DE10E94A6
S113394066180E943A1CC09AC09883E00E942D0217
S11339501093920888E00E942D021F9108951F93EE
S1133960182F81E090E090933E0180933D011092E6
S1133970AA060E9469178FB7F89499271093370104
S11339808FBF85E00E942D021F910895CF92DF9290
S1133990EF92FF920F931F93982F80915E018823DB
S11339A019F085E090E04AC0E92FFF27E131F105E5
S11339B0A8F4E758FF4FEE0FFF1F0590F491E02D98
S11339C0099483E00E94BF029927282F882339F4A1
S11339D081E080935E0180E090E030C021E0822F9E
S11339E099272CC0CC24DD24760100E010E020E0EF
S11339F030E040E050E063E0E4CFCC24DD24760105
S1133A0000E010E020E030E040E050E061E0D9CF99
S1133A10CC24DD24760100E010E020E030E040E03A
S1133A2050E062E0CECFCC24DD24760100E010E04B
S1133A3020E030E040E050E060E0C3CF1F910F9100
S1133A40FF90EF90DF90CF900895BF92CF92DF92D6
S1133A50EF92FF920F931F93B82E80915E018823FB
S1133A6019F085E090E04CC0EB2DFF27E131F10522
S1133A70B8F4E657FF4FEE0FFF1F0590F491E02DC9
S1133A80099482E00E94BF029927282F882349F4D1
S1133A9081E080935E01B092DE0F80E090E030C060
S1133AA021E0822F99272CC0CC24DD24760100E06C
S1133AB010E020E030E040E050E063E0E2CFCC24CE
S1133AC0DD24760100E010E020E030E040E050E04A
S1133AD061E0D7CFCC24DD24760100E010E020E0C3
S1133AE030E040E050E062E0CCCFCC24DD2476012D
S1133AF000E010E020E030E040E050E060E0C1CFC2
S1133B001F910F91FF90EF90DF90CF90BF90089599
S1133B10EF92FF920F931F938091E401823009F09A
S1133B204EC08091A8069927982F88272091A9062E
S1133B303327822B932BE816F906A9F080916F089E
S1133B40813049F0813028F0823049F08330B9F572
S1133B5008C08AE001C08DE00E94251D30C08BE0C2
S1133B60FBCF8CE0F9CF4091B3074F5F4093B3078D
S1133B70809150074817B0F481E08093E401552701
S1133B80440F551F40585F4F6627772712E0E12EF8
S1133B90F12C012D112D28EA36E080916F080E9446
S1133BA094100DC0E091D008EF5FE093D008FF2798
S1133BB0EE5FFE4F808180936F080E94CE151F91A7
S1133BC00F91FF90EF900895CF92EF92FF920F9391
S1133BD01F93873061F0883018F4863079F405C07B
S1133BE0883039F0893051F406C080E005C082E0A5
S1133BF003C083E001C081E00E94881D1F910F91E2
S1133C00FF90EF90CF900895823041F0833041F0DF
S1133C10813011F081E007C080E103C08EE001C073
S1133C208FE00E94251D992708951F93182F8091D6
S1133C307601909177016817790789F4413079F416
S1133C402F5D3F4061F40E94ED0881E00E946913FA
S1133C50112311F48EE101C08FE10E942D021F9106
S1133C600895EF92FF920F931F93F62EE22E9FB7C3
S1133C70F894292F332790912101981711F02FBF21
S1133C809BC02FBF8FB7F894282F332780915601FC
S1133C90813041F582E0809356012FBF8FB7F894AD
S1133CA0992750937308409372081093B1070093B7
S1133CB0B007E092C5016093FD0F1092940E10922C
S1133CC057018FBF0E94E4088FB7F894182F909182
S1133CD0750A916C9F7E9093750A6F2D772760FD0E
S1133CE00BC011C0882321F42FBF84E090E06EC084
S1133CF02FBF85E090E06AC090629093750A84E0DB
S1133D00809356015CC0EE2009F448C083E08093A0
S1133D1056012091940E4091C501241778F4E09146
S1133D20B007F091B107E20FF11D80818093730019
S1133D302F5F2093940E9093740045C0292F2E7FFB
S1133D402093750A8091FD0F81FF07C08D7F8093BA
S1133D50FD0F20612093750A03C09E779093750A26
S1133D608091750A8093740081E0809356012091BC
S1133D70B0073091B1076091720870917308809117
S1133D802101882319F08130F1F404C080E00E94FD
S1133D90B91319C080E00E94151E15C061FF08C048
S1133DA085E0809356019F7B90619093750A07C0CC
S1133DB081E0809356011FBF81E090E007C08091AD
S1133DC0750A809374001FBF80E090E01F910F91EB
S1133DD0FF90EF9008951F93182F0E94E40880919C
S1133DE0750A8A7F8093750A809374000E94E408A0
S1133DF08091750A84608093750A8093740081E0D1
S1133E0080935601809157018823C1F42091B00713
S1133E103091B1074091C5016091720870917308A7
S1133E2080912101882319F0813041F404C0812F4D
S1133E300E94B91303C0812F0E94151E1F9108957B
S1133E409F92AF92BF92CF92DF92EF92FF920F9325
S1133E501F93982EF9018091E401813009F4DEC0AA
S1133E60813008F481C0843009F018C183E0809364
S1133E70E4018091960E882309F010C1A280BB242E
S1133E80CC24DD24DC2CCB2CBA2CAA24208133278F
S1133E9044275527522F44273327222781819927E6
S1133EA0AA27BB27DC0199278827282B392B4A2BE3
S1133EB05B2B83819927AA27BB27282B392B4A2BD5
S1133EC05B2BA22AB32AC42AD52AE0906708FF24D0
S1133ED000271127102F0F2DFE2CEE2420916508AA
S1133EE0332744275527522F4427332722278091ED
S1133EF066089927AA27BB27DC0199278827282B3E
S1133F00392B4A2B5B2B809168089927AA27BB275A
S1133F10282B392B4A2B5B2BE22AF32A042B152B53
S1133F20AE14BF04C006D106C9F48091640884307D
S1133F3099F440E050E060E070E0892D0E94F005C3
S1133F406093DE017093DF018093E0019093E101BF
S1133F5081E00E94F313A2C081E001C082E080935B
S1133F6066010E949C129AC0CC2009F097C0E09090
S1133F704A07FF2400271127102F0F2DFE2CEE24B3
S1133F8020914807332744275527522F44273327A6
S1133F902227809149079927AA27BB27DC01992763
S1133FA08827282B392B4A2B5B2B80914B07992789
S1133FB0AA27BB27282B392B4A2B5B2BE22AF32A6F
S1133FC0042B152B8FEFE8168FEFF8068FEF0807F9
S1133FD08FEF1807A9F01092B30781E08093E401F2
S1133FE032E0E32EF12C012D112D28EA36E040E8D1
S1133FF050E060E070E080916F080E9494104EC021
S1134000E091D008EF5FE093D008FF27EE5FFE4F0A
S1134010808180936F080E94CE1540C082E0809317
S1134020E4016091B30777278827992720E534E0D6
S113403040E050E00E944E4DAB01BC0140585E4F41
S11340406F4F7F4F80916F08813079F0813028F075
S1134050823099F0833011F518C0EE24FF2400E576
S113406014E020E030E086E017C0EE24FF2400E5F1
S113407014E020E030E089E00FC0EE24FF2400E5E6
S113408014E020E030E087E007C0EE24FF2400E5E0
S113409014E020E030E088E00E9465111F910F9148
S11340A0FF90EF90DF90CF90BF90AF909F900895D6
S11340B08FB7F8949927DA9AD998D8988FBF109225
S11340C06601809164089927833019F08430D1F413
S11340D006C081E0809366010E949C12089540E02E
S11340E050E060E070E0809169080E94F005609300
S11340F0DE017093DF018093E0019093E10181E0A0
S11341000E94F31308952FB7F8943327809163081E
S113411080931D0183E0809354012FBF80911D0182
S11341208823F1F480915001813031F487E00E94BA
S11341307709882351F40895A398AB9817981F988A
S113414087E00E94DA11882359F01092500180E030
S11341500E9425130E943C08882311F00E945A08EB
S11341600895882321F488E00E9477090895109225
S1134170500180E00E9425130E943C08882311F01E
S11341800E945A0808958823A9F480915908882325
S1134190E1F481E08093590880936A0184E080937C
S11341A08C0E8091DF0F88608093DF0F81E00E9486
S11341B0F80808951092500180E00E9425130E948F
S11341C03C08882311F00E945A0808958091270F13
S11341D0882351F11092270F8091C601882381F022
S11341E01092C6018091AE0A873019F0883041F4EC
S11341F004C081E00E94B12003C081E00E94C3207A
S11342008091250F882381F01092250F8091AE0AAA
S1134210873019F0883041F404C081E00E94631BA8
S1134220089581E00E943F1B08958091270F882301
S113423009F45AC01092270F8091C601882341F1D6
S11342401092C6014091AE0A209182083327842F30
S11342509927019702C0359527958A95E2F720FFA3
S11342600AC0473021F0483009F03EC002C080E067
S113427008C080E00AC0473019F04830A9F504C0EE
S113428081E00E94B120089581E00E94C320089536
S11342908091250F882341F11092250F4091AE0A99
S11342A0209182083327842F9927019702C03595DE
S11342B027958A95E2F720FD0BC0473019F0483066
S11342C099F402C080E00AC080E00E943F1B089578
S11342D0473019F0483041F404C081E00E94631B68
S11342E0089581E00E943F1B08951F920F920FB61C
S11342F00F9211242F933F934F935F936F937F9368
S11343008F939F93AF93BF93EF93FF930E94E4081F
S113431080915601843009F4DFC0863021F0833067
S113432009F007C149C090917100987F80915701AD
S1134330813041F49034F1F583E08093560120916B
S1134340940E4FC09831B1F583E08093560190915B
S1134350940E4091C5012091750A941708F47DC00C
S1134360922F9E7F9093750A8091FD0F81FF07C065
S11343708D7F8093FD0F90619093750A03C02E7713
S11343802093750A8091750A8093740081E080936C
S113439056012091B0073091B10760917208709175
S11343A0730880912101882309F48EC0813009F0BB
S11343B0C0C08EC084E0A5C0809157019091940E36
S11343C0813009F044C0E091B007F091B107E90FE2
S11343D0F11D8091730080832091940E2F5F2093B0
S11343E0940E8091C5012817A0F4332799270197CB
S11343F02817390749F48091FD0F82FD05C080918B
S1134400750A8F7B8093750A8091750A8093740076
S113441090C09091750A292F2E7F2093750A809160
S1134420FD0F81FF09C08D7F8093FD0F20612093D4
S1134430750A8091710003C09E779093750A8091EC
S1134440750A8093740081E08093560172C0409194
S1134450C5012091750A941778F4E091B007F091A2
S1134460B107E90FF11D8081809373009F5F9093E2
S1134470940E209374005DC0922F9E7F9093750AD2
S11344808091FD0F81FF07C08D7F8093FD0F9061A8
S11344909093750A03C02E772093750A8091750A4C
S11344A08093740081E0809356012091B00730918D
S11344B0B10760917208709173088091210188237B
S11344C019F08130B1F504C080E00E94B91331C005
S11344D080E00E94151E2DC08091FD0F8E7F809379
S11344E0FD0F9091750A9F7D9093750A80917100DC
S11344F0887F883049F080917100887F803121F075
S113450081E00E94EB1E15C0392F30643093750A88
S113451090917208990F20E080915701813009F43D
S113452021E0922B9093730086E0809356013093A0
S11345307400FF91EF91BF91AF919F918F917F9103
S11345406F915F914F913F912F910F900FBE0F90FC
S11345501F901895CF92DF92EF92FF920F931F93C3
S1134560CFB6F894DD240E947203DC01CB0166E42B
S113457070E00E94794D2BE0E22EF12CE80EF91E3A
S1134580F092E10FE092E00F0E9419060027112734
S1134590A80197010E94D606CFBE1F910F91FF90EC
S11345A0EF90DF90CF9008951F93CF93DF938FB751
S11345B0F894C82FDD271C2F80913D0190913E0176
S11345C00897C9F489E00E948F0D83E00E94CD17FB
S11345D0C09A81E090E090933E0180933D018FB7B3
S11345E0F894992723E0209337018FBF85E00E9438
S11345F02D02CFBF30C0C0988091E40F882311F002
S113460085E001C084E00E948F0D83FD09C080E035
S11346100E948F0D83FF04C085E090E020E003C07A
S113462083E090E021E090933E0180933D01C09AA5
S11346301FBF222341F01092C40183E00E94CD17D2
S11346400E94AA2208C00E94190620E431E040E03A
S113465050E00E94D606DF91CF911F9108951F93D9
S1134660CF93DF938FB7F8949927109107018FBFE9
S1134670123009F465C0133030F4112359F01130AD
S113468009F0ACC048C0133009F474C0143009F008
S1134690A5C0A2C0C0988FB7F894C82FDD27809119
S11346A03801909139010297A1F583E090E090934D
S11346B039018093380168E170E08DE10E94661849
S11346C081E08093910810923A0180B3992736E0F3
S11346D0969587953A95E1F781709070809392084A
S11346E088E00E942D0281E00E948F0D6FE772E046
S11346F08CE10E9466180E94C7180E948D1866E516
S11347007AE287E10E9466186FEF70E885E10E9403
S11347106618CFBF63C0C09886E00E948F0D0E94C8
S1134720C7180E948D180E943A1CC09AC09883E052
S11347300E948F0DC09A81E00E94CD1787E045C08A
S1134740C0988FB7F894C82FDD2760E080E00E94FE
S11347505E04882311F0CFBF0AC0CFBF83E50E9457
S1134760D30480E00E94D30480E00E94D304C09A62
S113477082E02FC08FB7F894992720913D018FBF15
S1134780243039F0283041F0223011F50E94D81835
S113479025C00E94D42222C0C09889E00E948F0DB7
S11347A0C09A83E00E94CD178FB7F894992721E02F
S11347B030E030933E0120933D018FBF8FB7F894D2
S11347C09927109337018FBF85E00E942D0206C000
S11347D083E00E94CD1702C00E940A17DF91CF9197
S11347E01F91089578941F920F920FB60F9211247F
S11347F02F923F924F925F926F927F928F929F92ED
S1134800AF92BF92CF92DF92EF92FF920F931F93DA
S11348102F933F934F935F936F937F938F939F93C4
S1134820AF93BF93CF93DF93EF93FF93C6B5D7B501
S11348308FB7F894282E0E9419069B012C1B3D0B60
S1134840442755272B013C01421A530A640A750A6E
S113485080913D0190913E018530910521F00697AC
S113486009F0E3C0C2C086E090E090933E018093DB
S11348703D0131E0332E30920A0810923F0180E06E
S11348800E94BF0DE0917008F0917108FE96418678
S1134890BB27A72D962D852D8087C301AA27BB276B
S11348A08783872D9927AA27BB278683E0917008E1
S11348B0F0917108FE968581FE97882309F484C0DF
S11348C06081655077274F01860E971EF401208181
S11348D0E1808281A3809927AA27BB27BA2FA92F19
S11348E0982F8827332744275527522F44273327C7
S11348F02227FF24002711278701FF24EE242E29D5
S11349003F29402B512BBB24CC24DD242A293B29CD
S11349104C295D29822B932BA42BB52B8419950943
S1134920A609B7098383292F3A2F4B2F55272283B2
S11349309D014427552721838B2F9927AA27BB271D
S11349408083C09824E0A40180E090E00E94F91BD9
S1134950C09AF4012081E1808281A3809927AA274B
S1134960BB27BA2FA92F982F8827332744275527E9
S1134970522F442733272227FF240027112787019A
S1134980FF24EE242E293F29402B512BBB24CC2479
S1134990DD242A293B294C295D29822B932BA42B26
S11349A0B52B840D951DA61DB71D8383292F3A2F82
S11349B04B2F552722839D014427552721838B2F75
S11349C09927AA27BB278083E0917008F09171088A
S11349D0818185FF02C03092AA0683E00E94CD1730
S11349E087B78F7E87BF84997AC010920A0881E0C6
S11349F00E94BF0DE0917008F0917108818185FFDC
S1134A000FC087E090E090933E0180933D010E94A7
S1134A10190620E031E040E050E00E94D60603C0D1
S1134A2080E00E94AF1C849B5AC080913F01882380
S1134A3091F580910A08882371F511E010930A0812
S1134A400E94BF0D80B320910F0F283098F4E0919D
S1134A50180FE20FFF27E770F070EE0FFF1FEE0F45
S1134A60FF1FEB55F14F40825182628273822F5FA8
S1134A7020930F0F10933F01D0939608C09395088D
S1134A8084992DC0992744E0969587954A95E1F736
S1134A90182F117001C010E080910A088130F9F4D8
S1134AA010920A080E94BF0D10923F011123B9F41D
S1134AB08091950890919608C81BD90B2A9778F491
S1134AC080910F0F882319F0815080930F0F8091EC
S1134AD0700890917108009711F00E94AF0D2FBEDD
S1134AE0FF91EF91DF91CF91BF91AF919F918F9102
S1134AF07F916F915F914F913F912F911F910F91F2
S1134B00FF90EF90DF90CF90BF90AF909F908F90E9
S1134B107F906F905F904F903F902F900F900FBEBB
S1134B200F901F90189578941F920F920FB60F92C2
S1134B3011241F932F933F934F935F936F937F930E
S1134B408F939F93AF93BF93EF93FF9387B78F7E1A
S1134B5087BF78941FB7F89480917E0890917F085E
S1134B60A0918008B09181080097A105B10509F0D2
S1134B7051C080913D0190913E018530910561F1D4
S1134B808630910530F48330910549F0049781F51E
S1134B901AC087309105F1F0089751F514C0869B2F
S1134BA00FC084E090E090933E0180933D010E9409
S1134BB0190627E030E040E050E00E94D60618C015
S1134BC00E94AA2215C00E948715882389F40E9496
S1134BD0D4220EC080E00AC089E00E948F0D81E0DB
S1134BE00E94BF0D83E00E94CD1787E00E94AF1C96
S1134BF08091380190913901019771F482E090E03D
S1134C009093390180933801DE98DE9A80E00E9407
S1134C100C1502C00E943606812F99278FBFFF9181
S1134C20EF91BF91AF919F918F917F916F915F9120
S1134C304F913F912F911F910F900FBE0F901F9096
S1134C401895EF92FF920F931F93CF93DF938B01ED
S1134C50809193089091940886FF45C18F7B8F3390
S1134C6009F093C1C0916801D091690158815093B2
S1134C70DB068091D7069091D8068530910509F41A
S1134C8043C08630910509F48AC0029709F024C113
S1134C9085E090E09093D8068093D7064091EF0189
S1134CA0852F99270196242F3327281739074CF18C
S1134CB0B79906C00E9904C0451B41504093EF01BB
S1134CC04091DB064034E8F44423A1F0BE016F5F59
S1134CD07F4F483018F047E050E007C086E090E08E
S1134CE09093D8068093D706552780E090E00E94E1
S1134CF04D054BC110920E08C09A84E00E94CD1756
S1134D00E8C00E94551841C186E090E09093D8060F
S1134D108093D70680916E08882309F439C0809166
S1134D20EC0A8823A9F5898185FF32C08F814E81E1
S1134D302FB7F894332760918D0870918E082FBF98
S1134D409927982F88275527842B952B8617970703
S1134D5059F08F812E819927982F88273327822B0A
S1134D60932B8F5F9F4FA1F489818770813081F4E9
S1134D70C09AC0988AE00E948F0DC09AC098409152
S1134D80DB0647502896BE018FE30E94D816FDC06B
S1134D904091DB06475055272896BE01A6CFC09AFE
S1134DA080919D07882339F484E00E94CD17809177
S1134DB09D07882311F0B7990AC00E9B08C09091F3
S1134DC00F0F992321F08091DB068B3038F480910A
S1134DD06801909169010E94AF0D3EC0913009F5C0
S1134DE0E091180FFF27EE0FFF1FEE0FFF1FEB558B
S1134DF0F14F2081318142815381E0916801F0912A
S1134E006901FE962187BB27A52F942F832F8087C6
S1134E10CA01AA27BB278783252F33274427552771
S1134E2026838091180F9927019668E070E00E940C
S1134E308D4D8093180F80910F0F815080930F0F29
S1134E40882351F080916801909169010E94AF0D0F
S1134E501092180F10920F0F8091DB06FE01E80FDD
S1134E60F11D808187FF35C0012B99F1698167703D
S1134E702091680130916901623039F5C091700860
S1134E80D0917108209729F180913D0190913E01C4
S1134E900797F9F49B81F90183819817D1F487B7B7
S1134EA08F7E87BFDE01DE96908181E0FD018483E1
S1134EB0F901E90FF11D829131968C9380818F77EE
S1134EC08FAF80E00E94AF1C04C0613011F48CE00D
S1134ED02AC00E94201859C010920E08C09A84E07B
S1134EE00E94CD1752C08E3309F04FC0C09A8091F2
S1134EF03D0190913E010897C9F4C09889E00E9451
S1134F008F0DC09A83E00E94CD1781E090E09093CA
S1134F103E0180933D018FB7F894992723E02093B5
S1134F2037018FBF85E00E942D022FC08091E40FCE
S1134F30882349F484E090E090933E0180933D01FE
S1134F400E94D42222C083E00E94CD1783E090E027
S1134F5090933E0180933D010E947203DC01CB01DA
S1134F6066E371E00E94794D4BE0E42EF12CE80EEB
S1134F70F91EF092E301E092E2010E941906002773
S1134F801127A80197010E94D606DF91CF911F91A6
S1134F900F91FF90EF9008951F920F920FB60F920A
S1134FA011242F933F934F935F936F937F938F932A
S1134FB09F93AF93BF93EF93FF932FB1E091290A8F
S1134FC0F0912A0A309739F08091D1089091D20853
S1134FD0E80FF91F20838091D1089091D20801969F
S1134FE09093D2088093D10880E00E947B04409182
S1134FF07801509179018091D1089091D208841759
S1135000950718F40E94DF041CC06091290A70916E
S11350102A0A80918F0F9091900F10922A0A109271
S1135020290A1092900F10928F0F1092790110920A
S113503078011092D2081092D1082FB120E00E947A
S11350402126FF91EF91BF91AF919F918F917F9115
S11350506F915F914F913F912F910F900FBE0F90E1
S11350601F901895AF92BF92CF92DF92EF920F9359
S11350701F935B016C010E944B03AB01BC0181E0F7
S1135080E82E9601850186E00E942C031F910F9162
S1135090EF90DF90CF90BF90AF9008951F93A39AA5
S11350A0AB9817981F9A89B78F7789BF179A1F9A59
S11350B0AB9880E0AB9AAB988F5F8930D9F7179A99
S11350C01F9AAB98AB9A1F98AB98AB9A1F9AAB9860
S11350D08091CF019091D0018F7190709093D00105
S11350E08093CF010E94A1090E94AF09882329F06F
S11350F010924D0181E090E056C08091CF019091D3
S1135100D00186309105D1F18730910538F4833090
S1135110910571F0059709F044C018C087309105D6
S113512009F14E97F1F56BE070E080E090E017C074
S113513017981F9A80E00E94BB0980914E0180FD60
S11351400AC06AE471E080E090E009C017981F9AF1
S113515080E00E94BB096AEF70E080E090E00E946A
S113516032281FC00E94D609182F0E94D6090E9417
S1135170EC0910934E0186E10E942D0280918D0E60
S11351800E94A1090E94AF09882321F081E0809345
S11351904F0104C080918D0E80934E0186E10E94E0
S11351A02D0280E090E01F9108958FB7F89499271D
S11351B02091F50A20931A0123E0209351018FBF17
S11351C020911A01222319F02130F1F524C0809195
S11351D01701882399F080914D01882379F481E0A7
S11351E080934D0183E090E09093D0018093CF01B0
S11351F01092930F0E944E28882331F180E00E9480
S11352000412E0910601FF27EE0FFF1FED50FE4F41
S113521011821082089580911701882391F0809162
S11352204D01882371F420934D0185E090E0909323
S1135230D0018093CF012093930F0E944E2888239E
S113524019F081E00E9404120895AF92BF92CF92A8
S1135250DF92EF92FF920F931F930E944B037B0107
S11352608C016091130A7091140A8091150A90912F
S1135270160AA0906D01B0906E01C0906F01D0909D
S11352807001A114B104C104D10409F44EC0EFB7F4
S1135290F8942091780A20FD36C0A8019701261BB6
S11352A0370B480B590B2A153B054C055D05C8F413
S11352B0A21AB30AC40AD50A80916D0190916E01B5
S11352C0A0916F01B0917001821B930BA40BB50BDD
S11352D080936D0190936E01A0936F01B093700160
S11352E015C081E090E0A0E0B0E080936D01909360
S11352F06E01A0936F01B093700131E0A32EB12C25
S1135300C12CD12C03C02E7F2093780A8E2F99278D
S11353108FBF0E944B03AB01BC0121E0E22E96013A
S1135320850189E00E942C0305C080911B0A8D7FB2
S113533080931B0A1F910F91FF90EF90DF90CF9005
S1135340BF90AF900895FF920F931F93CF93DF9375
S1135350F82E282F33278BE090E0289FE001299F27
S1135360D00D389FD00D1124C559DE4F81E090E057
S1135370998388831A868A819B81AC81BD81009739
S1135380A105B105A1F00FB7F8941127C9010E9436
S1135390620B0FBF1A821B821C821D821E821F8217
S11353A0188619868F2D0E94751B0E942529DF916E
S11353B0CF911F910F91FF90089580509E4D19F445
S11353C080E00E94A3290895EF92FF920F931F9308
S11353D0CF93DF93CDB7DEB722970FB6F894DEBF35
S11353E00FBECDBF60915B01862F8250823008F0E2
S11353F0CBC0E090DB0AFF2400271127102F0F2DCC
S1135400FE2CEE242091D90A332744275527522F06
S11354104427332722278091DA0A9927AA27BB2712
S1135420DC0199278827282B392B4A2B5B2B809169
S1135430DC0A9927AA27BB27282B392B4A2B5B2B5D
S1135440E22AF32A042B152B809124019091250143
S1135450A0912601B09127018E159F05A007B107E1
S113546029F48091B40A81608093B40A623061F5B2
S113547080915D01882309F087C081E080935D01FC
S113548083E00E94D12A8091240190912501A0916A
S11354902601B09127018093E208292F3A2F4B2F40
S11354A055272093E1089D01442755272093E008C0
S11354B08B2F9927AA27BB278093DF088091280187
S11354C08093E3081092E4086091E408772728E1C8
S11354D030E049E75AE0CE0101960E94F1018823A9
S11354E021F081E00E94D12A4FC089818093E40891
S11354F020912801422F5527662777271AE0440F69
S1135500551F661F771F1A95D1F72CE2829FC001A1
S11355101124AA27BB27480F591F6A1F7B1F80919C
S11355205C01823079F08330B1F0813011F081E098
S11355301CC0BCE2EB2EF12C012D112D25EE38E020
S113554082E011C0ACE2EA2EF12C012D112D25EEE2
S113555038E080E008C0FCE2EF2EF12C012D112D83
S113556025EE38E081E00E944710882369F00E940C
S11355704B03AB01BC01E1E0EE2E00E110E020E0C2
S113558030E087E00E942C0322960FB6F894DEBF29
S11355900FBECDBFDF91CF911F910F91FF90EF9080
S11355A00895823040F490915B01933011F095306E
S11355B011F410925D0180935B0108950F931F9382
S11355C08B019C0190915B01892F8250823000F500
S11355D08091240190912501A0912601B091270189
S11355E0081719072A073B074CF0081719072A0759
S11355F03B0751F580912801481730F581E00E945E
S1135600D12A1092790A10927A0A10927B0A1CC04D
S113561094509230C8F48091290190912A01A0916C
S11356202B01B0912C01081719072A073B074CF0EE
S1135630081719072A073B0739F480912D018417AD
S113564018F081E08093970E1F910F910895DF92D7
S1135650EF92FF920F931F937B018C01D42E8091C4
S11356605B01882319F481E00E94D12AE092290188
S1135670F0922A0100932B0110932C01D0922D015A
S11356808FEF8093A0088093A1088093A20880E004
S113569090E01F910F91FF90EF90DF90089580911B
S11356A05B018430F1F580915D01882309F079C0B4
S11356B081E080935D0185E00E94D12A8091BE093A
S11356C09091BF098093E008892F99278093DF0880
S11356D080910001909101018093E208892F99271C
S11356E08093E1088091290190912A01A0912B01D6
S11356F0B0912C018093E608292F3A2F4B2F552780
S11357002093E5089D01442755272093E4088B2F17
S11357109927AA27BB278093E30880912D018093C2
S1135720E70880915B018530E1F58091970E88232D
S113573031F080E00E94CB141092970E089580916E
S11357407408882321F481E00E94D12A089580916D
S1135750A0088093E8088091A1088093E9088091CB
S1135760A2088093EA088091DF089927982F882758
S11357702091E0083327822B932B8093D908892F1B
S113578099278093DA0881E58093DE084CE063ED85
S113579078E083E00E94701A882319F080E00E9468
S11357A0CB1408958091120A8D7F8093120A809100
S11357B0090A8D7F8093090A80E00E94D12A8FEF25
S11357C090E0A0E0B0E08093290190932A01A09397
S11357D02B01B0932C019FEF90932D011092A00800
S11357E01092A1081092A2081092790A10927A0AD3
S11357F010927B0A85E0809323019093DC0A109237
S1135800DB0A1092DA0A1092D90A9093DD0A909377
S1135810E00A1092B30A80E090E0089581E10E94CA
S1135820930580916601823031F46091690877278D
S113583080E00E94B3120E94D22B10926601089558
S1135840AF92BF92CF92DF92EF92FF920F931F938A
S11358508091E20A9927813041F0813008F4C9C06F
S11358608350823008F0C5C003C00E940E2CC1C012
S113587080916601823009F064C0A090E50ABB24DF
S1135880CC24DD24DC2CCB2CBA2CAA242091E30AD2
S1135890332744275527522F442733272227809123
S11358A0E40A9927AA27BB27DC0199278827282BF4
S11358B0392B4A2B5B2B8091E60A9927AA27BB2711
S11358C0282B392B4A2B5B2BA22AB32AC42AD52A8C
S11358D0E0906708FF2400271127102F0F2DFE2CBE
S11358E0EE2420916508332744275527522F442757
S11358F033272227809166089927AA27BB27DC0132
S113590099278827282B392B4A2B5B2B80916808F1
S11359109927AA27BB27282B392B4A2B5B2BE22A52
S1135920F32A042B152BAE14BF04C006D10639F498
S11359309091E70A80916908981709F45AC00E9467
S11359400E2CE090E50AFF2400271127102F0F2DBD
S1135950FE2CEE242091E30A332744275527522FA7
S11359604427332722278091E40A9927AA27BB27B3
S1135970DC0199278827282B392B4A2B5B2B809114
S1135980E60A9927AA27BB27282B392B4A2B5B2BFE
S1135990E22AF32A042B152B8BEDE81688E3F8068C
S11359A08FE4080786E41807F9F09091E70A8091DC
S11359B0E4018330F1F41092960E74E5E72EF12C95
S11359C0012D112D28E437E040E050E060E070E064
S11359D0892F0E949410882311F484E002C08091DE
S11359E0E4018093E40105C081E0809366010E9494
S11359F09C12A4E6B8E0E2EEFAE08AE001900D928F
S1135A008150E1F71F910F91FF90EF90DF90CF90BD
S1135A10BF90AF900895EF92FF920F931F93790177
S1135A208A016A3018F04AE050E002C0462F552738
S1135A30BC0182EE9AE00E94064EE0926201F0926E
S1135A40630100936401109365010E94202C1F914F
S1135A500F91FF90EF900895EF920F931F93182FDB
S1135A601092500180E00E942513112371F40E94CA
S1135A704B03AB01BC0111E0E12E0BE010E020E090
S1135A8030E085E00E942C0306C00E943C08882375
S1135A9011F00E945A081F910F91EF900895AF9250
S1135AA0BF92CF92DF92EF920F931F932091B30A8C
S1135AB033272150304081E090E0A0E0B0E004C002
S1135AC0880F991FAA1FBB1F2A95D2F78093AF0A8C
S1135AD09093B00AA093B10AB093B20A0E947203E1
S1135AE0A090AF0AB090B00AC090B10AD090B20AA8
S1135AF0882799270894A108B108C108D1086A2108
S1135B007B218C219D210894A11CB11CC11CD11C9A
S1135B10A60EB71EC81ED91EA092AF0AB092B00A34
S1135B20C092B10AD092B20A8091B40A8E7F809357
S1135B30B40A8091120A8D7F8093120A0E944B034B
S1135B40AB01BC0101E0E02E9601850188E00E94D2
S1135B502C031F910F91EF90DF90CF90BF90AF90E7
S1135B6008958091B30A893029F089E08093B30ABB
S1135B700E944F2D0895EF92FF920F931F938091EF
S1135B80E00AE82FFF278091DD0AE817A0F560916D
S1135B90DB0A772788279927982F872F762F662760
S1135BA0E090D90AFF24002711271E2D0027FF2487
S1135BB0EE242091DA0A332744275527A9013327F5
S1135BC02227E22AF32A042B152B2091DC0A3327FF
S1135BD044275527E22AF32A042B152B6E297F2903
S1135BE0802B912B4E2F0E94272B84E08093B40AA4
S1135BF00E94B12D1BC04FEF6FEF70E080E090E08A
S1135C000E94272B0E94D22B81E080932301809154
S1135C10C701823031F0833031F0813039F485E0CE
S1135C2003C083E001C084E00E94C61C1F910F9151
S1135C30FF90EF90089583E0809323018091E60123
S1135C409091E701A091E801B091E9018093DC0A09
S1135C50292F3A2F4B2F55272093DB0A9D014427E8
S1135C6055272093DA0A8B2F9927AA27BB278093DD
S1135C70D90A8091250A9091260AA091270AB09109
S1135C80280A0197A109B1093AE0B695A795979515
S1135C9087953A95D1F78F5F8093DD0A1092E00AD9
S1135CA045E069ED7AE080E090E00E94830580930E
S1135CB0DF0A892F99278093DE0A8091230183309C
S1135CC011F40E94B12D84E0809323018091C701D7
S1135CD080935C010E94BB2D08958B3029F18C3098
S1135CE060F48430C1F0853018F4833071F513C04A
