S01800006275696C642F6D6963617A2F6D61696E2E73726563E5
S11300000C94CA010C94C60E0C94D00E0C94DA0E07
S11300100C94E40E0C94EE0E0C94F80E0C941D1833
S11300200C94020F0C94E9010C94E9010C948A25B8
S11300300C942B270C94900E0C94A60E0C945E102A
S11300400C947F0E0C9464290C94E9010C94E9013E
S11300500C94E9010C942A0F0C94E9010C94E90125
S11300600C949B0E0C94E9010C94E9010C94E901A5
S11300700C94E9010C94E9010C94E9010C94E90154
S11300800C94E9010C940D230C94E901D710DC10B5
S1130090D210D710DC10D210E110D710DC10D2101F
S11300A0E110D710DC10D210D710DC10D2108C1154
S11300B0931185118C11931185119A118C1193113F
S11300C085119A118C11931185118C11931185113D
S11300D0DF11E411DA11DF11E411DA11E911DF1192
S11300E0E411DA11E911DF11E411DA11DF11E4117D
S11300F0DA11481E531E3D1E481E531E3D1E5E1E31
S1130100481E531E3D1E5E1E481E531E3D1E481EA5
S1130110531E3D1EAA1EB51E9F1EAA1EB51E9F1E5F
S1130120C01EAA1EB51E9F1EC01EAA1EB51E9F1E5F
S1130130AA1EB51E9F1E6B3F6F3F733F953F993FAD
S1130140A83FAC3FB03FB83FBC3FC03FE53FFC3F9A
S1130150F146244778478847633FB047BE479D48E8
S1130160A048A348B548B848BB48C148F148F4483A
S1130170F748FA48FD4800490349064909490E4928
S1130180154918491B491E4921492449274900009A
S11301902110422063308440A550C660E770088176
S11301A029914AA16BB18CC1ADD1CEE1EFF13112ED
S11301B0100273325222B5529442F772D6623993C6
S11301C018837BB35AA3BDD39CC3FFF3DEE362243D
S11301D0433420040114E664C774A44485546AA516
S11301E04BB528850995EEE5CFF5ACC58DD55336CD
S11301F0722611163006D776F6669556B4465BB766
S11302007AA719973887DFF7FEE79DD7BCC7C4489C
S1130210E5588668A7784008611802282338CCC9B5
S1130220EDD98EE9AFF9488969990AA92BB9F55A2C
S1130230D44AB77A966A711A500A333A122AFDDB05
S1130240DCCBBFFB9EEB799B588B3BBB1AABA66CFC
S1130250877CE44CC55C222C033C600C411CAEED55
S11302608FFDECCDCDDD2AAD0BBD688D499D977E0C
S1130270B66ED55EF44E133E322E511E700E9FFFA5
S1130280BEEFDDDFFCCF1BBF3AAF599F788F88915B
S1130290A981CAB1EBA10CD12DC14EF16FE180103F
S11302A0A100C230E3200450254046706760B98342
S11302B09893FBA3DAB33DC31CD37FE35EF3B1028F
S11302C09012F322D2323542145277625672EAB552
S11302D0CBA5A89589856EF54FE52CD50DC5E234DF
S11302E0C324A01481046674476424540544DBA722
S11302F0FAB79987B8975FE77EF71DC73CD7D3262F
S1130300F2369106B01657667676154634564CD9B1
S11303106DC90EF92FE9C899E9898AB9ABA944587E
S1130320654806782768C018E1088238A3287DCB81
S11303305CDB3FEB1EFBF98BD89BBBAB9ABB754ACE
S1130340545A376A167AF10AD01AB32A923A2EFD11
S11303500FED6CDD4DCDAABD8BADE89DC98D267C1E
S1130360076C645C454CA23C832CE01CC10C1FEF61
S11303703EFF5DCF7CDF9BAFBABFD98FF89F176E6E
S1130380367E554E745E932EB23ED10EF01E00089A
S11303901C18141011241FBECFEFD0E1DEBFCDBF57
S11303A011E0A0E0B1E0E6E7FDE900E00BBF02C028
S11303B007900D92A633B107D9F71BE0A6E3B1E08D
S11303C001C01D92A236B107E1F70E9472490C9454
S11303D0BA4E0C9400008FB7F894992708958FBFF4
S11303E00895CF93DF9320E030E0B9016F5F7F4F32
S11303F0FB01EE0FFF1FEB50FE4F80819927582F12
S1130400442781819927482B592BE22FD901AA0F20
S1130410BB1FAB50BE4F06C0ED012D83832F992720
S11304208C83E150E7FD0DC01297ED018A81992775
S1130430382F22278B819927282B392B42175307D2
S11304405CF3FF27E7FDF095EE0FFF1FE950FE4F29
S11304504183852F992780836930710511F09B01B1
S1130460C4CFDF91CF910895CF92DF92EF92FF92A4
S11304700F931F93CF93DF936C018B017A01E901F2
S1130480232B19F1FB01A3E0F695E795AA95E1F773
S1130490EE0DFF1D808199279B012770307002C0EB
S11304A0959587952A95E2F780FF06C0F60171833A
S11304B0608380E090E00BC0CB010196BE010E94F6
S11304C0084EBC0180179107E9F681E090E0DF91C6
S11304D0CF911F910F91FF90EF90DF90CF900895EF
S11304E0282F9FB7F894E82FFF27E15FFD4F808105
S11304F08F3F81F4E091470BE21771F40BC0209316
S1130500740A04C0FF27E15FFD4F20832093470B4B
S113051020E007C025E005C08091740A8F3F91F761
S1130520EECF892F99278FBF822F9927089589E0CD
S11305300E9470029927089583E10E94700299270E
S1130540089580E10E94700299270895CF93DF9364
S1130550982F8FB7F894282F3327422F809160016A
S1130560882321F581E0809360019093E5012FBFFA
S11305708FB7F894C82FDD279C2F809131018430E8
S113058099F480916001813021F487E20E94700225
S113059009C0823049F48091E5018093310183E000
S11305A080936001CFBF07C09FBF05C08091E50164
S11305B0891721F42FBF80E090E021C0E92FFF27A5
S11305C0E158F54F80818F3F89F4E0913001E917BC
S11305D089F40CC090932F0104C0FF27E158F54F14
S11305E090839093300180E090E002C085E090E039
S11305F04FBF05C080912F018F3F79F7EBCFDF917B
S1130600CF910895CF92DF92EF92FF920F931F93B1
S1130610CF93DF93782FC62FDD278BE090E0C89F20
S1130620F001C99FF00DD89FF00D1124E95FFB4F35
S11306308081882319F085E090E048C0643018F484
S113064080E091E002C080E090E0AA27BB27BA2FA7
S1130650A92F982F882782179307A407B507A0F11D
S1130660821B930BA40BB50B8C159D05AE05BF0522
S113067058F18BE090E0C89FF001C99FF00DD89F1E
S1130680F00D1124E95FFB4F70832383348345838A
S11306905683C782D086E186F28612830183613055
S11306A069F0613028F0623059F0633059F003C0CA
S11306B080E00E94A60280E090E008C081E0F9CFCB
S11306C082E0F7CF83E0F5CF86E090E0DF91CF9131
S11306D01F910F91FF90EF90DF90CF900895EF92CC
S11306E00F931F93AE2D99E0899FF0011124EA5DC9
S11306F0FA4F408351836283738304831583268373
S11307003783A17080858E7F8A2B826080878EE0FC
S11307100E9470021F910F91EF9008957FB7F89493
S113072062B72091C9013091CA014091CB01509127
S1130730CC0106B601FE0FC081B792B7280F311D58
S1130740411D511D2F5F3F4F4F4F5F4F290F311DEB
S1130750411D511D04C0260F311D411D511D872F00
S113076099278FBFCA01B90108952F923F924F92E2
S11307705F926F927F928F929F92AF92BF92CF922D
S1130780DF92EF92FF920F931F93CF93DF93CDB736
S1130790DEB729970FB6F894DEBF0FBECDBF6FB793
S11307A06983F8942090D9033090DA034090DB03F6
S11307B05090DC03662477248824BEE4AB2EA3E89F
S11307C0BA2ECC24DD24EE24FF2400E010E0222DF8
S11307D0332D442D552D662D772D882D90E00E94C4
S11307E05C4C2A833B834C835D836E837F83888741
S11307F09987822E932EA42EB52E2401350100E272
S11308000E945A4DA22EB32EC42ED52EA3019201BE
S113081056954795379527952A0D3B1D4C1D5D1D13
S113082057FF05C05F772F5F3F4F4F4F5F4F2093B8
S1130830D9033093DA034093DB035093DC03E9815B
S11308408E2F99278FBFCA01B90129960FB6F89444
S1130850DEBF0FBECDBFDF91CF911F910F91FF90EF
S1130860EF90DF90CF90BF90AF909F908F907F904C
S11308706F905F904F903F902F900895FC0182817C
S11308809927582F442781819927482B592BCA012E
S1130890892F99278695869583709070823091056B
S11308A059F08330910559F0892B19F420E030E098
S11308B008C02CE93FEF05C022E030E002C028E088
S11308C030E0CA0184E0989F812D99271124823059
S11308D0910559F08330910559F0892B19F480E082
S11308E090E008C08CE99FEF05C082E090E002C070
S11308F088E090E0280F391F2A5F3F4FCF01820F15
S1130900931F0895282F9FB7F894662349F0E82F82
S1130910FF27E85CF94F8081882311F021E006C0AD
S1130920E22FFF27E85CF94F608320E0892F9927A5
S11309308FBF822F99270895E82F8FB7F894282F17
S1130940332790E0FF27E85CF94F8081861709F48C
S113095091E02FBF892F99270895882311F06E9A6B
S113096008956E980895882311F06F9A08956F98EA
S1130970089580E00E94AD04BA9ABB98B99AB89AD7
S11309806C9A80E00E94B3046B986A9881E00E949C
S1130990AD04709A8DB18C7F8DB908951F93182F73
S11309A081E00E94AD041FB9779BFECF8FB19927D8
S11309B01F9108958F929F92AF92BF92CF92DF9230
S11309C0EF92FF920F931F93CF93DF938FB7F89417
S11309D09927C090F30AD090F40A80908D059090E6
S11309E08E05C0913504D091360420917801309160
S11309F07901EAE0AE2EB12CAC0EBD1E2A153B05E2
S1130A0008F459018FBF7401EC0EFD1E86010C0F12
S1130A101D1F14C0C114D10419F0F801808101C054
S1130A2080E00E94CE048114910411F0F7018083C8
S1130A3021960894E11CF11C0F5F1F4FC50101971B
S1130A40C817D90738F381E00E94B3049FB7F8941C
S1130A50C114D10431F0CC0EDD1EF60180818FB9B2
S1130A6001C01FB8D0933604C0933504892F992749
S1130A708FBF80E090E0DF91CF911F910F91FF90A5
S1130A80EF90DF90CF90BF90AF909F908F9008959C
S1130A902FB7F894332750937901409378019093BA
S1130AA0F40A8093F30A70938E0560938D05109277
S1130AB03604109235042FBF452B29F08FB10E94C4
S1130AC0DA04992708958AE00E94700280E090E099
S1130AD008958FB7F894992710923A068FBF089516
S1130AE0EEE8F1E06927660FF11DE60FF11DC895E8
S1130AF0982F802D3196C895902508951F93CF93F4
S1130B00DF93142FEB0104C069910E94700511500A
S1130B101123D1F7DF91CF911F910895462FBC0186
S1130B2080E090E00E947E0508951F93982F1FB7E0
S1130B30F89480916101823099F58091340189178C
S1130B4079F58091320120E030E08F3F11F421E00B
S1130B5030E0232BF1F49FEF909334018F3F19F48D
S1130B602FEF30E00DC0282F3327F901EE5FFC4F43
S1130B708081809332018F3F11F4909333019083ED
S1130B802093F00381E08093610188E20E94700267
S1130B9005C08FEF809334011092610121E001C000
S1130BA020E0812F99278FBF90E0213009F491E054
S1130BB081E09827892F99271F910895982F96955A
S1130BC096959695E5E2F5E0E90FF11D877021E031
S1130BD030E002C0220F331F8A95E2F7808182231E
S1130BE0992708950F931F93CF93DF93182F8FB7EF
S1130BF0F894282F3327022F80915901882359F51F
S1130C0081E080935901109324052FBF8FB7F89486
S1130C109927379A8FBF8FB7F894C82FDD279C2F59
S1130C20809122018230A9F480915901813021F40C
S1130C3080E20E94700209C0823059F48091240538
S1130C408093220183E080935901CFBF80E090E03C
S1130C5025C09FBFFBCF80912405811711F42FBFBE
S1130C60F5CF812F0E94DE05882319F085E090E0FE
S1130C7014C0E12FE695E695E695FF27EB5DFA4F64
S1130C80177081E090E002C0880F991F1A95E2F76F
S1130C902081282B208380E090E00FBFDF91CF914B
S1130CA01F910F910895E82F9A01AB01BB27A52F3F
S1130CB0942F832FBC01E13049F0E13078F0E23029
S1130CC041F0E33049F060E078E008C060507F4FC5
S1130CD005C060507E4F02C060507D4F8827992721
S1130CE0982F872F762F6627307044275527620F59
S1130CF0731F841F951F08958FB7F89460918F0414
S1130D00709190042CB53DB506B602FE04C06F5F29
S1130D107F4F2CB53DB599278FBF88279927CB01E5
S1130D207727662744275527622B732B842B952B13
S1130D300895EF92FF920F931F930E947C067B010C
S1130D408C012091EC033091ED034091EE0350911E
S1130D50EF038091E2039091E303A091E403B09147
S1130D60E503820F931FA41FB51FE216F3060407C1
S1130D70150730F082179307A407B50758F005C08C
S1130D8082179307A407B507E0F5E816F9060A07E2
S1130D901B07B8F59C01AD012E193F09400B510BFF
S1130DA0213060E8360760E0460760E0560768F1E6
S1130DB080E090E8A0E0B0E0E80EF91E0A1F1B1FD7
S1130DC0E092EC03F092ED030093EE031093EF0333
S1130DD080E090E8AFEFBFEFE80EF91E0A1F1B1F7B
S1130DE020503048404050402093E2033093E303C6
S1130DF04093E4035093E50320E030E840E050E002
S1130E0014C020E030E040E050E08093EC03909385
S1130E10ED03A093EE03B093EF031092E20310925C
S1130E20E3031092E4031092E503A901B7012CB582
S1130E303DB5C9018E199F0903968417950720F0C3
S1130E40B9016D5F7F4F02C0640F751F6115710595
S1130E5011F461E070E0615070407BBD6ABD80E1D7
S1130E6086BF87B7806187BF1F910F91FF90EF9076
S1130E7008950F931F930FB7F89411276093EC0311
S1130E807093ED038093EE039093EF032093E203BA
S1130E903093E3034093E4035093E5030E949906DF
S1130EA00FBF1F910F91089510926701823031F0A6
S1130EB0833041F0813049F480E101C08EE00E942A
S1130EC0950508958FE00E9495050895813049F0B5
S1130ED0813078F0823041F0833049F060E070E096
S1130EE008C060507E4F05C060507D4F02C0605006
S1130EF07F4FCB010895982F4FB7F894552722B30D
S1130F00277D22BB80E097FD939A959A8299806809
S1130F1022BB96FD939A959A8299806422BB95FD93
S1130F20939A959A8299806222BB94FD939A959A9A
S1130F308299806122BB93FD939A959A82998860E5
S1130F4022BB92FD939A959A8299846022BB91FD6B
S1130F50939A959A8299826022BB90FD939A959A6E
S1130F60829981604FBF9927089580917B0A8823D5
S1130F7011F0813011F478E008C0882329F0813021
S1130F8019F02FE170E002C070E02EE1622FEFB79C
S1130F90F8948091AA028E7F8093AA0287B1982F39
S1130FA09F71829586958695837019F080E090E014
S1130FB012C0822F8850863118F081E090E00BC077
S1130FC040E050E03327892F99272817390711F477
S1130FD041E050E0CA01982F9170990F8091AA02C4
S1130FE08178262F2F71422F440F440F892B842B95
S1130FF08093AA02332727B9783059F58091750A6E
S11310009091760A21E08638920718F087E090E004
S11310101FC0833C910518F086E090E019C081362A
S1131020910518F085E090E013C08033910518F025
S113103084E090E00DC08831910518F083E090E0E1
S113104007C00C9718F082E090E002C080E090E0C6
S1131050782F7770887D872B886D992786B98E2F96
S113106099278FBF08954FB7F894209151012223F7
S113107019F421E030E00FC080911A01823019F098
S113108020E030E008C080E090E02150223010F4ED
S113109081E090E09C01842F99278FBF822F9927AC
S11310A00895CF93DF938FB7F894C82FDD279C2F33
S11310B080911A018230A9F480915101813021F488
S11310C087E10E94700209C0823059F48091590668
S11310D080931A0183E080935101CFBF80E090E0B8
S11310E003C09FBF81E090E0DF91CF9108950E94FB
S11310F03308882311F00E9451080895CF93DF9399
S1131100982F8FB7F894282F3327422F80915401BA
S1131110882321F581E0809354019093C7032FBF66
S11311208FB7F894C82FDD279C2F80911D01813043
S113113099F480915401813021F48AE10E94700273
S113114009C0823049F48091C70380931D0183E074
S113115080935401CFBF07C09FBF05C08091C703D0
S1131160891721F42FBF80E090E021C0E92FFF27E9
S1131170E359FC4F80818F3F89F4E0911C01E9170A
S113118089F40CC090931B0104C0FF27E359FC4F62
S1131190908390931C0180E090E002C085E090E091
S11311A04FBF05C080911B018F3F79F7EBCFDF91D3
S11311B0CF91089580E00E947E08992708958FB703
S11311C0F8949927209174002093D9058FBF08952E
S11311D00E94DF088091D9058E7F80698093D905AC
S11311E08093740008951F93CF93DF93982F8FB744
S11311F0F894282F3327422F80915501882309F032
S113120044C011E01093550190933D022FBF8FB756
S1131210F894C82FDD27809156018823B9F4889863
S113122089981092710081E480937000109272008A
S1131230109274000E94DF088091D90584608E7F2B
S11312408093D9058093740010935601CFBF8FB754
S1131250F894C82FDD279C2F80912001823099F4C7
S113126080915501813021F48DE10E94700209C002
S1131270823049F480913D028093200183E0809381
S11312805501CFBF07C09FBF05C080913D0289179C
S113129021F42FBF80E090E021C0E92FFF27E75F12
S11312A0FD4F80818F3F89F4E0911F01E91789F494
S11312B00CC090931E0104C0FF27E75FFD4F90838D
S11312C090931F0180E090E002C085E090E04FBF62
S11312D005C080911E018F3F79F7EBCFDF91CF914D
S11312E01F910895982F8150883018F082E090E083
S11312F0089580918B0A882319F085E090E0089581
S113130081E080938B0A8093C60190931206892F03
S11313109927019721E030E002C0220F331F8A95FC
S1131320E2F78091E603822B8093E60380E00E943B
S1131330F30880E090E0089590E087FF02C01F9AD0
S113134001C01F98AB9AAB989F5F983011F0880F3B
S1131350F4CF089517981F9AAB9A0F9B03C081E0AE
S113136090E00895AB9880E090E008952FB7F8944A
S113137099B79F7799BF90E898BF9AB790689ABF3A
S1131380882319F08AB7806402C08AB78F7B8ABF2A
S113139089B7806889BF822F99278FBF80E090E04A
S11313A0089580E020E0AB9A0F998160273031F0F6
S11313B0880FAB982F5F283011F0F5CFAB98179AB0
S11313C01F98AB9AAB9817981F9A99270895179A64
S11313D01F9AAB9AAB980895AC01E5E9F4E080E07C
S11313E090E09C01858180FF05C0808191818417F4
S11313F0950741F0C90101963E968A30910589F717
S11314002FEF30E0C90108950E94EC098F3F99F055
S11314109927880F991FFC0123E0EE0FFF1F2A95DF
S1131420E1F7E81BF90BEB56FB4F858181FF03C005
S11314308285938508958FEF90E008950E94EC09CA
S11314408F3F19F481E090E008959927880F991F40
S1131450FC0143E0EE0FFF1F4A95E1F7E81BF90B8F
S1131460EB56FB4F85818860858380E090E008958A
S11314709C016E5F633318F080E090E008950C9651
S113148011F0C9010E960895FC0180899927982FBF
S1131490882721893327822B932B0895FC01CB01C4
S11314A0428553859A0173E0220F331F7A95E1F741
S11314B0240F351F2B5F3F4F820F931F6AE070E0AC
S11314C00E94084E738762870895FC0164859585A0
S11314D0662339F48AE0989FB00111246A50704061
S11314E00BC077278AE0989FC00111240E941C4EEC
S11314F06A50704014861586CF010E944E0A0895E2
S113150080914401E82FFF27EE0FFF1FEB52F64FA7
S11315100190F081E02D20914601222351F08F5F4C
S1131520809344018D3011F4109244012150209392
S11315304601CF010895FC0180899927982F8827B7
S113154021893327822B932B0895AF92BF92DF9288
S1131550EF92FF920F931F93CF93DF935C01D09090
S1131560CE01F0900304EE2425C00F2D0370112743
S1131570C5010E949B0AF801EE0FFF1FEE0FFF1F2B
S1131580E00FF11FE05CFD4F20813181821793074A
S113159079F4D5011C96ED019E818281891741F46D
S11315A099818481891721F49F818381891721F08E
S11315B0E394F394ED14C9F68E2D9927DF91CF911E
S11315C01F910F91FF90EF90DF90BF90AF9008951F
S11315D0AC01209100042C3018F081E090E00895D3
S11315E08091E003682F620F712D711DFB016C3037
S11315F0710508F03C97EE0FFF1FE75EF94F51832A
S113160040832F5F2093000480E090E00895AC01B4
S11316102091FF032C3018F081E090E00895809130
S1131620860A682F620F712D711DFB016C307105E4
S113163008F03C97EE0FFF1FE75BF44F51834083A4
S11316402F5F2093FF0380E090E008950F931F9392
S1131650CF93DF93EC01892BE9F02091F2093091CB
S1131660F3098FEF2F3F3807A9F08091D101813022
S113167019F4198218820BC00091F4091091F5092C
S1131680C9010E94040A080F191F1983088380E006
S113169090E002C081E090E0DF91CF911F910F9123
S11316A008959C01685F633318F080E090E008952A
S11316B00C9611F0C901449608954FB7F894552734
S11316C0FC0173E0F695E7957A95E1F7E452FA4F59
S11316D08770907021E030E002C0220F331F8A959A
S11316E0E2F78081822B80834FBF0895AF92BF922F
S11316F0CF92DF92EF92FF920F931F93282F3327FD
S11317008BE090E0289FF001299FF00D389FF00DA9
S11317101124E559FE4F82819381A481B5810097FC
S1131720A105B10569F080819181880F991F91838A
S113173080838150944020F080E094E09183808302
S11317408BE090E0289F5001299FB00C389FB00C8B
S113175011248BE691E0A80EB91EF50186819781CC
S1131760A085B18582839383A483B583C080D1800F
S1131770EE24FF2469E0CC0CDD1CEE1CFF1C6A95F2
S1131780D1F70E94B503DC01CB01F5010081118181
S1131790B801762F6627770F0E94084EAA27BB2729
S11317A08C0D9D1DAE1DBF1D222733274AE0000F5F
S11317B0111F221F331F4A95D1F7081B190B2A0B3F
S11317C03B0B068317832087318722813381448131
S11317D05581280F391F4A1F5B1F2283338344839B
S11317E055831F910F91FF90EF90DF90CF90BF90A2
S11317F0AF900895DF92EF92FF920F931F938FB7EC
S1131800F894282F3327D22E91B782B746B798176A
S113181011F041FF02C02FBF6AC0809133048823B6
S1131820E1F10E948E03E0903406F09035060091B9
S11318303606109137062091EB013091EC0140916E
S1131840ED015091EE016E197F09800B910B621727
S113185073078407950720F01092330471E01EC0CB
S11318602E0D3F1D401F511F8091C9019091CA0147
S1131870A091CB01B091CC01281B390B4A0B5B0B17
S1131880273E31054105510540F4822F223010F0E6
S113189070E005C070E082E002C070E086EE682F60
S11318A0615000B601FCFDCF82B7681709F46F5F81
S11318B02091C9013091CA014091CB015091CC01D2
S11318C0DA01C9010196A11DB11D860F911DA11D4B
S11318D0B11D82179307A407B50710F4622F609512
S11318E061BFDFBE772319F08DE00E9470021F9163
S11318F00F91FF90EF90DF900895AFB7F894BB2756
S1131900E1E0E093330460933406709335068093EA
S11319103606909337062093EB013093EC01409305
S1131920ED015093EE01AFBF0E94FA0B08950895A4
S11319300F931F93CF93DF93282F3327C901880F69
S1131940991FFC0113E0EE0FFF1F1A95E1F7E81B46
S1131950F90BEB56FB4F858182FF03C062838B7FBB
S113196085838281962F981B628383818F5F838313
S113197086E08683992361F08481890F8150848372
S11319809B3030F0148281E08383178211861086A5
S1131990C901880F991FFC01A3E0EE0FFF1FAA9550
S11319A0E1F7E81BF90BEB56FB4F8381833008F416
S11319B071C000811181C5E9D4E0888199818017C3
S11319C0910709F061C08D8180FF5EC08E818823FC
S11319D011F081508E838F81882311F081508F8381
S11319E08E81882351F48F81882339F48D8191E08D
S11319F089278D831986188642C08D8182608D83E4
S1131A009B816C81690F633008F463E077278FEF63
S1131A10989FC00111240E941C4E888529E0829F52
S1131A20C00111240596860F911D6AE070E00E94A2
S1131A301C4E68871B821C824985662301F144235E
S1131A40F1F0772781E09EEF0E94084ECB019B01C5
S1131A50F3E0220F331FFA95E1F7642F7727880FFD
S1131A60991F820F931F0E94084E6A5070406F3F67
S1131A70710519F010F06CE370E0772702C06CE395
S1131A8070E0CE010E944E0A2E9685E0C132D8073E
S1131A9009F093CFDF91CF911F910F91089580E0CA
S1131AA090E0EAE9F4E09C01808180FF08C0C9016C
S1131AB001963E968A309105B1F72FEF30E0C901C7
S1131AC008959EE0899FF0011124EB56FB4F71832A
S1131AD0608312821382148285E0858386E0868384
S1131AE0878310861186138612860895982FAFEF88
S1131AF060E070E040E050E0EAE9F4E08081282F03
S1131B00332720FF0BC021FF09C023FD07C0258117
S1131B1036812617370710F0A42FB9014F5F5F4FA6
S1131B203E964A30510551F7892F9927681779074E
S1131B3018F48FEF90E008958A2F99270895AC0147
S1131B4030910B028FEF4F3F580711F020E012C085
S1131B50832F99270895E22FFF2783E0EE0FFF1FBD
S1131B608A95E1F7E75EFC4F8081918184179507A0
S1131B7019F02F5F231779F7822F992708951F9360
S1131B80CF93DF93162FC0E0D0E060E30E94380AC1
S1131B90FC0180818123811711F4C1E0D0E0CE01E2
S1131BA0DF91CF911F910895FC01808144855527D1
S1131BB04F7050709A01220F331F240F351F821B60
S1131BC08F5099270895AC01209146012D3018F0CB
S1131BD081E090E0089580914501E82FFF27EE0F02
S1131BE0FF1FEB52F64F518340838F5F8093450173
S1131BF08D3011F4109245012F5F2093460180E04F
S1131C0090E0089580E88093EF011092720310929F
S1131C107C0A1092730A109201030895CF93DF9304
S1131C20FC01FE961582DF011696ED011B821A82D5
S1131C30198280E88683DF91CF91089597B79F7DBD
S1131C4097BF90E296BF882319F08EB5806402C0D6
S1131C508EB58F7B8EBD87B7806287BF80E090E0B2
S1131C600895AF92BF92CF92DF92EF92FF920F93BB
S1131C701F93F82E5A016B010E948E03AB01BC0125
S1131C80EE24960185018F2D0E946F031F910F9101
S1131C90FF90EF90DF90CF90BF90AF900895AF92F8
S1131CA0BF92CF92DF92EF92FF920F931F93CF9345
S1131CB0DF93CDB7DEB728970FB6F894DEBF0FBE1B
S1131CC0CDBF20E070E0E0910001F091010132E12C
S1131CD04DE65CE46FE4809101019E2F28960FB6D7
S1131CE0F894DEBF0FBECDBFDF91CF911F910F914E
S1131CF0FF90EF90DF90CF90BF90AF9008951F9228
S1131D000F920FB60F9211248F9383B783BF00B63F
S1131D1000FCFDCF8F910F900FBE0F901F90189570
S1131D2078941F920F920FB60F9211240F900FBE4A
S1131D300F901F90189578941F920F920FB60F92E0
S1131D4011240F900FBE0F901F90189578941F9236
S1131D500F920FB60F9211242F933F938F939F935B
S1131D602FB7F894332780918F04909190040196B3
S1131D709093900480938F042FBF9F918F913F91F4
S1131D802F910F900FBE0F901F9018951F920F92D6
S1131D900FB60F9211240F900FBE0F901F9018953D
S1131DA01F920F920FB60F9211240F900FBE0F9037
S1131DB01F9018951F920F920FB60F9211240F9037
S1131DC00FBE0F901F9018951F920F920FB60F928F
S1131DD011240F900FBE0F901F9018951F920F9211
S1131DE00FB60F9211240F900FBE0F901F901895ED
S1131DF01F920F920FB60F9211240F900FBE0F90E7
S1131E001F9018951F920F920FB60F9211242F93C3
S1131E103F934F935F936F937F938F939F93AF936E
S1131E20BF93EF93FF9389B78F7789BF85E10E94B2
S1131E307002FF91EF91BF91AF919F918F917F912C
S1131E406F915F914F913F912F910F900FBE0F9023
S1131E501F9018951F920F920FB60F9211242F9373
S1131E603F934F935F936F937F938F939F93AF931E
S1131E70BF93EF93FF9344B155B178948FB7F8941F
S1131E8099272091AA02322F3695317021708FBF85
S1131E902223D9F433988091FB03813021F08230DE
S1131EA009F039C00AC0332351F05093110640930E
S1131EB0100681E20E9470022EC0332319F40E949E
S1131EC0B50729C01092FB0326C08FB7F894992751
S1131ED08FBF2FB7F894332786B1582F5770482FE8
S1131EE04072987D942B952B8074977B982B9061EE
S1131EF09F77892F992786B9887D842B852B8773B3
S1131F008061992786B9887D842B852B877B80699E
S1131F10992786B92FBFFF91EF91BF91AF919F9100
S1131F208F917F916F915F914F913F912F910F907E
S1131F300FBE0F901F901895EF92FF920F931F936F
S1131F40CF93DF93EA017B010AC08C010F5F1F4F1F
S1131F500E94A54EF70181937F012197C801209724
S1131F60A1F780E090E0DF91CF911F910F91FF9056
S1131F70EF900895AF92BF92CF92DF92FF920F93AA
S1131F801F93CF93DF935C01FC018281882361F46A
S1131F90B092F20AA092F10A8281882309F084C0E7
S1131FA010923601D89A80C0442309F475C0F50113
S1131FB0C080D1808091CE01843009F046C0C60132
S1131FC00E94A50A2091CE01622F0E94FC4D492F48
S1131FD09217D8F5992359F480910304992701960F
S1131FE064E070E00E941C4E8093030429C0809139
S1131FF00304840F912D911D9C0123703070E9011D
S1132000CC0FDD1FCC0FDD1FC20FD31F019664E080
S113201070E00E941C4EFC01EE0FFF1FEE0FFF1F2D
S1132020E80FF91FC05CDD4FE05CFD4F85E00190D7
S113203009928150E1F74F5F8091CE014817B8F2C1
S11320408091CE0181508093CE01F090CE01809199
S113205003048F0D912D911D837090708C01000FDE
S1132060111F000F111F080F191F005C1D4FC6011F
S11320700E949B0AF80191838083F6018289F8010A
S11320808283F6018585F8018483F6018389F8014A
S11320908383F394F092CE01F501808191810E94B3
S11320A0E80AC5010E94070BDF91CF911F910F91A0
S11320B0FF90DF90CF90BF90AF9008951F920F9242
S11320C00FB60F9211242F933F934F935F936F9307
S11320D07F938F939F93AF93BF93EF93FF9383B7B4
S11320E083BF00B600FCFDCF81B799270196AA27CC
S11320F0BB272091C9013091CA014091CB01509175
S1132100CC01280F391F4A1F5B1F2093C90130934C
S1132110CA014093CB015093CC0178940E94FA0BEE
S1132120FF91EF91BF91AF919F918F917F916F91AB
S11321305F914F913F912F910F900FBE0F901F9081
S11321401895BF92CF92DF92EF92FF920F931F9355
S1132150B82E6701780180915E01882319F085E02B
S113216090E034C0EB2DFF27E131F105B8F4EA5BD0
S1132170FF4FEE0FFF1F0590F491E02D099481E0CD
S11321800E9402039927282F882349F481E0809331
S11321905E01B092420B80E090E018C021E0822FF3
S11321A0992714C089019A01AB0163E0E8CF890142
S11321B09A01AB0161E0E3CF89019A01AB0162E0CE
S11321C0DECF89019A01AB0160E0D9CF1F910F9155
S11321D0FF90EF90DF90CF90BF900895AF92BF92A1
S11321E0CF92DF92EF92FF920F931F938091BE03E1
S11321F0992722E330E0829FA001839F500D929F94
S1132200500D1124FA01E057F54F8081A82EBB240C
S1132210CC24DD24AAE0AA0CBB1CCC1CDD1CAA9592
S1132220D1F7FA01EF56F54F80812CE2829FC0016D
S11322301124AA27BB27A80EB91ECA1EDB1E9A01A9
S11322402E56354F80915C01823079F08330B1F0A5
S1132250813011F081E01CC0FCE2EF2EF12C012D45
S1132260112DB601A50185E011C0ECE2EE2EF12C92
S1132270012D112DB601A50183E008C07CE2E72EF3
S1132280F12C012D112DB601A50184E00E94A110AD
S1132290882311F010923E021F910F91FF90EF904E
S11322A0DF90CF90BF90AF900895BF92CF92DF920E
S11322B0EF92FF920F931F93B82ED70180915E0186
S11322C0882319F085E090E03CC0EB2DFF27E13135
S11322D0F105B8F4E95AFF4FEE0FFF1F0590F49192
S11322E0E02D099485E00E9402039927282F882372
S11322F049F481E080935E01B092420B80E090E06B
S113230020C021E0822F99271CC0680179018D012A
S11323109A01AB0163E0E6CF680179018D019A016E
S1132320AB0161E0DFCF680179018D019A01AB0156
S113233062E0D8CF680179018D019A01AB0160E0B8
S1132340D1CF1F910F91FF90EF90DF90CF90BF906E
S11323500895BF92CF92DF92EF92FF920F931F9353
S1132360B82E6701780180915E01882319F085E019
S113237090E034C0EB2DFF27E131F105B8F4E859C2
S1132380FF4FEE0FFF1F0590F491E02D099484E0B8
S11323900E9402039927282F882349F481E080931F
S11323A05E01B092420B80E090E018C021E0822FE1
S11323B0992714C089019A01AB0163E0E8CF890130
S11323C09A01AB0161E0E3CF89019A01AB0162E0BC
S11323D0DECF89019A01AB0160E0D9CF1F910F9143
S11323E0FF90EF90DF90CF90BF900895EF92FF920F
S11323F00F931F93813051F0813030F0823041F0DF
S1132400833041F081E009C086E005C089E003C063
S113241087E001C088E00E94A91199271F910F91BC
S1132420FF90EF9008958FB7F89499272091240591
S11324302093220123E0209359018FBF8091220130
S1132440882319F0813079F408C081E08093FB037C
S113245010927B0A0E94B50708958093FB03809332
S11324607B0A0E94B50708950F931F93CF93DF93C0
S1132470182F8FB7F894C82FDD270C2F61E080E068
S11324800E948204882321F0CFBF85E090E024C01D
S113249080910A018823A1F480913C01823081F467
S11324A009C082E080933C0110920A010E94B904A1
S11324B0B89AC0981093070180E00FBF99270CC009
S11324C080913C01882369F38FB7F894992710927F
S11324D038068FBF81E0F1CFDF91CF911F910F912B
S11324E00895EF92FF920F931F93CF93DF93982F4A
S11324F08FB7F894E82E80915901833009F045C0D4
S113250080912201891709F040C080912505882314
S113251009F046C03EC0EF2DE695E695E695FF2707
S11325204F2D5527EB5DFA4F9A012770307081E0EB
S113253090E002C0880F991F2A95E2F780952081C8
S113254028232083C093580111C02196C230D1059D
S113255011F4C0E0D0E0FC2E8C2F0E94DE0588230D
S1132560D1F6C017D10789F74FEF50E04093240507
S11325708FEF8093220181E08093590180E20E94D1
S11325807002EFBE80E090E011C0EFBE81E090E009
S11325900DC082E080932201109259013798F1CF47
S11325A080915801082F1127E801CFCFDF91CF91F7
S11325B01F910F91FF90EF900895982F81508830CC
S11325C018F082E090E0089580918B0A882319F036
S11325D085E090E0089581E080938B0A8093890AD6
S11325E090931206892F9927019721E030E002C0C9
S11325F0220F331F8A95E2F78091E60382278093A6
S1132600E60380E00E94F30880E090E00895982FAC
S113261080915501833009F047C0809120018917CA
S113262009F042C080911E0120E030E08F3F11F498
S113263021E030E0232BF9F48F3F19F42FEF30E041
S11326400EC0282F3327F901E75FFD4F8081809367
S11326501E018F3F11F480931F018FEF808320931D
S11326603D028FEF8093200181E0809355018DE13D
S11326700E94700216C082E08093200110925501DE
S113268080915601813069F40E94DF088091D90558
S11326908A768093D90580937400909891981092CB
S11326A0560180E090E0089581E090E008951F9342
S11326B0182F80917601909177016817790789F432
S11326C0413079F423543B4061F40E94E80881E0EE
S11326D00E940713112311F48EE101C08FE10E94BF
S11326E070021F91089581E08093500180E00E9460
S11326F07E08992708951F93982F8FB7F894182F61
S1132700809151018330D1F580911A018917B1F577
S11327108091180120E030E08F3F11F421E030E097
S1132720232BE9F48F3F19F42FEF30E00EC0282F4C
S11327303327F901ED57F54F8081809318018F3FBE
S113274011F4809319018FEF8083209359068FEF42
S113275080931A0181E08093510187E109C082E0EE
S113276080931A011092510181E08093520189E112
S11327700E9470021FBF80E090E003C01FBF81E091
S113278090E01F9108951F93982F8FB7F894182FF6
S1132790809154018330B1F580911D01891791F521
S11327A080911B0120E030E08F3F11F421E030E004
S11327B0232BF9F48F3F19F42FEF30E00EC0282FAC
S11327C03327F901E359FC4F808180931B018F3F2C
S11327D011F480931C018FEF80832093C7038FEF44
S11327E080931D0181E0809354018AE10E9470026C
S11327F005C081E080931D01109254011FBF80E049
S113280090E003C01FBF81E090E01F91089580E035
S11328100E94C31399270895CF93DF93982F8FB7FE
S1132820F894C82FDD272C2F80916101882361F44F
S113283081E0809361019093F00388E20E9470022A
S1132840CFBF80E090E021C0E92FFF27EE5FFC4F6F
S113285080818F3F89F4E0913301E91789F40CC03A
S11328609093320104C0FF27EE5FFC4F9083909356
S1132870330180E090E002C085E090E02FBF05C006
S1132880809132018F3F79F7EBCFDF91CF9108959B
S11328908FB7F894282F3327922F809134018131F8
S11328A049F480916101823029F42FBF8BE20E94A8
S11328B0700208959FBF81E10E940C1408951F9334
S11328C0182F809167018823E1F4623041F063306E
S11328D041F0613011F081E007C080E103C08EE077
S11328E001C08FE00E940C1490E0882309F491E069
S11328F090936701992329F01093F90980E090E0FF
S113290002C081E090E01F9108958FB7F894992751
S1132910DA9AD998D8988FBF109266018091C8032B
S11329209927833019F08430D1F406C081E0809374
S113293066010E944814089540E050E060E070E0B1
S11329408091CD030E9453066093DE017093DF01F2
S11329508093E0019093E10181E00E94F2050895E3
S11329601F93982F8FB7F894182F809160018330AC
S1132970B1F580913101891791F580912F0120E003
S113298030E08F3F11F421E030E0232BF9F48F3F46
S113299019F42FEF30E00EC0282F3327F901E15846
S11329A0F54F808180932F018F3F11F48093300184
S11329B08FEF80832093E5018FEF8093310181E0D5
S11329C08093600187E20E94700205C084E08093D6
S11329D03101109260011FBF80E090E003C01FBF6F
S11329E081E090E01F9108950F931F938B0180E085
S11329F00E947B13E0910601FF27EE0FFF1FED50AD
S1132A00FE4F0183012F112700831F910F91089519
S1132A1080915301813029F48093500180E00E9419
S1132A207E088FB7F894992710925301109252019F
S1132A308FBF08950F931F9380914D01882399F1BF
S1132A40809164058D7F809364050E94D109082FCD
S1132A500E94D109182F0E94D1090E94E709809190
S1132A60CF019091D0018330910519F00597D9F4E5
S1132A7012C010924D018091F70A8823A1F4602FAF
S1132A807727762F6627812F9927682B792B80E06B
S1132A900E94F41408C010924D018091F70A81300D
S1132AA011F40E947B131F910F9108950F931F93AC
S1132AB0182F0FB7F89461E080E00E948204882305
S1132AC071F51093070180910A018823A9F580917B
S1132AD03C01823089F589E00CC00E94B9048091E0
S1132AE03C01882349F481E080933C011092160351
S1132AF08BE00E9470022AC08091E9038F3F31F578
S1132B00E0910901EE2311F11CC01092080104C0E8
S1132B10FF27E751FC4F10821092090117C081E092
S1132B2090E002C0880F991F1A95E2F720913B01AB
S1132B30282B20933B010AC080913C018823E1F6B5
S1132B40CCCF809108018F3F19F7DFCF802F9927D1
S1132B508FBF80E090E01F910F9108951F938FB76E
S1132B60F894282F3327122F8091460B882321F0C5
S1132B702FBF81E090E013C081E08093460B8091E9
S1132B80380190913901049721F481E00E9456158F
S1132B9003C087E00E9470021FBF80E090E01F9195
S1132BA008951F9383E00E9434129927182F8823D5
S1132BB019F083E00E945615812F99271F910895DB
S1132BC0CF92DF92EF92FF920F931F9380935F0156
S1132BD06093FC09C901880F892F881F990B91956F
S1132BE08093FD09220F812F9927282B2093FE091A
S1132BF00093FF09D092DB05C092DA05F092EB0353
S1132C00E092EA034093E10386E20E9470021F917E
S1132C100F91FF90EF90DF90CF90089561E081E0F5
S1132C200E9482048823E9F48FB7F894282F33276D
S1132C308091380190913901892B11F02FBF20C068
S1132C4081E090E090933901809338012FBFDD9AA1
S1132C500E947C0624E130E040E050E00E94390705
S1132C600FC062E081E00E949C04882319F089E08F
S1132C7090E0089561E081E00E949C04882319F0AB
S1132C8080E090E0089585E090E00895EF92FF924F
S1132C900F931F9380913404843090F41092E401D4
S1132CA064E5E62EF12C012D112D2CEA32E040E0F2
S1132CB050E060E070E08091D3030E94F61105C0FB
S1132CC00E940E1683E08093E4011F910F91FF9000
S1132CD0EF9008958091E401823019F0833071F40B
S1132CE0FBCFE0913404EF5FE0933404FF27EE5F01
S1132CF0FE4F80818093D3030E944616089584304A
S1132D0021F0853051F0833079F4809123018130B2
S1132D1059F482E20E947002089580912301813067
S1132D2019F482E20E9470020895CF93DF93EC01BC
S1132D300E949F0D282F80910B022817D1F0382F65
S1132D40315030930B0213C0822F992773E0880F00
S1132D50991F7A95E1F7DC01A75EBC4FFC01EF5D9A
S1132D60FC4F88E001900D928150E1F72F5F23170B
S1132D7058F38091F2099091F3098C179D07A1F4FF
S1132D808FEF9FEF9093F3098093F2091092F50966
S1132D901092F4091092F6091092F70981E08093D9
S1132DA04C0183E10E947002DF91CF91089568E1A4
S1132DB088EF9AE00E94510B009709F44EC0FC0181
S1132DC0A1EFB1E088E10D9001928150E1F780918B
S1132DD03601882309F041C08091430181FF3DC041
S1132DE08DE28093F80A8091000190910101809313
S1132DF0090B892F99278093080B8091F0018F5F2D
S1132E008093F001815080930A0B8CEA80930B0B22
S1132E101092050BE091F10AF091F20A3097E9F073
S1132E2088EF9AE09183808312828EE18383CF01BD
S1132E300E94E30D882389F48091430182FF05C039
S1132E4084FD03C080E10E9470021092F20A109285
S1132E50F10A81E080933601D8980895CF92DF92E9
S1132E60EF92FF920F931F93CF93DF938C01F62E73
S1132E706A01E22E8FB7F894C82FDD2760E080E066
S1132E800E949C04882321F0CFBF80E090E01EC004
S1132E90CFBF0F0D111D802F80680E94CE04F82E25
S1132EA016950795802F807C0E94CE040E2D0AC0B3
S1132EB0EE2DFF27E01BF109EC0DFD1D80810E9422
S1132EC0CE0401500023A1F78F2D9927DF91CF91D4
S1132ED01F910F91FF90EF90DF90CF900895CF93C3
S1132EE0DF93CDB7DEB72C970FB6F894DEBF0FBED5
S1132EF0CDBF8FB7F894282FAE014F5F5F4FDA0133
S1132F00E1E5F6E088E001900D928150E1F78091CF
S1132F10BF039091C0038987892F99278A8780915D
S1132F20F1039091F2038B87892F99278C872FBF08
S1132F302CE060E080E691E00E942E172C960FB6FC
S1132F40F894DEBF0FBECDBFDF91CF9108951F93DC
S1132F50CF93DF93182F8FB7F894C82FDD2760E045
S1132F6080E00E949C04882321F0CFBF80E090E0A1
S1132F7005C0CFBF812F0E94CE049927DF91CF9146
S1132F801F910895EF92FF920F931F93CF93DF93B6
S1132F90182F7B01042F8FB7F894C82FDD2760E02A
S1132FA080E00E949C04882321F0CFBF80E090E061
S1132FB014C0CFBF1064812F99279093F803809396
S1132FC0F7030E94CE04182F402F5527B70180E045
S1132FD090E00E944805812F9927DF91CF911F919E
S1132FE00F91FF90EF900895C098609168017091DF
S1132FF0690141E08FE30E94C217089582E090E0E6
S113300090933C0280933B0281E08093720320E022
S113301030E080910701843011F421E030E0232B6B
S113302029F484E00E943412882319F40E94F417CE
S1133030089584E00E94561508951F920F920FB6CA
S11330400F9211242F933F934F935F936F937F932A
S11330508F939F93AF93BF93EF93FF9380913B0222
S113306090913C02019749F482E090E090933C02F5
S113307080933B020E94FE1705C0809101038F5F7D
S113308080930103FF91EF91BF91AF919F918F9135
S11330907F916F915F914F913F912F910F900FBE50
S11330A00F901F9018951F9380913B01882309F07E
S11330B04BC0109107011F3F09F046C060E00E9419
S11330C09C04882309F440C081E08093D309809153
S11330D00E028823E1F11092D30985E090E045C007
S11330E0923069F5C09A8091080120E030E08F3F6A
S11330F011F421E030E0232BE9F410930A018F3F0F
S113310019F42FEF30E00DC0282F3327F901E751D0
S1133110FC4F8081809308018F3F11F410930901C3
S113312010832093160381E080933C018BE00E947E
S1133130700205C010930A0110923C0111C08091E5
S11331403C01882369F00FC081E090E00EC08091BB
S11331500A0190913C01882319F2923021F0EFCFBB
S113316080E00E94AD0480E090E01F9108951F93D9
S1133170182F81E090E090933E0180933D011092DE
S11331800E020E9453188FB7F894992710933701B1
S11331908FBF85E00E9470021F9108951F93CF9303
S11331A0DF939FB7F894C92FDD271C2F9091070157
S11331B0981721F0CFBF81E090E03AC08FEF809361
S11331C0070130913B013323F1F48FB7F894992729
S11331D0109238068FBF0E945318CFBF11C020939E
S11331E0070181E090E002C0880F991F4A95E2F739
S11331F08095382330933B0189E00E9470021FBF01
S113320080E090E015C080E065E0E32FFF270E9496
S1133210FC4D292F492F5527CF01042E02C0959527
S113322087950A94E2F780FDDACF822F8F5FEFCF84
S1133230DF91CF911F9108951F93CF93DF938FB7A1
S1133240F894C82FDD271C2F80913B0290913C02FB
S1133250892B29F484E00E94CE18CFBF1EC010929F
S1133260720380910103882311F0B79904C00E9969
S113327008C0882319F08150809301030E94FE172F
S11332800BC081E090E090933C0280933B0210924B
S1133290010384E00E94CE181FBFDF91CF911F91DC
S11332A008950E94020EC09AC09888E00E94A71751
S11332B088E00E94A717C09A84E00E94CE180E945A
S11332C01C190895FF920F931F93CF93DF93F82E49
S11332D08B018FB7F894C82FDD2760E080E00E944F
S11332E09C04882321F0CFBF80E090E00CC0CFBFC6
S11332F08F2D0E94CE04812F99270E94CE04802F07
S11333000E94CE049927DF91CF911F910F91FF90D6
S113331008951F931FB7F89480910003882319F42C
S113332060E070E009C060E08091F00A882309F44D
S113333061E081E0682777278091D203882319F41C
S113334080E090E00AC090E080915006882309F460
S113335091E081E09827892F9927762F6627770FA8
S1133360770F770F24E0880F991F2A95E1F7826E73
S11333709262682B792B81E10E946219812F99272F
S11333808FBF1F9108958FB7F894992760915A06BB
S11333908FBF85E0689FB0011124625D7E4F706429
S11333A088E10E9462190895FF920F931F93CF93AF
S11333B0DF93C091D403D091D503EE968A81EE9722
S11333C09927182F882309F41FE1C0988091A90236
S11333D0811749F0612F77276F717070606E706884
S11333E085E10E9462191093A902F8808FB7F894BE
S11333F0082F112760E080E00E949C04882311F0CC
S11334000FBF12C00FBF8EE390E09093F803809338
S1133410F7038EE30E94CE04FA944F2D552760E003
S113342070E0CE010E944805DF91CF911F910F916A
S1133430FF9008950F931F93CF93DF93EC010FB781
S1133440F89411270E943E04FC018FE380830FBF90
S11334501092880A1092870A61E082E00E94820436
S1133460882319F085E090E075C08091D4098F5FBE
S11334708093D40981508B838FB7F894082F112738
S113348062E081E00E949C04882329F40FBF0E941B
S1133490690581E05EC0DE01DE968FB7F894992756
S11334A024E0209339068FBFD0930204C093010413
S11334B00FBFFE013196818129819927982F882792
S11334C03327822B932B80729C7C8983892F9927A5
S11334D081832981982F882733272164822B932B7A
S11334E08983892F99278183FD0114821C921FAE41
S11334F011861086178280E8868361E060933C061B
S113350040910104509102048FB7F894282F332777
S113351080913D0190913E018830910511F0019711
S113352011F02FBF15C082E090E090933E0180938C
S11335303D016093480B5093D5034093D4031092FC
S1133540C4012FBF0E94D115882311F40E94D419FD
S113355080E09927DF91CF911F910F910895CF9328
S1133560DF93DA01422F233318F082E090E05EC04B
S1133570ED018B876E83872F99278F832FB7F8945C
S113358033278091BF039091C0032FBFFD01848333
S1133590892F992785832FB7F894332780910B01BE
S11335A090910C012FBF8887892F9927898731969D
S11335B0818129819927982F8827332720643868A7
S11335C0822B932B8983892F99278183435F4C9383
S11335D04D5080910E01882359F010920E01642FF2
S11335E0CD010E941A1A9927282F8823A9F417C0FD
S11335F0842F99279093FD038093FC03B093420199
S1133600A09341018FE00E94700280910E018823F3
S113361049F489E090E00AC08FEF80930E01822F75
S1133620992704C01092DD0380E090E0DF91CF91F0
S113363008951F93809111019927019667E070E026
S11336400E941C4E682F8093110110E0462F5527CD
S1133650FA01EE0FFF1FEF57FB4FA081B1811097C6
S113366099F0E62FE695E695E695FF27EB57F54F9B
S1133670808199279A012770307002C095958795AB
S11336802A95E2F780FF0DC0CA01019667E070E059
S11336900E941C4E682F1F5F1730C1F61093110152
S11336A019C0609311016730A8F42C912D50332771
S11336B0FD0167817727762F662786819927682BF6
S11336C0792BAD0183850E94AF1A882319F082E11A
S11336D00E9470021F910895CF93DF93582FFB012E
S11336E0873018F081E090E033C0C82FDD27CC0F7D
S11336F0DD1FCF57DB4F88819981892B19F085E035
S113370090E026C079836883435F40834D50809165
S11337101101873018F480E090E01AC08385678136
S11337207727762F662726813327622B732B5093B6
S11337301101242FAF010E94AF1A9927282F882343
S113374029F087E08093110119821882822F99272A
S1133750DF91CF910895AF92BF92CF92DF92EF9213
S1133760FF920F931F93CF93DF9380914B01882394
S113377009F0B8C0E091E703F091E803108280916A
S1133780F2099091F309E091E703F091E803828351
S1133790892F992781838091D101882329F08091F1
S11337A0F4099091F50920C08091F2099091F309F0
S11337B0C091F409D091F5092FEF8F3F920781F45E
S11337C0E091E703F091E803C4838D2F9927838365
S11337D0E091E703F091E8038081806880830CC066
S11337E00E94040A8C0F9D1FE091E703F091E80307
S11337F08483892F99278383EFE7EE2EE3E0FE2E5F
S113380068E0C7010C970E94380A8C010B5F1F4FB8
S113381040E0CC24AA24BB2473E0D72E8091480135
S1133820992701968A0D9B1D6AE070E00E941C4E48
S11338309C019927880F991FDC0153E0AA0FBB1F35
S11338405A95E1F7A81BB90BAB56BB4FED018D811F
S1133850992780FF11C081FF0FC08D919C914D9DD0
S1133860F0011124E00FF11F8183892F99278083B0
S1133870888582834F5FC22EE9E0AE16B10429F039
S11338800894A11CB11C4E3048F2C09248018091AA
S113389047018F5F809347018150E7018983842F1B
S11338A08F7080937F038FEF8093790380937A03E3
S11338B080E780937E0383E0489FC0011124895FE1
S11338C0482F552763E773E081E00E946C1B99271A
S11338D0882321F481E080934B0104C0843011F4E7
S11338E010924901DF91CF911F910F91FF90EF90BA
S11338F0DF90CF90BF90AF900895AF92BF92CF92D8
S1133900DF92EF92FF920F931F93BC018091EA0123
S1133910882309F479C080916F03882309F074C067
S113392081E080936F0360938701872F99278093A9
S113393086018EED6030780721F0AA24BB2465014E
S113394008C0A0906201B0906301C0906401D0905F
S11339506501A0928B0111270D2DFC2CEB2CE0921C
S11339608A01960144275527209389018D2D992793
S1133970AA27BB27E6E8F1E08283FF24002711276A
S1133980102F0F2DFE2CEE24B82FAA279927882755
S1133990332744275527A90133272227822B932B2A
S11339A0A42BB52B2A2D332744275527822B932B61
S11339B0A42BB52BE82AF92A0A2B1B2BE114F104BA
S11339C00105110511F410E010C060507E4D21F482
S11339D01AE066E476E003C010E060E070E0412F96
S11339E055278CE891E00E94954E8FEF80938001DB
S11339F08093810180E6809385011A5F412F6AE7F5
S1133A0071E085E00E946C1B1F910F91FF90EF9075
S1133A10DF90CF90BF90AF9008958FB7F894209126
S1133A20940420FD02C020E004C02E7F209394045F
S1133A3021E099278FBF222339F080E09EED0E9478
S1133A407D1C8AE20E94700208951F938FB7F89438
S1133A50282F332780913A01882311F02FBF30C0DB
S1133A602FBF80B39927A6E096958795AA95E1F78D
S1133A70182F11709091F5038091F6038917D9F0EE
S1133A801917C9F484E090E09093390180933801C8
S1133A908FB7F894992721E020933A018FBF60E013
S1133AA070E08DE10E9462190E946F17C09AC0985D
S1133AB083E00E9470021093F60388E00E94700273
S1133AC01F9108951F93182F882321F488E00E94E2
S1133AD0DD1208C01092500180E00E94C313812FB0
S1133AE00E9408151F9108951F93182F8823B1F47D
S1133AF08091BD038823D1F481E08093BD0380933A
S1133B00FE0384E08093F0098091430B98E08927B9
S1133B108093430B81E00E94F30808C01092500187
S1133B2080E00E94C313812F0E9408151F910895FD
S1133B30BF92CF92DF92EF92FF920F931F93B82E12
S1133B408091CD01882339F085E080935F0186E27E
S1133B500E9470021DC08B2D9927FC01EE0FFF1FE0
S1133B60E80FF91FEC5AFD4F20813181BB2011F47D
S1133B7061E601C060E6B1E0CB2ED12CEE24FF2437
S1133B8000E010E040E08AE00E94E015B092930467
S1133B901F910F91FF90EF90DF90CF90BF90089509
S1133BA0CF92DF92EF92FF920F931F938091CD01FA
S1133BB0882339F085E080935F0186E20E947002D9
S1133BC029C040912105842F9927FC01EE0FFF1F86
S1133BD0E80FF91FDF01AC5ABD4F2D913C91EA5A11
S1133BE0FD4F808182FF06C0442311F068E807C0BE
S1133BF069E805C0442311F063E801C066E801E008
S1133C00C02ED12CEE24FF2400E010E040E089E037
S1133C100E94E0151F910F91FF90EF90DF90CF90DD
S1133C200895CF92DF92EF92FF920F931F93982FF4
S1133C3080915E01882319F085E090E04AC0E92F65
S1133C40FF27E131F105A8F4E758FF4FEE0FFF1FFE
S1133C500590F491E02D099483E00E9402039927D2
S1133C60282F882339F481E080935E0180E090E07E
S1133C7030C021E0822F99272CC0CC24DD2476018A
S1133C8000E010E020E030E040E050E063E0E4CF0A
S1133C90CC24DD24760100E010E020E030E040E0B8
S1133CA050E061E0D9CFCC24DD24760100E010E0BF
S1133CB020E030E040E050E062E0CECFCC24DD24D0
S1133CC0760100E010E020E030E040E050E060E009
S1133CD0C3CF1F910F91FF90EF90DF90CF90089585
S1133CE0BF92CF92DF92EF92FF920F931F93B82E61
S1133CF080915E01882319F085E090E04CC0EB2DA3
S1133D00FF27E131F105B8F4E657FF4FEE0FFF1F2F
S1133D100590F491E02D099482E00E940203992712
S1133D20282F882349F481E080935E01B092420BEE
S1133D3080E090E030C021E0822F99272CC0CC2471
S1133D40DD24760100E010E020E030E040E050E0C7
S1133D5063E0E2CFCC24DD24760100E010E020E033
S1133D6030E040E050E061E0D7CFCC24DD247601A0
S1133D7000E010E020E030E040E050E062E0CCCF32
S1133D80CC24DD24760100E010E020E030E040E0C7
S1133D9050E060E0C1CF1F910F91FF90EF90DF9052
S1133DA0CF90BF900895EF92FF920F931F9380914D
S1133DB0E401823009F04EC080910C029927982FBB
S1133DC0882720910D023327822B932BE816F906BE
S1133DD0A9F08091D303813049F0813028F08230FA
S1133DE049F08330B9F508C08AE001C08DE00E9433
S1133DF0701E30C08BE0FBCF8CE0F9CF40911703ED
S1133E004F5F409317038091B4024817B0F481E0E8
S1133E108093E4015527440F551F40585F4F662790
S1133E20772732E0E32EF12C012D112D2CE032E026
S1133E308091D3030E94F6110DC0E0913404EF5F2A
S1133E40E0933404FF27EE5FFE4F80818093D30319
S1133E500E9446161F910F91FF90EF900895CF9204
S1133E60EF92FF920F931F93873061F0883018F41C
S1133E70863079F405C0883039F0893051F406C0B1
S1133E8080E005C082E003C083E001C081E00E94BD
S1133E90D31E1F910F91FF90EF90CF9008951F9321
S1133EA0182F8091F50A9091F60A6817790789F41A
S1133EB0413079F4265E334061F40E94E80880E0E2
S1133EC00E940713112311F48BE101C08CE10E94BD
S1133ED070021F910895EF92FF920F931F93F62E95
S1133EE0E22E9FB7F894292F332790912101981738
S1133EF011F02FBF9BC02FBF8FB7F894282F332703
S1133F0080915601813041F582E0809356012FBFA4
S1133F108FB7F89499275093D7034093D6031093FF
S1133F20150300931403E092C5016093610B109292
S1133F30F809109257018FBF0E94DF088FB7F894D9
S1133F40182F9091D905916C9F7E9093D9056F2D70
S1133F50772760FD0BC011C0882321F42FBF84E0B4
S1133F6090E06EC02FBF85E090E06AC090629093AD
S1133F70D90584E0809356015CC0EE2009F448C062
S1133F8083E0809356012091F8094091C5012417DC
S1133F9078F4E0911403F0911503E20FF11D808190
S1133FA0809373002F5F2093F8099093740045C0A9
S1133FB0292F2E7F2093D9058091610B81FF07C0A3
S1133FC08D7F8093610B20612093D90503C09E7778
S1133FD09093D9058091D9058093740081E08093F2
S1133FE0560120911403309115036091D60370910A
S1133FF0D70380912101882319F08130F1F404C0A2
S113400080E00E944F1F19C080E00E94571315C022
S113401061FF08C085E0809356019F7B9061909377
S1134020D90507C081E0809356011FBF81E090E06D
S113403007C08091D905809374001FBF80E090E091
S11340401F910F91FF90EF9008950F931F932FB737
S1134050F894332780913D028093200183E080937C
S113406055012FBF209120018FB7F89499272093F1
S113407021018FBF222319F02130B1F40AC04091ED
S1134080F50A5091F60A06EE13E021E063E080E0C1
S113409009C0409176015091770103E41BE021E0CF
S11340A063E081E00E946B1F1F910F9108951F939D
S11340B0182F0E94DF088091D9058A7F8093D90543
S11340C0809374000E94DF088091D90584608093F6
S11340D0D9058093740081E0809356018091570143
S11340E08823C1F420911403309115034091C50134
S11340F06091D6037091D70380912101882319F030
S1134100813041F404C0812F0E944F1F03C0812FCE
S11341100E9457131F9108959F92AF92BF92CF921E
S1134120DF92EF92FF920F931F93982EF9018091E3
S1134130E401813009F4DEC0813008F481C08430A8
S113414009F018C183E08093E4018091FA0988237F
S113415009F010C1A280BB24CC24DD24DC2CCB2CA0
S1134160BA2CAA242081332744275527522F4427C9
S11341703327222781819927AA27BB27DC01992786
S11341808827282B392B4A2B5B2B83819927AA2735
S1134190BB27282B392B4A2B5B2BA22AB32AC42AF0
S11341A0D52AE090CB03FF2400271127102F0F2DD1
S11341B0FE2CEE242091C903332744275527522F80
S11341C04427332722278091CA039927AA27BB278C
S11341D0DC0199278827282B392B4A2B5B2B8091CC
S11341E0CC039927AA27BB27282B392B4A2B5B2BD7
S11341F0E22AF32A042B152BAE14BF04C006D10601
S1134200C9F48091C803843099F440E050E060E040
S113421070E0892D0E9453066093DE017093DF01E4
S11342208093E0019093E10181E00E94F205A2C035
S113423081E001C082E0809366010E9448149AC024
S1134240CC2009F097C0E090AE02FF24002711278C
S1134250102F0F2DFE2CEE242091AC02332744277F
S11342605527522F4427332722278091AD029927BF
S1134270AA27BB27DC0199278827282B392B4A2B0F
S11342805B2B8091AF029927AA27BB27282B392BB8
S11342904A2B5B2BE22AF32A042B152B8FEFE8160B
S11342A08FEFF8068FEF08078FEF1807A9F0109229
S11342B0170381E08093E401E2E0EE2EF12C012D5E
S11342C0112D2CE032E040E850E060E070E0809195
S11342D0D3030E94F6114EC0E0913404EF5FE093E3
S11342E03404FF27EE5FFE4F80818093D3030E9446
S11342F0461640C082E08093E4016091170377275B
S11343008827992720E534E040E050E00E94DD4D05
S1134310AB01BC0140585E4F6F4F7F4F8091D30378
S1134320813079F0813028F0823099F0833011F5B2
S113433018C0EE24FF2400E514E020E030E086E01D
S113434017C0EE24FF2400E514E020E030E089E00B
S11343500FC0EE24FF2400E514E020E030E087E005
S113436007C0EE24FF2400E514E020E030E088E0FC
S11343700E9455111F910F91FF90EF90DF90CF9005
S1134380BF90AF909F900895EF92FF920F931F9369
S1134390CF93DF93CDB7DEB728970FB6F894DEBF7F
S11343A00FBECDBF1092FB030091100610911106B1
S11343B080917B0A882319F0813049F404C080E09D
S11343C00E9471120AC081E00E94711213C08823F6
S11343D021F0813009F050C00DC00093F401812F09
S11343E099278093F30181E00E94700282E00E9489
S11343F0700242C00F5C114008F03EC08FB7F894C1
S113440048E050E08E010F5F1F4FB80180EF9FE03E
S11344100E949C0F8091DE019091DF01A091E00148
S1134420B091E1018B839C83AD83BE838FEF8F8337
S1134430188680910001909101019A838983780103
S113444080EF9FE0F70161917F018C010F5F1F4FA7
S11344500E94AD4EFFE0083F1F0711F0C801F2CFE4
S1134460E199FECF88E190E029E00FB6F894A89591
S113447081BD0FBE21BDFFCF28960FB6F894DEBFD5
S11344800FBECDBFDF91CF911F910F91FF90EF90A1
S11344900895882321F488E00E94720908951092F7
S11344A0500180E00E94C3130E943308882311F056
S11344B00E94510808958823A9F48091BD0388239C
S11344C0E1F481E08093BD0380936A0184E08093EA
S11344D0F0098091430B88608093430B81E00E9434
S11344E0F30808951092500180E00E94C3130E94C3
S11344F03308882311F00E945108089580918B0A93
S1134500882309F45AC010928B0A8091C60188232B
S113451041F11092C601409112062091E60333271F
S1134520842F9927019702C0359527958A95E2F73C
S113453020FF0AC0473021F0483009F03EC002C0D5
S113454080E008C080E00AC0473019F04830A9F57F
S113455004C081E00E944922089581E00E945B2208
S113456008958091890A882341F11092890A409123
S113457012062091E6033327842F9927019702C05E
S1134580359527958A95E2F720FD0BC0473019F041
S1134590483099F402C080E00AC080E00E94741D93
S11345A00895473019F0483041F404C081E00E9476
S11345B0621D089581E00E94741D089580918B0A04
S11345C0882351F110928B0A8091C601882381F0CF
S11345D01092C60180911206873019F0883041F498
S11345E004C081E00E94492203C081E00E945B2252
S11345F08091890A882381F01092890A8091120699
S1134600873019F0883041F404C081E00E94621DB3
S1134610089581E00E94741D08951F920F920FB6B1
S11346200F9211242F933F934F935F936F937F9334
S11346308F939F93AF93BF93EF93FF930E94DF08F1
S113464080915601843009F4DFC0863021F0833034
S113465009F007C149C090917100987F809157017A
S1134660813041F49034F1F583E080935601209138
S1134670F8094FC09831B1F583E0809356019091C9
S1134680F8094091C5012091D905941708F47DC01B
S1134690922F9E7F9093D9058091610B81FF07C073
S11346A08D7F8093610B90619093D90503C02E7721
S11346B02093D9058091D9058093740081E080937B
S11346C0560120911403309115036091D603709123
S11346D0D70380912101882309F48EC0813009F029
S11346E0C0C08EC084E0A5C0809157019091F809A4
S11346F0813009F044C0E0911403F0911503E90FEF
S1134700F11D8091730080832091F8092F5F20931D
S1134710F8098091C5012817A0F433279927019738
S11347202817390749F48091610B82FD05C08091F7
S1134730D9058F7B8093D9058091D9058093740026
S113474090C09091D905292F2E7F2093D90580916F
S1134750610B81FF09C08D7F8093610B20612093E1
S1134760D9058091710003C09E779093D9058091FB
S1134770D9058093740081E08093560172C0409102
S1134780C5012091D905941778F4E0911403F091B0
S11347901503E90FF11D8081809373009F5F90934F
S11347A0F809209374005DC0922F9E7F9093D905E1
S11347B08091610B81FF07C08D7F8093610B9061B5
S11347C09093D90503C02E772093D9058091D905FC
S11347D08093740081E080935601209114033091FA
S11347E015036091D6037091D7038091210188232A
S11347F019F08130B1F504C080E00E944F1F31C030
S113480080E00E9457132DC08091610B8E7F8093AE
S1134810610B9091D9059F7D9093D905809171008A
S1134820887F883049F080917100887F803121F041
S113483081E00E94572015C0392F30643093D90588
S11348409091D603990F20E080915701813009F4AB
S113485021E0922B9093730086E08093560130936D
S11348607400FF91EF91BF91AF919F918F917F91D0
S11348706F915F914F913F912F910F900FBE0F90C9
S11348801F901895CF92DF92EF92FF920F931F9390
S1134890CFB6F894DD240E94B503DC01CB0166E4B5
S11348A070E00E94084E2BE0E22EF12CE80EF91E77
S11348B0F092450BE092440B0E947C0600271127DE
S11348C0A80197010E943907CFBE1F910F91FF9055
S11348D0EF90DF90CF9008951F93CF93DF938FB71E
S11348E0F894C82FDD271C2F80913D0190913E0143
S11348F00897C9F489E00E94A71783E00E94CE18A4
S1134900C09A81E090E090933E0180933D018FB77F
S1134910F894992723E0209337018FBF85E00E9404
S11349207002CFBF30C0C0988091480B882311F02B
S113493085E001C084E00E94A71783FD09C080E0E0
S11349400E94A71783FF04C085E090E020E003C025
S113495083E090E021E090933E0180933D01C09A72
S11349601FBF222341F01092C40183E00E94CE189D
S11349700E94422408C00E947C0620E431E040E00A
S113498050E00E943907DF91CF911F9108951F9342
S1134990CF93DF938FB7F8949927109107018FBFB6
S11349A0123009F465C0133030F4112359F011307A
S11349B009F0ACC048C0133009F474C0143009F0D5
S11349C0A5C0A2C0C0988FB7F894C82FDD278091E6
S11349D03801909139010297A1F583E090E090931A
S11349E039018093380168E170E08DE10E94621919
S11349F081E08093F50310923A0180B3992736E061
S1134A00969587953A95E1F7817090708093F603B7
S1134A1088E00E94700281E00E94A7176FE772E0AD
S1134A208CE10E9462190E94C3190E94891966E5EB
S1134A307AE287E10E9462196FEF70E885E10E94D3
S1134A406219CFBF63C0C09886E00E94A7170E9476
S1134A50C3190E9489190E946F17C09AC09883E0F5
S1134A600E94A717C09A81E00E94CE1887E045C033
S1134A70C0988FB7F894C82FDD2760E080E00E94CB
S1134A809C04882311F0CFBF0AC0CFBF83E50E94E6
S1134A90CE0480E00E94CE0480E00E94CE04C09A3E
S1134AA082E02FC08FB7F894992720913D018FBFE2
S1134AB0243039F0283041F0223011F50E94D41905
S1134AC025C00E946C2422C0C09889E00E94A717C8
S1134AD0C09A83E00E94CE188FB7F894992721E0FA
S1134AE030E030933E0120933D018FBF8FB7F8949F
S1134AF09927109337018FBF85E00E94700206C08A
S1134B0083E00E94CE1802C00E94F417DF91CF9177
S1134B101F91089578941F920F920FB60F9211244B
S1134B202F923F924F925F926F927F928F929F92B9
S1134B30AF92BF92CF92DF92EF92FF920F931F93A7
S1134B402F933F934F935F936F937F938F939F9391
S1134B50AF93BF93CF93DF93EF93FF93C6B5D7B5CE
S1134B608FB7F894282E0E947C069B012C1B3D0BCA
S1134B70442755272B013C01421A530A640A750A3B
S1134B8080913D0190913E018530910521F0069779
S1134B9009F0E3C0C2C086E090E090933E018093A8
S1134BA03D0131E0332E30926E0310923F0180E0DC
S1134BB00E941E0EE091D403F091D503FE96418627
S1134BC0BB27A72D962D852D8087C301AA27BB2738
S1134BD08783872D9927AA27BB278683E091D4034F
S1134BE0F091D503FE968581FE97882309F484C04D
S1134BF06081655077274F01860E971EF40120814E
S1134C00E1808281A3809927AA27BB27BA2FA92FE5
S1134C10982F8827332744275527522F4427332793
S1134C202227FF24002711278701FF24EE242E29A1
S1134C303F29402B512BBB24CC24DD242A293B299A
S1134C404C295D29822B932BA42BB52B8419950910
S1134C50A609B7098383292F3A2F4B2F552722837F
S1134C609D014427552721838B2F9927AA27BB27EA
S1134C708083C09824E0A40180E090E00E942E1775
S1134C80C09AF4012081E1808281A3809927AA2718
S1134C90BB27BA2FA92F982F8827332744275527B6
S1134CA0522F442733272227FF2400271127870167
S1134CB0FF24EE242E293F29402B512BBB24CC2446
S1134CC0DD242A293B294C295D29822B932BA42BF3
S1134CD0B52B840D951DA61DB71D8383292F3A2F4F
S1134CE04B2F552722839D014427552721838B2F42
S1134CF09927AA27BB278083E091D403F091D50399
S1134D00818185FF02C030920E0283E00E94CE189A
S1134D1087B78F7E87BF84997AC010926E0381E033
S1134D200E941E0EE091D403F091D503818185FF8A
S1134D300FC087E090E090933E0180933D010E9474
S1134D407C0620E031E040E050E00E94390703C0D7
S1134D5080E00E94B718849B5AC080913F01882349
S1134D6091F580916E03882371F511E010936E0321
S1134D700E941E0E80B32091730A283098F4E091AB
S1134D807C0AE20FFF27E770F070EE0FFF1FEE0FB3
S1134D90FF1FE75FF54F40825182628273822F5F6B
S1134DA02093730A10933F01D093FA03C093F9033D
S1134DB084992DC0992744E0969587954A95E1F703
S1134DC0182F117001C010E080916E038130F9F446
S1134DD010926E030E941E0E10923F011123B9F42B
S1134DE08091F9039091FA03C81BD90B2A9778F4A0
S1134DF08091730A882319F081508093730A8091FB
S1134E00D4039091D503009711F00E940E0E2FBE8B
S1134E10FF91EF91DF91CF91BF91AF919F918F91CE
S1134E207F916F915F914F913F912F911F910F91BE
S1134E30FF90EF90DF90CF90BF90AF909F908F90B6
S1134E407F906F905F904F903F902F900F900FBE88
S1134E500F901F90189578941F920F920FB60F928F
S1134E6011241F932F933F934F935F936F937F93DB
S1134E708F939F93AF93BF93EF93FF9387B78F7EE7
S1134E8087BF78941FB7F8948091E2039091E3036D
S1134E90A091E403B091E5030097A105B10509F0E1
S1134EA051C080913D0190913E018530910561F1A1
S1134EB08630910530F48330910549F0049781F5EB
S1134EC01AC087309105F1F0089751F514C0869BFC
S1134ED00FC084E090E090933E0180933D010E94D6
S1134EE07C0627E030E040E050E00E94390718C01B
S1134EF00E94422415C00E94D115882389F40E947F
S1134F006C240EC080E00AC089E00E94A71781E0EB
S1134F100E941E0E83E00E94CE1887E00E94B718FC
S1134F208091380190913901019771F482E090E009
S1134F309093390180933801DE98DE9A80E00E94D4
S1134F40561502C00E949906812F99278FBFFF91A1
S1134F50EF91BF91AF919F918F917F916F915F91ED
S1134F604F913F912F911F910F900FBE0F901F9063
S1134F701895EF92FF920F931F93CF93DF938B01BA
S1134F808091F7039091F80386FF45C18F7B8F339F
S1134F9009F093C1C0916801D0916901588150937F
S1134FA03F0280913B0290913C028530910509F4C7
S1134FB043C08630910509F48AC0029709F024C1E0
S1134FC085E090E090933C0280933B024091EF0196
S1134FD0852F99270196242F3327281739074CF159
S1134FE0B79906C00E9904C0451B41504093EF0188
S1134FF040913F024034E8F44423A1F0BE016F5FC6
S11350007F4F483018F047E050E007C086E090E05A
S113501090933C0280933B02552780E090E00E94ED
S113502048054BC110927203C09A84E00E94CE18C6
S1135030E8C00E94511941C186E090E090933C027F
S113504080933B028091D203882309F439C0809174
S113505050068823A9F5898185FF32C08F814E814E
S11350602FB7F89433276091F1037091F2032FBFA7
S11350709927982F88275527842B952B86179707D0
S113508059F08F812E819927982F88273327822BD7
S1135090932B8F5F9F4FA1F489818770813081F4B6
S11350A0C09AC0988AE00E94A717C09AC0984091FD
S11350B03F0247502896BE018FE30E94C217FDC0ED
S11350C040913F02475055272896BE01A6CFC09A6B
S11350D080910103882339F484E00E94CE188091E2
S11350E00103882311F0B7990AC00E9B08C0909160
S11350F0730A992321F080913F028B3038F4809118
S11351006801909169010E940E0E3EC0913009F52C
S1135110E0917C0AFF27EE0FFF1FEE0FFF1FE75FF2
S1135120F54F2081318142815381E0916801F091F2
S11351306901FE962187BB27A52F942F832F808793
S1135140CA01AA27BB278783252F3327442755273E
S1135150268380917C0A9927019668E070E00E947A
S11351601C4E80937C0A8091730A81508093730A49
S1135170882351F080916801909169010E940E0E7C
S113518010927C0A1092730A80913F02FE01E80F8C
S1135190F11D808187FF35C0012B99F1698167700A
S11351A02091680130916901623039F5C091D403CE
S11351B0D091D503209729F180913D0190913E0132
S11351C00797F9F49B81F90183819817D1F487B784
S11351D08F7E87BFDE01DE96908181E0FD018483AE
S11351E0F901E90FF11D829131968C9380818F77BB
S11351F08FAF80E00E94B71804C0613011F48CE0D6
S11352002AC00E941C1959C010927203C09A84E0EB
S11352100E94CE1852C08E3309F04FC0C09A8091BC
S11352203D0190913E010897C9F4C09889E00E941D
S1135230A717C09A83E00E94CE1881E090E0909373
S11352403E0180933D018FB7F894992723E0209382
S113525037018FBF85E00E9470022FC08091480BF8
S1135260882349F484E090E090933E0180933D01CB
S11352700E946C2422C083E00E94CE1883E090E058
S113528090933E0180933D010E94B503DC01CB0164
S113529066E371E00E94084E4BE0E42EF12CE80E28
S11352A0F91EF092E301E092E2010E947C060027DD
S11352B01127A80197010E943907DF91CF911F910F
S11352C00F91FF90EF9008951F920F920FB60F92D7
S11352D011242F933F934F935F936F937F938F93F7
S11352E09F93AF93BF93EF93FF932FB1E0918D05FD
S11352F0F0918E05309739F0809135049091360401
S1135300E80FF91F208380913504909136040196AB
S1135310909336048093350480E00E94B304409156
S11353207801509179018091350490913604841765
S1135330950718F40E94DA041CC060918D057091E1
S11353408E058091F30A9091F40A10928E051092C2
S11353508D051092F40A1092F30A109279011092BA
S1135360780110923604109235042FB120E00E9487
S1135370B927FF91EF91BF91AF919F918F917F9149
S11353806F915F914F913F912F910F900FBE0F90AE
S11353901F901895AF92BF92CF92DF92EF920F9326
S11353A01F932091170633272150304081E090E06D
S11353B0A0E0B0E004C0880F991FAA1FBB1F2A9564
S11353C0D2F78093130690931406A0931506B09316
S11353D016060E94B503A0901306B0901406C09060
S11353E01506D0901606882799270894A108B108B5
S11353F0C108D1086A217B218C219D210894A11C1C
S1135400B11CC11CD11CA60EB71EC81ED91EA09269
S11354101306B0921406C0921506D0921606809117
S113542018068E7F80931806809176058D7F809371
S113543076050E948E03AB01BC0181E0E82E960143
S1135440850188E00E946F031F910F91EF90DF9018
S1135450CF90BF90AF90089580911706893029F0BE
S113546089E0809317060E94CA290895AF92BF92DB
S1135470CF92DF92EF920F931F93882389F00E94BB
S1135480B5035B016C018FEF90E0A0E0B0E0A822CF
S1135490B922CA22DB2280E190E0A0E0B0E010C093
S11354A00E94B5035B016C018FE790E0A0E0B0E0DF
S11354B0A822B922CA22DB2280E890E0A0E0B0E072
S11354C0A80EB91ECA1EDB1E0E948E03AB01BC01CE
S11354D091E0E92E9601850187E00E946F031F91F8
S11354E00F91EF90DF90CF90BF90AF900895EF921F
S11354F00F931F93182F1092500180E00E94C31342
S1135500112371F40E948E03AB01BC0121E0E22E51
S11355100BE010E020E030E085E00E946F0306C05D
S11355200E943308882311F00E9451081F910F91A3
S1135530EF9008958091BD03882309F11092BD0373
S113554080916A01882349F010926A018091F009E0
S1135550843019F481E00E94772A8091FE03882325
S113556071F01092FE038091F009843041F410929E
S1135570500180E00E94C31381E00E940815089541
S11355808091BD03882309F44BC01092BD03809120
S11355906A018823D9F010926A014091F0092091A0
S11355A0430B3327842F9927019702C035952795FC
S11355B08A95E2F720FF04C0443091F580E003C0EF
S11355C0443071F581E00E94772A08958091FE03AA
S11355D0882331F11092FE034091F0092091430B8E
S11355E03327842F9927019702C0359527958A95EB
S11355F0E2F720FD0BC0443099F41092500180E092
S11356000E94C31380E00E9408150895443041F4B9
S11356101092500180E00E94C31381E00E9408159B
S11356200895AF92BF92CF92DF92EF920F931F93A0
S11356305B016C010E948E03AB01BC0131E0E32EDF
S11356409601850184E00E946F031F910F91EF90F2
S1135650DF90CF90BF90AF900895CF92DF92EF92FA
S1135660FF920F931F936C017B010E94B503DC0131
S1135670CB01B6010E94084EE80EF91E002711273F
S1135680C801B7010E94112B1F910F91FF90EF9059
S1135690DF90CF9008950F931F93CF93DF93EC0186
S11356A0E0914401FF27EE0FFF1FEB52F64F0081FC
S11356B01181662329F06CE170E08CE190E031C047
S11356C08091430183FF3FC0EE968C81EE9788233F
S11356D0D1F58F819927982F88272E813327822B04
S11356E0932B0E94EC09982F8F3F71F08EE0989FC6
S11356F0F0011124EB56FB4F85858F5F858785303C
S113570018F0CF010E94650A83E10E947002F8013B
S1135710838181508383882339F067E070E087E0D8
S113572090E00E942D2B3FC00E94800A809143018B
S11357308F7E8093430167E070E087E090E00E94F1
S11357402D2B40E02CC00E94800A809143018F7E63
S11357508093430167E070E087E090E00E942D2B86
S11357608F819927982F88272E813327822B932B7B
S11357700E94EC09982F8F3F89F08EE0989FF001EA
S11357801124EB56FB4F84858F5F848785858F5F5B
S11357908587853018F0CF010E94650A41E0BE017B
S11357A0C8010E94BA0FDF91CF911F910F91089504
S11357B0CF92DF92FF920F931F93CF93DF93CDB7D6
S11357C0DEB722970FB6F894DEBF0FBECDBF80912F
S11357D0430184FDBAC090E080914601882309F416
S11357E091E0992309F0B1C08091D101882359F443
S11357F020E08091F2099091F3098F5F9F4F09F0A7
S113580021E0222331F0CE0101960E94260B882349
S113581039F060E177E280E090E00E94112B95C0BE
S1135820E0914401FF27EE0FFF1FEB52F64F00817A
S11358301181D801ED91FC91F080C090F209D090D3
S1135840F309CF010E94A50A20E09091CE018917A7
S113585008F421E0222359F00E94800AF801808193
S113586091810E94E80AC8010E94070B6BC08091D5
S1135870D101D801ED91FC91882381F0A091F3032B
S1135880B091F4038AE401900D928150E1F760E055
S1135890F801808191810E944B2B57C089819A81A4
S11358A08787892F99278687D801ED91FC911197D5
S11358B084858F7384874D915C91DA011196FD0183
S11358C021813327322F2227FA018181992780628F
S11358D0282B392B2183232F3327FD01218380910A
S11358E0430188608093430180FF0BC0D801ED9190
S11358F0FC91848580648487809143018E7F8093AA
S11359004301D801ED91FC91C6828D2D992787839F
S113591081E78387B3EFFB0E4F2D5527BF0180E04E
S11359200E946C1B9927882331F480914301806184
S1135930809343010AC0823041F4D801ED91FC9177
S11359408FE3808380E10E94700222960FB6F89460
S1135950DEBF0FBECDBFDF91CF911F910F91FF909E
S1135960DF90CF900895AF92BF92CF92DF92EF92E3
S11359700F931F935B016C010E948E03AB01BC016A
S1135980E1E0EE2E9601850182E00E946F031F91F3
S11359900F91EF90DF90CF90BF90AF900895EF926A
S11359A0FF920F931F938091130190911401A09182
S11359B01501B0911601B695A79597958795809393
S11359C0690390936A03A0936B03B0936C030E94E2
S11359D0B503E0906903F0906A0300916B031091A2
S11359E06C03A80197010E942F4E6E0D7F1D801F2E
S11359F0911F6093690370936A0380936B03909380
S1135A006C031092EF090E94B32C1F910F91FF9029
S1135A10EF90089580E890E0A0E0B0E08093130157
S1135A2090931401A0931501B09316010E94CF2CFA
S1135A300895AF92BF92CF92DF92EF920F931F938C
S1135A405B016C010E948E03AB01BC01A1E0EA2E54
S1135A509601850186E00E946F031F910F91EF90DC
S1135A60DF90CF90BF90AF9008951F93A39AAB9807
S1135A7017981F9A89B78F7789BF179A1F9AAB987F
S1135A8080E0AB9AAB988F5F8930D9F7179A1F9A49
S1135A90AB98AB9A1F98AB98AB9A1F9AAB9880912E
S1135AA0CF019091D0018F7190709093D001809329
S1135AB0CF010E949C090E94AA09882329F0109210
S1135AC04D0181E090E056C08091CF019091D001CA
S1135AD086309105D1F18730910538F483309105F2
S1135AE071F0059709F044C018C08730910509F199
S1135AF04E97F1F56BE070E080E090E017C01798E6
S1135B001F9A80E00E94B60980914E0180FD0AC070
S1135B106AE471E080E090E009C017981F9A80E081
S1135B200E94B6096AEF70E080E090E00E94192DAF
S1135B301FC00E94D109182F0E94D1090E94E709B1
S1135B4010934E0186E10E9470028091F1090E9437
S1135B509C090E94AA09882321F081E080934F01C7
S1135B6004C08091F10980934E0186E10E94700285
S1135B7080E090E01F9108958FB7F89499272091C1
S1135B80590620931A0123E0209351018FBF2091DD
S1135B901A01222319F02130F1F524C08091170154
S1135BA0882399F080914D01882379F481E08093D2
S1135BB04D0183E090E09093D0018093CF01109247
S1135BC0F70A0E94352D882331F180E00E947B136F
S1135BD0E0910601FF27EE0FFF1FED50FE4F1182EB
S1135BE01082089580911701882391F080914D01CE
S1135BF0882371F420934D0185E090E09093D001C7
S1135C008093CF012093F70A0E94352D882319F041
S1135C1081E00E947B130895AF92BF92CF92DF92EE
S1135C20EF92FF920F931F930E948E037B018C01CE
S1135C3060917705709178058091790590917A0546
S1135C40A0906D01B0906E01C0906F01D090700172
S1135C50A114B104C104D10409F44EC0EFB7F894FF
S1135C602091DC0520FD36C0A8019701261B370BC7
S1135C70480B590B2A153B054C055D05C8F4A21ABF
S1135C80B30AC40AD50A80916D0190916E01A09166
S1135C906F01B0917001821B930BA40BB50B809321
S1135CA06D0190936E01A0936F01B093700115C0C4
S1135CB081E090E0A0E0B0E080936D0190936E01EC
S1135CC0A0936F01B093700101E0A02EB12CC12C00
S1135CD0D12C03C02E7F2093DC058E2F99278FBFF4
S1135CE00E948E03AB01BC0111E0E12E96018501F7
